{
	"ArrayType.sol": {
		"ArrayType3": {
			"abi": [
				{
					"inputs": [
						{
							"internalType": "uint256",
							"name": "x",
							"type": "uint256"
						}
					],
					"name": "setArr",
					"outputs": [],
					"stateMutability": "nonpayable",
					"type": "function"
				},
				{
					"inputs": [],
					"name": "showArr",
					"outputs": [
						{
							"internalType": "uint256[2][2]",
							"name": "",
							"type": "uint256[2][2]"
						}
					],
					"stateMutability": "view",
					"type": "function"
				}
			],
			"devdoc": {
				"kind": "dev",
				"methods": {},
				"version": 1
			},
			"evm": {
				"assembly": "    /* \"ArrayType.sol\":925:1160  contract ArrayType3 {... */\n  mstore(0x40, 0x80)\n    /* \"ArrayType.sol\":952:982  uint[2][2] arr = [[1,2],[2,3]] */\n  mload(0x40)\n  dup1\n  0x40\n  add\n  0x40\n  mstore\n  dup1\n  mload(0x40)\n  dup1\n  0x40\n  add\n  0x40\n  mstore\n  dup1\n    /* \"ArrayType.sol\":971:972  1 */\n  0x01\n    /* \"ArrayType.sol\":952:982  uint[2][2] arr = [[1,2],[2,3]] */\n  0xff\n  and\n  dup2\n  mstore\n  0x20\n  add\n    /* \"ArrayType.sol\":973:974  2 */\n  0x02\n    /* \"ArrayType.sol\":952:982  uint[2][2] arr = [[1,2],[2,3]] */\n  0xff\n  and\n  dup2\n  mstore\n  pop\n  dup2\n  mstore\n  0x20\n  add\n  mload(0x40)\n  dup1\n  0x40\n  add\n  0x40\n  mstore\n  dup1\n    /* \"ArrayType.sol\":977:978  2 */\n  0x02\n    /* \"ArrayType.sol\":952:982  uint[2][2] arr = [[1,2],[2,3]] */\n  0xff\n  and\n  dup2\n  mstore\n  0x20\n  add\n    /* \"ArrayType.sol\":979:980  3 */\n  0x03\n    /* \"ArrayType.sol\":952:982  uint[2][2] arr = [[1,2],[2,3]] */\n  0xff\n  and\n  dup2\n  mstore\n  pop\n  dup2\n  mstore\n  pop\n  0x00\n  swap1\n  0x02\n  tag_1\n  swap3\n  swap2\n  swap1\n  tag_2\n  jump\t// in\ntag_1:\n  pop\n    /* \"ArrayType.sol\":925:1160  contract ArrayType3 {... */\n  callvalue\n  dup1\n  iszero\n  tag_3\n  jumpi\n  0x00\n  dup1\n  revert\ntag_3:\n  pop\n  jump(tag_4)\ntag_2:\n  dup3\n  0x02\n  dup1\n  mul\n  dup2\n  add\n  swap3\n  dup3\n  iszero\n  tag_5\n  jumpi\n  swap2\n  0x20\n  mul\n  dup3\n  add\ntag_6:\n  dup3\n  dup2\n  gt\n  iszero\n  tag_7\n  jumpi\n  dup3\n  mload\n  dup3\n  swap1\n  0x02\n  tag_8\n  swap3\n  swap2\n  swap1\n  tag_9\n  jump\t// in\ntag_8:\n  pop\n  swap2\n  0x20\n  add\n  swap2\n  swap1\n  0x02\n  add\n  swap1\n  jump(tag_6)\ntag_7:\ntag_5:\n  pop\n  swap1\n  pop\n  tag_10\n  swap2\n  swap1\n  tag_11\n  jump\t// in\ntag_10:\n  pop\n  swap1\n  jump\t// out\ntag_9:\n  dup3\n  0x02\n  dup2\n  add\n  swap3\n  dup3\n  iszero\n  tag_12\n  jumpi\n  swap2\n  0x20\n  mul\n  dup3\n  add\ntag_13:\n  dup3\n  dup2\n  gt\n  iszero\n  tag_14\n  jumpi\n  dup3\n  mload\n  dup3\n  swap1\n  0xff\n  and\n  swap1\n  sstore\n  swap2\n  0x20\n  add\n  swap2\n  swap1\n  0x01\n  add\n  swap1\n  jump(tag_13)\ntag_14:\ntag_12:\n  pop\n  swap1\n  pop\n  tag_15\n  swap2\n  swap1\n  tag_16\n  jump\t// in\ntag_15:\n  pop\n  swap1\n  jump\t// out\ntag_11:\ntag_17:\n  dup1\n  dup3\n  gt\n  iszero\n  tag_18\n  jumpi\n  0x00\n  dup2\n  dup2\n  tag_19\n  swap2\n  swap1\n  tag_20\n  jump\t// in\ntag_19:\n  pop\n  0x02\n  add\n  jump(tag_17)\ntag_18:\n  pop\n  swap1\n  jump\t// out\ntag_16:\ntag_21:\n  dup1\n  dup3\n  gt\n  iszero\n  tag_22\n  jumpi\n  0x00\n  dup2\n  0x00\n  swap1\n  sstore\n  pop\n  0x01\n  add\n  jump(tag_21)\ntag_22:\n  pop\n  swap1\n  jump\t// out\ntag_20:\n  pop\n  0x00\n  dup2\n  sstore\n  0x01\n  add\n  0x00\n  swap1\n  sstore\n  jump\t// out\ntag_4:\n  dataSize(sub_0)\n  dup1\n  dataOffset(sub_0)\n  0x00\n  codecopy\n  0x00\n  return\nstop\n\nsub_0: assembly {\n        /* \"ArrayType.sol\":925:1160  contract ArrayType3 {... */\n      mstore(0x40, 0x80)\n      callvalue\n      dup1\n      iszero\n      tag_1\n      jumpi\n      0x00\n      dup1\n      revert\n    tag_1:\n      pop\n      jumpi(tag_2, lt(calldatasize, 0x04))\n      shr(0xe0, calldataload(0x00))\n      dup1\n      0x08255318\n      eq\n      tag_3\n      jumpi\n      dup1\n      0xec5d52c1\n      eq\n      tag_4\n      jumpi\n    tag_2:\n      0x00\n      dup1\n      revert\n        /* \"ArrayType.sol\":989:1052  function setArr(uint x) public {... */\n    tag_3:\n      tag_5\n      0x04\n      dup1\n      calldatasize\n      sub\n      dup2\n      add\n      swap1\n      tag_6\n      swap2\n      swap1\n      tag_7\n      jump\t// in\n    tag_6:\n      tag_8\n      jump\t// in\n    tag_5:\n      stop\n        /* \"ArrayType.sol\":1058:1156  function showArr() public view returns (uint[2][2] memory) {... */\n    tag_4:\n      tag_9\n      tag_10\n      jump\t// in\n    tag_9:\n      mload(0x40)\n      tag_11\n      swap2\n      swap1\n      tag_12\n      jump\t// in\n    tag_11:\n      mload(0x40)\n      dup1\n      swap2\n      sub\n      swap1\n      return\n        /* \"ArrayType.sol\":989:1052  function setArr(uint x) public {... */\n    tag_8:\n        /* \"ArrayType.sol\":1043:1044  x */\n      dup1\n        /* \"ArrayType.sol\":1031:1034  arr */\n      0x00\n        /* \"ArrayType.sol\":1035:1036  0 */\n      dup1\n        /* \"ArrayType.sol\":1031:1037  arr[0] */\n      0x02\n      dup2\n      lt\n      tag_14\n      jumpi\n      tag_15\n      tag_16\n      jump\t// in\n    tag_15:\n    tag_14:\n      0x02\n      mul\n      add\n        /* \"ArrayType.sol\":1038:1039  1 */\n      0x01\n        /* \"ArrayType.sol\":1031:1040  arr[0][1] */\n      0x02\n      dup2\n      lt\n      tag_18\n      jumpi\n      tag_19\n      tag_16\n      jump\t// in\n    tag_19:\n    tag_18:\n      add\n        /* \"ArrayType.sol\":1031:1044  arr[0][1] = x */\n      dup2\n      swap1\n      sstore\n      pop\n        /* \"ArrayType.sol\":989:1052  function setArr(uint x) public {... */\n      pop\n      jump\t// out\n        /* \"ArrayType.sol\":1058:1156  function showArr() public view returns (uint[2][2] memory) {... */\n    tag_10:\n        /* \"ArrayType.sol\":1098:1115  uint[2][2] memory */\n      tag_21\n      tag_22\n      jump\t// in\n    tag_21:\n        /* \"ArrayType.sol\":1145:1148  arr */\n      0x00\n        /* \"ArrayType.sol\":1138:1148  return arr */\n      0x02\n      dup1\n      0x20\n      mul\n      mload(0x40)\n      swap1\n      dup2\n      add\n      0x40\n      mstore\n      dup1\n      swap3\n      swap2\n      swap1\n      0x00\n      swap1\n    tag_24:\n      dup3\n      dup3\n      lt\n      iszero\n      tag_25\n      jumpi\n      dup4\n      dup3\n      0x02\n      mul\n      add\n      0x02\n      dup1\n      0x20\n      mul\n      mload(0x40)\n      swap1\n      dup2\n      add\n      0x40\n      mstore\n      dup1\n      swap3\n      swap2\n      swap1\n      dup3\n      0x02\n      dup1\n      iszero\n      tag_27\n      jumpi\n      0x20\n      mul\n      dup3\n      add\n      swap2\n    tag_28:\n      dup2\n      sload\n      dup2\n      mstore\n      0x20\n      add\n      swap1\n      0x01\n      add\n      swap1\n      dup1\n      dup4\n      gt\n      tag_28\n      jumpi\n    tag_27:\n      pop\n      pop\n      pop\n      pop\n      pop\n      dup2\n      mstore\n      0x20\n      add\n      swap1\n      0x01\n      add\n      swap1\n      jump(tag_24)\n    tag_25:\n      pop\n      pop\n      pop\n      pop\n      swap1\n      pop\n        /* \"ArrayType.sol\":1058:1156  function showArr() public view returns (uint[2][2] memory) {... */\n      swap1\n      jump\t// out\n    tag_22:\n      mload(0x40)\n      dup1\n      0x40\n      add\n      0x40\n      mstore\n      dup1\n      0x02\n      swap1\n    tag_29:\n      tag_30\n      tag_31\n      jump\t// in\n    tag_30:\n      dup2\n      mstore\n      0x20\n      add\n      swap1\n      0x01\n      swap1\n      sub\n      swap1\n      dup2\n      tag_29\n      jumpi\n      swap1\n      pop\n      pop\n      swap1\n      jump\t// out\n    tag_31:\n      mload(0x40)\n      dup1\n      0x40\n      add\n      0x40\n      mstore\n      dup1\n      0x02\n      swap1\n      0x20\n      dup3\n      mul\n      dup1\n      calldatasize\n      dup4\n      calldatacopy\n      dup1\n      dup3\n      add\n      swap2\n      pop\n      pop\n      swap1\n      pop\n      pop\n      swap1\n      jump\t// out\n        /* \"#utility.yul\":88:205   */\n    tag_33:\n        /* \"#utility.yul\":197:198   */\n      0x00\n        /* \"#utility.yul\":194:195   */\n      dup1\n        /* \"#utility.yul\":187:199   */\n      revert\n        /* \"#utility.yul\":334:411   */\n    tag_35:\n        /* \"#utility.yul\":371:378   */\n      0x00\n        /* \"#utility.yul\":400:405   */\n      dup2\n        /* \"#utility.yul\":389:405   */\n      swap1\n      pop\n        /* \"#utility.yul\":334:411   */\n      swap2\n      swap1\n      pop\n      jump\t// out\n        /* \"#utility.yul\":417:539   */\n    tag_36:\n        /* \"#utility.yul\":490:514   */\n      tag_57\n        /* \"#utility.yul\":508:513   */\n      dup2\n        /* \"#utility.yul\":490:514   */\n      tag_35\n      jump\t// in\n    tag_57:\n        /* \"#utility.yul\":483:488   */\n      dup2\n        /* \"#utility.yul\":480:515   */\n      eq\n        /* \"#utility.yul\":470:533   */\n      tag_58\n      jumpi\n        /* \"#utility.yul\":529:530   */\n      0x00\n        /* \"#utility.yul\":526:527   */\n      dup1\n        /* \"#utility.yul\":519:531   */\n      revert\n        /* \"#utility.yul\":470:533   */\n    tag_58:\n        /* \"#utility.yul\":417:539   */\n      pop\n      jump\t// out\n        /* \"#utility.yul\":545:684   */\n    tag_37:\n        /* \"#utility.yul\":591:596   */\n      0x00\n        /* \"#utility.yul\":629:635   */\n      dup2\n        /* \"#utility.yul\":616:636   */\n      calldataload\n        /* \"#utility.yul\":607:636   */\n      swap1\n      pop\n        /* \"#utility.yul\":645:678   */\n      tag_60\n        /* \"#utility.yul\":672:677   */\n      dup2\n        /* \"#utility.yul\":645:678   */\n      tag_36\n      jump\t// in\n    tag_60:\n        /* \"#utility.yul\":545:684   */\n      swap3\n      swap2\n      pop\n      pop\n      jump\t// out\n        /* \"#utility.yul\":690:1019   */\n    tag_7:\n        /* \"#utility.yul\":749:755   */\n      0x00\n        /* \"#utility.yul\":798:800   */\n      0x20\n        /* \"#utility.yul\":786:795   */\n      dup3\n        /* \"#utility.yul\":777:784   */\n      dup5\n        /* \"#utility.yul\":773:796   */\n      sub\n        /* \"#utility.yul\":769:801   */\n      slt\n        /* \"#utility.yul\":766:885   */\n      iszero\n      tag_62\n      jumpi\n        /* \"#utility.yul\":804:883   */\n      tag_63\n      tag_33\n      jump\t// in\n    tag_63:\n        /* \"#utility.yul\":766:885   */\n    tag_62:\n        /* \"#utility.yul\":924:925   */\n      0x00\n        /* \"#utility.yul\":949:1002   */\n      tag_64\n        /* \"#utility.yul\":994:1001   */\n      dup5\n        /* \"#utility.yul\":985:991   */\n      dup3\n        /* \"#utility.yul\":974:983   */\n      dup6\n        /* \"#utility.yul\":970:992   */\n      add\n        /* \"#utility.yul\":949:1002   */\n      tag_37\n      jump\t// in\n    tag_64:\n        /* \"#utility.yul\":939:1002   */\n      swap2\n      pop\n        /* \"#utility.yul\":895:1012   */\n      pop\n        /* \"#utility.yul\":690:1019   */\n      swap3\n      swap2\n      pop\n      pop\n      jump\t// out\n        /* \"#utility.yul\":1025:1152   */\n    tag_38:\n        /* \"#utility.yul\":1113:1119   */\n      0x00\n        /* \"#utility.yul\":1141:1145   */\n      0x02\n        /* \"#utility.yul\":1131:1145   */\n      swap1\n      pop\n        /* \"#utility.yul\":1025:1152   */\n      swap2\n      swap1\n      pop\n      jump\t// out\n        /* \"#utility.yul\":1158:1324   */\n    tag_39:\n        /* \"#utility.yul\":1278:1289   */\n      0x00\n        /* \"#utility.yul\":1315:1318   */\n      dup2\n        /* \"#utility.yul\":1300:1318   */\n      swap1\n      pop\n        /* \"#utility.yul\":1158:1324   */\n      swap3\n      swap2\n      pop\n      pop\n      jump\t// out\n        /* \"#utility.yul\":1330:1451   */\n    tag_40:\n        /* \"#utility.yul\":1418:1422   */\n      0x00\n        /* \"#utility.yul\":1441:1444   */\n      dup2\n        /* \"#utility.yul\":1433:1444   */\n      swap1\n      pop\n        /* \"#utility.yul\":1330:1451   */\n      swap2\n      swap1\n      pop\n      jump\t// out\n        /* \"#utility.yul\":1457:1561   */\n    tag_41:\n        /* \"#utility.yul\":1522:1528   */\n      0x00\n        /* \"#utility.yul\":1550:1554   */\n      0x02\n        /* \"#utility.yul\":1540:1554   */\n      swap1\n      pop\n        /* \"#utility.yul\":1457:1561   */\n      swap2\n      swap1\n      pop\n      jump\t// out\n        /* \"#utility.yul\":1567:1700   */\n    tag_42:\n        /* \"#utility.yul\":1654:1665   */\n      0x00\n        /* \"#utility.yul\":1691:1694   */\n      dup2\n        /* \"#utility.yul\":1676:1694   */\n      swap1\n      pop\n        /* \"#utility.yul\":1567:1700   */\n      swap3\n      swap2\n      pop\n      pop\n      jump\t// out\n        /* \"#utility.yul\":1706:1804   */\n    tag_43:\n        /* \"#utility.yul\":1771:1775   */\n      0x00\n        /* \"#utility.yul\":1794:1797   */\n      dup2\n        /* \"#utility.yul\":1786:1797   */\n      swap1\n      pop\n        /* \"#utility.yul\":1706:1804   */\n      swap2\n      swap1\n      pop\n      jump\t// out\n        /* \"#utility.yul\":1810:1918   */\n    tag_44:\n        /* \"#utility.yul\":1887:1911   */\n      tag_72\n        /* \"#utility.yul\":1905:1910   */\n      dup2\n        /* \"#utility.yul\":1887:1911   */\n      tag_35\n      jump\t// in\n    tag_72:\n        /* \"#utility.yul\":1882:1885   */\n      dup3\n        /* \"#utility.yul\":1875:1912   */\n      mstore\n        /* \"#utility.yul\":1810:1918   */\n      pop\n      pop\n      jump\t// out\n        /* \"#utility.yul\":1924:2103   */\n    tag_45:\n        /* \"#utility.yul\":1993:2003   */\n      0x00\n        /* \"#utility.yul\":2014:2060   */\n      tag_74\n        /* \"#utility.yul\":2056:2059   */\n      dup4\n        /* \"#utility.yul\":2048:2054   */\n      dup4\n        /* \"#utility.yul\":2014:2060   */\n      tag_44\n      jump\t// in\n    tag_74:\n        /* \"#utility.yul\":2092:2096   */\n      0x20\n        /* \"#utility.yul\":2087:2090   */\n      dup4\n        /* \"#utility.yul\":2083:2097   */\n      add\n        /* \"#utility.yul\":2069:2097   */\n      swap1\n      pop\n        /* \"#utility.yul\":1924:2103   */\n      swap3\n      swap2\n      pop\n      pop\n      jump\t// out\n        /* \"#utility.yul\":2109:2220   */\n    tag_46:\n        /* \"#utility.yul\":2177:2181   */\n      0x00\n        /* \"#utility.yul\":2209:2213   */\n      0x20\n        /* \"#utility.yul\":2204:2207   */\n      dup3\n        /* \"#utility.yul\":2200:2214   */\n      add\n        /* \"#utility.yul\":2192:2214   */\n      swap1\n      pop\n        /* \"#utility.yul\":2109:2220   */\n      swap2\n      swap1\n      pop\n      jump\t// out\n        /* \"#utility.yul\":2258:2932   */\n    tag_47:\n        /* \"#utility.yul\":2384:2436   */\n      tag_77\n        /* \"#utility.yul\":2430:2435   */\n      dup2\n        /* \"#utility.yul\":2384:2436   */\n      tag_41\n      jump\t// in\n    tag_77:\n        /* \"#utility.yul\":2452:2526   */\n      tag_78\n        /* \"#utility.yul\":2519:2525   */\n      dup2\n        /* \"#utility.yul\":2514:2517   */\n      dup5\n        /* \"#utility.yul\":2452:2526   */\n      tag_42\n      jump\t// in\n    tag_78:\n        /* \"#utility.yul\":2445:2526   */\n      swap3\n      pop\n        /* \"#utility.yul\":2550:2604   */\n      tag_79\n        /* \"#utility.yul\":2598:2603   */\n      dup3\n        /* \"#utility.yul\":2550:2604   */\n      tag_43\n      jump\t// in\n    tag_79:\n        /* \"#utility.yul\":2627:2634   */\n      dup1\n        /* \"#utility.yul\":2658:2659   */\n      0x00\n        /* \"#utility.yul\":2643:2925   */\n    tag_80:\n        /* \"#utility.yul\":2668:2674   */\n      dup4\n        /* \"#utility.yul\":2665:2666   */\n      dup2\n        /* \"#utility.yul\":2662:2675   */\n      lt\n        /* \"#utility.yul\":2643:2925   */\n      iszero\n      tag_82\n      jumpi\n        /* \"#utility.yul\":2744:2750   */\n      dup2\n        /* \"#utility.yul\":2738:2751   */\n      mload\n        /* \"#utility.yul\":2771:2834   */\n      tag_83\n        /* \"#utility.yul\":2830:2833   */\n      dup8\n        /* \"#utility.yul\":2815:2828   */\n      dup3\n        /* \"#utility.yul\":2771:2834   */\n      tag_45\n      jump\t// in\n    tag_83:\n        /* \"#utility.yul\":2764:2834   */\n      swap7\n      pop\n        /* \"#utility.yul\":2857:2915   */\n      tag_84\n        /* \"#utility.yul\":2908:2914   */\n      dup4\n        /* \"#utility.yul\":2857:2915   */\n      tag_46\n      jump\t// in\n    tag_84:\n        /* \"#utility.yul\":2847:2915   */\n      swap3\n      pop\n        /* \"#utility.yul\":2703:2925   */\n      pop\n        /* \"#utility.yul\":2690:2691   */\n      0x01\n        /* \"#utility.yul\":2687:2688   */\n      dup2\n        /* \"#utility.yul\":2683:2692   */\n      add\n        /* \"#utility.yul\":2678:2692   */\n      swap1\n      pop\n        /* \"#utility.yul\":2643:2925   */\n      jump(tag_80)\n    tag_82:\n        /* \"#utility.yul\":2647:2661   */\n      pop\n        /* \"#utility.yul\":2360:2932   */\n      pop\n      pop\n      pop\n        /* \"#utility.yul\":2258:2932   */\n      pop\n      pop\n      jump\t// out\n        /* \"#utility.yul\":2938:3209   */\n    tag_48:\n        /* \"#utility.yul\":3053:3063   */\n      0x00\n        /* \"#utility.yul\":3074:3166   */\n      tag_86\n        /* \"#utility.yul\":3162:3165   */\n      dup4\n        /* \"#utility.yul\":3154:3160   */\n      dup4\n        /* \"#utility.yul\":3074:3166   */\n      tag_47\n      jump\t// in\n    tag_86:\n        /* \"#utility.yul\":3198:3202   */\n      0x40\n        /* \"#utility.yul\":3193:3196   */\n      dup4\n        /* \"#utility.yul\":3189:3203   */\n      add\n        /* \"#utility.yul\":3175:3203   */\n      swap1\n      pop\n        /* \"#utility.yul\":2938:3209   */\n      swap3\n      swap2\n      pop\n      pop\n      jump\t// out\n        /* \"#utility.yul\":3215:3349   */\n    tag_49:\n        /* \"#utility.yul\":3306:3310   */\n      0x00\n        /* \"#utility.yul\":3338:3342   */\n      0x20\n        /* \"#utility.yul\":3333:3336   */\n      dup3\n        /* \"#utility.yul\":3329:3343   */\n      add\n        /* \"#utility.yul\":3321:3343   */\n      swap1\n      pop\n        /* \"#utility.yul\":3215:3349   */\n      swap2\n      swap1\n      pop\n      jump\t// out\n        /* \"#utility.yul\":3393:4271   */\n    tag_50:\n        /* \"#utility.yul\":3575:3650   */\n      tag_89\n        /* \"#utility.yul\":3644:3649   */\n      dup2\n        /* \"#utility.yul\":3575:3650   */\n      tag_38\n      jump\t// in\n    tag_89:\n        /* \"#utility.yul\":3666:3773   */\n      tag_90\n        /* \"#utility.yul\":3766:3772   */\n      dup2\n        /* \"#utility.yul\":3761:3764   */\n      dup5\n        /* \"#utility.yul\":3666:3773   */\n      tag_39\n      jump\t// in\n    tag_90:\n        /* \"#utility.yul\":3659:3773   */\n      swap3\n      pop\n        /* \"#utility.yul\":3797:3874   */\n      tag_91\n        /* \"#utility.yul\":3868:3873   */\n      dup3\n        /* \"#utility.yul\":3797:3874   */\n      tag_40\n      jump\t// in\n    tag_91:\n        /* \"#utility.yul\":3897:3904   */\n      dup1\n        /* \"#utility.yul\":3928:3929   */\n      0x00\n        /* \"#utility.yul\":3913:4264   */\n    tag_92:\n        /* \"#utility.yul\":3938:3944   */\n      dup4\n        /* \"#utility.yul\":3935:3936   */\n      dup2\n        /* \"#utility.yul\":3932:3945   */\n      lt\n        /* \"#utility.yul\":3913:4264   */\n      iszero\n      tag_94\n      jumpi\n        /* \"#utility.yul\":4014:4020   */\n      dup2\n        /* \"#utility.yul\":4008:4021   */\n      mload\n        /* \"#utility.yul\":4041:4150   */\n      tag_95\n        /* \"#utility.yul\":4146:4149   */\n      dup8\n        /* \"#utility.yul\":4131:4144   */\n      dup3\n        /* \"#utility.yul\":4041:4150   */\n      tag_48\n      jump\t// in\n    tag_95:\n        /* \"#utility.yul\":4034:4150   */\n      swap7\n      pop\n        /* \"#utility.yul\":4173:4254   */\n      tag_96\n        /* \"#utility.yul\":4247:4253   */\n      dup4\n        /* \"#utility.yul\":4173:4254   */\n      tag_49\n      jump\t// in\n    tag_96:\n        /* \"#utility.yul\":4163:4254   */\n      swap3\n      pop\n        /* \"#utility.yul\":3973:4264   */\n      pop\n        /* \"#utility.yul\":3960:3961   */\n      0x01\n        /* \"#utility.yul\":3957:3958   */\n      dup2\n        /* \"#utility.yul\":3953:3962   */\n      add\n        /* \"#utility.yul\":3948:3962   */\n      swap1\n      pop\n        /* \"#utility.yul\":3913:4264   */\n      jump(tag_92)\n    tag_94:\n        /* \"#utility.yul\":3917:3931   */\n      pop\n        /* \"#utility.yul\":3551:4271   */\n      pop\n      pop\n      pop\n        /* \"#utility.yul\":3393:4271   */\n      pop\n      pop\n      jump\t// out\n        /* \"#utility.yul\":4277:4684   */\n    tag_12:\n        /* \"#utility.yul\":4462:4466   */\n      0x00\n        /* \"#utility.yul\":4500:4503   */\n      0x80\n        /* \"#utility.yul\":4489:4498   */\n      dup3\n        /* \"#utility.yul\":4485:4504   */\n      add\n        /* \"#utility.yul\":4477:4504   */\n      swap1\n      pop\n        /* \"#utility.yul\":4514:4677   */\n      tag_98\n        /* \"#utility.yul\":4674:4675   */\n      0x00\n        /* \"#utility.yul\":4663:4672   */\n      dup4\n        /* \"#utility.yul\":4659:4676   */\n      add\n        /* \"#utility.yul\":4650:4656   */\n      dup5\n        /* \"#utility.yul\":4514:4677   */\n      tag_50\n      jump\t// in\n    tag_98:\n        /* \"#utility.yul\":4277:4684   */\n      swap3\n      swap2\n      pop\n      pop\n      jump\t// out\n        /* \"#utility.yul\":4690:4870   */\n    tag_16:\n        /* \"#utility.yul\":4738:4815   */\n      0x4e487b7100000000000000000000000000000000000000000000000000000000\n        /* \"#utility.yul\":4735:4736   */\n      0x00\n        /* \"#utility.yul\":4728:4816   */\n      mstore\n        /* \"#utility.yul\":4835:4839   */\n      0x32\n        /* \"#utility.yul\":4832:4833   */\n      0x04\n        /* \"#utility.yul\":4825:4840   */\n      mstore\n        /* \"#utility.yul\":4859:4863   */\n      0x24\n        /* \"#utility.yul\":4856:4857   */\n      0x00\n        /* \"#utility.yul\":4849:4864   */\n      revert\n\n    auxdata: 0xa26469706673582212205600b71452a24628d870a498d1f7651304cb36af3b3fe7e89b331f0563edfb5964736f6c63430008130033\n}\n",
				"bytecode": {
					"linkReferences": {},
					"object": "608060405260405180604001604052806040518060400160405280600160ff168152602001600260ff1681525081526020016040518060400160405280600260ff168152602001600360ff168152508152506000906002610061929190610074565b5034801561006e57600080fd5b50610158565b826002800281019282156100b3579160200282015b828111156100b2578251829060026100a29291906100c4565b5091602001919060020190610089565b5b5090506100c09190610109565b5090565b82600281019282156100f8579160200282015b828111156100f7578251829060ff169055916020019190600101906100d7565b5b509050610105919061012d565b5090565b5b808211156101295760008181610120919061014a565b5060020161010a565b5090565b5b8082111561014657600081600090555060010161012e565b5090565b506000815560010160009055565b6103aa806101676000396000f3fe608060405234801561001057600080fd5b50600436106100365760003560e01c8063082553181461003b578063ec5d52c114610057575b600080fd5b610055600480360381019061005091906101b6565b610075565b005b61005f6100a9565b60405161006c919061032a565b60405180910390f35b806000806002811061008a57610089610345565b5b600202016001600281106100a1576100a0610345565b5b018190555050565b6100b161012c565b6000600280602002604051908101604052809291906000905b828210156101235783826002020160028060200260405190810160405280929190826002801561010f576020028201915b8154815260200190600101908083116100fb575b5050505050815260200190600101906100ca565b50505050905090565b60405180604001604052806002905b610143610159565b81526020019060019003908161013b5790505090565b6040518060400160405280600290602082028036833780820191505090505090565b600080fd5b6000819050919050565b61019381610180565b811461019e57600080fd5b50565b6000813590506101b08161018a565b92915050565b6000602082840312156101cc576101cb61017b565b5b60006101da848285016101a1565b91505092915050565b600060029050919050565b600081905092915050565b6000819050919050565b600060029050919050565b600081905092915050565b6000819050919050565b61022c81610180565b82525050565b600061023e8383610223565b60208301905092915050565b6000602082019050919050565b61026081610203565b61026a818461020e565b925061027582610219565b8060005b838110156102a657815161028d8782610232565b96506102988361024a565b925050600181019050610279565b505050505050565b60006102ba8383610257565b60408301905092915050565b6000602082019050919050565b6102dc816101e3565b6102e681846101ee565b92506102f1826101f9565b8060005b8381101561032257815161030987826102ae565b9650610314836102c6565b9250506001810190506102f5565b505050505050565b600060808201905061033f60008301846102d3565b92915050565b7f4e487b7100000000000000000000000000000000000000000000000000000000600052603260045260246000fdfea26469706673582212205600b71452a24628d870a498d1f7651304cb36af3b3fe7e89b331f0563edfb5964736f6c63430008130033",
					"opcodes": "PUSH1 0x80 PUSH1 0x40 MSTORE PUSH1 0x40 MLOAD DUP1 PUSH1 0x40 ADD PUSH1 0x40 MSTORE DUP1 PUSH1 0x40 MLOAD DUP1 PUSH1 0x40 ADD PUSH1 0x40 MSTORE DUP1 PUSH1 0x1 PUSH1 0xFF AND DUP2 MSTORE PUSH1 0x20 ADD PUSH1 0x2 PUSH1 0xFF AND DUP2 MSTORE POP DUP2 MSTORE PUSH1 0x20 ADD PUSH1 0x40 MLOAD DUP1 PUSH1 0x40 ADD PUSH1 0x40 MSTORE DUP1 PUSH1 0x2 PUSH1 0xFF AND DUP2 MSTORE PUSH1 0x20 ADD PUSH1 0x3 PUSH1 0xFF AND DUP2 MSTORE POP DUP2 MSTORE POP PUSH1 0x0 SWAP1 PUSH1 0x2 PUSH2 0x61 SWAP3 SWAP2 SWAP1 PUSH2 0x74 JUMP JUMPDEST POP CALLVALUE DUP1 ISZERO PUSH2 0x6E JUMPI PUSH1 0x0 DUP1 REVERT JUMPDEST POP PUSH2 0x158 JUMP JUMPDEST DUP3 PUSH1 0x2 DUP1 MUL DUP2 ADD SWAP3 DUP3 ISZERO PUSH2 0xB3 JUMPI SWAP2 PUSH1 0x20 MUL DUP3 ADD JUMPDEST DUP3 DUP2 GT ISZERO PUSH2 0xB2 JUMPI DUP3 MLOAD DUP3 SWAP1 PUSH1 0x2 PUSH2 0xA2 SWAP3 SWAP2 SWAP1 PUSH2 0xC4 JUMP JUMPDEST POP SWAP2 PUSH1 0x20 ADD SWAP2 SWAP1 PUSH1 0x2 ADD SWAP1 PUSH2 0x89 JUMP JUMPDEST JUMPDEST POP SWAP1 POP PUSH2 0xC0 SWAP2 SWAP1 PUSH2 0x109 JUMP JUMPDEST POP SWAP1 JUMP JUMPDEST DUP3 PUSH1 0x2 DUP2 ADD SWAP3 DUP3 ISZERO PUSH2 0xF8 JUMPI SWAP2 PUSH1 0x20 MUL DUP3 ADD JUMPDEST DUP3 DUP2 GT ISZERO PUSH2 0xF7 JUMPI DUP3 MLOAD DUP3 SWAP1 PUSH1 0xFF AND SWAP1 SSTORE SWAP2 PUSH1 0x20 ADD SWAP2 SWAP1 PUSH1 0x1 ADD SWAP1 PUSH2 0xD7 JUMP JUMPDEST JUMPDEST POP SWAP1 POP PUSH2 0x105 SWAP2 SWAP1 PUSH2 0x12D JUMP JUMPDEST POP SWAP1 JUMP JUMPDEST JUMPDEST DUP1 DUP3 GT ISZERO PUSH2 0x129 JUMPI PUSH1 0x0 DUP2 DUP2 PUSH2 0x120 SWAP2 SWAP1 PUSH2 0x14A JUMP JUMPDEST POP PUSH1 0x2 ADD PUSH2 0x10A JUMP JUMPDEST POP SWAP1 JUMP JUMPDEST JUMPDEST DUP1 DUP3 GT ISZERO PUSH2 0x146 JUMPI PUSH1 0x0 DUP2 PUSH1 0x0 SWAP1 SSTORE POP PUSH1 0x1 ADD PUSH2 0x12E JUMP JUMPDEST POP SWAP1 JUMP JUMPDEST POP PUSH1 0x0 DUP2 SSTORE PUSH1 0x1 ADD PUSH1 0x0 SWAP1 SSTORE JUMP JUMPDEST PUSH2 0x3AA DUP1 PUSH2 0x167 PUSH1 0x0 CODECOPY PUSH1 0x0 RETURN INVALID PUSH1 0x80 PUSH1 0x40 MSTORE CALLVALUE DUP1 ISZERO PUSH2 0x10 JUMPI PUSH1 0x0 DUP1 REVERT JUMPDEST POP PUSH1 0x4 CALLDATASIZE LT PUSH2 0x36 JUMPI PUSH1 0x0 CALLDATALOAD PUSH1 0xE0 SHR DUP1 PUSH4 0x8255318 EQ PUSH2 0x3B JUMPI DUP1 PUSH4 0xEC5D52C1 EQ PUSH2 0x57 JUMPI JUMPDEST PUSH1 0x0 DUP1 REVERT JUMPDEST PUSH2 0x55 PUSH1 0x4 DUP1 CALLDATASIZE SUB DUP2 ADD SWAP1 PUSH2 0x50 SWAP2 SWAP1 PUSH2 0x1B6 JUMP JUMPDEST PUSH2 0x75 JUMP JUMPDEST STOP JUMPDEST PUSH2 0x5F PUSH2 0xA9 JUMP JUMPDEST PUSH1 0x40 MLOAD PUSH2 0x6C SWAP2 SWAP1 PUSH2 0x32A JUMP JUMPDEST PUSH1 0x40 MLOAD DUP1 SWAP2 SUB SWAP1 RETURN JUMPDEST DUP1 PUSH1 0x0 DUP1 PUSH1 0x2 DUP2 LT PUSH2 0x8A JUMPI PUSH2 0x89 PUSH2 0x345 JUMP JUMPDEST JUMPDEST PUSH1 0x2 MUL ADD PUSH1 0x1 PUSH1 0x2 DUP2 LT PUSH2 0xA1 JUMPI PUSH2 0xA0 PUSH2 0x345 JUMP JUMPDEST JUMPDEST ADD DUP2 SWAP1 SSTORE POP POP JUMP JUMPDEST PUSH2 0xB1 PUSH2 0x12C JUMP JUMPDEST PUSH1 0x0 PUSH1 0x2 DUP1 PUSH1 0x20 MUL PUSH1 0x40 MLOAD SWAP1 DUP2 ADD PUSH1 0x40 MSTORE DUP1 SWAP3 SWAP2 SWAP1 PUSH1 0x0 SWAP1 JUMPDEST DUP3 DUP3 LT ISZERO PUSH2 0x123 JUMPI DUP4 DUP3 PUSH1 0x2 MUL ADD PUSH1 0x2 DUP1 PUSH1 0x20 MUL PUSH1 0x40 MLOAD SWAP1 DUP2 ADD PUSH1 0x40 MSTORE DUP1 SWAP3 SWAP2 SWAP1 DUP3 PUSH1 0x2 DUP1 ISZERO PUSH2 0x10F JUMPI PUSH1 0x20 MUL DUP3 ADD SWAP2 JUMPDEST DUP2 SLOAD DUP2 MSTORE PUSH1 0x20 ADD SWAP1 PUSH1 0x1 ADD SWAP1 DUP1 DUP4 GT PUSH2 0xFB JUMPI JUMPDEST POP POP POP POP POP DUP2 MSTORE PUSH1 0x20 ADD SWAP1 PUSH1 0x1 ADD SWAP1 PUSH2 0xCA JUMP JUMPDEST POP POP POP POP SWAP1 POP SWAP1 JUMP JUMPDEST PUSH1 0x40 MLOAD DUP1 PUSH1 0x40 ADD PUSH1 0x40 MSTORE DUP1 PUSH1 0x2 SWAP1 JUMPDEST PUSH2 0x143 PUSH2 0x159 JUMP JUMPDEST DUP2 MSTORE PUSH1 0x20 ADD SWAP1 PUSH1 0x1 SWAP1 SUB SWAP1 DUP2 PUSH2 0x13B JUMPI SWAP1 POP POP SWAP1 JUMP JUMPDEST PUSH1 0x40 MLOAD DUP1 PUSH1 0x40 ADD PUSH1 0x40 MSTORE DUP1 PUSH1 0x2 SWAP1 PUSH1 0x20 DUP3 MUL DUP1 CALLDATASIZE DUP4 CALLDATACOPY DUP1 DUP3 ADD SWAP2 POP POP SWAP1 POP POP SWAP1 JUMP JUMPDEST PUSH1 0x0 DUP1 REVERT JUMPDEST PUSH1 0x0 DUP2 SWAP1 POP SWAP2 SWAP1 POP JUMP JUMPDEST PUSH2 0x193 DUP2 PUSH2 0x180 JUMP JUMPDEST DUP2 EQ PUSH2 0x19E JUMPI PUSH1 0x0 DUP1 REVERT JUMPDEST POP JUMP JUMPDEST PUSH1 0x0 DUP2 CALLDATALOAD SWAP1 POP PUSH2 0x1B0 DUP2 PUSH2 0x18A JUMP JUMPDEST SWAP3 SWAP2 POP POP JUMP JUMPDEST PUSH1 0x0 PUSH1 0x20 DUP3 DUP5 SUB SLT ISZERO PUSH2 0x1CC JUMPI PUSH2 0x1CB PUSH2 0x17B JUMP JUMPDEST JUMPDEST PUSH1 0x0 PUSH2 0x1DA DUP5 DUP3 DUP6 ADD PUSH2 0x1A1 JUMP JUMPDEST SWAP2 POP POP SWAP3 SWAP2 POP POP JUMP JUMPDEST PUSH1 0x0 PUSH1 0x2 SWAP1 POP SWAP2 SWAP1 POP JUMP JUMPDEST PUSH1 0x0 DUP2 SWAP1 POP SWAP3 SWAP2 POP POP JUMP JUMPDEST PUSH1 0x0 DUP2 SWAP1 POP SWAP2 SWAP1 POP JUMP JUMPDEST PUSH1 0x0 PUSH1 0x2 SWAP1 POP SWAP2 SWAP1 POP JUMP JUMPDEST PUSH1 0x0 DUP2 SWAP1 POP SWAP3 SWAP2 POP POP JUMP JUMPDEST PUSH1 0x0 DUP2 SWAP1 POP SWAP2 SWAP1 POP JUMP JUMPDEST PUSH2 0x22C DUP2 PUSH2 0x180 JUMP JUMPDEST DUP3 MSTORE POP POP JUMP JUMPDEST PUSH1 0x0 PUSH2 0x23E DUP4 DUP4 PUSH2 0x223 JUMP JUMPDEST PUSH1 0x20 DUP4 ADD SWAP1 POP SWAP3 SWAP2 POP POP JUMP JUMPDEST PUSH1 0x0 PUSH1 0x20 DUP3 ADD SWAP1 POP SWAP2 SWAP1 POP JUMP JUMPDEST PUSH2 0x260 DUP2 PUSH2 0x203 JUMP JUMPDEST PUSH2 0x26A DUP2 DUP5 PUSH2 0x20E JUMP JUMPDEST SWAP3 POP PUSH2 0x275 DUP3 PUSH2 0x219 JUMP JUMPDEST DUP1 PUSH1 0x0 JUMPDEST DUP4 DUP2 LT ISZERO PUSH2 0x2A6 JUMPI DUP2 MLOAD PUSH2 0x28D DUP8 DUP3 PUSH2 0x232 JUMP JUMPDEST SWAP7 POP PUSH2 0x298 DUP4 PUSH2 0x24A JUMP JUMPDEST SWAP3 POP POP PUSH1 0x1 DUP2 ADD SWAP1 POP PUSH2 0x279 JUMP JUMPDEST POP POP POP POP POP POP JUMP JUMPDEST PUSH1 0x0 PUSH2 0x2BA DUP4 DUP4 PUSH2 0x257 JUMP JUMPDEST PUSH1 0x40 DUP4 ADD SWAP1 POP SWAP3 SWAP2 POP POP JUMP JUMPDEST PUSH1 0x0 PUSH1 0x20 DUP3 ADD SWAP1 POP SWAP2 SWAP1 POP JUMP JUMPDEST PUSH2 0x2DC DUP2 PUSH2 0x1E3 JUMP JUMPDEST PUSH2 0x2E6 DUP2 DUP5 PUSH2 0x1EE JUMP JUMPDEST SWAP3 POP PUSH2 0x2F1 DUP3 PUSH2 0x1F9 JUMP JUMPDEST DUP1 PUSH1 0x0 JUMPDEST DUP4 DUP2 LT ISZERO PUSH2 0x322 JUMPI DUP2 MLOAD PUSH2 0x309 DUP8 DUP3 PUSH2 0x2AE JUMP JUMPDEST SWAP7 POP PUSH2 0x314 DUP4 PUSH2 0x2C6 JUMP JUMPDEST SWAP3 POP POP PUSH1 0x1 DUP2 ADD SWAP1 POP PUSH2 0x2F5 JUMP JUMPDEST POP POP POP POP POP POP JUMP JUMPDEST PUSH1 0x0 PUSH1 0x80 DUP3 ADD SWAP1 POP PUSH2 0x33F PUSH1 0x0 DUP4 ADD DUP5 PUSH2 0x2D3 JUMP JUMPDEST SWAP3 SWAP2 POP POP JUMP JUMPDEST PUSH32 0x4E487B7100000000000000000000000000000000000000000000000000000000 PUSH1 0x0 MSTORE PUSH1 0x32 PUSH1 0x4 MSTORE PUSH1 0x24 PUSH1 0x0 REVERT INVALID LOG2 PUSH5 0x6970667358 0x22 SLT KECCAK256 JUMP STOP 0xB7 EQ MSTORE LOG2 CHAINID 0x28 0xD8 PUSH17 0xA498D1F7651304CB36AF3B3FE7E89B331F SDIV PUSH4 0xEDFB5964 PUSH20 0x6F6C634300081300330000000000000000000000 "
				},
				"gasEstimates": {
					"creation": {
						"codeDepositCost": "187600",
						"executionCost": "infinite",
						"totalCost": "infinite"
					},
					"external": {
						"setArr(uint256)": "22564",
						"showArr()": "infinite"
					}
				},
				"methodIdentifiers": {
					"setArr(uint256)": "08255318",
					"showArr()": "ec5d52c1"
				}
			},
			"storageLayout": {
				"storage": [
					{
						"astId": 113,
						"contract": "ArrayType.sol:ArrayType3",
						"label": "arr",
						"offset": 0,
						"slot": "0",
						"type": "t_array(t_array(t_uint256)2_storage)2_storage"
					}
				],
				"types": {
					"t_array(t_array(t_uint256)2_storage)2_storage": {
						"base": "t_array(t_uint256)2_storage",
						"encoding": "inplace",
						"label": "uint256[2][2]",
						"numberOfBytes": "128"
					},
					"t_array(t_uint256)2_storage": {
						"base": "t_uint256",
						"encoding": "inplace",
						"label": "uint256[2]",
						"numberOfBytes": "64"
					},
					"t_uint256": {
						"encoding": "inplace",
						"label": "uint256",
						"numberOfBytes": "32"
					}
				}
			},
			"userdoc": {
				"kind": "user",
				"methods": {},
				"version": 1
			}
		}
	}
}