{
	"ArrayType.sol": {
		"ArrayType": {
			"abi": [
				{
					"inputs": [
						{
							"internalType": "uint256",
							"name": "_num",
							"type": "uint256"
						}
					],
					"name": "changeArray",
					"outputs": [],
					"stateMutability": "nonpayable",
					"type": "function"
				},
				{
					"inputs": [],
					"name": "getArray",
					"outputs": [
						{
							"internalType": "uint256[5]",
							"name": "",
							"type": "uint256[5]"
						}
					],
					"stateMutability": "view",
					"type": "function"
				},
				{
					"inputs": [],
					"name": "sumArray",
					"outputs": [
						{
							"internalType": "uint256",
							"name": "",
							"type": "uint256"
						}
					],
					"stateMutability": "view",
					"type": "function"
				}
			],
			"devdoc": {
				"kind": "dev",
				"methods": {},
				"version": 1
			},
			"evm": {
				"assembly": "    /* \"ArrayType.sol\":68:608  contract ArrayType {... */\n  mstore(0x40, 0x80)\n    /* \"ArrayType.sol\":94:117  uint[5] arr = [2,3,4,5] */\n  mload(0x40)\n  dup1\n  0x80\n  add\n  0x40\n  mstore\n  dup1\n    /* \"ArrayType.sol\":109:110  2 */\n  0x02\n    /* \"ArrayType.sol\":94:117  uint[5] arr = [2,3,4,5] */\n  0xff\n  and\n  dup2\n  mstore\n  0x20\n  add\n    /* \"ArrayType.sol\":111:112  3 */\n  0x03\n    /* \"ArrayType.sol\":94:117  uint[5] arr = [2,3,4,5] */\n  0xff\n  and\n  dup2\n  mstore\n  0x20\n  add\n    /* \"ArrayType.sol\":113:114  4 */\n  0x04\n    /* \"ArrayType.sol\":94:117  uint[5] arr = [2,3,4,5] */\n  0xff\n  and\n  dup2\n  mstore\n  0x20\n  add\n    /* \"ArrayType.sol\":115:116  5 */\n  0x05\n    /* \"ArrayType.sol\":94:117  uint[5] arr = [2,3,4,5] */\n  0xff\n  and\n  dup2\n  mstore\n  pop\n  0x00\n  swap1\n  0x04\n  tag_1\n  swap3\n  swap2\n  swap1\n  tag_2\n  jump\t// in\ntag_1:\n  pop\n    /* \"ArrayType.sol\":68:608  contract ArrayType {... */\n  callvalue\n  dup1\n  iszero\n  tag_3\n  jumpi\n  0x00\n  dup1\n  revert\ntag_3:\n  pop\n  jump(tag_4)\ntag_2:\n  dup3\n  0x05\n  dup2\n  add\n  swap3\n  dup3\n  iszero\n  tag_5\n  jumpi\n  swap2\n  0x20\n  mul\n  dup3\n  add\ntag_6:\n  dup3\n  dup2\n  gt\n  iszero\n  tag_7\n  jumpi\n  dup3\n  mload\n  dup3\n  swap1\n  0xff\n  and\n  swap1\n  sstore\n  swap2\n  0x20\n  add\n  swap2\n  swap1\n  0x01\n  add\n  swap1\n  jump(tag_6)\ntag_7:\ntag_5:\n  pop\n  swap1\n  pop\n  tag_8\n  swap2\n  swap1\n  tag_9\n  jump\t// in\ntag_8:\n  pop\n  swap1\n  jump\t// out\ntag_9:\ntag_10:\n  dup1\n  dup3\n  gt\n  iszero\n  tag_11\n  jumpi\n  0x00\n  dup2\n  0x00\n  swap1\n  sstore\n  pop\n  0x01\n  add\n  jump(tag_10)\ntag_11:\n  pop\n  swap1\n  jump\t// out\ntag_4:\n  dataSize(sub_0)\n  dup1\n  dataOffset(sub_0)\n  0x00\n  codecopy\n  0x00\n  return\nstop\n\nsub_0: assembly {\n        /* \"ArrayType.sol\":68:608  contract ArrayType {... */\n      mstore(0x40, 0x80)\n      callvalue\n      dup1\n      iszero\n      tag_1\n      jumpi\n      0x00\n      dup1\n      revert\n    tag_1:\n      pop\n      jumpi(tag_2, lt(calldatasize, 0x04))\n      shr(0xe0, calldataload(0x00))\n      dup1\n      0x6e366c96\n      eq\n      tag_3\n      jumpi\n      dup1\n      0x81d73423\n      eq\n      tag_4\n      jumpi\n      dup1\n      0xd504ea1d\n      eq\n      tag_5\n      jumpi\n    tag_2:\n      0x00\n      dup1\n      revert\n        /* \"ArrayType.sol\":493:564  function changeArray(uint _num) public {... */\n    tag_3:\n      tag_6\n      0x04\n      dup1\n      calldatasize\n      sub\n      dup2\n      add\n      swap1\n      tag_7\n      swap2\n      swap1\n      tag_8\n      jump\t// in\n    tag_7:\n      tag_9\n      jump\t// in\n    tag_6:\n      stop\n        /* \"ArrayType.sol\":300:485  function sumArray() public view returns (uint){... */\n    tag_4:\n      tag_10\n      tag_11\n      jump\t// in\n    tag_10:\n      mload(0x40)\n      tag_12\n      swap2\n      swap1\n      tag_13\n      jump\t// in\n    tag_12:\n      mload(0x40)\n      dup1\n      swap2\n      sub\n      swap1\n      return\n        /* \"ArrayType.sol\":202:288  function getArray() public view returns (uint[5] memory) {... */\n    tag_5:\n      tag_14\n      tag_15\n      jump\t// in\n    tag_14:\n      mload(0x40)\n      tag_16\n      swap2\n      swap1\n      tag_17\n      jump\t// in\n    tag_16:\n      mload(0x40)\n      dup1\n      swap2\n      sub\n      swap1\n      return\n        /* \"ArrayType.sol\":493:564  function changeArray(uint _num) public {... */\n    tag_9:\n        /* \"ArrayType.sol\":552:556  _num */\n      dup1\n        /* \"ArrayType.sol\":543:546  arr */\n      0x00\n        /* \"ArrayType.sol\":547:548  1 */\n      0x01\n        /* \"ArrayType.sol\":543:549  arr[1] */\n      0x05\n      dup2\n      lt\n      tag_19\n      jumpi\n      tag_20\n      tag_21\n      jump\t// in\n    tag_20:\n    tag_19:\n      add\n        /* \"ArrayType.sol\":543:556  arr[1] = _num */\n      dup2\n      swap1\n      sstore\n      pop\n        /* \"ArrayType.sol\":493:564  function changeArray(uint _num) public {... */\n      pop\n      jump\t// out\n        /* \"ArrayType.sol\":300:485  function sumArray() public view returns (uint){... */\n    tag_11:\n        /* \"ArrayType.sol\":341:345  uint */\n      0x00\n        /* \"ArrayType.sol\":357:365  uint sum */\n      dup1\n        /* \"ArrayType.sol\":368:369  0 */\n      0x00\n        /* \"ArrayType.sol\":357:369  uint sum = 0 */\n      swap1\n      pop\n        /* \"ArrayType.sol\":385:391  uint i */\n      0x00\n        /* \"ArrayType.sol\":380:457  for (uint i = 0;i < arr.length; i++) {... */\n    tag_24:\n        /* \"ArrayType.sol\":400:410  arr.length */\n      0x05\n        /* \"ArrayType.sol\":396:397  i */\n      dup2\n        /* \"ArrayType.sol\":396:410  i < arr.length */\n      lt\n        /* \"ArrayType.sol\":380:457  for (uint i = 0;i < arr.length; i++) {... */\n      iszero\n      tag_25\n      jumpi\n        /* \"ArrayType.sol\":439:442  arr */\n      0x00\n        /* \"ArrayType.sol\":443:444  i */\n      dup2\n        /* \"ArrayType.sol\":439:445  arr[i] */\n      0x05\n      dup2\n      lt\n      tag_27\n      jumpi\n      tag_28\n      tag_21\n      jump\t// in\n    tag_28:\n    tag_27:\n      add\n      sload\n        /* \"ArrayType.sol\":432:445  sum += arr[i] */\n      dup3\n      tag_30\n      swap2\n      swap1\n      tag_31\n      jump\t// in\n    tag_30:\n      swap2\n      pop\n        /* \"ArrayType.sol\":412:415  i++ */\n      dup1\n      dup1\n      tag_32\n      swap1\n      tag_33\n      jump\t// in\n    tag_32:\n      swap2\n      pop\n      pop\n        /* \"ArrayType.sol\":380:457  for (uint i = 0;i < arr.length; i++) {... */\n      jump(tag_24)\n    tag_25:\n      pop\n        /* \"ArrayType.sol\":474:477  sum */\n      dup1\n        /* \"ArrayType.sol\":467:477  return sum */\n      swap2\n      pop\n      pop\n        /* \"ArrayType.sol\":300:485  function sumArray() public view returns (uint){... */\n      swap1\n      jump\t// out\n        /* \"ArrayType.sol\":202:288  function getArray() public view returns (uint[5] memory) {... */\n    tag_15:\n        /* \"ArrayType.sol\":243:257  uint[5] memory */\n      tag_34\n      tag_35\n      jump\t// in\n    tag_34:\n        /* \"ArrayType.sol\":277:280  arr */\n      0x00\n        /* \"ArrayType.sol\":270:280  return arr */\n      0x05\n      dup1\n      0x20\n      mul\n      mload(0x40)\n      swap1\n      dup2\n      add\n      0x40\n      mstore\n      dup1\n      swap3\n      swap2\n      swap1\n      dup3\n      0x05\n      dup1\n      iszero\n      tag_37\n      jumpi\n      0x20\n      mul\n      dup3\n      add\n      swap2\n    tag_38:\n      dup2\n      sload\n      dup2\n      mstore\n      0x20\n      add\n      swap1\n      0x01\n      add\n      swap1\n      dup1\n      dup4\n      gt\n      tag_38\n      jumpi\n    tag_37:\n      pop\n      pop\n      pop\n      pop\n      pop\n      swap1\n      pop\n        /* \"ArrayType.sol\":202:288  function getArray() public view returns (uint[5] memory) {... */\n      swap1\n      jump\t// out\n    tag_35:\n      mload(0x40)\n      dup1\n      0xa0\n      add\n      0x40\n      mstore\n      dup1\n      0x05\n      swap1\n      0x20\n      dup3\n      mul\n      dup1\n      calldatasize\n      dup4\n      calldatacopy\n      dup1\n      dup3\n      add\n      swap2\n      pop\n      pop\n      swap1\n      pop\n      pop\n      swap1\n      jump\t// out\n        /* \"#utility.yul\":88:205   */\n    tag_40:\n        /* \"#utility.yul\":197:198   */\n      0x00\n        /* \"#utility.yul\":194:195   */\n      dup1\n        /* \"#utility.yul\":187:199   */\n      revert\n        /* \"#utility.yul\":334:411   */\n    tag_42:\n        /* \"#utility.yul\":371:378   */\n      0x00\n        /* \"#utility.yul\":400:405   */\n      dup2\n        /* \"#utility.yul\":389:405   */\n      swap1\n      pop\n        /* \"#utility.yul\":334:411   */\n      swap2\n      swap1\n      pop\n      jump\t// out\n        /* \"#utility.yul\":417:539   */\n    tag_43:\n        /* \"#utility.yul\":490:514   */\n      tag_60\n        /* \"#utility.yul\":508:513   */\n      dup2\n        /* \"#utility.yul\":490:514   */\n      tag_42\n      jump\t// in\n    tag_60:\n        /* \"#utility.yul\":483:488   */\n      dup2\n        /* \"#utility.yul\":480:515   */\n      eq\n        /* \"#utility.yul\":470:533   */\n      tag_61\n      jumpi\n        /* \"#utility.yul\":529:530   */\n      0x00\n        /* \"#utility.yul\":526:527   */\n      dup1\n        /* \"#utility.yul\":519:531   */\n      revert\n        /* \"#utility.yul\":470:533   */\n    tag_61:\n        /* \"#utility.yul\":417:539   */\n      pop\n      jump\t// out\n        /* \"#utility.yul\":545:684   */\n    tag_44:\n        /* \"#utility.yul\":591:596   */\n      0x00\n        /* \"#utility.yul\":629:635   */\n      dup2\n        /* \"#utility.yul\":616:636   */\n      calldataload\n        /* \"#utility.yul\":607:636   */\n      swap1\n      pop\n        /* \"#utility.yul\":645:678   */\n      tag_63\n        /* \"#utility.yul\":672:677   */\n      dup2\n        /* \"#utility.yul\":645:678   */\n      tag_43\n      jump\t// in\n    tag_63:\n        /* \"#utility.yul\":545:684   */\n      swap3\n      swap2\n      pop\n      pop\n      jump\t// out\n        /* \"#utility.yul\":690:1019   */\n    tag_8:\n        /* \"#utility.yul\":749:755   */\n      0x00\n        /* \"#utility.yul\":798:800   */\n      0x20\n        /* \"#utility.yul\":786:795   */\n      dup3\n        /* \"#utility.yul\":777:784   */\n      dup5\n        /* \"#utility.yul\":773:796   */\n      sub\n        /* \"#utility.yul\":769:801   */\n      slt\n        /* \"#utility.yul\":766:885   */\n      iszero\n      tag_65\n      jumpi\n        /* \"#utility.yul\":804:883   */\n      tag_66\n      tag_40\n      jump\t// in\n    tag_66:\n        /* \"#utility.yul\":766:885   */\n    tag_65:\n        /* \"#utility.yul\":924:925   */\n      0x00\n        /* \"#utility.yul\":949:1002   */\n      tag_67\n        /* \"#utility.yul\":994:1001   */\n      dup5\n        /* \"#utility.yul\":985:991   */\n      dup3\n        /* \"#utility.yul\":974:983   */\n      dup6\n        /* \"#utility.yul\":970:992   */\n      add\n        /* \"#utility.yul\":949:1002   */\n      tag_44\n      jump\t// in\n    tag_67:\n        /* \"#utility.yul\":939:1002   */\n      swap2\n      pop\n        /* \"#utility.yul\":895:1012   */\n      pop\n        /* \"#utility.yul\":690:1019   */\n      swap3\n      swap2\n      pop\n      pop\n      jump\t// out\n        /* \"#utility.yul\":1025:1143   */\n    tag_45:\n        /* \"#utility.yul\":1112:1136   */\n      tag_69\n        /* \"#utility.yul\":1130:1135   */\n      dup2\n        /* \"#utility.yul\":1112:1136   */\n      tag_42\n      jump\t// in\n    tag_69:\n        /* \"#utility.yul\":1107:1110   */\n      dup3\n        /* \"#utility.yul\":1100:1137   */\n      mstore\n        /* \"#utility.yul\":1025:1143   */\n      pop\n      pop\n      jump\t// out\n        /* \"#utility.yul\":1149:1371   */\n    tag_13:\n        /* \"#utility.yul\":1242:1246   */\n      0x00\n        /* \"#utility.yul\":1280:1282   */\n      0x20\n        /* \"#utility.yul\":1269:1278   */\n      dup3\n        /* \"#utility.yul\":1265:1283   */\n      add\n        /* \"#utility.yul\":1257:1283   */\n      swap1\n      pop\n        /* \"#utility.yul\":1293:1364   */\n      tag_71\n        /* \"#utility.yul\":1361:1362   */\n      0x00\n        /* \"#utility.yul\":1350:1359   */\n      dup4\n        /* \"#utility.yul\":1346:1363   */\n      add\n        /* \"#utility.yul\":1337:1343   */\n      dup5\n        /* \"#utility.yul\":1293:1364   */\n      tag_45\n      jump\t// in\n    tag_71:\n        /* \"#utility.yul\":1149:1371   */\n      swap3\n      swap2\n      pop\n      pop\n      jump\t// out\n        /* \"#utility.yul\":1377:1481   */\n    tag_46:\n        /* \"#utility.yul\":1442:1448   */\n      0x00\n        /* \"#utility.yul\":1470:1474   */\n      0x05\n        /* \"#utility.yul\":1460:1474   */\n      swap1\n      pop\n        /* \"#utility.yul\":1377:1481   */\n      swap2\n      swap1\n      pop\n      jump\t// out\n        /* \"#utility.yul\":1487:1630   */\n    tag_47:\n        /* \"#utility.yul\":1584:1595   */\n      0x00\n        /* \"#utility.yul\":1621:1624   */\n      dup2\n        /* \"#utility.yul\":1606:1624   */\n      swap1\n      pop\n        /* \"#utility.yul\":1487:1630   */\n      swap3\n      swap2\n      pop\n      pop\n      jump\t// out\n        /* \"#utility.yul\":1636:1734   */\n    tag_48:\n        /* \"#utility.yul\":1701:1705   */\n      0x00\n        /* \"#utility.yul\":1724:1727   */\n      dup2\n        /* \"#utility.yul\":1716:1727   */\n      swap1\n      pop\n        /* \"#utility.yul\":1636:1734   */\n      swap2\n      swap1\n      pop\n      jump\t// out\n        /* \"#utility.yul\":1740:1848   */\n    tag_49:\n        /* \"#utility.yul\":1817:1841   */\n      tag_76\n        /* \"#utility.yul\":1835:1840   */\n      dup2\n        /* \"#utility.yul\":1817:1841   */\n      tag_42\n      jump\t// in\n    tag_76:\n        /* \"#utility.yul\":1812:1815   */\n      dup3\n        /* \"#utility.yul\":1805:1842   */\n      mstore\n        /* \"#utility.yul\":1740:1848   */\n      pop\n      pop\n      jump\t// out\n        /* \"#utility.yul\":1854:2033   */\n    tag_50:\n        /* \"#utility.yul\":1923:1933   */\n      0x00\n        /* \"#utility.yul\":1944:1990   */\n      tag_78\n        /* \"#utility.yul\":1986:1989   */\n      dup4\n        /* \"#utility.yul\":1978:1984   */\n      dup4\n        /* \"#utility.yul\":1944:1990   */\n      tag_49\n      jump\t// in\n    tag_78:\n        /* \"#utility.yul\":2022:2026   */\n      0x20\n        /* \"#utility.yul\":2017:2020   */\n      dup4\n        /* \"#utility.yul\":2013:2027   */\n      add\n        /* \"#utility.yul\":1999:2027   */\n      swap1\n      pop\n        /* \"#utility.yul\":1854:2033   */\n      swap3\n      swap2\n      pop\n      pop\n      jump\t// out\n        /* \"#utility.yul\":2039:2150   */\n    tag_51:\n        /* \"#utility.yul\":2107:2111   */\n      0x00\n        /* \"#utility.yul\":2139:2143   */\n      0x20\n        /* \"#utility.yul\":2134:2137   */\n      dup3\n        /* \"#utility.yul\":2130:2144   */\n      add\n        /* \"#utility.yul\":2122:2144   */\n      swap1\n      pop\n        /* \"#utility.yul\":2039:2150   */\n      swap2\n      swap1\n      pop\n      jump\t// out\n        /* \"#utility.yul\":2188:2882   */\n    tag_52:\n        /* \"#utility.yul\":2324:2376   */\n      tag_81\n        /* \"#utility.yul\":2370:2375   */\n      dup2\n        /* \"#utility.yul\":2324:2376   */\n      tag_46\n      jump\t// in\n    tag_81:\n        /* \"#utility.yul\":2392:2476   */\n      tag_82\n        /* \"#utility.yul\":2469:2475   */\n      dup2\n        /* \"#utility.yul\":2464:2467   */\n      dup5\n        /* \"#utility.yul\":2392:2476   */\n      tag_47\n      jump\t// in\n    tag_82:\n        /* \"#utility.yul\":2385:2476   */\n      swap3\n      pop\n        /* \"#utility.yul\":2500:2554   */\n      tag_83\n        /* \"#utility.yul\":2548:2553   */\n      dup3\n        /* \"#utility.yul\":2500:2554   */\n      tag_48\n      jump\t// in\n    tag_83:\n        /* \"#utility.yul\":2577:2584   */\n      dup1\n        /* \"#utility.yul\":2608:2609   */\n      0x00\n        /* \"#utility.yul\":2593:2875   */\n    tag_84:\n        /* \"#utility.yul\":2618:2624   */\n      dup4\n        /* \"#utility.yul\":2615:2616   */\n      dup2\n        /* \"#utility.yul\":2612:2625   */\n      lt\n        /* \"#utility.yul\":2593:2875   */\n      iszero\n      tag_86\n      jumpi\n        /* \"#utility.yul\":2694:2700   */\n      dup2\n        /* \"#utility.yul\":2688:2701   */\n      mload\n        /* \"#utility.yul\":2721:2784   */\n      tag_87\n        /* \"#utility.yul\":2780:2783   */\n      dup8\n        /* \"#utility.yul\":2765:2778   */\n      dup3\n        /* \"#utility.yul\":2721:2784   */\n      tag_50\n      jump\t// in\n    tag_87:\n        /* \"#utility.yul\":2714:2784   */\n      swap7\n      pop\n        /* \"#utility.yul\":2807:2865   */\n      tag_88\n        /* \"#utility.yul\":2858:2864   */\n      dup4\n        /* \"#utility.yul\":2807:2865   */\n      tag_51\n      jump\t// in\n    tag_88:\n        /* \"#utility.yul\":2797:2865   */\n      swap3\n      pop\n        /* \"#utility.yul\":2653:2875   */\n      pop\n        /* \"#utility.yul\":2640:2641   */\n      0x01\n        /* \"#utility.yul\":2637:2638   */\n      dup2\n        /* \"#utility.yul\":2633:2642   */\n      add\n        /* \"#utility.yul\":2628:2642   */\n      swap1\n      pop\n        /* \"#utility.yul\":2593:2875   */\n      jump(tag_84)\n    tag_86:\n        /* \"#utility.yul\":2597:2611   */\n      pop\n        /* \"#utility.yul\":2300:2882   */\n      pop\n      pop\n      pop\n        /* \"#utility.yul\":2188:2882   */\n      pop\n      pop\n      jump\t// out\n        /* \"#utility.yul\":2888:3203   */\n    tag_17:\n        /* \"#utility.yul\":3027:3031   */\n      0x00\n        /* \"#utility.yul\":3065:3068   */\n      0xa0\n        /* \"#utility.yul\":3054:3063   */\n      dup3\n        /* \"#utility.yul\":3050:3069   */\n      add\n        /* \"#utility.yul\":3042:3069   */\n      swap1\n      pop\n        /* \"#utility.yul\":3079:3196   */\n      tag_90\n        /* \"#utility.yul\":3193:3194   */\n      0x00\n        /* \"#utility.yul\":3182:3191   */\n      dup4\n        /* \"#utility.yul\":3178:3195   */\n      add\n        /* \"#utility.yul\":3169:3175   */\n      dup5\n        /* \"#utility.yul\":3079:3196   */\n      tag_52\n      jump\t// in\n    tag_90:\n        /* \"#utility.yul\":2888:3203   */\n      swap3\n      swap2\n      pop\n      pop\n      jump\t// out\n        /* \"#utility.yul\":3209:3389   */\n    tag_21:\n        /* \"#utility.yul\":3257:3334   */\n      0x4e487b7100000000000000000000000000000000000000000000000000000000\n        /* \"#utility.yul\":3254:3255   */\n      0x00\n        /* \"#utility.yul\":3247:3335   */\n      mstore\n        /* \"#utility.yul\":3354:3358   */\n      0x32\n        /* \"#utility.yul\":3351:3352   */\n      0x04\n        /* \"#utility.yul\":3344:3359   */\n      mstore\n        /* \"#utility.yul\":3378:3382   */\n      0x24\n        /* \"#utility.yul\":3375:3376   */\n      0x00\n        /* \"#utility.yul\":3368:3383   */\n      revert\n        /* \"#utility.yul\":3395:3575   */\n    tag_53:\n        /* \"#utility.yul\":3443:3520   */\n      0x4e487b7100000000000000000000000000000000000000000000000000000000\n        /* \"#utility.yul\":3440:3441   */\n      0x00\n        /* \"#utility.yul\":3433:3521   */\n      mstore\n        /* \"#utility.yul\":3540:3544   */\n      0x11\n        /* \"#utility.yul\":3537:3538   */\n      0x04\n        /* \"#utility.yul\":3530:3545   */\n      mstore\n        /* \"#utility.yul\":3564:3568   */\n      0x24\n        /* \"#utility.yul\":3561:3562   */\n      0x00\n        /* \"#utility.yul\":3554:3569   */\n      revert\n        /* \"#utility.yul\":3581:3772   */\n    tag_31:\n        /* \"#utility.yul\":3621:3624   */\n      0x00\n        /* \"#utility.yul\":3640:3660   */\n      tag_94\n        /* \"#utility.yul\":3658:3659   */\n      dup3\n        /* \"#utility.yul\":3640:3660   */\n      tag_42\n      jump\t// in\n    tag_94:\n        /* \"#utility.yul\":3635:3660   */\n      swap2\n      pop\n        /* \"#utility.yul\":3674:3694   */\n      tag_95\n        /* \"#utility.yul\":3692:3693   */\n      dup4\n        /* \"#utility.yul\":3674:3694   */\n      tag_42\n      jump\t// in\n    tag_95:\n        /* \"#utility.yul\":3669:3694   */\n      swap3\n      pop\n        /* \"#utility.yul\":3717:3718   */\n      dup3\n        /* \"#utility.yul\":3714:3715   */\n      dup3\n        /* \"#utility.yul\":3710:3719   */\n      add\n        /* \"#utility.yul\":3703:3719   */\n      swap1\n      pop\n        /* \"#utility.yul\":3738:3741   */\n      dup1\n        /* \"#utility.yul\":3735:3736   */\n      dup3\n        /* \"#utility.yul\":3732:3742   */\n      gt\n        /* \"#utility.yul\":3729:3765   */\n      iszero\n      tag_96\n      jumpi\n        /* \"#utility.yul\":3745:3763   */\n      tag_97\n      tag_53\n      jump\t// in\n    tag_97:\n        /* \"#utility.yul\":3729:3765   */\n    tag_96:\n        /* \"#utility.yul\":3581:3772   */\n      swap3\n      swap2\n      pop\n      pop\n      jump\t// out\n        /* \"#utility.yul\":3778:4011   */\n    tag_33:\n        /* \"#utility.yul\":3817:3820   */\n      0x00\n        /* \"#utility.yul\":3840:3864   */\n      tag_99\n        /* \"#utility.yul\":3858:3863   */\n      dup3\n        /* \"#utility.yul\":3840:3864   */\n      tag_42\n      jump\t// in\n    tag_99:\n        /* \"#utility.yul\":3831:3864   */\n      swap2\n      pop\n        /* \"#utility.yul\":3886:3952   */\n      0xffffffffffffffffffffffffffffffffffffffffffffffffffffffffffffffff\n        /* \"#utility.yul\":3879:3884   */\n      dup3\n        /* \"#utility.yul\":3876:3953   */\n      sub\n        /* \"#utility.yul\":3873:3976   */\n      tag_100\n      jumpi\n        /* \"#utility.yul\":3956:3974   */\n      tag_101\n      tag_53\n      jump\t// in\n    tag_101:\n        /* \"#utility.yul\":3873:3976   */\n    tag_100:\n        /* \"#utility.yul\":4003:4004   */\n      0x01\n        /* \"#utility.yul\":3996:4001   */\n      dup3\n        /* \"#utility.yul\":3992:4005   */\n      add\n        /* \"#utility.yul\":3985:4005   */\n      swap1\n      pop\n        /* \"#utility.yul\":3778:4011   */\n      swap2\n      swap1\n      pop\n      jump\t// out\n\n    auxdata: 0xa26469706673582212209314b707bcbd17aa3a94bc6284992827325d595ab6327704c8cae60ead33e2d864736f6c63430008130033\n}\n",
				"bytecode": {
					"linkReferences": {},
					"object": "60806040526040518060800160405280600260ff168152602001600360ff168152602001600460ff168152602001600560ff168152506000906004610045929190610058565b5034801561005257600080fd5b506100ba565b826005810192821561008c579160200282015b8281111561008b578251829060ff1690559160200191906001019061006b565b5b509050610099919061009d565b5090565b5b808211156100b657600081600090555060010161009e565b5090565b6103e2806100c96000396000f3fe608060405234801561001057600080fd5b50600436106100415760003560e01c80636e366c961461004657806381d7342314610062578063d504ea1d14610080575b600080fd5b610060600480360381019061005b91906101b5565b61009e565b005b61006a6100bc565b60405161007791906101f1565b60405180910390f35b61008861010d565b60405161009591906102b7565b60405180910390f35b8060006001600581106100b4576100b36102d2565b5b018190555050565b6000806000905060005b600581101561010557600081600581106100e3576100e26102d2565b5b0154826100f09190610330565b915080806100fd90610364565b9150506100c6565b508091505090565b610115610158565b600060058060200260405190810160405280929190826005801561014e576020028201915b81548152602001906001019080831161013a575b5050505050905090565b6040518060a00160405280600590602082028036833780820191505090505090565b600080fd5b6000819050919050565b6101928161017f565b811461019d57600080fd5b50565b6000813590506101af81610189565b92915050565b6000602082840312156101cb576101ca61017a565b5b60006101d9848285016101a0565b91505092915050565b6101eb8161017f565b82525050565b600060208201905061020660008301846101e2565b92915050565b600060059050919050565b600081905092915050565b6000819050919050565b6102358161017f565b82525050565b6000610247838361022c565b60208301905092915050565b6000602082019050919050565b6102698161020c565b6102738184610217565b925061027e82610222565b8060005b838110156102af578151610296878261023b565b96506102a183610253565b925050600181019050610282565b505050505050565b600060a0820190506102cc6000830184610260565b92915050565b7f4e487b7100000000000000000000000000000000000000000000000000000000600052603260045260246000fd5b7f4e487b7100000000000000000000000000000000000000000000000000000000600052601160045260246000fd5b600061033b8261017f565b91506103468361017f565b925082820190508082111561035e5761035d610301565b5b92915050565b600061036f8261017f565b91507fffffffffffffffffffffffffffffffffffffffffffffffffffffffffffffffff82036103a1576103a0610301565b5b60018201905091905056fea26469706673582212209314b707bcbd17aa3a94bc6284992827325d595ab6327704c8cae60ead33e2d864736f6c63430008130033",
					"opcodes": "PUSH1 0x80 PUSH1 0x40 MSTORE PUSH1 0x40 MLOAD DUP1 PUSH1 0x80 ADD PUSH1 0x40 MSTORE DUP1 PUSH1 0x2 PUSH1 0xFF AND DUP2 MSTORE PUSH1 0x20 ADD PUSH1 0x3 PUSH1 0xFF AND DUP2 MSTORE PUSH1 0x20 ADD PUSH1 0x4 PUSH1 0xFF AND DUP2 MSTORE PUSH1 0x20 ADD PUSH1 0x5 PUSH1 0xFF AND DUP2 MSTORE POP PUSH1 0x0 SWAP1 PUSH1 0x4 PUSH2 0x45 SWAP3 SWAP2 SWAP1 PUSH2 0x58 JUMP JUMPDEST POP CALLVALUE DUP1 ISZERO PUSH2 0x52 JUMPI PUSH1 0x0 DUP1 REVERT JUMPDEST POP PUSH2 0xBA JUMP JUMPDEST DUP3 PUSH1 0x5 DUP2 ADD SWAP3 DUP3 ISZERO PUSH2 0x8C JUMPI SWAP2 PUSH1 0x20 MUL DUP3 ADD JUMPDEST DUP3 DUP2 GT ISZERO PUSH2 0x8B JUMPI DUP3 MLOAD DUP3 SWAP1 PUSH1 0xFF AND SWAP1 SSTORE SWAP2 PUSH1 0x20 ADD SWAP2 SWAP1 PUSH1 0x1 ADD SWAP1 PUSH2 0x6B JUMP JUMPDEST JUMPDEST POP SWAP1 POP PUSH2 0x99 SWAP2 SWAP1 PUSH2 0x9D JUMP JUMPDEST POP SWAP1 JUMP JUMPDEST JUMPDEST DUP1 DUP3 GT ISZERO PUSH2 0xB6 JUMPI PUSH1 0x0 DUP2 PUSH1 0x0 SWAP1 SSTORE POP PUSH1 0x1 ADD PUSH2 0x9E JUMP JUMPDEST POP SWAP1 JUMP JUMPDEST PUSH2 0x3E2 DUP1 PUSH2 0xC9 PUSH1 0x0 CODECOPY PUSH1 0x0 RETURN INVALID PUSH1 0x80 PUSH1 0x40 MSTORE CALLVALUE DUP1 ISZERO PUSH2 0x10 JUMPI PUSH1 0x0 DUP1 REVERT JUMPDEST POP PUSH1 0x4 CALLDATASIZE LT PUSH2 0x41 JUMPI PUSH1 0x0 CALLDATALOAD PUSH1 0xE0 SHR DUP1 PUSH4 0x6E366C96 EQ PUSH2 0x46 JUMPI DUP1 PUSH4 0x81D73423 EQ PUSH2 0x62 JUMPI DUP1 PUSH4 0xD504EA1D EQ PUSH2 0x80 JUMPI JUMPDEST PUSH1 0x0 DUP1 REVERT JUMPDEST PUSH2 0x60 PUSH1 0x4 DUP1 CALLDATASIZE SUB DUP2 ADD SWAP1 PUSH2 0x5B SWAP2 SWAP1 PUSH2 0x1B5 JUMP JUMPDEST PUSH2 0x9E JUMP JUMPDEST STOP JUMPDEST PUSH2 0x6A PUSH2 0xBC JUMP JUMPDEST PUSH1 0x40 MLOAD PUSH2 0x77 SWAP2 SWAP1 PUSH2 0x1F1 JUMP JUMPDEST PUSH1 0x40 MLOAD DUP1 SWAP2 SUB SWAP1 RETURN JUMPDEST PUSH2 0x88 PUSH2 0x10D JUMP JUMPDEST PUSH1 0x40 MLOAD PUSH2 0x95 SWAP2 SWAP1 PUSH2 0x2B7 JUMP JUMPDEST PUSH1 0x40 MLOAD DUP1 SWAP2 SUB SWAP1 RETURN JUMPDEST DUP1 PUSH1 0x0 PUSH1 0x1 PUSH1 0x5 DUP2 LT PUSH2 0xB4 JUMPI PUSH2 0xB3 PUSH2 0x2D2 JUMP JUMPDEST JUMPDEST ADD DUP2 SWAP1 SSTORE POP POP JUMP JUMPDEST PUSH1 0x0 DUP1 PUSH1 0x0 SWAP1 POP PUSH1 0x0 JUMPDEST PUSH1 0x5 DUP2 LT ISZERO PUSH2 0x105 JUMPI PUSH1 0x0 DUP2 PUSH1 0x5 DUP2 LT PUSH2 0xE3 JUMPI PUSH2 0xE2 PUSH2 0x2D2 JUMP JUMPDEST JUMPDEST ADD SLOAD DUP3 PUSH2 0xF0 SWAP2 SWAP1 PUSH2 0x330 JUMP JUMPDEST SWAP2 POP DUP1 DUP1 PUSH2 0xFD SWAP1 PUSH2 0x364 JUMP JUMPDEST SWAP2 POP POP PUSH2 0xC6 JUMP JUMPDEST POP DUP1 SWAP2 POP POP SWAP1 JUMP JUMPDEST PUSH2 0x115 PUSH2 0x158 JUMP JUMPDEST PUSH1 0x0 PUSH1 0x5 DUP1 PUSH1 0x20 MUL PUSH1 0x40 MLOAD SWAP1 DUP2 ADD PUSH1 0x40 MSTORE DUP1 SWAP3 SWAP2 SWAP1 DUP3 PUSH1 0x5 DUP1 ISZERO PUSH2 0x14E JUMPI PUSH1 0x20 MUL DUP3 ADD SWAP2 JUMPDEST DUP2 SLOAD DUP2 MSTORE PUSH1 0x20 ADD SWAP1 PUSH1 0x1 ADD SWAP1 DUP1 DUP4 GT PUSH2 0x13A JUMPI JUMPDEST POP POP POP POP POP SWAP1 POP SWAP1 JUMP JUMPDEST PUSH1 0x40 MLOAD DUP1 PUSH1 0xA0 ADD PUSH1 0x40 MSTORE DUP1 PUSH1 0x5 SWAP1 PUSH1 0x20 DUP3 MUL DUP1 CALLDATASIZE DUP4 CALLDATACOPY DUP1 DUP3 ADD SWAP2 POP POP SWAP1 POP POP SWAP1 JUMP JUMPDEST PUSH1 0x0 DUP1 REVERT JUMPDEST PUSH1 0x0 DUP2 SWAP1 POP SWAP2 SWAP1 POP JUMP JUMPDEST PUSH2 0x192 DUP2 PUSH2 0x17F JUMP JUMPDEST DUP2 EQ PUSH2 0x19D JUMPI PUSH1 0x0 DUP1 REVERT JUMPDEST POP JUMP JUMPDEST PUSH1 0x0 DUP2 CALLDATALOAD SWAP1 POP PUSH2 0x1AF DUP2 PUSH2 0x189 JUMP JUMPDEST SWAP3 SWAP2 POP POP JUMP JUMPDEST PUSH1 0x0 PUSH1 0x20 DUP3 DUP5 SUB SLT ISZERO PUSH2 0x1CB JUMPI PUSH2 0x1CA PUSH2 0x17A JUMP JUMPDEST JUMPDEST PUSH1 0x0 PUSH2 0x1D9 DUP5 DUP3 DUP6 ADD PUSH2 0x1A0 JUMP JUMPDEST SWAP2 POP POP SWAP3 SWAP2 POP POP JUMP JUMPDEST PUSH2 0x1EB DUP2 PUSH2 0x17F JUMP JUMPDEST DUP3 MSTORE POP POP JUMP JUMPDEST PUSH1 0x0 PUSH1 0x20 DUP3 ADD SWAP1 POP PUSH2 0x206 PUSH1 0x0 DUP4 ADD DUP5 PUSH2 0x1E2 JUMP JUMPDEST SWAP3 SWAP2 POP POP JUMP JUMPDEST PUSH1 0x0 PUSH1 0x5 SWAP1 POP SWAP2 SWAP1 POP JUMP JUMPDEST PUSH1 0x0 DUP2 SWAP1 POP SWAP3 SWAP2 POP POP JUMP JUMPDEST PUSH1 0x0 DUP2 SWAP1 POP SWAP2 SWAP1 POP JUMP JUMPDEST PUSH2 0x235 DUP2 PUSH2 0x17F JUMP JUMPDEST DUP3 MSTORE POP POP JUMP JUMPDEST PUSH1 0x0 PUSH2 0x247 DUP4 DUP4 PUSH2 0x22C JUMP JUMPDEST PUSH1 0x20 DUP4 ADD SWAP1 POP SWAP3 SWAP2 POP POP JUMP JUMPDEST PUSH1 0x0 PUSH1 0x20 DUP3 ADD SWAP1 POP SWAP2 SWAP1 POP JUMP JUMPDEST PUSH2 0x269 DUP2 PUSH2 0x20C JUMP JUMPDEST PUSH2 0x273 DUP2 DUP5 PUSH2 0x217 JUMP JUMPDEST SWAP3 POP PUSH2 0x27E DUP3 PUSH2 0x222 JUMP JUMPDEST DUP1 PUSH1 0x0 JUMPDEST DUP4 DUP2 LT ISZERO PUSH2 0x2AF JUMPI DUP2 MLOAD PUSH2 0x296 DUP8 DUP3 PUSH2 0x23B JUMP JUMPDEST SWAP7 POP PUSH2 0x2A1 DUP4 PUSH2 0x253 JUMP JUMPDEST SWAP3 POP POP PUSH1 0x1 DUP2 ADD SWAP1 POP PUSH2 0x282 JUMP JUMPDEST POP POP POP POP POP POP JUMP JUMPDEST PUSH1 0x0 PUSH1 0xA0 DUP3 ADD SWAP1 POP PUSH2 0x2CC PUSH1 0x0 DUP4 ADD DUP5 PUSH2 0x260 JUMP JUMPDEST SWAP3 SWAP2 POP POP JUMP JUMPDEST PUSH32 0x4E487B7100000000000000000000000000000000000000000000000000000000 PUSH1 0x0 MSTORE PUSH1 0x32 PUSH1 0x4 MSTORE PUSH1 0x24 PUSH1 0x0 REVERT JUMPDEST PUSH32 0x4E487B7100000000000000000000000000000000000000000000000000000000 PUSH1 0x0 MSTORE PUSH1 0x11 PUSH1 0x4 MSTORE PUSH1 0x24 PUSH1 0x0 REVERT JUMPDEST PUSH1 0x0 PUSH2 0x33B DUP3 PUSH2 0x17F JUMP JUMPDEST SWAP2 POP PUSH2 0x346 DUP4 PUSH2 0x17F JUMP JUMPDEST SWAP3 POP DUP3 DUP3 ADD SWAP1 POP DUP1 DUP3 GT ISZERO PUSH2 0x35E JUMPI PUSH2 0x35D PUSH2 0x301 JUMP JUMPDEST JUMPDEST SWAP3 SWAP2 POP POP JUMP JUMPDEST PUSH1 0x0 PUSH2 0x36F DUP3 PUSH2 0x17F JUMP JUMPDEST SWAP2 POP PUSH32 0xFFFFFFFFFFFFFFFFFFFFFFFFFFFFFFFFFFFFFFFFFFFFFFFFFFFFFFFFFFFFFFFF DUP3 SUB PUSH2 0x3A1 JUMPI PUSH2 0x3A0 PUSH2 0x301 JUMP JUMPDEST JUMPDEST PUSH1 0x1 DUP3 ADD SWAP1 POP SWAP2 SWAP1 POP JUMP INVALID LOG2 PUSH5 0x6970667358 0x22 SLT KECCAK256 SWAP4 EQ 0xB7 SMOD 0xBC 0xBD OR 0xAA GASPRICE SWAP5 0xBC PUSH3 0x849928 0x27 ORIGIN 0x5D MSIZE GAS 0xB6 ORIGIN PUSH24 0x4C8CAE60EAD33E2D864736F6C6343000813003300000000 "
				},
				"gasEstimates": {
					"creation": {
						"codeDepositCost": "198800",
						"executionCost": "infinite",
						"totalCost": "infinite"
					},
					"external": {
						"changeArray(uint256)": "22527",
						"getArray()": "infinite",
						"sumArray()": "infinite"
					}
				},
				"methodIdentifiers": {
					"changeArray(uint256)": "6e366c96",
					"getArray()": "d504ea1d",
					"sumArray()": "81d73423"
				}
			},
			"storageLayout": {
				"storage": [
					{
						"astId": 10,
						"contract": "ArrayType.sol:ArrayType",
						"label": "arr",
						"offset": 0,
						"slot": "0",
						"type": "t_array(t_uint256)5_storage"
					}
				],
				"types": {
					"t_array(t_uint256)5_storage": {
						"base": "t_uint256",
						"encoding": "inplace",
						"label": "uint256[5]",
						"numberOfBytes": "160"
					},
					"t_uint256": {
						"encoding": "inplace",
						"label": "uint256",
						"numberOfBytes": "32"
					}
				}
			},
			"userdoc": {
				"kind": "user",
				"methods": {},
				"version": 1
			}
		}
	}
}