{
	"StoreType.sol": {
		"Person": {
			"abi": [
				{
					"inputs": [
						{
							"internalType": "uint256",
							"name": "value",
							"type": "uint256"
						}
					],
					"name": "changeGender",
					"outputs": [],
					"stateMutability": "nonpayable",
					"type": "function"
				},
				{
					"inputs": [],
					"name": "getName",
					"outputs": [
						{
							"internalType": "string",
							"name": "",
							"type": "string"
						}
					],
					"stateMutability": "view",
					"type": "function"
				},
				{
					"inputs": [
						{
							"internalType": "string",
							"name": "_name",
							"type": "string"
						},
						{
							"internalType": "string",
							"name": "_gender",
							"type": "string"
						}
					],
					"name": "setState",
					"outputs": [],
					"stateMutability": "nonpayable",
					"type": "function"
				},
				{
					"inputs": [],
					"name": "state",
					"outputs": [
						{
							"internalType": "string",
							"name": "name",
							"type": "string"
						},
						{
							"internalType": "string",
							"name": "gender",
							"type": "string"
						}
					],
					"stateMutability": "view",
					"type": "function"
				}
			],
			"devdoc": {
				"kind": "dev",
				"methods": {},
				"version": 1
			},
			"evm": {
				"assembly": "    /* \"StoreType.sol\":151:774  contract Person {... */\n  mstore(0x40, 0x80)\n  callvalue\n  dup1\n  iszero\n  tag_1\n  jumpi\n  0x00\n  dup1\n  revert\ntag_1:\n  pop\n  dataSize(sub_0)\n  dup1\n  dataOffset(sub_0)\n  0x00\n  codecopy\n  0x00\n  return\nstop\n\nsub_0: assembly {\n        /* \"StoreType.sol\":151:774  contract Person {... */\n      mstore(0x40, 0x80)\n      callvalue\n      dup1\n      iszero\n      tag_1\n      jumpi\n      0x00\n      dup1\n      revert\n    tag_1:\n      pop\n      jumpi(tag_2, lt(calldatasize, 0x04))\n      shr(0xe0, calldataload(0x00))\n      dup1\n      0x17d7de7c\n      eq\n      tag_3\n      jumpi\n      dup1\n      0x652296f1\n      eq\n      tag_4\n      jumpi\n      dup1\n      0xc19d93fb\n      eq\n      tag_5\n      jumpi\n      dup1\n      0xd9038f3c\n      eq\n      tag_6\n      jumpi\n    tag_2:\n      0x00\n      dup1\n      revert\n        /* \"StoreType.sol\":426:518  function getName() external view returns(string memory) {... */\n    tag_3:\n      tag_7\n      tag_8\n      jump\t// in\n    tag_7:\n      mload(0x40)\n      tag_9\n      swap2\n      swap1\n      tag_10\n      jump\t// in\n    tag_9:\n      mload(0x40)\n      dup1\n      swap2\n      sub\n      swap1\n      return\n        /* \"StoreType.sol\":526:771  function changeGender(uint value) external {... */\n    tag_4:\n      tag_11\n      0x04\n      dup1\n      calldatasize\n      sub\n      dup2\n      add\n      swap1\n      tag_12\n      swap2\n      swap1\n      tag_13\n      jump\t// in\n    tag_12:\n      tag_14\n      jump\t// in\n    tag_11:\n      stop\n        /* \"StoreType.sol\":249:267  State public state */\n    tag_5:\n      tag_15\n      tag_16\n      jump\t// in\n    tag_15:\n      mload(0x40)\n      tag_17\n      swap3\n      swap2\n      swap1\n      tag_18\n      jump\t// in\n    tag_17:\n      mload(0x40)\n      dup1\n      swap2\n      sub\n      swap1\n      return\n        /* \"StoreType.sol\":274:418  function setState(string calldata _name,string calldata _gender) external {... */\n    tag_6:\n      tag_19\n      0x04\n      dup1\n      calldatasize\n      sub\n      dup2\n      add\n      swap1\n      tag_20\n      swap2\n      swap1\n      tag_21\n      jump\t// in\n    tag_20:\n      tag_22\n      jump\t// in\n    tag_19:\n      stop\n        /* \"StoreType.sol\":426:518  function getName() external view returns(string memory) {... */\n    tag_8:\n        /* \"StoreType.sol\":467:480  string memory */\n      0x60\n        /* \"StoreType.sol\":500:505  state */\n      0x00\n        /* \"StoreType.sol\":500:510  state.name */\n      dup1\n      add\n        /* \"StoreType.sol\":493:510  return state.name */\n      dup1\n      sload\n      tag_24\n      swap1\n      tag_25\n      jump\t// in\n    tag_24:\n      dup1\n      0x1f\n      add\n      0x20\n      dup1\n      swap2\n      div\n      mul\n      0x20\n      add\n      mload(0x40)\n      swap1\n      dup2\n      add\n      0x40\n      mstore\n      dup1\n      swap3\n      swap2\n      swap1\n      dup2\n      dup2\n      mstore\n      0x20\n      add\n      dup3\n      dup1\n      sload\n      tag_26\n      swap1\n      tag_25\n      jump\t// in\n    tag_26:\n      dup1\n      iszero\n      tag_27\n      jumpi\n      dup1\n      0x1f\n      lt\n      tag_28\n      jumpi\n      0x0100\n      dup1\n      dup4\n      sload\n      div\n      mul\n      dup4\n      mstore\n      swap2\n      0x20\n      add\n      swap2\n      jump(tag_27)\n    tag_28:\n      dup3\n      add\n      swap2\n      swap1\n      0x00\n      mstore\n      keccak256(0x00, 0x20)\n      swap1\n    tag_29:\n      dup2\n      sload\n      dup2\n      mstore\n      swap1\n      0x01\n      add\n      swap1\n      0x20\n      add\n      dup1\n      dup4\n      gt\n      tag_29\n      jumpi\n      dup3\n      swap1\n      sub\n      0x1f\n      and\n      dup3\n      add\n      swap2\n    tag_27:\n      pop\n      pop\n      pop\n      pop\n      pop\n      swap1\n      pop\n        /* \"StoreType.sol\":426:518  function getName() external view returns(string memory) {... */\n      swap1\n      jump\t// out\n        /* \"StoreType.sol\":526:771  function changeGender(uint value) external {... */\n    tag_14:\n        /* \"StoreType.sol\":597:598  0 */\n      0x00\n        /* \"StoreType.sol\":588:593  value */\n      dup2\n        /* \"StoreType.sol\":588:598  value == 0 */\n      eq\n        /* \"StoreType.sol\":588:612  value == 0 || value == 1 */\n      dup1\n      tag_31\n      jumpi\n      pop\n        /* \"StoreType.sol\":611:612  1 */\n      0x01\n        /* \"StoreType.sol\":602:607  value */\n      dup2\n        /* \"StoreType.sol\":602:612  value == 1 */\n      eq\n        /* \"StoreType.sol\":588:612  value == 0 || value == 1 */\n    tag_31:\n        /* \"StoreType.sol\":580:641  require(value == 0 || value == 1,'Person:Input value error.') */\n      tag_32\n      jumpi\n      mload(0x40)\n      0x08c379a000000000000000000000000000000000000000000000000000000000\n      dup2\n      mstore\n      0x04\n      add\n      tag_33\n      swap1\n      tag_34\n      jump\t// in\n    tag_33:\n      mload(0x40)\n      dup1\n      swap2\n      sub\n      swap1\n      revert\n    tag_32:\n        /* \"StoreType.sol\":652:675  string memory newGender */\n      0x60\n        /* \"StoreType.sol\":707:708  0 */\n      0x00\n        /* \"StoreType.sol\":698:703  value */\n      dup3\n        /* \"StoreType.sol\":698:708  value == 0 */\n      eq\n        /* \"StoreType.sol\":698:728  value == 0 ? \"female\" : \"male\" */\n      tag_35\n      jumpi\n      mload(0x40)\n      dup1\n      0x40\n      add\n      0x40\n      mstore\n      dup1\n      0x04\n      dup2\n      mstore\n      0x20\n      add\n      0x6d616c6500000000000000000000000000000000000000000000000000000000\n      dup2\n      mstore\n      pop\n      jump(tag_36)\n    tag_35:\n      mload(0x40)\n      dup1\n      0x40\n      add\n      0x40\n      mstore\n      dup1\n      0x06\n      dup2\n      mstore\n      0x20\n      add\n      0x66656d616c650000000000000000000000000000000000000000000000000000\n      dup2\n      mstore\n      pop\n    tag_36:\n        /* \"StoreType.sol\":686:728  newGender = value == 0 ? \"female\" : \"male\" */\n      swap1\n      pop\n        /* \"StoreType.sol\":754:763  newGender */\n      dup1\n        /* \"StoreType.sol\":739:744  state */\n      0x00\n        /* \"StoreType.sol\":739:751  state.gender */\n      0x01\n      add\n        /* \"StoreType.sol\":739:763  state.gender = newGender */\n      swap1\n      dup2\n      tag_37\n      swap2\n      swap1\n      tag_38\n      jump\t// in\n    tag_37:\n      pop\n        /* \"StoreType.sol\":569:771  {... */\n      pop\n        /* \"StoreType.sol\":526:771  function changeGender(uint value) external {... */\n      pop\n      jump\t// out\n        /* \"StoreType.sol\":249:267  State public state */\n    tag_16:\n      0x00\n      dup1\n      0x00\n      add\n      dup1\n      sload\n      tag_39\n      swap1\n      tag_25\n      jump\t// in\n    tag_39:\n      dup1\n      0x1f\n      add\n      0x20\n      dup1\n      swap2\n      div\n      mul\n      0x20\n      add\n      mload(0x40)\n      swap1\n      dup2\n      add\n      0x40\n      mstore\n      dup1\n      swap3\n      swap2\n      swap1\n      dup2\n      dup2\n      mstore\n      0x20\n      add\n      dup3\n      dup1\n      sload\n      tag_40\n      swap1\n      tag_25\n      jump\t// in\n    tag_40:\n      dup1\n      iszero\n      tag_41\n      jumpi\n      dup1\n      0x1f\n      lt\n      tag_42\n      jumpi\n      0x0100\n      dup1\n      dup4\n      sload\n      div\n      mul\n      dup4\n      mstore\n      swap2\n      0x20\n      add\n      swap2\n      jump(tag_41)\n    tag_42:\n      dup3\n      add\n      swap2\n      swap1\n      0x00\n      mstore\n      keccak256(0x00, 0x20)\n      swap1\n    tag_43:\n      dup2\n      sload\n      dup2\n      mstore\n      swap1\n      0x01\n      add\n      swap1\n      0x20\n      add\n      dup1\n      dup4\n      gt\n      tag_43\n      jumpi\n      dup3\n      swap1\n      sub\n      0x1f\n      and\n      dup3\n      add\n      swap2\n    tag_41:\n      pop\n      pop\n      pop\n      pop\n      pop\n      swap1\n      dup1\n      0x01\n      add\n      dup1\n      sload\n      tag_44\n      swap1\n      tag_25\n      jump\t// in\n    tag_44:\n      dup1\n      0x1f\n      add\n      0x20\n      dup1\n      swap2\n      div\n      mul\n      0x20\n      add\n      mload(0x40)\n      swap1\n      dup2\n      add\n      0x40\n      mstore\n      dup1\n      swap3\n      swap2\n      swap1\n      dup2\n      dup2\n      mstore\n      0x20\n      add\n      dup3\n      dup1\n      sload\n      tag_45\n      swap1\n      tag_25\n      jump\t// in\n    tag_45:\n      dup1\n      iszero\n      tag_46\n      jumpi\n      dup1\n      0x1f\n      lt\n      tag_47\n      jumpi\n      0x0100\n      dup1\n      dup4\n      sload\n      div\n      mul\n      dup4\n      mstore\n      swap2\n      0x20\n      add\n      swap2\n      jump(tag_46)\n    tag_47:\n      dup3\n      add\n      swap2\n      swap1\n      0x00\n      mstore\n      keccak256(0x00, 0x20)\n      swap1\n    tag_48:\n      dup2\n      sload\n      dup2\n      mstore\n      swap1\n      0x01\n      add\n      swap1\n      0x20\n      add\n      dup1\n      dup4\n      gt\n      tag_48\n      jumpi\n      dup3\n      swap1\n      sub\n      0x1f\n      and\n      dup3\n      add\n      swap2\n    tag_46:\n      pop\n      pop\n      pop\n      pop\n      pop\n      swap1\n      pop\n      dup3\n      jump\t// out\n        /* \"StoreType.sol\":274:418  function setState(string calldata _name,string calldata _gender) external {... */\n    tag_22:\n        /* \"StoreType.sol\":372:377  _name */\n      dup4\n      dup4\n        /* \"StoreType.sol\":359:364  state */\n      0x00\n        /* \"StoreType.sol\":359:369  state.name */\n      dup1\n      add\n        /* \"StoreType.sol\":359:377  state.name = _name */\n      swap2\n      dup3\n      tag_50\n      swap3\n      swap2\n      swap1\n      tag_51\n      jump\t// in\n    tag_50:\n      pop\n        /* \"StoreType.sol\":403:410  _gender */\n      dup2\n      dup2\n        /* \"StoreType.sol\":388:393  state */\n      0x00\n        /* \"StoreType.sol\":388:400  state.gender */\n      0x01\n      add\n        /* \"StoreType.sol\":388:410  state.gender = _gender */\n      swap2\n      dup3\n      tag_52\n      swap3\n      swap2\n      swap1\n      tag_51\n      jump\t// in\n    tag_52:\n      pop\n        /* \"StoreType.sol\":274:418  function setState(string calldata _name,string calldata _gender) external {... */\n      pop\n      pop\n      pop\n      pop\n      jump\t// out\n        /* \"#utility.yul\":7:106   */\n    tag_53:\n        /* \"#utility.yul\":59:65   */\n      0x00\n        /* \"#utility.yul\":93:98   */\n      dup2\n        /* \"#utility.yul\":87:99   */\n      mload\n        /* \"#utility.yul\":77:99   */\n      swap1\n      pop\n        /* \"#utility.yul\":7:106   */\n      swap2\n      swap1\n      pop\n      jump\t// out\n        /* \"#utility.yul\":112:281   */\n    tag_54:\n        /* \"#utility.yul\":196:207   */\n      0x00\n        /* \"#utility.yul\":230:236   */\n      dup3\n        /* \"#utility.yul\":225:228   */\n      dup3\n        /* \"#utility.yul\":218:237   */\n      mstore\n        /* \"#utility.yul\":270:274   */\n      0x20\n        /* \"#utility.yul\":265:268   */\n      dup3\n        /* \"#utility.yul\":261:275   */\n      add\n        /* \"#utility.yul\":246:275   */\n      swap1\n      pop\n        /* \"#utility.yul\":112:281   */\n      swap3\n      swap2\n      pop\n      pop\n      jump\t// out\n        /* \"#utility.yul\":287:533   */\n    tag_55:\n        /* \"#utility.yul\":368:369   */\n      0x00\n        /* \"#utility.yul\":378:491   */\n    tag_92:\n        /* \"#utility.yul\":392:398   */\n      dup4\n        /* \"#utility.yul\":389:390   */\n      dup2\n        /* \"#utility.yul\":386:399   */\n      lt\n        /* \"#utility.yul\":378:491   */\n      iszero\n      tag_94\n      jumpi\n        /* \"#utility.yul\":477:478   */\n      dup1\n        /* \"#utility.yul\":472:475   */\n      dup3\n        /* \"#utility.yul\":468:479   */\n      add\n        /* \"#utility.yul\":462:480   */\n      mload\n        /* \"#utility.yul\":458:459   */\n      dup2\n        /* \"#utility.yul\":453:456   */\n      dup5\n        /* \"#utility.yul\":449:460   */\n      add\n        /* \"#utility.yul\":442:481   */\n      mstore\n        /* \"#utility.yul\":414:416   */\n      0x20\n        /* \"#utility.yul\":411:412   */\n      dup2\n        /* \"#utility.yul\":407:417   */\n      add\n        /* \"#utility.yul\":402:417   */\n      swap1\n      pop\n        /* \"#utility.yul\":378:491   */\n      jump(tag_92)\n    tag_94:\n        /* \"#utility.yul\":525:526   */\n      0x00\n        /* \"#utility.yul\":516:522   */\n      dup5\n        /* \"#utility.yul\":511:514   */\n      dup5\n        /* \"#utility.yul\":507:523   */\n      add\n        /* \"#utility.yul\":500:527   */\n      mstore\n        /* \"#utility.yul\":349:533   */\n      pop\n        /* \"#utility.yul\":287:533   */\n      pop\n      pop\n      pop\n      jump\t// out\n        /* \"#utility.yul\":539:641   */\n    tag_56:\n        /* \"#utility.yul\":580:586   */\n      0x00\n        /* \"#utility.yul\":631:633   */\n      0x1f\n        /* \"#utility.yul\":627:634   */\n      not\n        /* \"#utility.yul\":622:624   */\n      0x1f\n        /* \"#utility.yul\":615:620   */\n      dup4\n        /* \"#utility.yul\":611:625   */\n      add\n        /* \"#utility.yul\":607:635   */\n      and\n        /* \"#utility.yul\":597:635   */\n      swap1\n      pop\n        /* \"#utility.yul\":539:641   */\n      swap2\n      swap1\n      pop\n      jump\t// out\n        /* \"#utility.yul\":647:1024   */\n    tag_57:\n        /* \"#utility.yul\":735:738   */\n      0x00\n        /* \"#utility.yul\":763:802   */\n      tag_97\n        /* \"#utility.yul\":796:801   */\n      dup3\n        /* \"#utility.yul\":763:802   */\n      tag_53\n      jump\t// in\n    tag_97:\n        /* \"#utility.yul\":818:889   */\n      tag_98\n        /* \"#utility.yul\":882:888   */\n      dup2\n        /* \"#utility.yul\":877:880   */\n      dup6\n        /* \"#utility.yul\":818:889   */\n      tag_54\n      jump\t// in\n    tag_98:\n        /* \"#utility.yul\":811:889   */\n      swap4\n      pop\n        /* \"#utility.yul\":898:963   */\n      tag_99\n        /* \"#utility.yul\":956:962   */\n      dup2\n        /* \"#utility.yul\":951:954   */\n      dup6\n        /* \"#utility.yul\":944:948   */\n      0x20\n        /* \"#utility.yul\":937:942   */\n      dup7\n        /* \"#utility.yul\":933:949   */\n      add\n        /* \"#utility.yul\":898:963   */\n      tag_55\n      jump\t// in\n    tag_99:\n        /* \"#utility.yul\":988:1017   */\n      tag_100\n        /* \"#utility.yul\":1010:1016   */\n      dup2\n        /* \"#utility.yul\":988:1017   */\n      tag_56\n      jump\t// in\n    tag_100:\n        /* \"#utility.yul\":983:986   */\n      dup5\n        /* \"#utility.yul\":979:1018   */\n      add\n        /* \"#utility.yul\":972:1018   */\n      swap2\n      pop\n        /* \"#utility.yul\":739:1024   */\n      pop\n        /* \"#utility.yul\":647:1024   */\n      swap3\n      swap2\n      pop\n      pop\n      jump\t// out\n        /* \"#utility.yul\":1030:1343   */\n    tag_10:\n        /* \"#utility.yul\":1143:1147   */\n      0x00\n        /* \"#utility.yul\":1181:1183   */\n      0x20\n        /* \"#utility.yul\":1170:1179   */\n      dup3\n        /* \"#utility.yul\":1166:1184   */\n      add\n        /* \"#utility.yul\":1158:1184   */\n      swap1\n      pop\n        /* \"#utility.yul\":1230:1239   */\n      dup2\n        /* \"#utility.yul\":1224:1228   */\n      dup2\n        /* \"#utility.yul\":1220:1240   */\n      sub\n        /* \"#utility.yul\":1216:1217   */\n      0x00\n        /* \"#utility.yul\":1205:1214   */\n      dup4\n        /* \"#utility.yul\":1201:1218   */\n      add\n        /* \"#utility.yul\":1194:1241   */\n      mstore\n        /* \"#utility.yul\":1258:1336   */\n      tag_102\n        /* \"#utility.yul\":1331:1335   */\n      dup2\n        /* \"#utility.yul\":1322:1328   */\n      dup5\n        /* \"#utility.yul\":1258:1336   */\n      tag_57\n      jump\t// in\n    tag_102:\n        /* \"#utility.yul\":1250:1336   */\n      swap1\n      pop\n        /* \"#utility.yul\":1030:1343   */\n      swap3\n      swap2\n      pop\n      pop\n      jump\t// out\n        /* \"#utility.yul\":1430:1547   */\n    tag_59:\n        /* \"#utility.yul\":1539:1540   */\n      0x00\n        /* \"#utility.yul\":1536:1537   */\n      dup1\n        /* \"#utility.yul\":1529:1541   */\n      revert\n        /* \"#utility.yul\":1553:1670   */\n    tag_60:\n        /* \"#utility.yul\":1662:1663   */\n      0x00\n        /* \"#utility.yul\":1659:1660   */\n      dup1\n        /* \"#utility.yul\":1652:1664   */\n      revert\n        /* \"#utility.yul\":1676:1753   */\n    tag_61:\n        /* \"#utility.yul\":1713:1720   */\n      0x00\n        /* \"#utility.yul\":1742:1747   */\n      dup2\n        /* \"#utility.yul\":1731:1747   */\n      swap1\n      pop\n        /* \"#utility.yul\":1676:1753   */\n      swap2\n      swap1\n      pop\n      jump\t// out\n        /* \"#utility.yul\":1759:1881   */\n    tag_62:\n        /* \"#utility.yul\":1832:1856   */\n      tag_108\n        /* \"#utility.yul\":1850:1855   */\n      dup2\n        /* \"#utility.yul\":1832:1856   */\n      tag_61\n      jump\t// in\n    tag_108:\n        /* \"#utility.yul\":1825:1830   */\n      dup2\n        /* \"#utility.yul\":1822:1857   */\n      eq\n        /* \"#utility.yul\":1812:1875   */\n      tag_109\n      jumpi\n        /* \"#utility.yul\":1871:1872   */\n      0x00\n        /* \"#utility.yul\":1868:1869   */\n      dup1\n        /* \"#utility.yul\":1861:1873   */\n      revert\n        /* \"#utility.yul\":1812:1875   */\n    tag_109:\n        /* \"#utility.yul\":1759:1881   */\n      pop\n      jump\t// out\n        /* \"#utility.yul\":1887:2026   */\n    tag_63:\n        /* \"#utility.yul\":1933:1938   */\n      0x00\n        /* \"#utility.yul\":1971:1977   */\n      dup2\n        /* \"#utility.yul\":1958:1978   */\n      calldataload\n        /* \"#utility.yul\":1949:1978   */\n      swap1\n      pop\n        /* \"#utility.yul\":1987:2020   */\n      tag_111\n        /* \"#utility.yul\":2014:2019   */\n      dup2\n        /* \"#utility.yul\":1987:2020   */\n      tag_62\n      jump\t// in\n    tag_111:\n        /* \"#utility.yul\":1887:2026   */\n      swap3\n      swap2\n      pop\n      pop\n      jump\t// out\n        /* \"#utility.yul\":2032:2361   */\n    tag_13:\n        /* \"#utility.yul\":2091:2097   */\n      0x00\n        /* \"#utility.yul\":2140:2142   */\n      0x20\n        /* \"#utility.yul\":2128:2137   */\n      dup3\n        /* \"#utility.yul\":2119:2126   */\n      dup5\n        /* \"#utility.yul\":2115:2138   */\n      sub\n        /* \"#utility.yul\":2111:2143   */\n      slt\n        /* \"#utility.yul\":2108:2227   */\n      iszero\n      tag_113\n      jumpi\n        /* \"#utility.yul\":2146:2225   */\n      tag_114\n      tag_59\n      jump\t// in\n    tag_114:\n        /* \"#utility.yul\":2108:2227   */\n    tag_113:\n        /* \"#utility.yul\":2266:2267   */\n      0x00\n        /* \"#utility.yul\":2291:2344   */\n      tag_115\n        /* \"#utility.yul\":2336:2343   */\n      dup5\n        /* \"#utility.yul\":2327:2333   */\n      dup3\n        /* \"#utility.yul\":2316:2325   */\n      dup6\n        /* \"#utility.yul\":2312:2334   */\n      add\n        /* \"#utility.yul\":2291:2344   */\n      tag_63\n      jump\t// in\n    tag_115:\n        /* \"#utility.yul\":2281:2344   */\n      swap2\n      pop\n        /* \"#utility.yul\":2237:2354   */\n      pop\n        /* \"#utility.yul\":2032:2361   */\n      swap3\n      swap2\n      pop\n      pop\n      jump\t// out\n        /* \"#utility.yul\":2367:2881   */\n    tag_18:\n        /* \"#utility.yul\":2528:2532   */\n      0x00\n        /* \"#utility.yul\":2566:2568   */\n      0x40\n        /* \"#utility.yul\":2555:2564   */\n      dup3\n        /* \"#utility.yul\":2551:2569   */\n      add\n        /* \"#utility.yul\":2543:2569   */\n      swap1\n      pop\n        /* \"#utility.yul\":2615:2624   */\n      dup2\n        /* \"#utility.yul\":2609:2613   */\n      dup2\n        /* \"#utility.yul\":2605:2625   */\n      sub\n        /* \"#utility.yul\":2601:2602   */\n      0x00\n        /* \"#utility.yul\":2590:2599   */\n      dup4\n        /* \"#utility.yul\":2586:2603   */\n      add\n        /* \"#utility.yul\":2579:2626   */\n      mstore\n        /* \"#utility.yul\":2643:2721   */\n      tag_117\n        /* \"#utility.yul\":2716:2720   */\n      dup2\n        /* \"#utility.yul\":2707:2713   */\n      dup6\n        /* \"#utility.yul\":2643:2721   */\n      tag_57\n      jump\t// in\n    tag_117:\n        /* \"#utility.yul\":2635:2721   */\n      swap1\n      pop\n        /* \"#utility.yul\":2768:2777   */\n      dup2\n        /* \"#utility.yul\":2762:2766   */\n      dup2\n        /* \"#utility.yul\":2758:2778   */\n      sub\n        /* \"#utility.yul\":2753:2755   */\n      0x20\n        /* \"#utility.yul\":2742:2751   */\n      dup4\n        /* \"#utility.yul\":2738:2756   */\n      add\n        /* \"#utility.yul\":2731:2779   */\n      mstore\n        /* \"#utility.yul\":2796:2874   */\n      tag_118\n        /* \"#utility.yul\":2869:2873   */\n      dup2\n        /* \"#utility.yul\":2860:2866   */\n      dup5\n        /* \"#utility.yul\":2796:2874   */\n      tag_57\n      jump\t// in\n    tag_118:\n        /* \"#utility.yul\":2788:2874   */\n      swap1\n      pop\n        /* \"#utility.yul\":2367:2881   */\n      swap4\n      swap3\n      pop\n      pop\n      pop\n      jump\t// out\n        /* \"#utility.yul\":2887:3004   */\n    tag_64:\n        /* \"#utility.yul\":2996:2997   */\n      0x00\n        /* \"#utility.yul\":2993:2994   */\n      dup1\n        /* \"#utility.yul\":2986:2998   */\n      revert\n        /* \"#utility.yul\":3010:3127   */\n    tag_65:\n        /* \"#utility.yul\":3119:3120   */\n      0x00\n        /* \"#utility.yul\":3116:3117   */\n      dup1\n        /* \"#utility.yul\":3109:3121   */\n      revert\n        /* \"#utility.yul\":3133:3250   */\n    tag_66:\n        /* \"#utility.yul\":3242:3243   */\n      0x00\n        /* \"#utility.yul\":3239:3240   */\n      dup1\n        /* \"#utility.yul\":3232:3244   */\n      revert\n        /* \"#utility.yul\":3270:3823   */\n    tag_67:\n        /* \"#utility.yul\":3328:3336   */\n      0x00\n        /* \"#utility.yul\":3338:3344   */\n      dup1\n        /* \"#utility.yul\":3388:3391   */\n      dup4\n        /* \"#utility.yul\":3381:3385   */\n      0x1f\n        /* \"#utility.yul\":3373:3379   */\n      dup5\n        /* \"#utility.yul\":3369:3386   */\n      add\n        /* \"#utility.yul\":3365:3392   */\n      slt\n        /* \"#utility.yul\":3355:3477   */\n      tag_123\n      jumpi\n        /* \"#utility.yul\":3396:3475   */\n      tag_124\n      tag_64\n      jump\t// in\n    tag_124:\n        /* \"#utility.yul\":3355:3477   */\n    tag_123:\n        /* \"#utility.yul\":3509:3515   */\n      dup3\n        /* \"#utility.yul\":3496:3516   */\n      calldataload\n        /* \"#utility.yul\":3486:3516   */\n      swap1\n      pop\n        /* \"#utility.yul\":3539:3557   */\n      0xffffffffffffffff\n        /* \"#utility.yul\":3531:3537   */\n      dup2\n        /* \"#utility.yul\":3528:3558   */\n      gt\n        /* \"#utility.yul\":3525:3642   */\n      iszero\n      tag_125\n      jumpi\n        /* \"#utility.yul\":3561:3640   */\n      tag_126\n      tag_65\n      jump\t// in\n    tag_126:\n        /* \"#utility.yul\":3525:3642   */\n    tag_125:\n        /* \"#utility.yul\":3675:3679   */\n      0x20\n        /* \"#utility.yul\":3667:3673   */\n      dup4\n        /* \"#utility.yul\":3663:3680   */\n      add\n        /* \"#utility.yul\":3651:3680   */\n      swap2\n      pop\n        /* \"#utility.yul\":3729:3732   */\n      dup4\n        /* \"#utility.yul\":3721:3725   */\n      0x01\n        /* \"#utility.yul\":3713:3719   */\n      dup3\n        /* \"#utility.yul\":3709:3726   */\n      mul\n        /* \"#utility.yul\":3699:3707   */\n      dup4\n        /* \"#utility.yul\":3695:3727   */\n      add\n        /* \"#utility.yul\":3692:3733   */\n      gt\n        /* \"#utility.yul\":3689:3817   */\n      iszero\n      tag_127\n      jumpi\n        /* \"#utility.yul\":3736:3815   */\n      tag_128\n      tag_66\n      jump\t// in\n    tag_128:\n        /* \"#utility.yul\":3689:3817   */\n    tag_127:\n        /* \"#utility.yul\":3270:3823   */\n      swap3\n      pop\n      swap3\n      swap1\n      pop\n      jump\t// out\n        /* \"#utility.yul\":3829:4703   */\n    tag_21:\n        /* \"#utility.yul\":3921:3927   */\n      0x00\n        /* \"#utility.yul\":3929:3935   */\n      dup1\n        /* \"#utility.yul\":3937:3943   */\n      0x00\n        /* \"#utility.yul\":3945:3951   */\n      dup1\n        /* \"#utility.yul\":3994:3996   */\n      0x40\n        /* \"#utility.yul\":3982:3991   */\n      dup6\n        /* \"#utility.yul\":3973:3980   */\n      dup8\n        /* \"#utility.yul\":3969:3992   */\n      sub\n        /* \"#utility.yul\":3965:3997   */\n      slt\n        /* \"#utility.yul\":3962:4081   */\n      iszero\n      tag_130\n      jumpi\n        /* \"#utility.yul\":4000:4079   */\n      tag_131\n      tag_59\n      jump\t// in\n    tag_131:\n        /* \"#utility.yul\":3962:4081   */\n    tag_130:\n        /* \"#utility.yul\":4148:4149   */\n      0x00\n        /* \"#utility.yul\":4137:4146   */\n      dup6\n        /* \"#utility.yul\":4133:4150   */\n      add\n        /* \"#utility.yul\":4120:4151   */\n      calldataload\n        /* \"#utility.yul\":4178:4196   */\n      0xffffffffffffffff\n        /* \"#utility.yul\":4170:4176   */\n      dup2\n        /* \"#utility.yul\":4167:4197   */\n      gt\n        /* \"#utility.yul\":4164:4281   */\n      iszero\n      tag_132\n      jumpi\n        /* \"#utility.yul\":4200:4279   */\n      tag_133\n      tag_60\n      jump\t// in\n    tag_133:\n        /* \"#utility.yul\":4164:4281   */\n    tag_132:\n        /* \"#utility.yul\":4313:4378   */\n      tag_134\n        /* \"#utility.yul\":4370:4377   */\n      dup8\n        /* \"#utility.yul\":4361:4367   */\n      dup3\n        /* \"#utility.yul\":4350:4359   */\n      dup9\n        /* \"#utility.yul\":4346:4368   */\n      add\n        /* \"#utility.yul\":4313:4378   */\n      tag_67\n      jump\t// in\n    tag_134:\n        /* \"#utility.yul\":4295:4378   */\n      swap5\n      pop\n      swap5\n      pop\n        /* \"#utility.yul\":4091:4388   */\n      pop\n        /* \"#utility.yul\":4455:4457   */\n      0x20\n        /* \"#utility.yul\":4444:4453   */\n      dup6\n        /* \"#utility.yul\":4440:4458   */\n      add\n        /* \"#utility.yul\":4427:4459   */\n      calldataload\n        /* \"#utility.yul\":4486:4504   */\n      0xffffffffffffffff\n        /* \"#utility.yul\":4478:4484   */\n      dup2\n        /* \"#utility.yul\":4475:4505   */\n      gt\n        /* \"#utility.yul\":4472:4589   */\n      iszero\n      tag_135\n      jumpi\n        /* \"#utility.yul\":4508:4587   */\n      tag_136\n      tag_60\n      jump\t// in\n    tag_136:\n        /* \"#utility.yul\":4472:4589   */\n    tag_135:\n        /* \"#utility.yul\":4621:4686   */\n      tag_137\n        /* \"#utility.yul\":4678:4685   */\n      dup8\n        /* \"#utility.yul\":4669:4675   */\n      dup3\n        /* \"#utility.yul\":4658:4667   */\n      dup9\n        /* \"#utility.yul\":4654:4676   */\n      add\n        /* \"#utility.yul\":4621:4686   */\n      tag_67\n      jump\t// in\n    tag_137:\n        /* \"#utility.yul\":4603:4686   */\n      swap3\n      pop\n      swap3\n      pop\n        /* \"#utility.yul\":4398:4696   */\n      pop\n        /* \"#utility.yul\":3829:4703   */\n      swap3\n      swap6\n      swap2\n      swap5\n      pop\n      swap3\n      pop\n      jump\t// out\n        /* \"#utility.yul\":4709:4889   */\n    tag_68:\n        /* \"#utility.yul\":4757:4834   */\n      0x4e487b7100000000000000000000000000000000000000000000000000000000\n        /* \"#utility.yul\":4754:4755   */\n      0x00\n        /* \"#utility.yul\":4747:4835   */\n      mstore\n        /* \"#utility.yul\":4854:4858   */\n      0x22\n        /* \"#utility.yul\":4851:4852   */\n      0x04\n        /* \"#utility.yul\":4844:4859   */\n      mstore\n        /* \"#utility.yul\":4878:4882   */\n      0x24\n        /* \"#utility.yul\":4875:4876   */\n      0x00\n        /* \"#utility.yul\":4868:4883   */\n      revert\n        /* \"#utility.yul\":4895:5215   */\n    tag_25:\n        /* \"#utility.yul\":4939:4945   */\n      0x00\n        /* \"#utility.yul\":4976:4977   */\n      0x02\n        /* \"#utility.yul\":4970:4974   */\n      dup3\n        /* \"#utility.yul\":4966:4978   */\n      div\n        /* \"#utility.yul\":4956:4978   */\n      swap1\n      pop\n        /* \"#utility.yul\":5023:5024   */\n      0x01\n        /* \"#utility.yul\":5017:5021   */\n      dup3\n        /* \"#utility.yul\":5013:5025   */\n      and\n        /* \"#utility.yul\":5044:5062   */\n      dup1\n        /* \"#utility.yul\":5034:5115   */\n      tag_140\n      jumpi\n        /* \"#utility.yul\":5100:5104   */\n      0x7f\n        /* \"#utility.yul\":5092:5098   */\n      dup3\n        /* \"#utility.yul\":5088:5105   */\n      and\n        /* \"#utility.yul\":5078:5105   */\n      swap2\n      pop\n        /* \"#utility.yul\":5034:5115   */\n    tag_140:\n        /* \"#utility.yul\":5162:5164   */\n      0x20\n        /* \"#utility.yul\":5154:5160   */\n      dup3\n        /* \"#utility.yul\":5151:5165   */\n      lt\n        /* \"#utility.yul\":5131:5149   */\n      dup2\n        /* \"#utility.yul\":5128:5166   */\n      sub\n        /* \"#utility.yul\":5125:5209   */\n      tag_141\n      jumpi\n        /* \"#utility.yul\":5181:5199   */\n      tag_142\n      tag_68\n      jump\t// in\n    tag_142:\n        /* \"#utility.yul\":5125:5209   */\n    tag_141:\n        /* \"#utility.yul\":4946:5215   */\n      pop\n        /* \"#utility.yul\":4895:5215   */\n      swap2\n      swap1\n      pop\n      jump\t// out\n        /* \"#utility.yul\":5221:5396   */\n    tag_69:\n        /* \"#utility.yul\":5361:5388   */\n      0x506572736f6e3a496e7075742076616c7565206572726f722e00000000000000\n        /* \"#utility.yul\":5357:5358   */\n      0x00\n        /* \"#utility.yul\":5349:5355   */\n      dup3\n        /* \"#utility.yul\":5345:5359   */\n      add\n        /* \"#utility.yul\":5338:5389   */\n      mstore\n        /* \"#utility.yul\":5221:5396   */\n      pop\n      jump\t// out\n        /* \"#utility.yul\":5402:5768   */\n    tag_70:\n        /* \"#utility.yul\":5544:5547   */\n      0x00\n        /* \"#utility.yul\":5565:5632   */\n      tag_145\n        /* \"#utility.yul\":5629:5631   */\n      0x19\n        /* \"#utility.yul\":5624:5627   */\n      dup4\n        /* \"#utility.yul\":5565:5632   */\n      tag_54\n      jump\t// in\n    tag_145:\n        /* \"#utility.yul\":5558:5632   */\n      swap2\n      pop\n        /* \"#utility.yul\":5641:5734   */\n      tag_146\n        /* \"#utility.yul\":5730:5733   */\n      dup3\n        /* \"#utility.yul\":5641:5734   */\n      tag_69\n      jump\t// in\n    tag_146:\n        /* \"#utility.yul\":5759:5761   */\n      0x20\n        /* \"#utility.yul\":5754:5757   */\n      dup3\n        /* \"#utility.yul\":5750:5762   */\n      add\n        /* \"#utility.yul\":5743:5762   */\n      swap1\n      pop\n        /* \"#utility.yul\":5402:5768   */\n      swap2\n      swap1\n      pop\n      jump\t// out\n        /* \"#utility.yul\":5774:6193   */\n    tag_34:\n        /* \"#utility.yul\":5940:5944   */\n      0x00\n        /* \"#utility.yul\":5978:5980   */\n      0x20\n        /* \"#utility.yul\":5967:5976   */\n      dup3\n        /* \"#utility.yul\":5963:5981   */\n      add\n        /* \"#utility.yul\":5955:5981   */\n      swap1\n      pop\n        /* \"#utility.yul\":6027:6036   */\n      dup2\n        /* \"#utility.yul\":6021:6025   */\n      dup2\n        /* \"#utility.yul\":6017:6037   */\n      sub\n        /* \"#utility.yul\":6013:6014   */\n      0x00\n        /* \"#utility.yul\":6002:6011   */\n      dup4\n        /* \"#utility.yul\":5998:6015   */\n      add\n        /* \"#utility.yul\":5991:6038   */\n      mstore\n        /* \"#utility.yul\":6055:6186   */\n      tag_148\n        /* \"#utility.yul\":6181:6185   */\n      dup2\n        /* \"#utility.yul\":6055:6186   */\n      tag_70\n      jump\t// in\n    tag_148:\n        /* \"#utility.yul\":6047:6186   */\n      swap1\n      pop\n        /* \"#utility.yul\":5774:6193   */\n      swap2\n      swap1\n      pop\n      jump\t// out\n        /* \"#utility.yul\":6199:6379   */\n    tag_71:\n        /* \"#utility.yul\":6247:6324   */\n      0x4e487b7100000000000000000000000000000000000000000000000000000000\n        /* \"#utility.yul\":6244:6245   */\n      0x00\n        /* \"#utility.yul\":6237:6325   */\n      mstore\n        /* \"#utility.yul\":6344:6348   */\n      0x41\n        /* \"#utility.yul\":6341:6342   */\n      0x04\n        /* \"#utility.yul\":6334:6349   */\n      mstore\n        /* \"#utility.yul\":6368:6372   */\n      0x24\n        /* \"#utility.yul\":6365:6366   */\n      0x00\n        /* \"#utility.yul\":6358:6373   */\n      revert\n        /* \"#utility.yul\":6385:6526   */\n    tag_72:\n        /* \"#utility.yul\":6434:6438   */\n      0x00\n        /* \"#utility.yul\":6457:6460   */\n      dup2\n        /* \"#utility.yul\":6449:6460   */\n      swap1\n      pop\n        /* \"#utility.yul\":6480:6483   */\n      dup2\n        /* \"#utility.yul\":6477:6478   */\n      0x00\n        /* \"#utility.yul\":6470:6484   */\n      mstore\n        /* \"#utility.yul\":6514:6518   */\n      0x20\n        /* \"#utility.yul\":6511:6512   */\n      0x00\n        /* \"#utility.yul\":6501:6519   */\n      keccak256\n        /* \"#utility.yul\":6493:6519   */\n      swap1\n      pop\n        /* \"#utility.yul\":6385:6526   */\n      swap2\n      swap1\n      pop\n      jump\t// out\n        /* \"#utility.yul\":6532:6625   */\n    tag_73:\n        /* \"#utility.yul\":6569:6575   */\n      0x00\n        /* \"#utility.yul\":6616:6618   */\n      0x20\n        /* \"#utility.yul\":6611:6613   */\n      0x1f\n        /* \"#utility.yul\":6604:6609   */\n      dup4\n        /* \"#utility.yul\":6600:6614   */\n      add\n        /* \"#utility.yul\":6596:6619   */\n      div\n        /* \"#utility.yul\":6586:6619   */\n      swap1\n      pop\n        /* \"#utility.yul\":6532:6625   */\n      swap2\n      swap1\n      pop\n      jump\t// out\n        /* \"#utility.yul\":6631:6738   */\n    tag_74:\n        /* \"#utility.yul\":6675:6683   */\n      0x00\n        /* \"#utility.yul\":6725:6730   */\n      dup3\n        /* \"#utility.yul\":6719:6723   */\n      dup3\n        /* \"#utility.yul\":6715:6731   */\n      shl\n        /* \"#utility.yul\":6694:6731   */\n      swap1\n      pop\n        /* \"#utility.yul\":6631:6738   */\n      swap3\n      swap2\n      pop\n      pop\n      jump\t// out\n        /* \"#utility.yul\":6744:7137   */\n    tag_75:\n        /* \"#utility.yul\":6813:6819   */\n      0x00\n        /* \"#utility.yul\":6863:6864   */\n      0x08\n        /* \"#utility.yul\":6851:6861   */\n      dup4\n        /* \"#utility.yul\":6847:6865   */\n      mul\n        /* \"#utility.yul\":6886:6983   */\n      tag_154\n        /* \"#utility.yul\":6916:6982   */\n      0xffffffffffffffffffffffffffffffffffffffffffffffffffffffffffffffff\n        /* \"#utility.yul\":6905:6914   */\n      dup3\n        /* \"#utility.yul\":6886:6983   */\n      tag_74\n      jump\t// in\n    tag_154:\n        /* \"#utility.yul\":7004:7043   */\n      tag_155\n        /* \"#utility.yul\":7034:7042   */\n      dup7\n        /* \"#utility.yul\":7023:7032   */\n      dup4\n        /* \"#utility.yul\":7004:7043   */\n      tag_74\n      jump\t// in\n    tag_155:\n        /* \"#utility.yul\":6992:7043   */\n      swap6\n      pop\n        /* \"#utility.yul\":7076:7080   */\n      dup1\n        /* \"#utility.yul\":7072:7081   */\n      not\n        /* \"#utility.yul\":7065:7070   */\n      dup5\n        /* \"#utility.yul\":7061:7082   */\n      and\n        /* \"#utility.yul\":7052:7082   */\n      swap4\n      pop\n        /* \"#utility.yul\":7125:7129   */\n      dup1\n        /* \"#utility.yul\":7115:7123   */\n      dup7\n        /* \"#utility.yul\":7111:7130   */\n      and\n        /* \"#utility.yul\":7104:7109   */\n      dup5\n        /* \"#utility.yul\":7101:7131   */\n      or\n        /* \"#utility.yul\":7091:7131   */\n      swap3\n      pop\n        /* \"#utility.yul\":6820:7137   */\n      pop\n      pop\n        /* \"#utility.yul\":6744:7137   */\n      swap4\n      swap3\n      pop\n      pop\n      pop\n      jump\t// out\n        /* \"#utility.yul\":7143:7203   */\n    tag_76:\n        /* \"#utility.yul\":7171:7174   */\n      0x00\n        /* \"#utility.yul\":7192:7197   */\n      dup2\n        /* \"#utility.yul\":7185:7197   */\n      swap1\n      pop\n        /* \"#utility.yul\":7143:7203   */\n      swap2\n      swap1\n      pop\n      jump\t// out\n        /* \"#utility.yul\":7209:7351   */\n    tag_77:\n        /* \"#utility.yul\":7259:7268   */\n      0x00\n        /* \"#utility.yul\":7292:7345   */\n      tag_158\n        /* \"#utility.yul\":7310:7344   */\n      tag_159\n        /* \"#utility.yul\":7319:7343   */\n      tag_160\n        /* \"#utility.yul\":7337:7342   */\n      dup5\n        /* \"#utility.yul\":7319:7343   */\n      tag_61\n      jump\t// in\n    tag_160:\n        /* \"#utility.yul\":7310:7344   */\n      tag_76\n      jump\t// in\n    tag_159:\n        /* \"#utility.yul\":7292:7345   */\n      tag_61\n      jump\t// in\n    tag_158:\n        /* \"#utility.yul\":7279:7345   */\n      swap1\n      pop\n        /* \"#utility.yul\":7209:7351   */\n      swap2\n      swap1\n      pop\n      jump\t// out\n        /* \"#utility.yul\":7357:7432   */\n    tag_78:\n        /* \"#utility.yul\":7400:7403   */\n      0x00\n        /* \"#utility.yul\":7421:7426   */\n      dup2\n        /* \"#utility.yul\":7414:7426   */\n      swap1\n      pop\n        /* \"#utility.yul\":7357:7432   */\n      swap2\n      swap1\n      pop\n      jump\t// out\n        /* \"#utility.yul\":7438:7707   */\n    tag_79:\n        /* \"#utility.yul\":7548:7587   */\n      tag_163\n        /* \"#utility.yul\":7579:7586   */\n      dup4\n        /* \"#utility.yul\":7548:7587   */\n      tag_77\n      jump\t// in\n    tag_163:\n        /* \"#utility.yul\":7609:7700   */\n      tag_164\n        /* \"#utility.yul\":7658:7699   */\n      tag_165\n        /* \"#utility.yul\":7682:7698   */\n      dup3\n        /* \"#utility.yul\":7658:7699   */\n      tag_78\n      jump\t// in\n    tag_165:\n        /* \"#utility.yul\":7650:7656   */\n      dup5\n        /* \"#utility.yul\":7643:7647   */\n      dup5\n        /* \"#utility.yul\":7637:7648   */\n      sload\n        /* \"#utility.yul\":7609:7700   */\n      tag_75\n      jump\t// in\n    tag_164:\n        /* \"#utility.yul\":7603:7607   */\n      dup3\n        /* \"#utility.yul\":7596:7701   */\n      sstore\n        /* \"#utility.yul\":7514:7707   */\n      pop\n        /* \"#utility.yul\":7438:7707   */\n      pop\n      pop\n      pop\n      jump\t// out\n        /* \"#utility.yul\":7713:7786   */\n    tag_80:\n        /* \"#utility.yul\":7758:7761   */\n      0x00\n        /* \"#utility.yul\":7713:7786   */\n      swap1\n      jump\t// out\n        /* \"#utility.yul\":7792:7981   */\n    tag_81:\n        /* \"#utility.yul\":7869:7901   */\n      tag_168\n      tag_80\n      jump\t// in\n    tag_168:\n        /* \"#utility.yul\":7910:7975   */\n      tag_169\n        /* \"#utility.yul\":7968:7974   */\n      dup2\n        /* \"#utility.yul\":7960:7966   */\n      dup5\n        /* \"#utility.yul\":7954:7958   */\n      dup5\n        /* \"#utility.yul\":7910:7975   */\n      tag_79\n      jump\t// in\n    tag_169:\n        /* \"#utility.yul\":7845:7981   */\n      pop\n        /* \"#utility.yul\":7792:7981   */\n      pop\n      pop\n      jump\t// out\n        /* \"#utility.yul\":7987:8173   */\n    tag_82:\n        /* \"#utility.yul\":8047:8167   */\n    tag_171:\n        /* \"#utility.yul\":8064:8067   */\n      dup2\n        /* \"#utility.yul\":8057:8062   */\n      dup2\n        /* \"#utility.yul\":8054:8068   */\n      lt\n        /* \"#utility.yul\":8047:8167   */\n      iszero\n      tag_173\n      jumpi\n        /* \"#utility.yul\":8118:8157   */\n      tag_174\n        /* \"#utility.yul\":8155:8156   */\n      0x00\n        /* \"#utility.yul\":8148:8153   */\n      dup3\n        /* \"#utility.yul\":8118:8157   */\n      tag_81\n      jump\t// in\n    tag_174:\n        /* \"#utility.yul\":8091:8092   */\n      0x01\n        /* \"#utility.yul\":8084:8089   */\n      dup2\n        /* \"#utility.yul\":8080:8093   */\n      add\n        /* \"#utility.yul\":8071:8093   */\n      swap1\n      pop\n        /* \"#utility.yul\":8047:8167   */\n      jump(tag_171)\n    tag_173:\n        /* \"#utility.yul\":7987:8173   */\n      pop\n      pop\n      jump\t// out\n        /* \"#utility.yul\":8179:8722   */\n    tag_83:\n        /* \"#utility.yul\":8280:8282   */\n      0x1f\n        /* \"#utility.yul\":8275:8278   */\n      dup3\n        /* \"#utility.yul\":8272:8283   */\n      gt\n        /* \"#utility.yul\":8269:8715   */\n      iszero\n      tag_176\n      jumpi\n        /* \"#utility.yul\":8314:8352   */\n      tag_177\n        /* \"#utility.yul\":8346:8351   */\n      dup2\n        /* \"#utility.yul\":8314:8352   */\n      tag_72\n      jump\t// in\n    tag_177:\n        /* \"#utility.yul\":8398:8427   */\n      tag_178\n        /* \"#utility.yul\":8416:8426   */\n      dup5\n        /* \"#utility.yul\":8398:8427   */\n      tag_73\n      jump\t// in\n    tag_178:\n        /* \"#utility.yul\":8388:8396   */\n      dup2\n        /* \"#utility.yul\":8384:8428   */\n      add\n        /* \"#utility.yul\":8581:8583   */\n      0x20\n        /* \"#utility.yul\":8569:8579   */\n      dup6\n        /* \"#utility.yul\":8566:8584   */\n      lt\n        /* \"#utility.yul\":8563:8612   */\n      iszero\n      tag_179\n      jumpi\n        /* \"#utility.yul\":8602:8610   */\n      dup2\n        /* \"#utility.yul\":8587:8610   */\n      swap1\n      pop\n        /* \"#utility.yul\":8563:8612   */\n    tag_179:\n        /* \"#utility.yul\":8625:8705   */\n      tag_180\n        /* \"#utility.yul\":8681:8703   */\n      tag_181\n        /* \"#utility.yul\":8699:8702   */\n      dup6\n        /* \"#utility.yul\":8681:8703   */\n      tag_73\n      jump\t// in\n    tag_181:\n        /* \"#utility.yul\":8671:8679   */\n      dup4\n        /* \"#utility.yul\":8667:8704   */\n      add\n        /* \"#utility.yul\":8654:8665   */\n      dup3\n        /* \"#utility.yul\":8625:8705   */\n      tag_82\n      jump\t// in\n    tag_180:\n        /* \"#utility.yul\":8284:8715   */\n      pop\n      pop\n        /* \"#utility.yul\":8269:8715   */\n    tag_176:\n        /* \"#utility.yul\":8179:8722   */\n      pop\n      pop\n      pop\n      jump\t// out\n        /* \"#utility.yul\":8728:8845   */\n    tag_84:\n        /* \"#utility.yul\":8782:8790   */\n      0x00\n        /* \"#utility.yul\":8832:8837   */\n      dup3\n        /* \"#utility.yul\":8826:8830   */\n      dup3\n        /* \"#utility.yul\":8822:8838   */\n      shr\n        /* \"#utility.yul\":8801:8838   */\n      swap1\n      pop\n        /* \"#utility.yul\":8728:8845   */\n      swap3\n      swap2\n      pop\n      pop\n      jump\t// out\n        /* \"#utility.yul\":8851:9020   */\n    tag_85:\n        /* \"#utility.yul\":8895:8901   */\n      0x00\n        /* \"#utility.yul\":8928:8979   */\n      tag_184\n        /* \"#utility.yul\":8976:8977   */\n      0x00\n        /* \"#utility.yul\":8972:8978   */\n      not\n        /* \"#utility.yul\":8964:8969   */\n      dup5\n        /* \"#utility.yul\":8961:8962   */\n      0x08\n        /* \"#utility.yul\":8957:8970   */\n      mul\n        /* \"#utility.yul\":8928:8979   */\n      tag_84\n      jump\t// in\n    tag_184:\n        /* \"#utility.yul\":8924:8980   */\n      not\n        /* \"#utility.yul\":9009:9013   */\n      dup1\n        /* \"#utility.yul\":9003:9007   */\n      dup4\n        /* \"#utility.yul\":8999:9014   */\n      and\n        /* \"#utility.yul\":8989:9014   */\n      swap2\n      pop\n        /* \"#utility.yul\":8902:9020   */\n      pop\n        /* \"#utility.yul\":8851:9020   */\n      swap3\n      swap2\n      pop\n      pop\n      jump\t// out\n        /* \"#utility.yul\":9025:9320   */\n    tag_86:\n        /* \"#utility.yul\":9101:9105   */\n      0x00\n        /* \"#utility.yul\":9247:9276   */\n      tag_186\n        /* \"#utility.yul\":9272:9275   */\n      dup4\n        /* \"#utility.yul\":9266:9270   */\n      dup4\n        /* \"#utility.yul\":9247:9276   */\n      tag_85\n      jump\t// in\n    tag_186:\n        /* \"#utility.yul\":9239:9276   */\n      swap2\n      pop\n        /* \"#utility.yul\":9309:9312   */\n      dup3\n        /* \"#utility.yul\":9306:9307   */\n      0x02\n        /* \"#utility.yul\":9302:9313   */\n      mul\n        /* \"#utility.yul\":9296:9300   */\n      dup3\n        /* \"#utility.yul\":9293:9314   */\n      or\n        /* \"#utility.yul\":9285:9314   */\n      swap1\n      pop\n        /* \"#utility.yul\":9025:9320   */\n      swap3\n      swap2\n      pop\n      pop\n      jump\t// out\n        /* \"#utility.yul\":9325:10720   */\n    tag_38:\n        /* \"#utility.yul\":9442:9479   */\n      tag_188\n        /* \"#utility.yul\":9475:9478   */\n      dup3\n        /* \"#utility.yul\":9442:9479   */\n      tag_53\n      jump\t// in\n    tag_188:\n        /* \"#utility.yul\":9544:9562   */\n      0xffffffffffffffff\n        /* \"#utility.yul\":9536:9542   */\n      dup2\n        /* \"#utility.yul\":9533:9563   */\n      gt\n        /* \"#utility.yul\":9530:9586   */\n      iszero\n      tag_189\n      jumpi\n        /* \"#utility.yul\":9566:9584   */\n      tag_190\n      tag_71\n      jump\t// in\n    tag_190:\n        /* \"#utility.yul\":9530:9586   */\n    tag_189:\n        /* \"#utility.yul\":9610:9648   */\n      tag_191\n        /* \"#utility.yul\":9642:9646   */\n      dup3\n        /* \"#utility.yul\":9636:9647   */\n      sload\n        /* \"#utility.yul\":9610:9648   */\n      tag_25\n      jump\t// in\n    tag_191:\n        /* \"#utility.yul\":9695:9762   */\n      tag_192\n        /* \"#utility.yul\":9755:9761   */\n      dup3\n        /* \"#utility.yul\":9747:9753   */\n      dup3\n        /* \"#utility.yul\":9741:9745   */\n      dup6\n        /* \"#utility.yul\":9695:9762   */\n      tag_83\n      jump\t// in\n    tag_192:\n        /* \"#utility.yul\":9789:9790   */\n      0x00\n        /* \"#utility.yul\":9813:9817   */\n      0x20\n        /* \"#utility.yul\":9800:9817   */\n      swap1\n      pop\n        /* \"#utility.yul\":9845:9847   */\n      0x1f\n        /* \"#utility.yul\":9837:9843   */\n      dup4\n        /* \"#utility.yul\":9834:9848   */\n      gt\n        /* \"#utility.yul\":9862:9863   */\n      0x01\n        /* \"#utility.yul\":9857:10475   */\n      dup2\n      eq\n      tag_194\n      jumpi\n        /* \"#utility.yul\":10519:10520   */\n      0x00\n        /* \"#utility.yul\":10536:10542   */\n      dup5\n        /* \"#utility.yul\":10533:10610   */\n      iszero\n      tag_195\n      jumpi\n        /* \"#utility.yul\":10585:10594   */\n      dup3\n        /* \"#utility.yul\":10580:10583   */\n      dup8\n        /* \"#utility.yul\":10576:10595   */\n      add\n        /* \"#utility.yul\":10570:10596   */\n      mload\n        /* \"#utility.yul\":10561:10596   */\n      swap1\n      pop\n        /* \"#utility.yul\":10533:10610   */\n    tag_195:\n        /* \"#utility.yul\":10636:10703   */\n      tag_196\n        /* \"#utility.yul\":10696:10702   */\n      dup6\n        /* \"#utility.yul\":10689:10694   */\n      dup3\n        /* \"#utility.yul\":10636:10703   */\n      tag_86\n      jump\t// in\n    tag_196:\n        /* \"#utility.yul\":10630:10634   */\n      dup7\n        /* \"#utility.yul\":10623:10704   */\n      sstore\n        /* \"#utility.yul\":10492:10714   */\n      pop\n        /* \"#utility.yul\":9827:10714   */\n      jump(tag_193)\n        /* \"#utility.yul\":9857:10475   */\n    tag_194:\n        /* \"#utility.yul\":9909:9913   */\n      0x1f\n        /* \"#utility.yul\":9905:9914   */\n      not\n        /* \"#utility.yul\":9897:9903   */\n      dup5\n        /* \"#utility.yul\":9893:9915   */\n      and\n        /* \"#utility.yul\":9943:9980   */\n      tag_197\n        /* \"#utility.yul\":9975:9979   */\n      dup7\n        /* \"#utility.yul\":9943:9980   */\n      tag_72\n      jump\t// in\n    tag_197:\n        /* \"#utility.yul\":10002:10003   */\n      0x00\n        /* \"#utility.yul\":10016:10224   */\n    tag_198:\n        /* \"#utility.yul\":10030:10037   */\n      dup3\n        /* \"#utility.yul\":10027:10028   */\n      dup2\n        /* \"#utility.yul\":10024:10038   */\n      lt\n        /* \"#utility.yul\":10016:10224   */\n      iszero\n      tag_200\n      jumpi\n        /* \"#utility.yul\":10109:10118   */\n      dup5\n        /* \"#utility.yul\":10104:10107   */\n      dup10\n        /* \"#utility.yul\":10100:10119   */\n      add\n        /* \"#utility.yul\":10094:10120   */\n      mload\n        /* \"#utility.yul\":10086:10092   */\n      dup3\n        /* \"#utility.yul\":10079:10121   */\n      sstore\n        /* \"#utility.yul\":10160:10161   */\n      0x01\n        /* \"#utility.yul\":10152:10158   */\n      dup3\n        /* \"#utility.yul\":10148:10162   */\n      add\n        /* \"#utility.yul\":10138:10162   */\n      swap2\n      pop\n        /* \"#utility.yul\":10207:10209   */\n      0x20\n        /* \"#utility.yul\":10196:10205   */\n      dup6\n        /* \"#utility.yul\":10192:10210   */\n      add\n        /* \"#utility.yul\":10179:10210   */\n      swap5\n      pop\n        /* \"#utility.yul\":10053:10057   */\n      0x20\n        /* \"#utility.yul\":10050:10051   */\n      dup2\n        /* \"#utility.yul\":10046:10058   */\n      add\n        /* \"#utility.yul\":10041:10058   */\n      swap1\n      pop\n        /* \"#utility.yul\":10016:10224   */\n      jump(tag_198)\n    tag_200:\n        /* \"#utility.yul\":10252:10258   */\n      dup7\n        /* \"#utility.yul\":10243:10250   */\n      dup4\n        /* \"#utility.yul\":10240:10259   */\n      lt\n        /* \"#utility.yul\":10237:10416   */\n      iszero\n      tag_201\n      jumpi\n        /* \"#utility.yul\":10310:10319   */\n      dup5\n        /* \"#utility.yul\":10305:10308   */\n      dup10\n        /* \"#utility.yul\":10301:10320   */\n      add\n        /* \"#utility.yul\":10295:10321   */\n      mload\n        /* \"#utility.yul\":10353:10401   */\n      tag_202\n        /* \"#utility.yul\":10395:10399   */\n      0x1f\n        /* \"#utility.yul\":10387:10393   */\n      dup10\n        /* \"#utility.yul\":10383:10400   */\n      and\n        /* \"#utility.yul\":10372:10381   */\n      dup3\n        /* \"#utility.yul\":10353:10401   */\n      tag_85\n      jump\t// in\n    tag_202:\n        /* \"#utility.yul\":10345:10351   */\n      dup4\n        /* \"#utility.yul\":10338:10402   */\n      sstore\n        /* \"#utility.yul\":10260:10416   */\n      pop\n        /* \"#utility.yul\":10237:10416   */\n    tag_201:\n        /* \"#utility.yul\":10462:10463   */\n      0x01\n        /* \"#utility.yul\":10458:10459   */\n      0x02\n        /* \"#utility.yul\":10450:10456   */\n      dup9\n        /* \"#utility.yul\":10446:10460   */\n      mul\n        /* \"#utility.yul\":10442:10464   */\n      add\n        /* \"#utility.yul\":10436:10440   */\n      dup9\n        /* \"#utility.yul\":10429:10465   */\n      sstore\n        /* \"#utility.yul\":9864:10475   */\n      pop\n      pop\n      pop\n        /* \"#utility.yul\":9827:10714   */\n    tag_193:\n      pop\n        /* \"#utility.yul\":9417:10720   */\n      pop\n      pop\n      pop\n        /* \"#utility.yul\":9325:10720   */\n      pop\n      pop\n      jump\t// out\n        /* \"#utility.yul\":10726:10823   */\n    tag_87:\n        /* \"#utility.yul\":10785:10791   */\n      0x00\n        /* \"#utility.yul\":10813:10816   */\n      dup3\n        /* \"#utility.yul\":10803:10816   */\n      swap1\n      pop\n        /* \"#utility.yul\":10726:10823   */\n      swap3\n      swap2\n      pop\n      pop\n      jump\t// out\n        /* \"#utility.yul\":10829:12232   */\n    tag_51:\n        /* \"#utility.yul\":10953:10997   */\n      tag_205\n        /* \"#utility.yul\":10993:10996   */\n      dup4\n        /* \"#utility.yul\":10988:10991   */\n      dup4\n        /* \"#utility.yul\":10953:10997   */\n      tag_87\n      jump\t// in\n    tag_205:\n        /* \"#utility.yul\":11062:11080   */\n      0xffffffffffffffff\n        /* \"#utility.yul\":11054:11060   */\n      dup2\n        /* \"#utility.yul\":11051:11081   */\n      gt\n        /* \"#utility.yul\":11048:11104   */\n      iszero\n      tag_206\n      jumpi\n        /* \"#utility.yul\":11084:11102   */\n      tag_207\n      tag_71\n      jump\t// in\n    tag_207:\n        /* \"#utility.yul\":11048:11104   */\n    tag_206:\n        /* \"#utility.yul\":11128:11166   */\n      tag_208\n        /* \"#utility.yul\":11160:11164   */\n      dup3\n        /* \"#utility.yul\":11154:11165   */\n      sload\n        /* \"#utility.yul\":11128:11166   */\n      tag_25\n      jump\t// in\n    tag_208:\n        /* \"#utility.yul\":11213:11280   */\n      tag_209\n        /* \"#utility.yul\":11273:11279   */\n      dup3\n        /* \"#utility.yul\":11265:11271   */\n      dup3\n        /* \"#utility.yul\":11259:11263   */\n      dup6\n        /* \"#utility.yul\":11213:11280   */\n      tag_83\n      jump\t// in\n    tag_209:\n        /* \"#utility.yul\":11307:11308   */\n      0x00\n        /* \"#utility.yul\":11336:11338   */\n      0x1f\n        /* \"#utility.yul\":11328:11334   */\n      dup4\n        /* \"#utility.yul\":11325:11339   */\n      gt\n        /* \"#utility.yul\":11353:11354   */\n      0x01\n        /* \"#utility.yul\":11348:11980   */\n      dup2\n      eq\n      tag_211\n      jumpi\n        /* \"#utility.yul\":12024:12025   */\n      0x00\n        /* \"#utility.yul\":12041:12047   */\n      dup5\n        /* \"#utility.yul\":12038:12122   */\n      iszero\n      tag_212\n      jumpi\n        /* \"#utility.yul\":12097:12106   */\n      dup3\n        /* \"#utility.yul\":12092:12095   */\n      dup8\n        /* \"#utility.yul\":12088:12107   */\n      add\n        /* \"#utility.yul\":12075:12108   */\n      calldataload\n        /* \"#utility.yul\":12066:12108   */\n      swap1\n      pop\n        /* \"#utility.yul\":12038:12122   */\n    tag_212:\n        /* \"#utility.yul\":12148:12215   */\n      tag_213\n        /* \"#utility.yul\":12208:12214   */\n      dup6\n        /* \"#utility.yul\":12201:12206   */\n      dup3\n        /* \"#utility.yul\":12148:12215   */\n      tag_86\n      jump\t// in\n    tag_213:\n        /* \"#utility.yul\":12142:12146   */\n      dup7\n        /* \"#utility.yul\":12135:12216   */\n      sstore\n        /* \"#utility.yul\":11997:12226   */\n      pop\n        /* \"#utility.yul\":11318:12226   */\n      jump(tag_210)\n        /* \"#utility.yul\":11348:11980   */\n    tag_211:\n        /* \"#utility.yul\":11400:11404   */\n      0x1f\n        /* \"#utility.yul\":11396:11405   */\n      not\n        /* \"#utility.yul\":11388:11394   */\n      dup5\n        /* \"#utility.yul\":11384:11406   */\n      and\n        /* \"#utility.yul\":11434:11471   */\n      tag_214\n        /* \"#utility.yul\":11466:11470   */\n      dup7\n        /* \"#utility.yul\":11434:11471   */\n      tag_72\n      jump\t// in\n    tag_214:\n        /* \"#utility.yul\":11493:11494   */\n      0x00\n        /* \"#utility.yul\":11507:11722   */\n    tag_215:\n        /* \"#utility.yul\":11521:11528   */\n      dup3\n        /* \"#utility.yul\":11518:11519   */\n      dup2\n        /* \"#utility.yul\":11515:11529   */\n      lt\n        /* \"#utility.yul\":11507:11722   */\n      iszero\n      tag_217\n      jumpi\n        /* \"#utility.yul\":11607:11616   */\n      dup5\n        /* \"#utility.yul\":11602:11605   */\n      dup10\n        /* \"#utility.yul\":11598:11617   */\n      add\n        /* \"#utility.yul\":11585:11618   */\n      calldataload\n        /* \"#utility.yul\":11577:11583   */\n      dup3\n        /* \"#utility.yul\":11570:11619   */\n      sstore\n        /* \"#utility.yul\":11658:11659   */\n      0x01\n        /* \"#utility.yul\":11650:11656   */\n      dup3\n        /* \"#utility.yul\":11646:11660   */\n      add\n        /* \"#utility.yul\":11636:11660   */\n      swap2\n      pop\n        /* \"#utility.yul\":11705:11707   */\n      0x20\n        /* \"#utility.yul\":11694:11703   */\n      dup6\n        /* \"#utility.yul\":11690:11708   */\n      add\n        /* \"#utility.yul\":11677:11708   */\n      swap5\n      pop\n        /* \"#utility.yul\":11544:11548   */\n      0x20\n        /* \"#utility.yul\":11541:11542   */\n      dup2\n        /* \"#utility.yul\":11537:11549   */\n      add\n        /* \"#utility.yul\":11532:11549   */\n      swap1\n      pop\n        /* \"#utility.yul\":11507:11722   */\n      jump(tag_215)\n    tag_217:\n        /* \"#utility.yul\":11750:11756   */\n      dup7\n        /* \"#utility.yul\":11741:11748   */\n      dup4\n        /* \"#utility.yul\":11738:11757   */\n      lt\n        /* \"#utility.yul\":11735:11921   */\n      iszero\n      tag_218\n      jumpi\n        /* \"#utility.yul\":11815:11824   */\n      dup5\n        /* \"#utility.yul\":11810:11813   */\n      dup10\n        /* \"#utility.yul\":11806:11825   */\n      add\n        /* \"#utility.yul\":11793:11826   */\n      calldataload\n        /* \"#utility.yul\":11858:11906   */\n      tag_219\n        /* \"#utility.yul\":11900:11904   */\n      0x1f\n        /* \"#utility.yul\":11892:11898   */\n      dup10\n        /* \"#utility.yul\":11888:11905   */\n      and\n        /* \"#utility.yul\":11877:11886   */\n      dup3\n        /* \"#utility.yul\":11858:11906   */\n      tag_85\n      jump\t// in\n    tag_219:\n        /* \"#utility.yul\":11850:11856   */\n      dup4\n        /* \"#utility.yul\":11843:11907   */\n      sstore\n        /* \"#utility.yul\":11758:11921   */\n      pop\n        /* \"#utility.yul\":11735:11921   */\n    tag_218:\n        /* \"#utility.yul\":11967:11968   */\n      0x01\n        /* \"#utility.yul\":11963:11964   */\n      0x02\n        /* \"#utility.yul\":11955:11961   */\n      dup9\n        /* \"#utility.yul\":11951:11965   */\n      mul\n        /* \"#utility.yul\":11947:11969   */\n      add\n        /* \"#utility.yul\":11941:11945   */\n      dup9\n        /* \"#utility.yul\":11934:11970   */\n      sstore\n        /* \"#utility.yul\":11355:11980   */\n      pop\n      pop\n      pop\n        /* \"#utility.yul\":11318:12226   */\n    tag_210:\n      pop\n        /* \"#utility.yul\":10928:12232   */\n      pop\n      pop\n      pop\n        /* \"#utility.yul\":10829:12232   */\n      pop\n      pop\n      pop\n      jump\t// out\n\n    auxdata: 0xa2646970667358221220f54a5b91993a2574daf7a67de8eff07c0967ddde63c885f1a754e6bf2a0de62364736f6c63430008130033\n}\n",
				"bytecode": {
					"linkReferences": {},
					"object": "608060405234801561001057600080fd5b50610a54806100206000396000f3fe608060405234801561001057600080fd5b506004361061004c5760003560e01c806317d7de7c14610051578063652296f11461006f578063c19d93fb1461008b578063d9038f3c146100aa575b600080fd5b6100596100c6565b604051610066919061041e565b60405180910390f35b61008960048036038101906100849190610480565b61015a565b005b61009361023d565b6040516100a19291906104ad565b60405180910390f35b6100c460048036038101906100bf9190610549565b61035f565b005b60606000800180546100d7906105f9565b80601f0160208091040260200160405190810160405280929190818152602001828054610103906105f9565b80156101505780601f1061012557610100808354040283529160200191610150565b820191906000526020600020905b81548152906001019060200180831161013357829003601f168201915b5050505050905090565b60008114806101695750600181145b6101a8576040517f08c379a000000000000000000000000000000000000000000000000000000000815260040161019f90610676565b60405180910390fd5b6060600082146101ed576040518060400160405280600481526020017f6d616c6500000000000000000000000000000000000000000000000000000000815250610224565b6040518060400160405280600681526020017f66656d616c6500000000000000000000000000000000000000000000000000008152505b905080600060010190816102389190610871565b505050565b600080600001805461024e906105f9565b80601f016020809104026020016040519081016040528092919081815260200182805461027a906105f9565b80156102c75780601f1061029c576101008083540402835291602001916102c7565b820191906000526020600020905b8154815290600101906020018083116102aa57829003601f168201915b5050505050908060010180546102dc906105f9565b80601f0160208091040260200160405190810160405280929190818152602001828054610308906105f9565b80156103555780601f1061032a57610100808354040283529160200191610355565b820191906000526020600020905b81548152906001019060200180831161033857829003601f168201915b5050505050905082565b838360008001918261037292919061094e565b5081816000600101918261038792919061094e565b5050505050565b600081519050919050565b600082825260208201905092915050565b60005b838110156103c85780820151818401526020810190506103ad565b60008484015250505050565b6000601f19601f8301169050919050565b60006103f08261038e565b6103fa8185610399565b935061040a8185602086016103aa565b610413816103d4565b840191505092915050565b6000602082019050818103600083015261043881846103e5565b905092915050565b600080fd5b600080fd5b6000819050919050565b61045d8161044a565b811461046857600080fd5b50565b60008135905061047a81610454565b92915050565b60006020828403121561049657610495610440565b5b60006104a48482850161046b565b91505092915050565b600060408201905081810360008301526104c781856103e5565b905081810360208301526104db81846103e5565b90509392505050565b600080fd5b600080fd5b600080fd5b60008083601f840112610509576105086104e4565b5b8235905067ffffffffffffffff811115610526576105256104e9565b5b602083019150836001820283011115610542576105416104ee565b5b9250929050565b6000806000806040858703121561056357610562610440565b5b600085013567ffffffffffffffff81111561058157610580610445565b5b61058d878288016104f3565b9450945050602085013567ffffffffffffffff8111156105b0576105af610445565b5b6105bc878288016104f3565b925092505092959194509250565b7f4e487b7100000000000000000000000000000000000000000000000000000000600052602260045260246000fd5b6000600282049050600182168061061157607f821691505b602082108103610624576106236105ca565b5b50919050565b7f506572736f6e3a496e7075742076616c7565206572726f722e00000000000000600082015250565b6000610660601983610399565b915061066b8261062a565b602082019050919050565b6000602082019050818103600083015261068f81610653565b9050919050565b7f4e487b7100000000000000000000000000000000000000000000000000000000600052604160045260246000fd5b60008190508160005260206000209050919050565b60006020601f8301049050919050565b600082821b905092915050565b6000600883026107277fffffffffffffffffffffffffffffffffffffffffffffffffffffffffffffffff826106ea565b61073186836106ea565b95508019841693508086168417925050509392505050565b6000819050919050565b600061076e6107696107648461044a565b610749565b61044a565b9050919050565b6000819050919050565b61078883610753565b61079c61079482610775565b8484546106f7565b825550505050565b600090565b6107b16107a4565b6107bc81848461077f565b505050565b5b818110156107e0576107d56000826107a9565b6001810190506107c2565b5050565b601f821115610825576107f6816106c5565b6107ff846106da565b8101602085101561080e578190505b61082261081a856106da565b8301826107c1565b50505b505050565b600082821c905092915050565b60006108486000198460080261082a565b1980831691505092915050565b60006108618383610837565b9150826002028217905092915050565b61087a8261038e565b67ffffffffffffffff81111561089357610892610696565b5b61089d82546105f9565b6108a88282856107e4565b600060209050601f8311600181146108db57600084156108c9578287015190505b6108d38582610855565b86555061093b565b601f1984166108e9866106c5565b60005b82811015610911578489015182556001820191506020850194506020810190506108ec565b8683101561092e578489015161092a601f891682610837565b8355505b6001600288020188555050505b505050505050565b600082905092915050565b6109588383610943565b67ffffffffffffffff81111561097157610970610696565b5b61097b82546105f9565b6109868282856107e4565b6000601f8311600181146109b557600084156109a3578287013590505b6109ad8582610855565b865550610a15565b601f1984166109c3866106c5565b60005b828110156109eb578489013582556001820191506020850194506020810190506109c6565b86831015610a085784890135610a04601f891682610837565b8355505b6001600288020188555050505b5050505050505056fea2646970667358221220f54a5b91993a2574daf7a67de8eff07c0967ddde63c885f1a754e6bf2a0de62364736f6c63430008130033",
					"opcodes": "PUSH1 0x80 PUSH1 0x40 MSTORE CALLVALUE DUP1 ISZERO PUSH2 0x10 JUMPI PUSH1 0x0 DUP1 REVERT JUMPDEST POP PUSH2 0xA54 DUP1 PUSH2 0x20 PUSH1 0x0 CODECOPY PUSH1 0x0 RETURN INVALID PUSH1 0x80 PUSH1 0x40 MSTORE CALLVALUE DUP1 ISZERO PUSH2 0x10 JUMPI PUSH1 0x0 DUP1 REVERT JUMPDEST POP PUSH1 0x4 CALLDATASIZE LT PUSH2 0x4C JUMPI PUSH1 0x0 CALLDATALOAD PUSH1 0xE0 SHR DUP1 PUSH4 0x17D7DE7C EQ PUSH2 0x51 JUMPI DUP1 PUSH4 0x652296F1 EQ PUSH2 0x6F JUMPI DUP1 PUSH4 0xC19D93FB EQ PUSH2 0x8B JUMPI DUP1 PUSH4 0xD9038F3C EQ PUSH2 0xAA JUMPI JUMPDEST PUSH1 0x0 DUP1 REVERT JUMPDEST PUSH2 0x59 PUSH2 0xC6 JUMP JUMPDEST PUSH1 0x40 MLOAD PUSH2 0x66 SWAP2 SWAP1 PUSH2 0x41E JUMP JUMPDEST PUSH1 0x40 MLOAD DUP1 SWAP2 SUB SWAP1 RETURN JUMPDEST PUSH2 0x89 PUSH1 0x4 DUP1 CALLDATASIZE SUB DUP2 ADD SWAP1 PUSH2 0x84 SWAP2 SWAP1 PUSH2 0x480 JUMP JUMPDEST PUSH2 0x15A JUMP JUMPDEST STOP JUMPDEST PUSH2 0x93 PUSH2 0x23D JUMP JUMPDEST PUSH1 0x40 MLOAD PUSH2 0xA1 SWAP3 SWAP2 SWAP1 PUSH2 0x4AD JUMP JUMPDEST PUSH1 0x40 MLOAD DUP1 SWAP2 SUB SWAP1 RETURN JUMPDEST PUSH2 0xC4 PUSH1 0x4 DUP1 CALLDATASIZE SUB DUP2 ADD SWAP1 PUSH2 0xBF SWAP2 SWAP1 PUSH2 0x549 JUMP JUMPDEST PUSH2 0x35F JUMP JUMPDEST STOP JUMPDEST PUSH1 0x60 PUSH1 0x0 DUP1 ADD DUP1 SLOAD PUSH2 0xD7 SWAP1 PUSH2 0x5F9 JUMP JUMPDEST DUP1 PUSH1 0x1F ADD PUSH1 0x20 DUP1 SWAP2 DIV MUL PUSH1 0x20 ADD PUSH1 0x40 MLOAD SWAP1 DUP2 ADD PUSH1 0x40 MSTORE DUP1 SWAP3 SWAP2 SWAP1 DUP2 DUP2 MSTORE PUSH1 0x20 ADD DUP3 DUP1 SLOAD PUSH2 0x103 SWAP1 PUSH2 0x5F9 JUMP JUMPDEST DUP1 ISZERO PUSH2 0x150 JUMPI DUP1 PUSH1 0x1F LT PUSH2 0x125 JUMPI PUSH2 0x100 DUP1 DUP4 SLOAD DIV MUL DUP4 MSTORE SWAP2 PUSH1 0x20 ADD SWAP2 PUSH2 0x150 JUMP JUMPDEST DUP3 ADD SWAP2 SWAP1 PUSH1 0x0 MSTORE PUSH1 0x20 PUSH1 0x0 KECCAK256 SWAP1 JUMPDEST DUP2 SLOAD DUP2 MSTORE SWAP1 PUSH1 0x1 ADD SWAP1 PUSH1 0x20 ADD DUP1 DUP4 GT PUSH2 0x133 JUMPI DUP3 SWAP1 SUB PUSH1 0x1F AND DUP3 ADD SWAP2 JUMPDEST POP POP POP POP POP SWAP1 POP SWAP1 JUMP JUMPDEST PUSH1 0x0 DUP2 EQ DUP1 PUSH2 0x169 JUMPI POP PUSH1 0x1 DUP2 EQ JUMPDEST PUSH2 0x1A8 JUMPI PUSH1 0x40 MLOAD PUSH32 0x8C379A000000000000000000000000000000000000000000000000000000000 DUP2 MSTORE PUSH1 0x4 ADD PUSH2 0x19F SWAP1 PUSH2 0x676 JUMP JUMPDEST PUSH1 0x40 MLOAD DUP1 SWAP2 SUB SWAP1 REVERT JUMPDEST PUSH1 0x60 PUSH1 0x0 DUP3 EQ PUSH2 0x1ED JUMPI PUSH1 0x40 MLOAD DUP1 PUSH1 0x40 ADD PUSH1 0x40 MSTORE DUP1 PUSH1 0x4 DUP2 MSTORE PUSH1 0x20 ADD PUSH32 0x6D616C6500000000000000000000000000000000000000000000000000000000 DUP2 MSTORE POP PUSH2 0x224 JUMP JUMPDEST PUSH1 0x40 MLOAD DUP1 PUSH1 0x40 ADD PUSH1 0x40 MSTORE DUP1 PUSH1 0x6 DUP2 MSTORE PUSH1 0x20 ADD PUSH32 0x66656D616C650000000000000000000000000000000000000000000000000000 DUP2 MSTORE POP JUMPDEST SWAP1 POP DUP1 PUSH1 0x0 PUSH1 0x1 ADD SWAP1 DUP2 PUSH2 0x238 SWAP2 SWAP1 PUSH2 0x871 JUMP JUMPDEST POP POP POP JUMP JUMPDEST PUSH1 0x0 DUP1 PUSH1 0x0 ADD DUP1 SLOAD PUSH2 0x24E SWAP1 PUSH2 0x5F9 JUMP JUMPDEST DUP1 PUSH1 0x1F ADD PUSH1 0x20 DUP1 SWAP2 DIV MUL PUSH1 0x20 ADD PUSH1 0x40 MLOAD SWAP1 DUP2 ADD PUSH1 0x40 MSTORE DUP1 SWAP3 SWAP2 SWAP1 DUP2 DUP2 MSTORE PUSH1 0x20 ADD DUP3 DUP1 SLOAD PUSH2 0x27A SWAP1 PUSH2 0x5F9 JUMP JUMPDEST DUP1 ISZERO PUSH2 0x2C7 JUMPI DUP1 PUSH1 0x1F LT PUSH2 0x29C JUMPI PUSH2 0x100 DUP1 DUP4 SLOAD DIV MUL DUP4 MSTORE SWAP2 PUSH1 0x20 ADD SWAP2 PUSH2 0x2C7 JUMP JUMPDEST DUP3 ADD SWAP2 SWAP1 PUSH1 0x0 MSTORE PUSH1 0x20 PUSH1 0x0 KECCAK256 SWAP1 JUMPDEST DUP2 SLOAD DUP2 MSTORE SWAP1 PUSH1 0x1 ADD SWAP1 PUSH1 0x20 ADD DUP1 DUP4 GT PUSH2 0x2AA JUMPI DUP3 SWAP1 SUB PUSH1 0x1F AND DUP3 ADD SWAP2 JUMPDEST POP POP POP POP POP SWAP1 DUP1 PUSH1 0x1 ADD DUP1 SLOAD PUSH2 0x2DC SWAP1 PUSH2 0x5F9 JUMP JUMPDEST DUP1 PUSH1 0x1F ADD PUSH1 0x20 DUP1 SWAP2 DIV MUL PUSH1 0x20 ADD PUSH1 0x40 MLOAD SWAP1 DUP2 ADD PUSH1 0x40 MSTORE DUP1 SWAP3 SWAP2 SWAP1 DUP2 DUP2 MSTORE PUSH1 0x20 ADD DUP3 DUP1 SLOAD PUSH2 0x308 SWAP1 PUSH2 0x5F9 JUMP JUMPDEST DUP1 ISZERO PUSH2 0x355 JUMPI DUP1 PUSH1 0x1F LT PUSH2 0x32A JUMPI PUSH2 0x100 DUP1 DUP4 SLOAD DIV MUL DUP4 MSTORE SWAP2 PUSH1 0x20 ADD SWAP2 PUSH2 0x355 JUMP JUMPDEST DUP3 ADD SWAP2 SWAP1 PUSH1 0x0 MSTORE PUSH1 0x20 PUSH1 0x0 KECCAK256 SWAP1 JUMPDEST DUP2 SLOAD DUP2 MSTORE SWAP1 PUSH1 0x1 ADD SWAP1 PUSH1 0x20 ADD DUP1 DUP4 GT PUSH2 0x338 JUMPI DUP3 SWAP1 SUB PUSH1 0x1F AND DUP3 ADD SWAP2 JUMPDEST POP POP POP POP POP SWAP1 POP DUP3 JUMP JUMPDEST DUP4 DUP4 PUSH1 0x0 DUP1 ADD SWAP2 DUP3 PUSH2 0x372 SWAP3 SWAP2 SWAP1 PUSH2 0x94E JUMP JUMPDEST POP DUP2 DUP2 PUSH1 0x0 PUSH1 0x1 ADD SWAP2 DUP3 PUSH2 0x387 SWAP3 SWAP2 SWAP1 PUSH2 0x94E JUMP JUMPDEST POP POP POP POP POP JUMP JUMPDEST PUSH1 0x0 DUP2 MLOAD SWAP1 POP SWAP2 SWAP1 POP JUMP JUMPDEST PUSH1 0x0 DUP3 DUP3 MSTORE PUSH1 0x20 DUP3 ADD SWAP1 POP SWAP3 SWAP2 POP POP JUMP JUMPDEST PUSH1 0x0 JUMPDEST DUP4 DUP2 LT ISZERO PUSH2 0x3C8 JUMPI DUP1 DUP3 ADD MLOAD DUP2 DUP5 ADD MSTORE PUSH1 0x20 DUP2 ADD SWAP1 POP PUSH2 0x3AD JUMP JUMPDEST PUSH1 0x0 DUP5 DUP5 ADD MSTORE POP POP POP POP JUMP JUMPDEST PUSH1 0x0 PUSH1 0x1F NOT PUSH1 0x1F DUP4 ADD AND SWAP1 POP SWAP2 SWAP1 POP JUMP JUMPDEST PUSH1 0x0 PUSH2 0x3F0 DUP3 PUSH2 0x38E JUMP JUMPDEST PUSH2 0x3FA DUP2 DUP6 PUSH2 0x399 JUMP JUMPDEST SWAP4 POP PUSH2 0x40A DUP2 DUP6 PUSH1 0x20 DUP7 ADD PUSH2 0x3AA JUMP JUMPDEST PUSH2 0x413 DUP2 PUSH2 0x3D4 JUMP JUMPDEST DUP5 ADD SWAP2 POP POP SWAP3 SWAP2 POP POP JUMP JUMPDEST PUSH1 0x0 PUSH1 0x20 DUP3 ADD SWAP1 POP DUP2 DUP2 SUB PUSH1 0x0 DUP4 ADD MSTORE PUSH2 0x438 DUP2 DUP5 PUSH2 0x3E5 JUMP JUMPDEST SWAP1 POP SWAP3 SWAP2 POP POP JUMP JUMPDEST PUSH1 0x0 DUP1 REVERT JUMPDEST PUSH1 0x0 DUP1 REVERT JUMPDEST PUSH1 0x0 DUP2 SWAP1 POP SWAP2 SWAP1 POP JUMP JUMPDEST PUSH2 0x45D DUP2 PUSH2 0x44A JUMP JUMPDEST DUP2 EQ PUSH2 0x468 JUMPI PUSH1 0x0 DUP1 REVERT JUMPDEST POP JUMP JUMPDEST PUSH1 0x0 DUP2 CALLDATALOAD SWAP1 POP PUSH2 0x47A DUP2 PUSH2 0x454 JUMP JUMPDEST SWAP3 SWAP2 POP POP JUMP JUMPDEST PUSH1 0x0 PUSH1 0x20 DUP3 DUP5 SUB SLT ISZERO PUSH2 0x496 JUMPI PUSH2 0x495 PUSH2 0x440 JUMP JUMPDEST JUMPDEST PUSH1 0x0 PUSH2 0x4A4 DUP5 DUP3 DUP6 ADD PUSH2 0x46B JUMP JUMPDEST SWAP2 POP POP SWAP3 SWAP2 POP POP JUMP JUMPDEST PUSH1 0x0 PUSH1 0x40 DUP3 ADD SWAP1 POP DUP2 DUP2 SUB PUSH1 0x0 DUP4 ADD MSTORE PUSH2 0x4C7 DUP2 DUP6 PUSH2 0x3E5 JUMP JUMPDEST SWAP1 POP DUP2 DUP2 SUB PUSH1 0x20 DUP4 ADD MSTORE PUSH2 0x4DB DUP2 DUP5 PUSH2 0x3E5 JUMP JUMPDEST SWAP1 POP SWAP4 SWAP3 POP POP POP JUMP JUMPDEST PUSH1 0x0 DUP1 REVERT JUMPDEST PUSH1 0x0 DUP1 REVERT JUMPDEST PUSH1 0x0 DUP1 REVERT JUMPDEST PUSH1 0x0 DUP1 DUP4 PUSH1 0x1F DUP5 ADD SLT PUSH2 0x509 JUMPI PUSH2 0x508 PUSH2 0x4E4 JUMP JUMPDEST JUMPDEST DUP3 CALLDATALOAD SWAP1 POP PUSH8 0xFFFFFFFFFFFFFFFF DUP2 GT ISZERO PUSH2 0x526 JUMPI PUSH2 0x525 PUSH2 0x4E9 JUMP JUMPDEST JUMPDEST PUSH1 0x20 DUP4 ADD SWAP2 POP DUP4 PUSH1 0x1 DUP3 MUL DUP4 ADD GT ISZERO PUSH2 0x542 JUMPI PUSH2 0x541 PUSH2 0x4EE JUMP JUMPDEST JUMPDEST SWAP3 POP SWAP3 SWAP1 POP JUMP JUMPDEST PUSH1 0x0 DUP1 PUSH1 0x0 DUP1 PUSH1 0x40 DUP6 DUP8 SUB SLT ISZERO PUSH2 0x563 JUMPI PUSH2 0x562 PUSH2 0x440 JUMP JUMPDEST JUMPDEST PUSH1 0x0 DUP6 ADD CALLDATALOAD PUSH8 0xFFFFFFFFFFFFFFFF DUP2 GT ISZERO PUSH2 0x581 JUMPI PUSH2 0x580 PUSH2 0x445 JUMP JUMPDEST JUMPDEST PUSH2 0x58D DUP8 DUP3 DUP9 ADD PUSH2 0x4F3 JUMP JUMPDEST SWAP5 POP SWAP5 POP POP PUSH1 0x20 DUP6 ADD CALLDATALOAD PUSH8 0xFFFFFFFFFFFFFFFF DUP2 GT ISZERO PUSH2 0x5B0 JUMPI PUSH2 0x5AF PUSH2 0x445 JUMP JUMPDEST JUMPDEST PUSH2 0x5BC DUP8 DUP3 DUP9 ADD PUSH2 0x4F3 JUMP JUMPDEST SWAP3 POP SWAP3 POP POP SWAP3 SWAP6 SWAP2 SWAP5 POP SWAP3 POP JUMP JUMPDEST PUSH32 0x4E487B7100000000000000000000000000000000000000000000000000000000 PUSH1 0x0 MSTORE PUSH1 0x22 PUSH1 0x4 MSTORE PUSH1 0x24 PUSH1 0x0 REVERT JUMPDEST PUSH1 0x0 PUSH1 0x2 DUP3 DIV SWAP1 POP PUSH1 0x1 DUP3 AND DUP1 PUSH2 0x611 JUMPI PUSH1 0x7F DUP3 AND SWAP2 POP JUMPDEST PUSH1 0x20 DUP3 LT DUP2 SUB PUSH2 0x624 JUMPI PUSH2 0x623 PUSH2 0x5CA JUMP JUMPDEST JUMPDEST POP SWAP2 SWAP1 POP JUMP JUMPDEST PUSH32 0x506572736F6E3A496E7075742076616C7565206572726F722E00000000000000 PUSH1 0x0 DUP3 ADD MSTORE POP JUMP JUMPDEST PUSH1 0x0 PUSH2 0x660 PUSH1 0x19 DUP4 PUSH2 0x399 JUMP JUMPDEST SWAP2 POP PUSH2 0x66B DUP3 PUSH2 0x62A JUMP JUMPDEST PUSH1 0x20 DUP3 ADD SWAP1 POP SWAP2 SWAP1 POP JUMP JUMPDEST PUSH1 0x0 PUSH1 0x20 DUP3 ADD SWAP1 POP DUP2 DUP2 SUB PUSH1 0x0 DUP4 ADD MSTORE PUSH2 0x68F DUP2 PUSH2 0x653 JUMP JUMPDEST SWAP1 POP SWAP2 SWAP1 POP JUMP JUMPDEST PUSH32 0x4E487B7100000000000000000000000000000000000000000000000000000000 PUSH1 0x0 MSTORE PUSH1 0x41 PUSH1 0x4 MSTORE PUSH1 0x24 PUSH1 0x0 REVERT JUMPDEST PUSH1 0x0 DUP2 SWAP1 POP DUP2 PUSH1 0x0 MSTORE PUSH1 0x20 PUSH1 0x0 KECCAK256 SWAP1 POP SWAP2 SWAP1 POP JUMP JUMPDEST PUSH1 0x0 PUSH1 0x20 PUSH1 0x1F DUP4 ADD DIV SWAP1 POP SWAP2 SWAP1 POP JUMP JUMPDEST PUSH1 0x0 DUP3 DUP3 SHL SWAP1 POP SWAP3 SWAP2 POP POP JUMP JUMPDEST PUSH1 0x0 PUSH1 0x8 DUP4 MUL PUSH2 0x727 PUSH32 0xFFFFFFFFFFFFFFFFFFFFFFFFFFFFFFFFFFFFFFFFFFFFFFFFFFFFFFFFFFFFFFFF DUP3 PUSH2 0x6EA JUMP JUMPDEST PUSH2 0x731 DUP7 DUP4 PUSH2 0x6EA JUMP JUMPDEST SWAP6 POP DUP1 NOT DUP5 AND SWAP4 POP DUP1 DUP7 AND DUP5 OR SWAP3 POP POP POP SWAP4 SWAP3 POP POP POP JUMP JUMPDEST PUSH1 0x0 DUP2 SWAP1 POP SWAP2 SWAP1 POP JUMP JUMPDEST PUSH1 0x0 PUSH2 0x76E PUSH2 0x769 PUSH2 0x764 DUP5 PUSH2 0x44A JUMP JUMPDEST PUSH2 0x749 JUMP JUMPDEST PUSH2 0x44A JUMP JUMPDEST SWAP1 POP SWAP2 SWAP1 POP JUMP JUMPDEST PUSH1 0x0 DUP2 SWAP1 POP SWAP2 SWAP1 POP JUMP JUMPDEST PUSH2 0x788 DUP4 PUSH2 0x753 JUMP JUMPDEST PUSH2 0x79C PUSH2 0x794 DUP3 PUSH2 0x775 JUMP JUMPDEST DUP5 DUP5 SLOAD PUSH2 0x6F7 JUMP JUMPDEST DUP3 SSTORE POP POP POP POP JUMP JUMPDEST PUSH1 0x0 SWAP1 JUMP JUMPDEST PUSH2 0x7B1 PUSH2 0x7A4 JUMP JUMPDEST PUSH2 0x7BC DUP2 DUP5 DUP5 PUSH2 0x77F JUMP JUMPDEST POP POP POP JUMP JUMPDEST JUMPDEST DUP2 DUP2 LT ISZERO PUSH2 0x7E0 JUMPI PUSH2 0x7D5 PUSH1 0x0 DUP3 PUSH2 0x7A9 JUMP JUMPDEST PUSH1 0x1 DUP2 ADD SWAP1 POP PUSH2 0x7C2 JUMP JUMPDEST POP POP JUMP JUMPDEST PUSH1 0x1F DUP3 GT ISZERO PUSH2 0x825 JUMPI PUSH2 0x7F6 DUP2 PUSH2 0x6C5 JUMP JUMPDEST PUSH2 0x7FF DUP5 PUSH2 0x6DA JUMP JUMPDEST DUP2 ADD PUSH1 0x20 DUP6 LT ISZERO PUSH2 0x80E JUMPI DUP2 SWAP1 POP JUMPDEST PUSH2 0x822 PUSH2 0x81A DUP6 PUSH2 0x6DA JUMP JUMPDEST DUP4 ADD DUP3 PUSH2 0x7C1 JUMP JUMPDEST POP POP JUMPDEST POP POP POP JUMP JUMPDEST PUSH1 0x0 DUP3 DUP3 SHR SWAP1 POP SWAP3 SWAP2 POP POP JUMP JUMPDEST PUSH1 0x0 PUSH2 0x848 PUSH1 0x0 NOT DUP5 PUSH1 0x8 MUL PUSH2 0x82A JUMP JUMPDEST NOT DUP1 DUP4 AND SWAP2 POP POP SWAP3 SWAP2 POP POP JUMP JUMPDEST PUSH1 0x0 PUSH2 0x861 DUP4 DUP4 PUSH2 0x837 JUMP JUMPDEST SWAP2 POP DUP3 PUSH1 0x2 MUL DUP3 OR SWAP1 POP SWAP3 SWAP2 POP POP JUMP JUMPDEST PUSH2 0x87A DUP3 PUSH2 0x38E JUMP JUMPDEST PUSH8 0xFFFFFFFFFFFFFFFF DUP2 GT ISZERO PUSH2 0x893 JUMPI PUSH2 0x892 PUSH2 0x696 JUMP JUMPDEST JUMPDEST PUSH2 0x89D DUP3 SLOAD PUSH2 0x5F9 JUMP JUMPDEST PUSH2 0x8A8 DUP3 DUP3 DUP6 PUSH2 0x7E4 JUMP JUMPDEST PUSH1 0x0 PUSH1 0x20 SWAP1 POP PUSH1 0x1F DUP4 GT PUSH1 0x1 DUP2 EQ PUSH2 0x8DB JUMPI PUSH1 0x0 DUP5 ISZERO PUSH2 0x8C9 JUMPI DUP3 DUP8 ADD MLOAD SWAP1 POP JUMPDEST PUSH2 0x8D3 DUP6 DUP3 PUSH2 0x855 JUMP JUMPDEST DUP7 SSTORE POP PUSH2 0x93B JUMP JUMPDEST PUSH1 0x1F NOT DUP5 AND PUSH2 0x8E9 DUP7 PUSH2 0x6C5 JUMP JUMPDEST PUSH1 0x0 JUMPDEST DUP3 DUP2 LT ISZERO PUSH2 0x911 JUMPI DUP5 DUP10 ADD MLOAD DUP3 SSTORE PUSH1 0x1 DUP3 ADD SWAP2 POP PUSH1 0x20 DUP6 ADD SWAP5 POP PUSH1 0x20 DUP2 ADD SWAP1 POP PUSH2 0x8EC JUMP JUMPDEST DUP7 DUP4 LT ISZERO PUSH2 0x92E JUMPI DUP5 DUP10 ADD MLOAD PUSH2 0x92A PUSH1 0x1F DUP10 AND DUP3 PUSH2 0x837 JUMP JUMPDEST DUP4 SSTORE POP JUMPDEST PUSH1 0x1 PUSH1 0x2 DUP9 MUL ADD DUP9 SSTORE POP POP POP JUMPDEST POP POP POP POP POP POP JUMP JUMPDEST PUSH1 0x0 DUP3 SWAP1 POP SWAP3 SWAP2 POP POP JUMP JUMPDEST PUSH2 0x958 DUP4 DUP4 PUSH2 0x943 JUMP JUMPDEST PUSH8 0xFFFFFFFFFFFFFFFF DUP2 GT ISZERO PUSH2 0x971 JUMPI PUSH2 0x970 PUSH2 0x696 JUMP JUMPDEST JUMPDEST PUSH2 0x97B DUP3 SLOAD PUSH2 0x5F9 JUMP JUMPDEST PUSH2 0x986 DUP3 DUP3 DUP6 PUSH2 0x7E4 JUMP JUMPDEST PUSH1 0x0 PUSH1 0x1F DUP4 GT PUSH1 0x1 DUP2 EQ PUSH2 0x9B5 JUMPI PUSH1 0x0 DUP5 ISZERO PUSH2 0x9A3 JUMPI DUP3 DUP8 ADD CALLDATALOAD SWAP1 POP JUMPDEST PUSH2 0x9AD DUP6 DUP3 PUSH2 0x855 JUMP JUMPDEST DUP7 SSTORE POP PUSH2 0xA15 JUMP JUMPDEST PUSH1 0x1F NOT DUP5 AND PUSH2 0x9C3 DUP7 PUSH2 0x6C5 JUMP JUMPDEST PUSH1 0x0 JUMPDEST DUP3 DUP2 LT ISZERO PUSH2 0x9EB JUMPI DUP5 DUP10 ADD CALLDATALOAD DUP3 SSTORE PUSH1 0x1 DUP3 ADD SWAP2 POP PUSH1 0x20 DUP6 ADD SWAP5 POP PUSH1 0x20 DUP2 ADD SWAP1 POP PUSH2 0x9C6 JUMP JUMPDEST DUP7 DUP4 LT ISZERO PUSH2 0xA08 JUMPI DUP5 DUP10 ADD CALLDATALOAD PUSH2 0xA04 PUSH1 0x1F DUP10 AND DUP3 PUSH2 0x837 JUMP JUMPDEST DUP4 SSTORE POP JUMPDEST PUSH1 0x1 PUSH1 0x2 DUP9 MUL ADD DUP9 SSTORE POP POP POP JUMPDEST POP POP POP POP POP POP POP JUMP INVALID LOG2 PUSH5 0x6970667358 0x22 SLT KECCAK256 CREATE2 0x4A JUMPDEST SWAP2 SWAP10 GASPRICE 0x25 PUSH21 0xDAF7A67DE8EFF07C0967DDDE63C885F1A754E6BF2A 0xD 0xE6 0x23 PUSH5 0x736F6C6343 STOP ADDMOD SGT STOP CALLER "
				},
				"gasEstimates": {
					"creation": {
						"codeDepositCost": "528800",
						"executionCost": "562",
						"totalCost": "529362"
					},
					"external": {
						"changeGender(uint256)": "infinite",
						"getName()": "infinite",
						"setState(string,string)": "infinite",
						"state()": "infinite"
					}
				},
				"methodIdentifiers": {
					"changeGender(uint256)": "652296f1",
					"getName()": "17d7de7c",
					"setState(string,string)": "d9038f3c",
					"state()": "c19d93fb"
				}
			},
			"storageLayout": {
				"storage": [
					{
						"astId": 12,
						"contract": "StoreType.sol:Person",
						"label": "state",
						"offset": 0,
						"slot": "0",
						"type": "t_struct(State)9_storage"
					}
				],
				"types": {
					"t_string_storage": {
						"encoding": "bytes",
						"label": "string",
						"numberOfBytes": "32"
					},
					"t_struct(State)9_storage": {
						"encoding": "inplace",
						"label": "struct Person.State",
						"members": [
							{
								"astId": 6,
								"contract": "StoreType.sol:Person",
								"label": "name",
								"offset": 0,
								"slot": "0",
								"type": "t_string_storage"
							},
							{
								"astId": 8,
								"contract": "StoreType.sol:Person",
								"label": "gender",
								"offset": 0,
								"slot": "1",
								"type": "t_string_storage"
							}
						],
						"numberOfBytes": "64"
					}
				}
			},
			"userdoc": {
				"kind": "user",
				"methods": {},
				"version": 1
			}
		}
	}
}