{
	"StoreType.sol": {
		"Counter": {
			"abi": [
				{
					"inputs": [],
					"name": "start",
					"outputs": [
						{
							"internalType": "uint256",
							"name": "sum",
							"type": "uint256"
						}
					],
					"stateMutability": "pure",
					"type": "function"
				}
			],
			"devdoc": {
				"kind": "dev",
				"methods": {},
				"version": 1
			},
			"evm": {
				"assembly": "    /* \"StoreType.sol\":778:1106  contract Counter {... */\n  mstore(0x40, 0x80)\n  callvalue\n  dup1\n  iszero\n  tag_1\n  jumpi\n  0x00\n  dup1\n  revert\ntag_1:\n  pop\n  dataSize(sub_0)\n  dup1\n  dataOffset(sub_0)\n  0x00\n  codecopy\n  0x00\n  return\nstop\n\nsub_0: assembly {\n        /* \"StoreType.sol\":778:1106  contract Counter {... */\n      mstore(0x40, 0x80)\n      callvalue\n      dup1\n      iszero\n      tag_1\n      jumpi\n      0x00\n      dup1\n      revert\n    tag_1:\n      pop\n      jumpi(tag_2, lt(calldatasize, 0x04))\n      shr(0xe0, calldataload(0x00))\n      dup1\n      0xbe9a6555\n      eq\n      tag_3\n      jumpi\n    tag_2:\n      0x00\n      dup1\n      revert\n        /* \"StoreType.sol\":804:1103  function start() external pure returns (uint sum) {... */\n    tag_3:\n      tag_4\n      tag_5\n      jump\t// in\n    tag_4:\n      mload(0x40)\n      tag_6\n      swap2\n      swap1\n      tag_7\n      jump\t// in\n    tag_6:\n      mload(0x40)\n      dup1\n      swap2\n      sub\n      swap1\n      return\n    tag_5:\n        /* \"StoreType.sol\":844:852  uint sum */\n      0x00\n        /* \"StoreType.sol\":865:872  uint a1 */\n      dup1\n        /* \"StoreType.sol\":875:876  1 */\n      0x01\n        /* \"StoreType.sol\":865:876  uint a1 = 1 */\n      swap1\n      pop\n        /* \"StoreType.sol\":887:894  uint a2 */\n      0x00\n        /* \"StoreType.sol\":897:898  1 */\n      0x01\n        /* \"StoreType.sol\":887:898  uint a2 = 1 */\n      swap1\n      pop\n        /* \"StoreType.sol\":909:916  uint a3 */\n      0x00\n        /* \"StoreType.sol\":919:920  1 */\n      0x01\n        /* \"StoreType.sol\":909:920  uint a3 = 1 */\n      swap1\n      pop\n        /* \"StoreType.sol\":931:938  uint a4 */\n      0x00\n        /* \"StoreType.sol\":941:942  1 */\n      0x01\n        /* \"StoreType.sol\":931:942  uint a4 = 1 */\n      swap1\n      pop\n        /* \"StoreType.sol\":953:960  uint a5 */\n      0x00\n        /* \"StoreType.sol\":963:964  1 */\n      0x01\n        /* \"StoreType.sol\":953:964  uint a5 = 1 */\n      swap1\n      pop\n        /* \"StoreType.sol\":1093:1095  a5 */\n      dup1\n        /* \"StoreType.sol\":1090:1092  a4 */\n      dup3\n        /* \"StoreType.sol\":1087:1089  a3 */\n      dup5\n        /* \"StoreType.sol\":1084:1086  a2 */\n      dup7\n        /* \"StoreType.sol\":1081:1083  a1 */\n      dup9\n        /* \"StoreType.sol\":1081:1086  a1+a2 */\n      tag_9\n      swap2\n      swap1\n      tag_10\n      jump\t// in\n    tag_9:\n        /* \"StoreType.sol\":1081:1089  a1+a2+a3 */\n      tag_11\n      swap2\n      swap1\n      tag_10\n      jump\t// in\n    tag_11:\n        /* \"StoreType.sol\":1081:1092  a1+a2+a3+a4 */\n      tag_12\n      swap2\n      swap1\n      tag_10\n      jump\t// in\n    tag_12:\n        /* \"StoreType.sol\":1081:1095  a1+a2+a3+a4+a5 */\n      tag_13\n      swap2\n      swap1\n      tag_10\n      jump\t// in\n    tag_13:\n        /* \"StoreType.sol\":1075:1095  sum = a1+a2+a3+a4+a5 */\n      swap6\n      pop\n        /* \"StoreType.sol\":854:1103  {... */\n      pop\n      pop\n      pop\n      pop\n      pop\n        /* \"StoreType.sol\":804:1103  function start() external pure returns (uint sum) {... */\n      swap1\n      jump\t// out\n        /* \"#utility.yul\":7:84   */\n    tag_14:\n        /* \"#utility.yul\":44:51   */\n      0x00\n        /* \"#utility.yul\":73:78   */\n      dup2\n        /* \"#utility.yul\":62:78   */\n      swap1\n      pop\n        /* \"#utility.yul\":7:84   */\n      swap2\n      swap1\n      pop\n      jump\t// out\n        /* \"#utility.yul\":90:208   */\n    tag_15:\n        /* \"#utility.yul\":177:201   */\n      tag_20\n        /* \"#utility.yul\":195:200   */\n      dup2\n        /* \"#utility.yul\":177:201   */\n      tag_14\n      jump\t// in\n    tag_20:\n        /* \"#utility.yul\":172:175   */\n      dup3\n        /* \"#utility.yul\":165:202   */\n      mstore\n        /* \"#utility.yul\":90:208   */\n      pop\n      pop\n      jump\t// out\n        /* \"#utility.yul\":214:436   */\n    tag_7:\n        /* \"#utility.yul\":307:311   */\n      0x00\n        /* \"#utility.yul\":345:347   */\n      0x20\n        /* \"#utility.yul\":334:343   */\n      dup3\n        /* \"#utility.yul\":330:348   */\n      add\n        /* \"#utility.yul\":322:348   */\n      swap1\n      pop\n        /* \"#utility.yul\":358:429   */\n      tag_22\n        /* \"#utility.yul\":426:427   */\n      0x00\n        /* \"#utility.yul\":415:424   */\n      dup4\n        /* \"#utility.yul\":411:428   */\n      add\n        /* \"#utility.yul\":402:408   */\n      dup5\n        /* \"#utility.yul\":358:429   */\n      tag_15\n      jump\t// in\n    tag_22:\n        /* \"#utility.yul\":214:436   */\n      swap3\n      swap2\n      pop\n      pop\n      jump\t// out\n        /* \"#utility.yul\":442:622   */\n    tag_16:\n        /* \"#utility.yul\":490:567   */\n      0x4e487b7100000000000000000000000000000000000000000000000000000000\n        /* \"#utility.yul\":487:488   */\n      0x00\n        /* \"#utility.yul\":480:568   */\n      mstore\n        /* \"#utility.yul\":587:591   */\n      0x11\n        /* \"#utility.yul\":584:585   */\n      0x04\n        /* \"#utility.yul\":577:592   */\n      mstore\n        /* \"#utility.yul\":611:615   */\n      0x24\n        /* \"#utility.yul\":608:609   */\n      0x00\n        /* \"#utility.yul\":601:616   */\n      revert\n        /* \"#utility.yul\":628:819   */\n    tag_10:\n        /* \"#utility.yul\":668:671   */\n      0x00\n        /* \"#utility.yul\":687:707   */\n      tag_25\n        /* \"#utility.yul\":705:706   */\n      dup3\n        /* \"#utility.yul\":687:707   */\n      tag_14\n      jump\t// in\n    tag_25:\n        /* \"#utility.yul\":682:707   */\n      swap2\n      pop\n        /* \"#utility.yul\":721:741   */\n      tag_26\n        /* \"#utility.yul\":739:740   */\n      dup4\n        /* \"#utility.yul\":721:741   */\n      tag_14\n      jump\t// in\n    tag_26:\n        /* \"#utility.yul\":716:741   */\n      swap3\n      pop\n        /* \"#utility.yul\":764:765   */\n      dup3\n        /* \"#utility.yul\":761:762   */\n      dup3\n        /* \"#utility.yul\":757:766   */\n      add\n        /* \"#utility.yul\":750:766   */\n      swap1\n      pop\n        /* \"#utility.yul\":785:788   */\n      dup1\n        /* \"#utility.yul\":782:783   */\n      dup3\n        /* \"#utility.yul\":779:789   */\n      gt\n        /* \"#utility.yul\":776:812   */\n      iszero\n      tag_27\n      jumpi\n        /* \"#utility.yul\":792:810   */\n      tag_28\n      tag_16\n      jump\t// in\n    tag_28:\n        /* \"#utility.yul\":776:812   */\n    tag_27:\n        /* \"#utility.yul\":628:819   */\n      swap3\n      swap2\n      pop\n      pop\n      jump\t// out\n\n    auxdata: 0xa264697066735822122061dd7ab44e995f16471d5fe6045df786fdaf74748368f530e5e9190b5b15c51564736f6c63430008130033\n}\n",
				"bytecode": {
					"linkReferences": {},
					"object": "608060405234801561001057600080fd5b50610171806100206000396000f3fe608060405234801561001057600080fd5b506004361061002b5760003560e01c8063be9a655514610030575b600080fd5b61003861004e565b60405161004591906100bd565b60405180910390f35b60008060019050600060019050600060019050600060019050600060019050808284868861007c9190610107565b6100869190610107565b6100909190610107565b61009a9190610107565b9550505050505090565b6000819050919050565b6100b7816100a4565b82525050565b60006020820190506100d260008301846100ae565b92915050565b7f4e487b7100000000000000000000000000000000000000000000000000000000600052601160045260246000fd5b6000610112826100a4565b915061011d836100a4565b9250828201905080821115610135576101346100d8565b5b9291505056fea264697066735822122061dd7ab44e995f16471d5fe6045df786fdaf74748368f530e5e9190b5b15c51564736f6c63430008130033",
					"opcodes": "PUSH1 0x80 PUSH1 0x40 MSTORE CALLVALUE DUP1 ISZERO PUSH2 0x10 JUMPI PUSH1 0x0 DUP1 REVERT JUMPDEST POP PUSH2 0x171 DUP1 PUSH2 0x20 PUSH1 0x0 CODECOPY PUSH1 0x0 RETURN INVALID PUSH1 0x80 PUSH1 0x40 MSTORE CALLVALUE DUP1 ISZERO PUSH2 0x10 JUMPI PUSH1 0x0 DUP1 REVERT JUMPDEST POP PUSH1 0x4 CALLDATASIZE LT PUSH2 0x2B JUMPI PUSH1 0x0 CALLDATALOAD PUSH1 0xE0 SHR DUP1 PUSH4 0xBE9A6555 EQ PUSH2 0x30 JUMPI JUMPDEST PUSH1 0x0 DUP1 REVERT JUMPDEST PUSH2 0x38 PUSH2 0x4E JUMP JUMPDEST PUSH1 0x40 MLOAD PUSH2 0x45 SWAP2 SWAP1 PUSH2 0xBD JUMP JUMPDEST PUSH1 0x40 MLOAD DUP1 SWAP2 SUB SWAP1 RETURN JUMPDEST PUSH1 0x0 DUP1 PUSH1 0x1 SWAP1 POP PUSH1 0x0 PUSH1 0x1 SWAP1 POP PUSH1 0x0 PUSH1 0x1 SWAP1 POP PUSH1 0x0 PUSH1 0x1 SWAP1 POP PUSH1 0x0 PUSH1 0x1 SWAP1 POP DUP1 DUP3 DUP5 DUP7 DUP9 PUSH2 0x7C SWAP2 SWAP1 PUSH2 0x107 JUMP JUMPDEST PUSH2 0x86 SWAP2 SWAP1 PUSH2 0x107 JUMP JUMPDEST PUSH2 0x90 SWAP2 SWAP1 PUSH2 0x107 JUMP JUMPDEST PUSH2 0x9A SWAP2 SWAP1 PUSH2 0x107 JUMP JUMPDEST SWAP6 POP POP POP POP POP POP SWAP1 JUMP JUMPDEST PUSH1 0x0 DUP2 SWAP1 POP SWAP2 SWAP1 POP JUMP JUMPDEST PUSH2 0xB7 DUP2 PUSH2 0xA4 JUMP JUMPDEST DUP3 MSTORE POP POP JUMP JUMPDEST PUSH1 0x0 PUSH1 0x20 DUP3 ADD SWAP1 POP PUSH2 0xD2 PUSH1 0x0 DUP4 ADD DUP5 PUSH2 0xAE JUMP JUMPDEST SWAP3 SWAP2 POP POP JUMP JUMPDEST PUSH32 0x4E487B7100000000000000000000000000000000000000000000000000000000 PUSH1 0x0 MSTORE PUSH1 0x11 PUSH1 0x4 MSTORE PUSH1 0x24 PUSH1 0x0 REVERT JUMPDEST PUSH1 0x0 PUSH2 0x112 DUP3 PUSH2 0xA4 JUMP JUMPDEST SWAP2 POP PUSH2 0x11D DUP4 PUSH2 0xA4 JUMP JUMPDEST SWAP3 POP DUP3 DUP3 ADD SWAP1 POP DUP1 DUP3 GT ISZERO PUSH2 0x135 JUMPI PUSH2 0x134 PUSH2 0xD8 JUMP JUMPDEST JUMPDEST SWAP3 SWAP2 POP POP JUMP INVALID LOG2 PUSH5 0x6970667358 0x22 SLT KECCAK256 PUSH2 0xDD7A 0xB4 0x4E SWAP10 0x5F AND SELFBALANCE SAR 0x5F 0xE6 DIV 0x5D 0xF7 DUP7 REVERT 0xAF PUSH21 0x748368F530E5E9190B5B15C51564736F6C63430008 SGT STOP CALLER "
				},
				"gasEstimates": {
					"creation": {
						"codeDepositCost": "73800",
						"executionCost": "123",
						"totalCost": "73923"
					},
					"external": {
						"start()": "infinite"
					}
				},
				"methodIdentifiers": {
					"start()": "be9a6555"
				}
			},
			"storageLayout": {
				"storage": [],
				"types": null
			},
			"userdoc": {
				"kind": "user",
				"methods": {},
				"version": 1
			}
		}
	}
}