{
	"MyToken/MyToken.sol": {
		"MyToken": {
			"abi": [
				{
					"inputs": [],
					"stateMutability": "nonpayable",
					"type": "constructor"
				},
				{
					"anonymous": false,
					"inputs": [
						{
							"indexed": true,
							"internalType": "address",
							"name": "_owner",
							"type": "address"
						},
						{
							"indexed": true,
							"internalType": "address",
							"name": "_spender",
							"type": "address"
						},
						{
							"indexed": false,
							"internalType": "uint256",
							"name": "_value",
							"type": "uint256"
						}
					],
					"name": "Approval",
					"type": "event"
				},
				{
					"anonymous": false,
					"inputs": [
						{
							"indexed": true,
							"internalType": "address",
							"name": "_from",
							"type": "address"
						},
						{
							"indexed": true,
							"internalType": "address",
							"name": "_to",
							"type": "address"
						},
						{
							"indexed": false,
							"internalType": "uint256",
							"name": "_value",
							"type": "uint256"
						}
					],
					"name": "Transfer",
					"type": "event"
				},
				{
					"inputs": [
						{
							"internalType": "address",
							"name": "owner",
							"type": "address"
						},
						{
							"internalType": "address",
							"name": "spender",
							"type": "address"
						}
					],
					"name": "allowanceOf",
					"outputs": [
						{
							"internalType": "uint256",
							"name": "",
							"type": "uint256"
						}
					],
					"stateMutability": "view",
					"type": "function"
				},
				{
					"inputs": [
						{
							"internalType": "address",
							"name": "spender",
							"type": "address"
						},
						{
							"internalType": "uint256",
							"name": "amount",
							"type": "uint256"
						}
					],
					"name": "approve",
					"outputs": [
						{
							"internalType": "bool",
							"name": "",
							"type": "bool"
						}
					],
					"stateMutability": "nonpayable",
					"type": "function"
				},
				{
					"inputs": [
						{
							"internalType": "address",
							"name": "account",
							"type": "address"
						}
					],
					"name": "balanceOf",
					"outputs": [
						{
							"internalType": "uint256",
							"name": "",
							"type": "uint256"
						}
					],
					"stateMutability": "view",
					"type": "function"
				},
				{
					"inputs": [],
					"name": "decimals",
					"outputs": [
						{
							"internalType": "uint8",
							"name": "",
							"type": "uint8"
						}
					],
					"stateMutability": "view",
					"type": "function"
				},
				{
					"inputs": [],
					"name": "name",
					"outputs": [
						{
							"internalType": "string",
							"name": "",
							"type": "string"
						}
					],
					"stateMutability": "view",
					"type": "function"
				},
				{
					"inputs": [],
					"name": "symbol",
					"outputs": [
						{
							"internalType": "string",
							"name": "",
							"type": "string"
						}
					],
					"stateMutability": "view",
					"type": "function"
				},
				{
					"inputs": [],
					"name": "totalSupply",
					"outputs": [
						{
							"internalType": "uint256",
							"name": "",
							"type": "uint256"
						}
					],
					"stateMutability": "view",
					"type": "function"
				},
				{
					"inputs": [
						{
							"internalType": "address",
							"name": "to",
							"type": "address"
						},
						{
							"internalType": "uint256",
							"name": "amount",
							"type": "uint256"
						}
					],
					"name": "transfer",
					"outputs": [
						{
							"internalType": "bool",
							"name": "",
							"type": "bool"
						}
					],
					"stateMutability": "nonpayable",
					"type": "function"
				},
				{
					"inputs": [
						{
							"internalType": "address",
							"name": "from",
							"type": "address"
						},
						{
							"internalType": "address",
							"name": "to",
							"type": "address"
						},
						{
							"internalType": "uint256",
							"name": "amount",
							"type": "uint256"
						}
					],
					"name": "transferFrom",
					"outputs": [
						{
							"internalType": "bool",
							"name": "",
							"type": "bool"
						}
					],
					"stateMutability": "nonpayable",
					"type": "function"
				}
			],
			"devdoc": {
				"kind": "dev",
				"methods": {},
				"version": 1
			},
			"evm": {
				"assembly": "    /* \"MyToken/MyToken.sol\":89:5139  contract MyToken is Context{... */\n  mstore(0x40, 0x80)\n    /* \"MyToken/MyToken.sol\":632:797  constructor () {... */\n  callvalue\n  dup1\n  iszero\n  tag_1\n  jumpi\n  0x00\n  dup1\n  revert\ntag_1:\n  pop\n    /* \"MyToken/MyToken.sol\":658:678  _name = \"RabbitCoin\" */\n  mload(0x40)\n  dup1\n  0x40\n  add\n  0x40\n  mstore\n  dup1\n  0x0a\n  dup2\n  mstore\n  0x20\n  add\n  0x526162626974436f696e00000000000000000000000000000000000000000000\n  dup2\n  mstore\n  pop\n    /* \"MyToken/MyToken.sol\":658:663  _name */\n  0x00\n    /* \"MyToken/MyToken.sol\":658:678  _name = \"RabbitCoin\" */\n  swap1\n  dup1\n  mload\n  swap1\n  0x20\n  add\n  swap1\n  tag_4\n  swap3\n  swap2\n  swap1\n  tag_5\n  jump\t// in\ntag_4:\n  pop\n    /* \"MyToken/MyToken.sol\":689:706  _symbol = \"RABTC\" */\n  mload(0x40)\n  dup1\n  0x40\n  add\n  0x40\n  mstore\n  dup1\n  0x05\n  dup2\n  mstore\n  0x20\n  add\n  0x5241425443000000000000000000000000000000000000000000000000000000\n  dup2\n  mstore\n  pop\n    /* \"MyToken/MyToken.sol\":689:696  _symbol */\n  0x01\n    /* \"MyToken/MyToken.sol\":689:706  _symbol = \"RABTC\" */\n  swap1\n  dup1\n  mload\n  swap1\n  0x20\n  add\n  swap1\n  tag_6\n  swap3\n  swap2\n  swap1\n  tag_5\n  jump\t// in\ntag_6:\n  pop\n    /* \"MyToken/MyToken.sol\":729:731  18 */\n  0x12\n    /* \"MyToken/MyToken.sol\":717:726  _decimals */\n  0x02\n  0x00\n    /* \"MyToken/MyToken.sol\":717:731  _decimals = 18 */\n  0x0100\n  exp\n  dup2\n  sload\n  dup2\n  0xff\n  mul\n  not\n  and\n  swap1\n  dup4\n  0xff\n  and\n  mul\n  or\n  swap1\n  sstore\n  pop\n    /* \"MyToken/MyToken.sol\":742:789  _mint(_msgSender(),100 * 10000 * 10**_decimals) */\n  tag_7\n    /* \"MyToken/MyToken.sol\":748:760  _msgSender() */\n  tag_8\n    /* \"MyToken/MyToken.sol\":748:758  _msgSender */\n  shl(0x20, tag_9)\n    /* \"MyToken/MyToken.sol\":748:760  _msgSender() */\n  0x20\n  shr\n  jump\t// in\ntag_8:\n    /* \"MyToken/MyToken.sol\":779:788  _decimals */\n  0x02\n  0x00\n  swap1\n  sload\n  swap1\n  0x0100\n  exp\n  swap1\n  div\n  0xff\n  and\n    /* \"MyToken/MyToken.sol\":775:777  10 */\n  0x0a\n    /* \"MyToken/MyToken.sol\":775:788  10**_decimals */\n  tag_10\n  swap2\n  swap1\n  tag_11\n  jump\t// in\ntag_10:\n    /* \"MyToken/MyToken.sol\":761:772  100 * 10000 */\n  0x0f4240\n    /* \"MyToken/MyToken.sol\":761:788  100 * 10000 * 10**_decimals */\n  tag_12\n  swap2\n  swap1\n  tag_13\n  jump\t// in\ntag_12:\n    /* \"MyToken/MyToken.sol\":742:747  _mint */\n  shl(0x20, tag_14)\n    /* \"MyToken/MyToken.sol\":742:789  _mint(_msgSender(),100 * 10000 * 10**_decimals) */\n  0x20\n  shr\n  jump\t// in\ntag_7:\n    /* \"MyToken/MyToken.sol\":89:5139  contract MyToken is Context{... */\n  jump(tag_15)\n    /* \"MyToken/Context.sol\":84:174  function _msgSender() view internal returns (address) {... */\ntag_9:\n    /* \"MyToken/Context.sol\":129:136  address */\n  0x00\n    /* \"MyToken/Context.sol\":156:166  msg.sender */\n  caller\n    /* \"MyToken/Context.sol\":149:166  return msg.sender */\n  swap1\n  pop\n    /* \"MyToken/Context.sol\":84:174  function _msgSender() view internal returns (address) {... */\n  swap1\n  jump\t// out\n    /* \"MyToken/MyToken.sol\":2795:3118  function _mint(address account,uint256 amount) internal {... */\ntag_14:\n    /* \"MyToken/MyToken.sol\":2889:2890  0 */\n  0x00\n    /* \"MyToken/MyToken.sol\":2870:2891  account != address(0) */\n  0xffffffffffffffffffffffffffffffffffffffff\n  and\n    /* \"MyToken/MyToken.sol\":2870:2877  account */\n  dup3\n    /* \"MyToken/MyToken.sol\":2870:2891  account != address(0) */\n  0xffffffffffffffffffffffffffffffffffffffff\n  and\n  eq\n  iszero\n    /* \"MyToken/MyToken.sol\":2862:2924  require(account != address(0),\"ERC: mint to the zero address\") */\n  tag_18\n  jumpi\n  mload(0x40)\n  0x08c379a000000000000000000000000000000000000000000000000000000000\n  dup2\n  mstore\n  0x04\n  add\n  tag_19\n  swap1\n  tag_20\n  jump\t// in\ntag_19:\n  mload(0x40)\n  dup1\n  swap2\n  sub\n  swap1\n  revert\ntag_18:\n    /* \"MyToken/MyToken.sol\":2984:2990  amount */\n  dup1\n    /* \"MyToken/MyToken.sol\":2968:2980  _totalSupply */\n  0x03\n  0x00\n    /* \"MyToken/MyToken.sol\":2968:2990  _totalSupply += amount */\n  dup3\n  dup3\n  sload\n  tag_21\n  swap2\n  swap1\n  tag_22\n  jump\t// in\ntag_21:\n  swap3\n  pop\n  pop\n  dup2\n  swap1\n  sstore\n  pop\n    /* \"MyToken/MyToken.sol\":3093:3099  amount */\n  dup1\n    /* \"MyToken/MyToken.sol\":3071:3080  _balances */\n  0x04\n    /* \"MyToken/MyToken.sol\":3071:3089  _balances[account] */\n  0x00\n    /* \"MyToken/MyToken.sol\":3081:3088  account */\n  dup5\n    /* \"MyToken/MyToken.sol\":3071:3089  _balances[account] */\n  0xffffffffffffffffffffffffffffffffffffffff\n  and\n  0xffffffffffffffffffffffffffffffffffffffff\n  and\n  dup2\n  mstore\n  0x20\n  add\n  swap1\n  dup2\n  mstore\n  0x20\n  add\n  0x00\n  keccak256\n  0x00\n    /* \"MyToken/MyToken.sol\":3071:3099  _balances[account] += amount */\n  dup3\n  dup3\n  sload\n  add\n  swap3\n  pop\n  pop\n  dup2\n  swap1\n  sstore\n  pop\n    /* \"MyToken/MyToken.sol\":2795:3118  function _mint(address account,uint256 amount) internal {... */\n  pop\n  pop\n  jump\t// out\n    /* \"MyToken/MyToken.sol\":89:5139  contract MyToken is Context{... */\ntag_5:\n  dup3\n  dup1\n  sload\n  tag_23\n  swap1\n  tag_24\n  jump\t// in\ntag_23:\n  swap1\n  0x00\n  mstore\n  keccak256(0x00, 0x20)\n  swap1\n  0x1f\n  add\n  0x20\n  swap1\n  div\n  dup2\n  add\n  swap3\n  dup3\n  tag_26\n  jumpi\n  0x00\n  dup6\n  sstore\n  jump(tag_25)\ntag_26:\n  dup3\n  0x1f\n  lt\n  tag_27\n  jumpi\n  dup1\n  mload\n  not(0xff)\n  and\n  dup4\n  dup1\n  add\n  or\n  dup6\n  sstore\n  jump(tag_25)\ntag_27:\n  dup3\n  dup1\n  add\n  0x01\n  add\n  dup6\n  sstore\n  dup3\n  iszero\n  tag_25\n  jumpi\n  swap2\n  dup3\n  add\ntag_28:\n  dup3\n  dup2\n  gt\n  iszero\n  tag_29\n  jumpi\n  dup3\n  mload\n  dup3\n  sstore\n  swap2\n  0x20\n  add\n  swap2\n  swap1\n  0x01\n  add\n  swap1\n  jump(tag_28)\ntag_29:\ntag_25:\n  pop\n  swap1\n  pop\n  tag_30\n  swap2\n  swap1\n  tag_31\n  jump\t// in\ntag_30:\n  pop\n  swap1\n  jump\t// out\ntag_31:\ntag_32:\n  dup1\n  dup3\n  gt\n  iszero\n  tag_33\n  jumpi\n  0x00\n  dup2\n  0x00\n  swap1\n  sstore\n  pop\n  0x01\n  add\n  jump(tag_32)\ntag_33:\n  pop\n  swap1\n  jump\t// out\n    /* \"#utility.yul\":7:187   */\ntag_34:\n    /* \"#utility.yul\":55:132   */\n  0x4e487b7100000000000000000000000000000000000000000000000000000000\n    /* \"#utility.yul\":52:53   */\n  0x00\n    /* \"#utility.yul\":45:133   */\n  mstore\n    /* \"#utility.yul\":152:156   */\n  0x11\n    /* \"#utility.yul\":149:150   */\n  0x04\n    /* \"#utility.yul\":142:157   */\n  mstore\n    /* \"#utility.yul\":176:180   */\n  0x24\n    /* \"#utility.yul\":173:174   */\n  0x00\n    /* \"#utility.yul\":166:181   */\n  revert\n    /* \"#utility.yul\":193:295   */\ntag_35:\n    /* \"#utility.yul\":235:243   */\n  0x00\n    /* \"#utility.yul\":282:287   */\n  dup2\n    /* \"#utility.yul\":279:280   */\n  0x01\n    /* \"#utility.yul\":275:288   */\n  shr\n    /* \"#utility.yul\":254:288   */\n  swap1\n  pop\n    /* \"#utility.yul\":193:295   */\n  swap2\n  swap1\n  pop\n  jump\t// out\n    /* \"#utility.yul\":301:1149   */\ntag_36:\n    /* \"#utility.yul\":362:367   */\n  0x00\n    /* \"#utility.yul\":369:373   */\n  dup1\n    /* \"#utility.yul\":393:399   */\n  dup3\n    /* \"#utility.yul\":384:399   */\n  swap2\n  pop\n    /* \"#utility.yul\":417:422   */\n  dup4\n    /* \"#utility.yul\":408:422   */\n  swap1\n  pop\n    /* \"#utility.yul\":431:1143   */\ntag_48:\n    /* \"#utility.yul\":452:453   */\n  0x01\n    /* \"#utility.yul\":442:450   */\n  dup6\n    /* \"#utility.yul\":439:454   */\n  gt\n    /* \"#utility.yul\":431:1143   */\n  iszero\n  tag_50\n  jumpi\n    /* \"#utility.yul\":547:551   */\n  dup1\n    /* \"#utility.yul\":542:545   */\n  dup7\n    /* \"#utility.yul\":538:552   */\n  div\n    /* \"#utility.yul\":532:536   */\n  dup2\n    /* \"#utility.yul\":529:553   */\n  gt\n    /* \"#utility.yul\":526:576   */\n  iszero\n  tag_51\n  jumpi\n    /* \"#utility.yul\":556:574   */\n  tag_52\n  tag_34\n  jump\t// in\ntag_52:\n    /* \"#utility.yul\":526:576   */\ntag_51:\n    /* \"#utility.yul\":606:607   */\n  0x01\n    /* \"#utility.yul\":596:604   */\n  dup6\n    /* \"#utility.yul\":592:608   */\n  and\n    /* \"#utility.yul\":589:1040   */\n  iszero\n  tag_53\n  jumpi\n    /* \"#utility.yul\":1021:1025   */\n  dup1\n    /* \"#utility.yul\":1014:1019   */\n  dup3\n    /* \"#utility.yul\":1010:1026   */\n  mul\n    /* \"#utility.yul\":1001:1026   */\n  swap2\n  pop\n    /* \"#utility.yul\":589:1040   */\ntag_53:\n    /* \"#utility.yul\":1071:1075   */\n  dup1\n    /* \"#utility.yul\":1065:1069   */\n  dup2\n    /* \"#utility.yul\":1061:1076   */\n  mul\n    /* \"#utility.yul\":1053:1076   */\n  swap1\n  pop\n    /* \"#utility.yul\":1101:1133   */\n  tag_54\n    /* \"#utility.yul\":1124:1132   */\n  dup6\n    /* \"#utility.yul\":1101:1133   */\n  tag_35\n  jump\t// in\ntag_54:\n    /* \"#utility.yul\":1089:1133   */\n  swap5\n  pop\n    /* \"#utility.yul\":431:1143   */\n  jump(tag_48)\ntag_50:\n    /* \"#utility.yul\":301:1149   */\n  swap5\n  pop\n  swap5\n  swap3\n  pop\n  pop\n  pop\n  jump\t// out\n    /* \"#utility.yul\":1155:2228   */\ntag_37:\n    /* \"#utility.yul\":1209:1214   */\n  0x00\n    /* \"#utility.yul\":1400:1408   */\n  dup3\n    /* \"#utility.yul\":1390:1430   */\n  tag_56\n  jumpi\n    /* \"#utility.yul\":1421:1422   */\n  0x01\n    /* \"#utility.yul\":1412:1422   */\n  swap1\n  pop\n    /* \"#utility.yul\":1423:1428   */\n  jump(tag_55)\n    /* \"#utility.yul\":1390:1430   */\ntag_56:\n    /* \"#utility.yul\":1449:1453   */\n  dup2\n    /* \"#utility.yul\":1439:1475   */\n  tag_57\n  jumpi\n    /* \"#utility.yul\":1466:1467   */\n  0x00\n    /* \"#utility.yul\":1457:1467   */\n  swap1\n  pop\n    /* \"#utility.yul\":1468:1473   */\n  jump(tag_55)\n    /* \"#utility.yul\":1439:1475   */\ntag_57:\n    /* \"#utility.yul\":1535:1539   */\n  dup2\n    /* \"#utility.yul\":1583:1584   */\n  0x01\n    /* \"#utility.yul\":1578:1605   */\n  dup2\n  eq\n  tag_59\n  jumpi\n    /* \"#utility.yul\":1619:1620   */\n  0x02\n    /* \"#utility.yul\":1614:1805   */\n  dup2\n  eq\n  tag_60\n  jumpi\n    /* \"#utility.yul\":1528:1805   */\n  jump(tag_58)\n    /* \"#utility.yul\":1578:1605   */\ntag_59:\n    /* \"#utility.yul\":1596:1597   */\n  0x01\n    /* \"#utility.yul\":1587:1597   */\n  swap2\n  pop\n    /* \"#utility.yul\":1598:1603   */\n  pop\n  jump(tag_55)\n    /* \"#utility.yul\":1614:1805   */\ntag_60:\n    /* \"#utility.yul\":1659:1662   */\n  0xff\n    /* \"#utility.yul\":1649:1657   */\n  dup5\n    /* \"#utility.yul\":1646:1663   */\n  gt\n    /* \"#utility.yul\":1643:1686   */\n  iszero\n  tag_61\n  jumpi\n    /* \"#utility.yul\":1666:1684   */\n  tag_62\n  tag_34\n  jump\t// in\ntag_62:\n    /* \"#utility.yul\":1643:1686   */\ntag_61:\n    /* \"#utility.yul\":1715:1723   */\n  dup4\n    /* \"#utility.yul\":1712:1713   */\n  0x02\n    /* \"#utility.yul\":1708:1724   */\n  exp\n    /* \"#utility.yul\":1699:1724   */\n  swap2\n  pop\n    /* \"#utility.yul\":1750:1753   */\n  dup5\n    /* \"#utility.yul\":1743:1748   */\n  dup3\n    /* \"#utility.yul\":1740:1754   */\n  gt\n    /* \"#utility.yul\":1737:1777   */\n  iszero\n  tag_63\n  jumpi\n    /* \"#utility.yul\":1757:1775   */\n  tag_64\n  tag_34\n  jump\t// in\ntag_64:\n    /* \"#utility.yul\":1737:1777   */\ntag_63:\n    /* \"#utility.yul\":1790:1795   */\n  pop\n  jump(tag_55)\n    /* \"#utility.yul\":1528:1805   */\ntag_58:\n  pop\n    /* \"#utility.yul\":1914:1916   */\n  0x20\n    /* \"#utility.yul\":1904:1912   */\n  dup4\n    /* \"#utility.yul\":1901:1917   */\n  lt\n    /* \"#utility.yul\":1895:1898   */\n  0x0133\n    /* \"#utility.yul\":1889:1893   */\n  dup4\n    /* \"#utility.yul\":1886:1899   */\n  lt\n    /* \"#utility.yul\":1882:1918   */\n  and\n    /* \"#utility.yul\":1864:1866   */\n  0x4e\n    /* \"#utility.yul\":1854:1862   */\n  dup5\n    /* \"#utility.yul\":1851:1867   */\n  lt\n    /* \"#utility.yul\":1846:1848   */\n  0x0b\n    /* \"#utility.yul\":1840:1844   */\n  dup5\n    /* \"#utility.yul\":1837:1849   */\n  lt\n    /* \"#utility.yul\":1833:1868   */\n  and\n    /* \"#utility.yul\":1817:1928   */\n  or\n    /* \"#utility.yul\":1814:2060   */\n  iszero\n  tag_65\n  jumpi\n    /* \"#utility.yul\":1970:1978   */\n  dup3\n    /* \"#utility.yul\":1964:1968   */\n  dup3\n    /* \"#utility.yul\":1960:1979   */\n  exp\n    /* \"#utility.yul\":1951:1979   */\n  swap1\n  pop\n    /* \"#utility.yul\":2005:2008   */\n  dup4\n    /* \"#utility.yul\":1998:2003   */\n  dup2\n    /* \"#utility.yul\":1995:2009   */\n  gt\n    /* \"#utility.yul\":1992:2032   */\n  iszero\n  tag_66\n  jumpi\n    /* \"#utility.yul\":2012:2030   */\n  tag_67\n  tag_34\n  jump\t// in\ntag_67:\n    /* \"#utility.yul\":1992:2032   */\ntag_66:\n    /* \"#utility.yul\":2045:2050   */\n  jump(tag_55)\n    /* \"#utility.yul\":1814:2060   */\ntag_65:\n    /* \"#utility.yul\":2085:2127   */\n  tag_68\n    /* \"#utility.yul\":2123:2126   */\n  dup5\n    /* \"#utility.yul\":2113:2121   */\n  dup5\n    /* \"#utility.yul\":2107:2111   */\n  dup5\n    /* \"#utility.yul\":2104:2105   */\n  0x01\n    /* \"#utility.yul\":2085:2127   */\n  tag_36\n  jump\t// in\ntag_68:\n    /* \"#utility.yul\":2070:2127   */\n  swap3\n  pop\n  swap1\n  pop\n    /* \"#utility.yul\":2159:2163   */\n  dup2\n    /* \"#utility.yul\":2154:2157   */\n  dup5\n    /* \"#utility.yul\":2150:2164   */\n  div\n    /* \"#utility.yul\":2143:2148   */\n  dup2\n    /* \"#utility.yul\":2140:2165   */\n  gt\n    /* \"#utility.yul\":2137:2188   */\n  iszero\n  tag_69\n  jumpi\n    /* \"#utility.yul\":2168:2186   */\n  tag_70\n  tag_34\n  jump\t// in\ntag_70:\n    /* \"#utility.yul\":2137:2188   */\ntag_69:\n    /* \"#utility.yul\":2217:2221   */\n  dup2\n    /* \"#utility.yul\":2210:2215   */\n  dup2\n    /* \"#utility.yul\":2206:2222   */\n  mul\n    /* \"#utility.yul\":2197:2222   */\n  swap1\n  pop\n    /* \"#utility.yul\":1155:2228   */\ntag_55:\n  swap4\n  swap3\n  pop\n  pop\n  pop\n  jump\t// out\n    /* \"#utility.yul\":2234:2311   */\ntag_38:\n    /* \"#utility.yul\":2271:2278   */\n  0x00\n    /* \"#utility.yul\":2300:2305   */\n  dup2\n    /* \"#utility.yul\":2289:2305   */\n  swap1\n  pop\n    /* \"#utility.yul\":2234:2311   */\n  swap2\n  swap1\n  pop\n  jump\t// out\n    /* \"#utility.yul\":2317:2403   */\ntag_39:\n    /* \"#utility.yul\":2352:2359   */\n  0x00\n    /* \"#utility.yul\":2392:2396   */\n  0xff\n    /* \"#utility.yul\":2385:2390   */\n  dup3\n    /* \"#utility.yul\":2381:2397   */\n  and\n    /* \"#utility.yul\":2370:2397   */\n  swap1\n  pop\n    /* \"#utility.yul\":2317:2403   */\n  swap2\n  swap1\n  pop\n  jump\t// out\n    /* \"#utility.yul\":2409:2690   */\ntag_11:\n    /* \"#utility.yul\":2467:2472   */\n  0x00\n    /* \"#utility.yul\":2491:2514   */\n  tag_74\n    /* \"#utility.yul\":2509:2513   */\n  dup3\n    /* \"#utility.yul\":2491:2514   */\n  tag_38\n  jump\t// in\ntag_74:\n    /* \"#utility.yul\":2483:2514   */\n  swap2\n  pop\n    /* \"#utility.yul\":2535:2560   */\n  tag_75\n    /* \"#utility.yul\":2551:2559   */\n  dup4\n    /* \"#utility.yul\":2535:2560   */\n  tag_39\n  jump\t// in\ntag_75:\n    /* \"#utility.yul\":2523:2560   */\n  swap3\n  pop\n    /* \"#utility.yul\":2579:2683   */\n  tag_76\n    /* \"#utility.yul\":2616:2682   */\n  0xffffffffffffffffffffffffffffffffffffffffffffffffffffffffffffffff\n    /* \"#utility.yul\":2606:2614   */\n  dup5\n    /* \"#utility.yul\":2600:2604   */\n  dup5\n    /* \"#utility.yul\":2579:2683   */\n  tag_37\n  jump\t// in\ntag_76:\n    /* \"#utility.yul\":2570:2683   */\n  swap1\n  pop\n    /* \"#utility.yul\":2409:2690   */\n  swap3\n  swap2\n  pop\n  pop\n  jump\t// out\n    /* \"#utility.yul\":2696:3044   */\ntag_13:\n    /* \"#utility.yul\":2736:2743   */\n  0x00\n    /* \"#utility.yul\":2759:2779   */\n  tag_78\n    /* \"#utility.yul\":2777:2778   */\n  dup3\n    /* \"#utility.yul\":2759:2779   */\n  tag_38\n  jump\t// in\ntag_78:\n    /* \"#utility.yul\":2754:2779   */\n  swap2\n  pop\n    /* \"#utility.yul\":2793:2813   */\n  tag_79\n    /* \"#utility.yul\":2811:2812   */\n  dup4\n    /* \"#utility.yul\":2793:2813   */\n  tag_38\n  jump\t// in\ntag_79:\n    /* \"#utility.yul\":2788:2813   */\n  swap3\n  pop\n    /* \"#utility.yul\":2981:2982   */\n  dup2\n    /* \"#utility.yul\":2913:2979   */\n  0xffffffffffffffffffffffffffffffffffffffffffffffffffffffffffffffff\n    /* \"#utility.yul\":2909:2983   */\n  div\n    /* \"#utility.yul\":2906:2907   */\n  dup4\n    /* \"#utility.yul\":2903:2984   */\n  gt\n    /* \"#utility.yul\":2898:2899   */\n  dup3\n    /* \"#utility.yul\":2891:2900   */\n  iszero\n    /* \"#utility.yul\":2884:2901   */\n  iszero\n    /* \"#utility.yul\":2880:2985   */\n  and\n    /* \"#utility.yul\":2877:3008   */\n  iszero\n  tag_80\n  jumpi\n    /* \"#utility.yul\":2988:3006   */\n  tag_81\n  tag_34\n  jump\t// in\ntag_81:\n    /* \"#utility.yul\":2877:3008   */\ntag_80:\n    /* \"#utility.yul\":3036:3037   */\n  dup3\n    /* \"#utility.yul\":3033:3034   */\n  dup3\n    /* \"#utility.yul\":3029:3038   */\n  mul\n    /* \"#utility.yul\":3018:3038   */\n  swap1\n  pop\n    /* \"#utility.yul\":2696:3044   */\n  swap3\n  swap2\n  pop\n  pop\n  jump\t// out\n    /* \"#utility.yul\":3050:3219   */\ntag_40:\n    /* \"#utility.yul\":3134:3145   */\n  0x00\n    /* \"#utility.yul\":3168:3174   */\n  dup3\n    /* \"#utility.yul\":3163:3166   */\n  dup3\n    /* \"#utility.yul\":3156:3175   */\n  mstore\n    /* \"#utility.yul\":3208:3212   */\n  0x20\n    /* \"#utility.yul\":3203:3206   */\n  dup3\n    /* \"#utility.yul\":3199:3213   */\n  add\n    /* \"#utility.yul\":3184:3213   */\n  swap1\n  pop\n    /* \"#utility.yul\":3050:3219   */\n  swap3\n  swap2\n  pop\n  pop\n  jump\t// out\n    /* \"#utility.yul\":3225:3404   */\ntag_41:\n    /* \"#utility.yul\":3365:3396   */\n  0x4552433a206d696e7420746f20746865207a65726f2061646472657373000000\n    /* \"#utility.yul\":3361:3362   */\n  0x00\n    /* \"#utility.yul\":3353:3359   */\n  dup3\n    /* \"#utility.yul\":3349:3363   */\n  add\n    /* \"#utility.yul\":3342:3397   */\n  mstore\n    /* \"#utility.yul\":3225:3404   */\n  pop\n  jump\t// out\n    /* \"#utility.yul\":3410:3776   */\ntag_42:\n    /* \"#utility.yul\":3552:3555   */\n  0x00\n    /* \"#utility.yul\":3573:3640   */\n  tag_85\n    /* \"#utility.yul\":3637:3639   */\n  0x1d\n    /* \"#utility.yul\":3632:3635   */\n  dup4\n    /* \"#utility.yul\":3573:3640   */\n  tag_40\n  jump\t// in\ntag_85:\n    /* \"#utility.yul\":3566:3640   */\n  swap2\n  pop\n    /* \"#utility.yul\":3649:3742   */\n  tag_86\n    /* \"#utility.yul\":3738:3741   */\n  dup3\n    /* \"#utility.yul\":3649:3742   */\n  tag_41\n  jump\t// in\ntag_86:\n    /* \"#utility.yul\":3767:3769   */\n  0x20\n    /* \"#utility.yul\":3762:3765   */\n  dup3\n    /* \"#utility.yul\":3758:3770   */\n  add\n    /* \"#utility.yul\":3751:3770   */\n  swap1\n  pop\n    /* \"#utility.yul\":3410:3776   */\n  swap2\n  swap1\n  pop\n  jump\t// out\n    /* \"#utility.yul\":3782:4201   */\ntag_20:\n    /* \"#utility.yul\":3948:3952   */\n  0x00\n    /* \"#utility.yul\":3986:3988   */\n  0x20\n    /* \"#utility.yul\":3975:3984   */\n  dup3\n    /* \"#utility.yul\":3971:3989   */\n  add\n    /* \"#utility.yul\":3963:3989   */\n  swap1\n  pop\n    /* \"#utility.yul\":4035:4044   */\n  dup2\n    /* \"#utility.yul\":4029:4033   */\n  dup2\n    /* \"#utility.yul\":4025:4045   */\n  sub\n    /* \"#utility.yul\":4021:4022   */\n  0x00\n    /* \"#utility.yul\":4010:4019   */\n  dup4\n    /* \"#utility.yul\":4006:4023   */\n  add\n    /* \"#utility.yul\":3999:4046   */\n  mstore\n    /* \"#utility.yul\":4063:4194   */\n  tag_88\n    /* \"#utility.yul\":4189:4193   */\n  dup2\n    /* \"#utility.yul\":4063:4194   */\n  tag_42\n  jump\t// in\ntag_88:\n    /* \"#utility.yul\":4055:4194   */\n  swap1\n  pop\n    /* \"#utility.yul\":3782:4201   */\n  swap2\n  swap1\n  pop\n  jump\t// out\n    /* \"#utility.yul\":4207:4512   */\ntag_22:\n    /* \"#utility.yul\":4247:4250   */\n  0x00\n    /* \"#utility.yul\":4266:4286   */\n  tag_90\n    /* \"#utility.yul\":4284:4285   */\n  dup3\n    /* \"#utility.yul\":4266:4286   */\n  tag_38\n  jump\t// in\ntag_90:\n    /* \"#utility.yul\":4261:4286   */\n  swap2\n  pop\n    /* \"#utility.yul\":4300:4320   */\n  tag_91\n    /* \"#utility.yul\":4318:4319   */\n  dup4\n    /* \"#utility.yul\":4300:4320   */\n  tag_38\n  jump\t// in\ntag_91:\n    /* \"#utility.yul\":4295:4320   */\n  swap3\n  pop\n    /* \"#utility.yul\":4454:4455   */\n  dup3\n    /* \"#utility.yul\":4386:4452   */\n  0xffffffffffffffffffffffffffffffffffffffffffffffffffffffffffffffff\n    /* \"#utility.yul\":4382:4456   */\n  sub\n    /* \"#utility.yul\":4379:4380   */\n  dup3\n    /* \"#utility.yul\":4376:4457   */\n  gt\n    /* \"#utility.yul\":4373:4480   */\n  iszero\n  tag_92\n  jumpi\n    /* \"#utility.yul\":4460:4478   */\n  tag_93\n  tag_34\n  jump\t// in\ntag_93:\n    /* \"#utility.yul\":4373:4480   */\ntag_92:\n    /* \"#utility.yul\":4504:4505   */\n  dup3\n    /* \"#utility.yul\":4501:4502   */\n  dup3\n    /* \"#utility.yul\":4497:4506   */\n  add\n    /* \"#utility.yul\":4490:4506   */\n  swap1\n  pop\n    /* \"#utility.yul\":4207:4512   */\n  swap3\n  swap2\n  pop\n  pop\n  jump\t// out\n    /* \"#utility.yul\":4518:4698   */\ntag_43:\n    /* \"#utility.yul\":4566:4643   */\n  0x4e487b7100000000000000000000000000000000000000000000000000000000\n    /* \"#utility.yul\":4563:4564   */\n  0x00\n    /* \"#utility.yul\":4556:4644   */\n  mstore\n    /* \"#utility.yul\":4663:4667   */\n  0x22\n    /* \"#utility.yul\":4660:4661   */\n  0x04\n    /* \"#utility.yul\":4653:4668   */\n  mstore\n    /* \"#utility.yul\":4687:4691   */\n  0x24\n    /* \"#utility.yul\":4684:4685   */\n  0x00\n    /* \"#utility.yul\":4677:4692   */\n  revert\n    /* \"#utility.yul\":4704:5024   */\ntag_24:\n    /* \"#utility.yul\":4748:4754   */\n  0x00\n    /* \"#utility.yul\":4785:4786   */\n  0x02\n    /* \"#utility.yul\":4779:4783   */\n  dup3\n    /* \"#utility.yul\":4775:4787   */\n  div\n    /* \"#utility.yul\":4765:4787   */\n  swap1\n  pop\n    /* \"#utility.yul\":4832:4833   */\n  0x01\n    /* \"#utility.yul\":4826:4830   */\n  dup3\n    /* \"#utility.yul\":4822:4834   */\n  and\n    /* \"#utility.yul\":4853:4871   */\n  dup1\n    /* \"#utility.yul\":4843:4924   */\n  tag_96\n  jumpi\n    /* \"#utility.yul\":4909:4913   */\n  0x7f\n    /* \"#utility.yul\":4901:4907   */\n  dup3\n    /* \"#utility.yul\":4897:4914   */\n  and\n    /* \"#utility.yul\":4887:4914   */\n  swap2\n  pop\n    /* \"#utility.yul\":4843:4924   */\ntag_96:\n    /* \"#utility.yul\":4971:4973   */\n  0x20\n    /* \"#utility.yul\":4963:4969   */\n  dup3\n    /* \"#utility.yul\":4960:4974   */\n  lt\n    /* \"#utility.yul\":4940:4958   */\n  dup2\n    /* \"#utility.yul\":4937:4975   */\n  eq\n    /* \"#utility.yul\":4934:5018   */\n  iszero\n  tag_97\n  jumpi\n    /* \"#utility.yul\":4990:5008   */\n  tag_98\n  tag_43\n  jump\t// in\ntag_98:\n    /* \"#utility.yul\":4934:5018   */\ntag_97:\n    /* \"#utility.yul\":4755:5024   */\n  pop\n    /* \"#utility.yul\":4704:5024   */\n  swap2\n  swap1\n  pop\n  jump\t// out\n    /* \"MyToken/MyToken.sol\":89:5139  contract MyToken is Context{... */\ntag_15:\n  dataSize(sub_0)\n  dup1\n  dataOffset(sub_0)\n  0x00\n  codecopy\n  0x00\n  return\nstop\n\nsub_0: assembly {\n        /* \"MyToken/MyToken.sol\":89:5139  contract MyToken is Context{... */\n      mstore(0x40, 0x80)\n      callvalue\n      dup1\n      iszero\n      tag_1\n      jumpi\n      0x00\n      dup1\n      revert\n    tag_1:\n      pop\n      jumpi(tag_2, lt(calldatasize, 0x04))\n      shr(0xe0, calldataload(0x00))\n      dup1\n      0x23b872dd\n      gt\n      tag_12\n      jumpi\n      dup1\n      0x23b872dd\n      eq\n      tag_7\n      jumpi\n      dup1\n      0x313ce567\n      eq\n      tag_8\n      jumpi\n      dup1\n      0x70a08231\n      eq\n      tag_9\n      jumpi\n      dup1\n      0x95d89b41\n      eq\n      tag_10\n      jumpi\n      dup1\n      0xa9059cbb\n      eq\n      tag_11\n      jumpi\n      jump(tag_2)\n    tag_12:\n      dup1\n      0x06fdde03\n      eq\n      tag_3\n      jumpi\n      dup1\n      0x095ea7b3\n      eq\n      tag_4\n      jumpi\n      dup1\n      0x18160ddd\n      eq\n      tag_5\n      jumpi\n      dup1\n      0x1a46ec82\n      eq\n      tag_6\n      jumpi\n    tag_2:\n      0x00\n      dup1\n      revert\n        /* \"MyToken/MyToken.sol\":868:952  function name() public view returns (string memory){... */\n    tag_3:\n      tag_13\n      tag_14\n      jump\t// in\n    tag_13:\n      mload(0x40)\n      tag_15\n      swap2\n      swap1\n      tag_16\n      jump\t// in\n    tag_15:\n      mload(0x40)\n      dup1\n      swap2\n      sub\n      swap1\n      return\n        /* \"MyToken/MyToken.sol\":2464:2752  function approve(address spender, uint256 amount) public returns (bool) {... */\n    tag_4:\n      tag_17\n      0x04\n      dup1\n      calldatasize\n      sub\n      dup2\n      add\n      swap1\n      tag_18\n      swap2\n      swap1\n      tag_19\n      jump\t// in\n    tag_18:\n      tag_20\n      jump\t// in\n    tag_17:\n      mload(0x40)\n      tag_21\n      swap2\n      swap1\n      tag_22\n      jump\t// in\n    tag_21:\n      mload(0x40)\n      dup1\n      swap2\n      sub\n      swap1\n      return\n        /* \"MyToken/MyToken.sol\":1242:1333  function totalSupply() public view returns (uint256) {... */\n    tag_5:\n      tag_23\n      tag_24\n      jump\t// in\n    tag_23:\n      mload(0x40)\n      tag_25\n      swap2\n      swap1\n      tag_26\n      jump\t// in\n    tag_25:\n      mload(0x40)\n      dup1\n      swap2\n      sub\n      swap1\n      return\n        /* \"MyToken/MyToken.sol\":1540:1675  function allowanceOf(address owner, address spender) public view returns (uint256) {... */\n    tag_6:\n      tag_27\n      0x04\n      dup1\n      calldatasize\n      sub\n      dup2\n      add\n      swap1\n      tag_28\n      swap2\n      swap1\n      tag_29\n      jump\t// in\n    tag_28:\n      tag_30\n      jump\t// in\n    tag_27:\n      mload(0x40)\n      tag_31\n      swap2\n      swap1\n      tag_26\n      jump\t// in\n    tag_31:\n      mload(0x40)\n      dup1\n      swap2\n      sub\n      swap1\n      return\n        /* \"MyToken/MyToken.sol\":1874:2226  function transferFrom(address from, address to, uint256 amount) public returns (bool) {... */\n    tag_7:\n      tag_32\n      0x04\n      dup1\n      calldatasize\n      sub\n      dup2\n      add\n      swap1\n      tag_33\n      swap2\n      swap1\n      tag_34\n      jump\t// in\n    tag_33:\n      tag_35\n      jump\t// in\n    tag_32:\n      mload(0x40)\n      tag_36\n      swap2\n      swap1\n      tag_22\n      jump\t// in\n    tag_36:\n      mload(0x40)\n      dup1\n      swap2\n      sub\n      swap1\n      return\n        /* \"MyToken/MyToken.sol\":1116:1201  function decimals() public view returns (uint8) {... */\n    tag_8:\n      tag_37\n      tag_38\n      jump\t// in\n    tag_37:\n      mload(0x40)\n      tag_39\n      swap2\n      swap1\n      tag_40\n      jump\t// in\n    tag_39:\n      mload(0x40)\n      dup1\n      swap2\n      sub\n      swap1\n      return\n        /* \"MyToken/MyToken.sol\":1380:1490  function balanceOf(address account) public view returns (uint256) {... */\n    tag_9:\n      tag_41\n      0x04\n      dup1\n      calldatasize\n      sub\n      dup2\n      add\n      swap1\n      tag_42\n      swap2\n      swap1\n      tag_43\n      jump\t// in\n    tag_42:\n      tag_44\n      jump\t// in\n    tag_41:\n      mload(0x40)\n      tag_45\n      swap2\n      swap1\n      tag_26\n      jump\t// in\n    tag_45:\n      mload(0x40)\n      dup1\n      swap2\n      sub\n      swap1\n      return\n        /* \"MyToken/MyToken.sol\":986:1074  function symbol() public view returns (string memory){... */\n    tag_10:\n      tag_46\n      tag_47\n      jump\t// in\n    tag_46:\n      mload(0x40)\n      tag_48\n      swap2\n      swap1\n      tag_16\n      jump\t// in\n    tag_48:\n      mload(0x40)\n      dup1\n      swap2\n      sub\n      swap1\n      return\n        /* \"MyToken/MyToken.sol\":2254:2454  function transfer(address to, uint256 amount) public returns (bool) {... */\n    tag_11:\n      tag_49\n      0x04\n      dup1\n      calldatasize\n      sub\n      dup2\n      add\n      swap1\n      tag_50\n      swap2\n      swap1\n      tag_19\n      jump\t// in\n    tag_50:\n      tag_51\n      jump\t// in\n    tag_49:\n      mload(0x40)\n      tag_52\n      swap2\n      swap1\n      tag_22\n      jump\t// in\n    tag_52:\n      mload(0x40)\n      dup1\n      swap2\n      sub\n      swap1\n      return\n        /* \"MyToken/MyToken.sol\":868:952  function name() public view returns (string memory){... */\n    tag_14:\n        /* \"MyToken/MyToken.sol\":905:918  string memory */\n      0x60\n        /* \"MyToken/MyToken.sol\":938:943  _name */\n      0x00\n        /* \"MyToken/MyToken.sol\":931:943  return _name */\n      dup1\n      sload\n      tag_54\n      swap1\n      tag_55\n      jump\t// in\n    tag_54:\n      dup1\n      0x1f\n      add\n      0x20\n      dup1\n      swap2\n      div\n      mul\n      0x20\n      add\n      mload(0x40)\n      swap1\n      dup2\n      add\n      0x40\n      mstore\n      dup1\n      swap3\n      swap2\n      swap1\n      dup2\n      dup2\n      mstore\n      0x20\n      add\n      dup3\n      dup1\n      sload\n      tag_56\n      swap1\n      tag_55\n      jump\t// in\n    tag_56:\n      dup1\n      iszero\n      tag_57\n      jumpi\n      dup1\n      0x1f\n      lt\n      tag_58\n      jumpi\n      0x0100\n      dup1\n      dup4\n      sload\n      div\n      mul\n      dup4\n      mstore\n      swap2\n      0x20\n      add\n      swap2\n      jump(tag_57)\n    tag_58:\n      dup3\n      add\n      swap2\n      swap1\n      0x00\n      mstore\n      keccak256(0x00, 0x20)\n      swap1\n    tag_59:\n      dup2\n      sload\n      dup2\n      mstore\n      swap1\n      0x01\n      add\n      swap1\n      0x20\n      add\n      dup1\n      dup4\n      gt\n      tag_59\n      jumpi\n      dup3\n      swap1\n      sub\n      0x1f\n      and\n      dup3\n      add\n      swap2\n    tag_57:\n      pop\n      pop\n      pop\n      pop\n      pop\n      swap1\n      pop\n        /* \"MyToken/MyToken.sol\":868:952  function name() public view returns (string memory){... */\n      swap1\n      jump\t// out\n        /* \"MyToken/MyToken.sol\":2464:2752  function approve(address spender, uint256 amount) public returns (bool) {... */\n    tag_20:\n        /* \"MyToken/MyToken.sol\":2530:2534  bool */\n      0x00\n        /* \"MyToken/MyToken.sol\":2602:2615  address owner */\n      dup1\n        /* \"MyToken/MyToken.sol\":2618:2630  _msgSender() */\n      tag_61\n        /* \"MyToken/MyToken.sol\":2618:2628  _msgSender */\n      tag_62\n        /* \"MyToken/MyToken.sol\":2618:2630  _msgSender() */\n      jump\t// in\n    tag_61:\n        /* \"MyToken/MyToken.sol\":2602:2630  address owner = _msgSender() */\n      swap1\n      pop\n        /* \"MyToken/MyToken.sol\":2689:2720  _approve(owner, spender,amount) */\n      tag_63\n        /* \"MyToken/MyToken.sol\":2698:2703  owner */\n      dup2\n        /* \"MyToken/MyToken.sol\":2705:2712  spender */\n      dup6\n        /* \"MyToken/MyToken.sol\":2713:2719  amount */\n      dup6\n        /* \"MyToken/MyToken.sol\":2689:2697  _approve */\n      tag_64\n        /* \"MyToken/MyToken.sol\":2689:2720  _approve(owner, spender,amount) */\n      jump\t// in\n    tag_63:\n        /* \"MyToken/MyToken.sol\":2738:2742  true */\n      0x01\n        /* \"MyToken/MyToken.sol\":2731:2742  return true */\n      swap2\n      pop\n      pop\n        /* \"MyToken/MyToken.sol\":2464:2752  function approve(address spender, uint256 amount) public returns (bool) {... */\n      swap3\n      swap2\n      pop\n      pop\n      jump\t// out\n        /* \"MyToken/MyToken.sol\":1242:1333  function totalSupply() public view returns (uint256) {... */\n    tag_24:\n        /* \"MyToken/MyToken.sol\":1286:1293  uint256 */\n      0x00\n        /* \"MyToken/MyToken.sol\":1313:1325  _totalSupply */\n      sload(0x03)\n        /* \"MyToken/MyToken.sol\":1306:1325  return _totalSupply */\n      swap1\n      pop\n        /* \"MyToken/MyToken.sol\":1242:1333  function totalSupply() public view returns (uint256) {... */\n      swap1\n      jump\t// out\n        /* \"MyToken/MyToken.sol\":1540:1675  function allowanceOf(address owner, address spender) public view returns (uint256) {... */\n    tag_30:\n        /* \"MyToken/MyToken.sol\":1614:1621  uint256 */\n      0x00\n        /* \"MyToken/MyToken.sol\":1641:1651  _allowance */\n      0x05\n        /* \"MyToken/MyToken.sol\":1641:1658  _allowance[owner] */\n      0x00\n        /* \"MyToken/MyToken.sol\":1652:1657  owner */\n      dup5\n        /* \"MyToken/MyToken.sol\":1641:1658  _allowance[owner] */\n      0xffffffffffffffffffffffffffffffffffffffff\n      and\n      0xffffffffffffffffffffffffffffffffffffffff\n      and\n      dup2\n      mstore\n      0x20\n      add\n      swap1\n      dup2\n      mstore\n      0x20\n      add\n      0x00\n      keccak256\n        /* \"MyToken/MyToken.sol\":1641:1667  _allowance[owner][spender] */\n      0x00\n        /* \"MyToken/MyToken.sol\":1659:1666  spender */\n      dup4\n        /* \"MyToken/MyToken.sol\":1641:1667  _allowance[owner][spender] */\n      0xffffffffffffffffffffffffffffffffffffffff\n      and\n      0xffffffffffffffffffffffffffffffffffffffff\n      and\n      dup2\n      mstore\n      0x20\n      add\n      swap1\n      dup2\n      mstore\n      0x20\n      add\n      0x00\n      keccak256\n      sload\n        /* \"MyToken/MyToken.sol\":1634:1667  return _allowance[owner][spender] */\n      swap1\n      pop\n        /* \"MyToken/MyToken.sol\":1540:1675  function allowanceOf(address owner, address spender) public view returns (uint256) {... */\n      swap3\n      swap2\n      pop\n      pop\n      jump\t// out\n        /* \"MyToken/MyToken.sol\":1874:2226  function transferFrom(address from, address to, uint256 amount) public returns (bool) {... */\n    tag_35:\n        /* \"MyToken/MyToken.sol\":1954:1958  bool */\n      0x00\n        /* \"MyToken/MyToken.sol\":1971:1984  address owner */\n      dup1\n        /* \"MyToken/MyToken.sol\":1987:1999  _msgSender() */\n      tag_68\n        /* \"MyToken/MyToken.sol\":1987:1997  _msgSender */\n      tag_62\n        /* \"MyToken/MyToken.sol\":1987:1999  _msgSender() */\n      jump\t// in\n    tag_68:\n        /* \"MyToken/MyToken.sol\":1971:1999  address owner = _msgSender() */\n      swap1\n      pop\n        /* \"MyToken/MyToken.sol\":2046:2080  _spendAllowance(from,owner,amount) */\n      tag_69\n        /* \"MyToken/MyToken.sol\":2062:2066  from */\n      dup6\n        /* \"MyToken/MyToken.sol\":2067:2072  owner */\n      dup3\n        /* \"MyToken/MyToken.sol\":2073:2079  amount */\n      dup6\n        /* \"MyToken/MyToken.sol\":2046:2061  _spendAllowance */\n      tag_70\n        /* \"MyToken/MyToken.sol\":2046:2080  _spendAllowance(from,owner,amount) */\n      jump\t// in\n    tag_69:\n        /* \"MyToken/MyToken.sol\":2169:2196  _transfer(from, to, amount) */\n      tag_71\n        /* \"MyToken/MyToken.sol\":2179:2183  from */\n      dup6\n        /* \"MyToken/MyToken.sol\":2185:2187  to */\n      dup6\n        /* \"MyToken/MyToken.sol\":2189:2195  amount */\n      dup6\n        /* \"MyToken/MyToken.sol\":2169:2178  _transfer */\n      tag_72\n        /* \"MyToken/MyToken.sol\":2169:2196  _transfer(from, to, amount) */\n      jump\t// in\n    tag_71:\n        /* \"MyToken/MyToken.sol\":2214:2218  true */\n      0x01\n        /* \"MyToken/MyToken.sol\":2207:2218  return true */\n      swap2\n      pop\n      pop\n        /* \"MyToken/MyToken.sol\":1874:2226  function transferFrom(address from, address to, uint256 amount) public returns (bool) {... */\n      swap4\n      swap3\n      pop\n      pop\n      pop\n      jump\t// out\n        /* \"MyToken/MyToken.sol\":1116:1201  function decimals() public view returns (uint8) {... */\n    tag_38:\n        /* \"MyToken/MyToken.sol\":1157:1162  uint8 */\n      0x00\n        /* \"MyToken/MyToken.sol\":1183:1192  _decimals */\n      0x02\n      0x00\n      swap1\n      sload\n      swap1\n      0x0100\n      exp\n      swap1\n      div\n      0xff\n      and\n        /* \"MyToken/MyToken.sol\":1176:1192  return _decimals */\n      swap1\n      pop\n        /* \"MyToken/MyToken.sol\":1116:1201  function decimals() public view returns (uint8) {... */\n      swap1\n      jump\t// out\n        /* \"MyToken/MyToken.sol\":1380:1490  function balanceOf(address account) public view returns (uint256) {... */\n    tag_44:\n        /* \"MyToken/MyToken.sol\":1437:1444  uint256 */\n      0x00\n        /* \"MyToken/MyToken.sol\":1464:1473  _balances */\n      0x04\n        /* \"MyToken/MyToken.sol\":1464:1482  _balances[account] */\n      0x00\n        /* \"MyToken/MyToken.sol\":1474:1481  account */\n      dup4\n        /* \"MyToken/MyToken.sol\":1464:1482  _balances[account] */\n      0xffffffffffffffffffffffffffffffffffffffff\n      and\n      0xffffffffffffffffffffffffffffffffffffffff\n      and\n      dup2\n      mstore\n      0x20\n      add\n      swap1\n      dup2\n      mstore\n      0x20\n      add\n      0x00\n      keccak256\n      sload\n        /* \"MyToken/MyToken.sol\":1457:1482  return _balances[account] */\n      swap1\n      pop\n        /* \"MyToken/MyToken.sol\":1380:1490  function balanceOf(address account) public view returns (uint256) {... */\n      swap2\n      swap1\n      pop\n      jump\t// out\n        /* \"MyToken/MyToken.sol\":986:1074  function symbol() public view returns (string memory){... */\n    tag_47:\n        /* \"MyToken/MyToken.sol\":1025:1038  string memory */\n      0x60\n        /* \"MyToken/MyToken.sol\":1058:1065  _symbol */\n      0x01\n        /* \"MyToken/MyToken.sol\":1051:1065  return _symbol */\n      dup1\n      sload\n      tag_76\n      swap1\n      tag_55\n      jump\t// in\n    tag_76:\n      dup1\n      0x1f\n      add\n      0x20\n      dup1\n      swap2\n      div\n      mul\n      0x20\n      add\n      mload(0x40)\n      swap1\n      dup2\n      add\n      0x40\n      mstore\n      dup1\n      swap3\n      swap2\n      swap1\n      dup2\n      dup2\n      mstore\n      0x20\n      add\n      dup3\n      dup1\n      sload\n      tag_77\n      swap1\n      tag_55\n      jump\t// in\n    tag_77:\n      dup1\n      iszero\n      tag_78\n      jumpi\n      dup1\n      0x1f\n      lt\n      tag_79\n      jumpi\n      0x0100\n      dup1\n      dup4\n      sload\n      div\n      mul\n      dup4\n      mstore\n      swap2\n      0x20\n      add\n      swap2\n      jump(tag_78)\n    tag_79:\n      dup3\n      add\n      swap2\n      swap1\n      0x00\n      mstore\n      keccak256(0x00, 0x20)\n      swap1\n    tag_80:\n      dup2\n      sload\n      dup2\n      mstore\n      swap1\n      0x01\n      add\n      swap1\n      0x20\n      add\n      dup1\n      dup4\n      gt\n      tag_80\n      jumpi\n      dup3\n      swap1\n      sub\n      0x1f\n      and\n      dup3\n      add\n      swap2\n    tag_78:\n      pop\n      pop\n      pop\n      pop\n      pop\n      swap1\n      pop\n        /* \"MyToken/MyToken.sol\":986:1074  function symbol() public view returns (string memory){... */\n      swap1\n      jump\t// out\n        /* \"MyToken/MyToken.sol\":2254:2454  function transfer(address to, uint256 amount) public returns (bool) {... */\n    tag_51:\n        /* \"MyToken/MyToken.sol\":2316:2320  bool */\n      0x00\n        /* \"MyToken/MyToken.sol\":2333:2346  address owner */\n      dup1\n        /* \"MyToken/MyToken.sol\":2349:2361  _msgSender() */\n      tag_82\n        /* \"MyToken/MyToken.sol\":2349:2359  _msgSender */\n      tag_62\n        /* \"MyToken/MyToken.sol\":2349:2361  _msgSender() */\n      jump\t// in\n    tag_82:\n        /* \"MyToken/MyToken.sol\":2333:2361  address owner = _msgSender() */\n      swap1\n      pop\n        /* \"MyToken/MyToken.sol\":2396:2422  _transfer(owner,to,amount) */\n      tag_83\n        /* \"MyToken/MyToken.sol\":2406:2411  owner */\n      dup2\n        /* \"MyToken/MyToken.sol\":2412:2414  to */\n      dup6\n        /* \"MyToken/MyToken.sol\":2415:2421  amount */\n      dup6\n        /* \"MyToken/MyToken.sol\":2396:2405  _transfer */\n      tag_72\n        /* \"MyToken/MyToken.sol\":2396:2422  _transfer(owner,to,amount) */\n      jump\t// in\n    tag_83:\n        /* \"MyToken/MyToken.sol\":2440:2444  true */\n      0x01\n        /* \"MyToken/MyToken.sol\":2433:2444  return true */\n      swap2\n      pop\n      pop\n        /* \"MyToken/MyToken.sol\":2254:2454  function transfer(address to, uint256 amount) public returns (bool) {... */\n      swap3\n      swap2\n      pop\n      pop\n      jump\t// out\n        /* \"MyToken/Context.sol\":84:174  function _msgSender() view internal returns (address) {... */\n    tag_62:\n        /* \"MyToken/Context.sol\":129:136  address */\n      0x00\n        /* \"MyToken/Context.sol\":156:166  msg.sender */\n      caller\n        /* \"MyToken/Context.sol\":149:166  return msg.sender */\n      swap1\n      pop\n        /* \"MyToken/Context.sol\":84:174  function _msgSender() view internal returns (address) {... */\n      swap1\n      jump\t// out\n        /* \"MyToken/MyToken.sol\":3641:4000  function _approve(address owner,address spender,uint256 amount) internal {... */\n    tag_64:\n        /* \"MyToken/MyToken.sol\":3750:3751  0 */\n      0x00\n        /* \"MyToken/MyToken.sol\":3733:3752  owner != address(0) */\n      0xffffffffffffffffffffffffffffffffffffffff\n      and\n        /* \"MyToken/MyToken.sol\":3733:3738  owner */\n      dup4\n        /* \"MyToken/MyToken.sol\":3733:3752  owner != address(0) */\n      0xffffffffffffffffffffffffffffffffffffffff\n      and\n      eq\n      iszero\n        /* \"MyToken/MyToken.sol\":3725:3792  require(owner != address(0),\"ERC20: approve from the zero address\") */\n      tag_86\n      jumpi\n      mload(0x40)\n      0x08c379a000000000000000000000000000000000000000000000000000000000\n      dup2\n      mstore\n      0x04\n      add\n      tag_87\n      swap1\n      tag_88\n      jump\t// in\n    tag_87:\n      mload(0x40)\n      dup1\n      swap2\n      sub\n      swap1\n      revert\n    tag_86:\n        /* \"MyToken/MyToken.sol\":3830:3831  0 */\n      0x00\n        /* \"MyToken/MyToken.sol\":3811:3832  spender != address(0) */\n      0xffffffffffffffffffffffffffffffffffffffff\n      and\n        /* \"MyToken/MyToken.sol\":3811:3818  spender */\n      dup3\n        /* \"MyToken/MyToken.sol\":3811:3832  spender != address(0) */\n      0xffffffffffffffffffffffffffffffffffffffff\n      and\n      eq\n      iszero\n        /* \"MyToken/MyToken.sol\":3803:3872  require(spender != address(0),\"ERC20: approve from the zero address\") */\n      tag_89\n      jumpi\n      mload(0x40)\n      0x08c379a000000000000000000000000000000000000000000000000000000000\n      dup2\n      mstore\n      0x04\n      add\n      tag_90\n      swap1\n      tag_88\n      jump\t// in\n    tag_90:\n      mload(0x40)\n      dup1\n      swap2\n      sub\n      swap1\n      revert\n    tag_89:\n        /* \"MyToken/MyToken.sol\":3936:3942  amount */\n      dup1\n        /* \"MyToken/MyToken.sol\":3907:3917  _allowance */\n      0x05\n        /* \"MyToken/MyToken.sol\":3907:3924  _allowance[owner] */\n      0x00\n        /* \"MyToken/MyToken.sol\":3918:3923  owner */\n      dup6\n        /* \"MyToken/MyToken.sol\":3907:3924  _allowance[owner] */\n      0xffffffffffffffffffffffffffffffffffffffff\n      and\n      0xffffffffffffffffffffffffffffffffffffffff\n      and\n      dup2\n      mstore\n      0x20\n      add\n      swap1\n      dup2\n      mstore\n      0x20\n      add\n      0x00\n      keccak256\n        /* \"MyToken/MyToken.sol\":3907:3933  _allowance[owner][spender] */\n      0x00\n        /* \"MyToken/MyToken.sol\":3925:3932  spender */\n      dup5\n        /* \"MyToken/MyToken.sol\":3907:3933  _allowance[owner][spender] */\n      0xffffffffffffffffffffffffffffffffffffffff\n      and\n      0xffffffffffffffffffffffffffffffffffffffff\n      and\n      dup2\n      mstore\n      0x20\n      add\n      swap1\n      dup2\n      mstore\n      0x20\n      add\n      0x00\n      keccak256\n        /* \"MyToken/MyToken.sol\":3907:3942  _allowance[owner][spender] = amount */\n      dup2\n      swap1\n      sstore\n      pop\n        /* \"MyToken/MyToken.sol\":3974:3981  spender */\n      dup2\n        /* \"MyToken/MyToken.sol\":3958:3990  Approval(owner, spender, amount) */\n      0xffffffffffffffffffffffffffffffffffffffff\n      and\n        /* \"MyToken/MyToken.sol\":3967:3972  owner */\n      dup4\n        /* \"MyToken/MyToken.sol\":3958:3990  Approval(owner, spender, amount) */\n      0xffffffffffffffffffffffffffffffffffffffff\n      and\n      0x8c5be1e5ebec7d5bd14f71427d1e84f3dd0314c0f7b2291e5b200ac8c7c3b925\n        /* \"MyToken/MyToken.sol\":3983:3989  amount */\n      dup4\n        /* \"MyToken/MyToken.sol\":3958:3990  Approval(owner, spender, amount) */\n      mload(0x40)\n      tag_91\n      swap2\n      swap1\n      tag_26\n      jump\t// in\n    tag_91:\n      mload(0x40)\n      dup1\n      swap2\n      sub\n      swap1\n      log3\n        /* \"MyToken/MyToken.sol\":3641:4000  function _approve(address owner,address spender,uint256 amount) internal {... */\n      pop\n      pop\n      pop\n      jump\t// out\n        /* \"MyToken/MyToken.sol\":4008:4414  function _spendAllowance(address owner,address spender,uint256 amount) internal  {... */\n    tag_70:\n        /* \"MyToken/MyToken.sol\":4100:4124  uint256 currentAllowance */\n      0x00\n        /* \"MyToken/MyToken.sol\":4127:4153  allowanceOf(owner,spender) */\n      tag_93\n        /* \"MyToken/MyToken.sol\":4139:4144  owner */\n      dup5\n        /* \"MyToken/MyToken.sol\":4145:4152  spender */\n      dup5\n        /* \"MyToken/MyToken.sol\":4127:4138  allowanceOf */\n      tag_30\n        /* \"MyToken/MyToken.sol\":4127:4153  allowanceOf(owner,spender) */\n      jump\t// in\n    tag_93:\n        /* \"MyToken/MyToken.sol\":4100:4153  uint256 currentAllowance = allowanceOf(owner,spender) */\n      swap1\n      pop\n        /* \"MyToken/MyToken.sol\":4188:4205  type(uint256).max */\n      0xffffffffffffffffffffffffffffffffffffffffffffffffffffffffffffffff\n        /* \"MyToken/MyToken.sol\":4168:4184  currentAllowance */\n      dup2\n        /* \"MyToken/MyToken.sol\":4168:4205  currentAllowance != type(uint256).max */\n      eq\n        /* \"MyToken/MyToken.sol\":4164:4407  if (currentAllowance != type(uint256).max) {... */\n      tag_94\n      jumpi\n        /* \"MyToken/MyToken.sol\":4250:4256  amount */\n      dup2\n        /* \"MyToken/MyToken.sol\":4230:4246  currentAllowance */\n      dup2\n        /* \"MyToken/MyToken.sol\":4230:4256  currentAllowance >= amount */\n      lt\n      iszero\n        /* \"MyToken/MyToken.sol\":4222:4285  require(currentAllowance >= amount,unicode\"ERC20:余额不足\") */\n      tag_95\n      jumpi\n      mload(0x40)\n      0x08c379a000000000000000000000000000000000000000000000000000000000\n      dup2\n      mstore\n      0x04\n      add\n      tag_96\n      swap1\n      tag_97\n      jump\t// in\n    tag_96:\n      mload(0x40)\n      dup1\n      swap2\n      sub\n      swap1\n      revert\n    tag_95:\n        /* \"MyToken/MyToken.sol\":4329:4380  _approve(owner, spender, currentAllowance - amount) */\n      tag_98\n        /* \"MyToken/MyToken.sol\":4338:4343  owner */\n      dup5\n        /* \"MyToken/MyToken.sol\":4345:4352  spender */\n      dup5\n        /* \"MyToken/MyToken.sol\":4373:4379  amount */\n      dup5\n        /* \"MyToken/MyToken.sol\":4354:4370  currentAllowance */\n      dup5\n        /* \"MyToken/MyToken.sol\":4354:4379  currentAllowance - amount */\n      sub\n        /* \"MyToken/MyToken.sol\":4329:4337  _approve */\n      tag_64\n        /* \"MyToken/MyToken.sol\":4329:4380  _approve(owner, spender, currentAllowance - amount) */\n      jump\t// in\n    tag_98:\n        /* \"MyToken/MyToken.sol\":4164:4407  if (currentAllowance != type(uint256).max) {... */\n    tag_94:\n        /* \"MyToken/MyToken.sol\":4089:4414  {... */\n      pop\n        /* \"MyToken/MyToken.sol\":4008:4414  function _spendAllowance(address owner,address spender,uint256 amount) internal  {... */\n      pop\n      pop\n      pop\n      jump\t// out\n        /* \"MyToken/MyToken.sol\":3126:3635  function _transfer(address from,address to,uint256 amount) internal {... */\n    tag_72:\n        /* \"MyToken/MyToken.sol\":3229:3230  0 */\n      0x00\n        /* \"MyToken/MyToken.sol\":3213:3231  from != address(0) */\n      0xffffffffffffffffffffffffffffffffffffffff\n      and\n        /* \"MyToken/MyToken.sol\":3213:3217  from */\n      dup4\n        /* \"MyToken/MyToken.sol\":3213:3231  from != address(0) */\n      0xffffffffffffffffffffffffffffffffffffffff\n      and\n      eq\n      iszero\n        /* \"MyToken/MyToken.sol\":3205:3272  require(from != address(0),\"ERC20: transfer from the zero address\") */\n      tag_100\n      jumpi\n      mload(0x40)\n      0x08c379a000000000000000000000000000000000000000000000000000000000\n      dup2\n      mstore\n      0x04\n      add\n      tag_101\n      swap1\n      tag_102\n      jump\t// in\n    tag_101:\n      mload(0x40)\n      dup1\n      swap2\n      sub\n      swap1\n      revert\n    tag_100:\n        /* \"MyToken/MyToken.sol\":3305:3306  0 */\n      0x00\n        /* \"MyToken/MyToken.sol\":3291:3307  to != address(0) */\n      0xffffffffffffffffffffffffffffffffffffffff\n      and\n        /* \"MyToken/MyToken.sol\":3291:3293  to */\n      dup3\n        /* \"MyToken/MyToken.sol\":3291:3307  to != address(0) */\n      0xffffffffffffffffffffffffffffffffffffffff\n      and\n      eq\n      iszero\n        /* \"MyToken/MyToken.sol\":3283:3345  require(to != address(0),\"ERC20: transer to the zero address\") */\n      tag_103\n      jumpi\n      mload(0x40)\n      0x08c379a000000000000000000000000000000000000000000000000000000000\n      dup2\n      mstore\n      0x04\n      add\n      tag_104\n      swap1\n      tag_105\n      jump\t// in\n    tag_104:\n      mload(0x40)\n      dup1\n      swap2\n      sub\n      swap1\n      revert\n    tag_103:\n        /* \"MyToken/MyToken.sol\":3358:3377  uint256 fromBalance */\n      0x00\n        /* \"MyToken/MyToken.sol\":3380:3389  _balances */\n      0x04\n        /* \"MyToken/MyToken.sol\":3380:3395  _balances[from] */\n      0x00\n        /* \"MyToken/MyToken.sol\":3390:3394  from */\n      dup6\n        /* \"MyToken/MyToken.sol\":3380:3395  _balances[from] */\n      0xffffffffffffffffffffffffffffffffffffffff\n      and\n      0xffffffffffffffffffffffffffffffffffffffff\n      and\n      dup2\n      mstore\n      0x20\n      add\n      swap1\n      dup2\n      mstore\n      0x20\n      add\n      0x00\n      keccak256\n      sload\n        /* \"MyToken/MyToken.sol\":3358:3395  uint256 fromBalance = _balances[from] */\n      swap1\n      pop\n        /* \"MyToken/MyToken.sol\":3429:3435  amount */\n      dup2\n        /* \"MyToken/MyToken.sol\":3414:3425  fromBalance */\n      dup2\n        /* \"MyToken/MyToken.sol\":3414:3435  fromBalance >= amount */\n      lt\n      iszero\n        /* \"MyToken/MyToken.sol\":3406:3464  require(fromBalance >= amount,unicode\"ERC20:余额不足\") */\n      tag_106\n      jumpi\n      mload(0x40)\n      0x08c379a000000000000000000000000000000000000000000000000000000000\n      dup2\n      mstore\n      0x04\n      add\n      tag_107\n      swap1\n      tag_97\n      jump\t// in\n    tag_107:\n      mload(0x40)\n      dup1\n      swap2\n      sub\n      swap1\n      revert\n    tag_106:\n        /* \"MyToken/MyToken.sol\":3532:3538  amount */\n      dup2\n        /* \"MyToken/MyToken.sol\":3518:3529  fromBalance */\n      dup2\n        /* \"MyToken/MyToken.sol\":3518:3538  fromBalance - amount */\n      sub\n        /* \"MyToken/MyToken.sol\":3500:3509  _balances */\n      0x04\n        /* \"MyToken/MyToken.sol\":3500:3515  _balances[from] */\n      0x00\n        /* \"MyToken/MyToken.sol\":3510:3514  from */\n      dup7\n        /* \"MyToken/MyToken.sol\":3500:3515  _balances[from] */\n      0xffffffffffffffffffffffffffffffffffffffff\n      and\n      0xffffffffffffffffffffffffffffffffffffffff\n      and\n      dup2\n      mstore\n      0x20\n      add\n      swap1\n      dup2\n      mstore\n      0x20\n      add\n      0x00\n      keccak256\n        /* \"MyToken/MyToken.sol\":3500:3538  _balances[from] = fromBalance - amount */\n      dup2\n      swap1\n      sstore\n      pop\n        /* \"MyToken/MyToken.sol\":3570:3576  amount */\n      dup2\n        /* \"MyToken/MyToken.sol\":3553:3562  _balances */\n      0x04\n        /* \"MyToken/MyToken.sol\":3553:3566  _balances[to] */\n      0x00\n        /* \"MyToken/MyToken.sol\":3563:3565  to */\n      dup6\n        /* \"MyToken/MyToken.sol\":3553:3566  _balances[to] */\n      0xffffffffffffffffffffffffffffffffffffffff\n      and\n      0xffffffffffffffffffffffffffffffffffffffff\n      and\n      dup2\n      mstore\n      0x20\n      add\n      swap1\n      dup2\n      mstore\n      0x20\n      add\n      0x00\n      keccak256\n      0x00\n        /* \"MyToken/MyToken.sol\":3553:3576  _balances[to] += amount */\n      dup3\n      dup3\n      sload\n      add\n      swap3\n      pop\n      pop\n      dup2\n      swap1\n      sstore\n      pop\n        /* \"MyToken/MyToken.sol\":3617:3619  to */\n      dup3\n        /* \"MyToken/MyToken.sol\":3603:3627  Transfer(from,to,amount) */\n      0xffffffffffffffffffffffffffffffffffffffff\n      and\n        /* \"MyToken/MyToken.sol\":3612:3616  from */\n      dup5\n        /* \"MyToken/MyToken.sol\":3603:3627  Transfer(from,to,amount) */\n      0xffffffffffffffffffffffffffffffffffffffff\n      and\n      0xddf252ad1be2c89b69c2b068fc378daa952ba7f163c4a11628f55a4df523b3ef\n        /* \"MyToken/MyToken.sol\":3620:3626  amount */\n      dup5\n        /* \"MyToken/MyToken.sol\":3603:3627  Transfer(from,to,amount) */\n      mload(0x40)\n      tag_108\n      swap2\n      swap1\n      tag_26\n      jump\t// in\n    tag_108:\n      mload(0x40)\n      dup1\n      swap2\n      sub\n      swap1\n      log3\n        /* \"MyToken/MyToken.sol\":3194:3635  {... */\n      pop\n        /* \"MyToken/MyToken.sol\":3126:3635  function _transfer(address from,address to,uint256 amount) internal {... */\n      pop\n      pop\n      pop\n      jump\t// out\n        /* \"#utility.yul\":7:106   */\n    tag_109:\n        /* \"#utility.yul\":59:65   */\n      0x00\n        /* \"#utility.yul\":93:98   */\n      dup2\n        /* \"#utility.yul\":87:99   */\n      mload\n        /* \"#utility.yul\":77:99   */\n      swap1\n      pop\n        /* \"#utility.yul\":7:106   */\n      swap2\n      swap1\n      pop\n      jump\t// out\n        /* \"#utility.yul\":112:281   */\n    tag_110:\n        /* \"#utility.yul\":196:207   */\n      0x00\n        /* \"#utility.yul\":230:236   */\n      dup3\n        /* \"#utility.yul\":225:228   */\n      dup3\n        /* \"#utility.yul\":218:237   */\n      mstore\n        /* \"#utility.yul\":270:274   */\n      0x20\n        /* \"#utility.yul\":265:268   */\n      dup3\n        /* \"#utility.yul\":261:275   */\n      add\n        /* \"#utility.yul\":246:275   */\n      swap1\n      pop\n        /* \"#utility.yul\":112:281   */\n      swap3\n      swap2\n      pop\n      pop\n      jump\t// out\n        /* \"#utility.yul\":287:594   */\n    tag_111:\n        /* \"#utility.yul\":355:356   */\n      0x00\n        /* \"#utility.yul\":365:478   */\n    tag_142:\n        /* \"#utility.yul\":379:385   */\n      dup4\n        /* \"#utility.yul\":376:377   */\n      dup2\n        /* \"#utility.yul\":373:386   */\n      lt\n        /* \"#utility.yul\":365:478   */\n      iszero\n      tag_144\n      jumpi\n        /* \"#utility.yul\":464:465   */\n      dup1\n        /* \"#utility.yul\":459:462   */\n      dup3\n        /* \"#utility.yul\":455:466   */\n      add\n        /* \"#utility.yul\":449:467   */\n      mload\n        /* \"#utility.yul\":445:446   */\n      dup2\n        /* \"#utility.yul\":440:443   */\n      dup5\n        /* \"#utility.yul\":436:447   */\n      add\n        /* \"#utility.yul\":429:468   */\n      mstore\n        /* \"#utility.yul\":401:403   */\n      0x20\n        /* \"#utility.yul\":398:399   */\n      dup2\n        /* \"#utility.yul\":394:404   */\n      add\n        /* \"#utility.yul\":389:404   */\n      swap1\n      pop\n        /* \"#utility.yul\":365:478   */\n      jump(tag_142)\n    tag_144:\n        /* \"#utility.yul\":496:502   */\n      dup4\n        /* \"#utility.yul\":493:494   */\n      dup2\n        /* \"#utility.yul\":490:503   */\n      gt\n        /* \"#utility.yul\":487:588   */\n      iszero\n      tag_145\n      jumpi\n        /* \"#utility.yul\":576:577   */\n      0x00\n        /* \"#utility.yul\":567:573   */\n      dup5\n        /* \"#utility.yul\":562:565   */\n      dup5\n        /* \"#utility.yul\":558:574   */\n      add\n        /* \"#utility.yul\":551:578   */\n      mstore\n        /* \"#utility.yul\":487:588   */\n    tag_145:\n        /* \"#utility.yul\":336:594   */\n      pop\n        /* \"#utility.yul\":287:594   */\n      pop\n      pop\n      pop\n      jump\t// out\n        /* \"#utility.yul\":600:702   */\n    tag_112:\n        /* \"#utility.yul\":641:647   */\n      0x00\n        /* \"#utility.yul\":692:694   */\n      0x1f\n        /* \"#utility.yul\":688:695   */\n      not\n        /* \"#utility.yul\":683:685   */\n      0x1f\n        /* \"#utility.yul\":676:681   */\n      dup4\n        /* \"#utility.yul\":672:686   */\n      add\n        /* \"#utility.yul\":668:696   */\n      and\n        /* \"#utility.yul\":658:696   */\n      swap1\n      pop\n        /* \"#utility.yul\":600:702   */\n      swap2\n      swap1\n      pop\n      jump\t// out\n        /* \"#utility.yul\":708:1072   */\n    tag_113:\n        /* \"#utility.yul\":796:799   */\n      0x00\n        /* \"#utility.yul\":824:863   */\n      tag_148\n        /* \"#utility.yul\":857:862   */\n      dup3\n        /* \"#utility.yul\":824:863   */\n      tag_109\n      jump\t// in\n    tag_148:\n        /* \"#utility.yul\":879:950   */\n      tag_149\n        /* \"#utility.yul\":943:949   */\n      dup2\n        /* \"#utility.yul\":938:941   */\n      dup6\n        /* \"#utility.yul\":879:950   */\n      tag_110\n      jump\t// in\n    tag_149:\n        /* \"#utility.yul\":872:950   */\n      swap4\n      pop\n        /* \"#utility.yul\":959:1011   */\n      tag_150\n        /* \"#utility.yul\":1004:1010   */\n      dup2\n        /* \"#utility.yul\":999:1002   */\n      dup6\n        /* \"#utility.yul\":992:996   */\n      0x20\n        /* \"#utility.yul\":985:990   */\n      dup7\n        /* \"#utility.yul\":981:997   */\n      add\n        /* \"#utility.yul\":959:1011   */\n      tag_111\n      jump\t// in\n    tag_150:\n        /* \"#utility.yul\":1036:1065   */\n      tag_151\n        /* \"#utility.yul\":1058:1064   */\n      dup2\n        /* \"#utility.yul\":1036:1065   */\n      tag_112\n      jump\t// in\n    tag_151:\n        /* \"#utility.yul\":1031:1034   */\n      dup5\n        /* \"#utility.yul\":1027:1066   */\n      add\n        /* \"#utility.yul\":1020:1066   */\n      swap2\n      pop\n        /* \"#utility.yul\":800:1072   */\n      pop\n        /* \"#utility.yul\":708:1072   */\n      swap3\n      swap2\n      pop\n      pop\n      jump\t// out\n        /* \"#utility.yul\":1078:1391   */\n    tag_16:\n        /* \"#utility.yul\":1191:1195   */\n      0x00\n        /* \"#utility.yul\":1229:1231   */\n      0x20\n        /* \"#utility.yul\":1218:1227   */\n      dup3\n        /* \"#utility.yul\":1214:1232   */\n      add\n        /* \"#utility.yul\":1206:1232   */\n      swap1\n      pop\n        /* \"#utility.yul\":1278:1287   */\n      dup2\n        /* \"#utility.yul\":1272:1276   */\n      dup2\n        /* \"#utility.yul\":1268:1288   */\n      sub\n        /* \"#utility.yul\":1264:1265   */\n      0x00\n        /* \"#utility.yul\":1253:1262   */\n      dup4\n        /* \"#utility.yul\":1249:1266   */\n      add\n        /* \"#utility.yul\":1242:1289   */\n      mstore\n        /* \"#utility.yul\":1306:1384   */\n      tag_153\n        /* \"#utility.yul\":1379:1383   */\n      dup2\n        /* \"#utility.yul\":1370:1376   */\n      dup5\n        /* \"#utility.yul\":1306:1384   */\n      tag_113\n      jump\t// in\n    tag_153:\n        /* \"#utility.yul\":1298:1384   */\n      swap1\n      pop\n        /* \"#utility.yul\":1078:1391   */\n      swap3\n      swap2\n      pop\n      pop\n      jump\t// out\n        /* \"#utility.yul\":1478:1595   */\n    tag_115:\n        /* \"#utility.yul\":1587:1588   */\n      0x00\n        /* \"#utility.yul\":1584:1585   */\n      dup1\n        /* \"#utility.yul\":1577:1589   */\n      revert\n        /* \"#utility.yul\":1724:1850   */\n    tag_117:\n        /* \"#utility.yul\":1761:1768   */\n      0x00\n        /* \"#utility.yul\":1801:1843   */\n      0xffffffffffffffffffffffffffffffffffffffff\n        /* \"#utility.yul\":1794:1799   */\n      dup3\n        /* \"#utility.yul\":1790:1844   */\n      and\n        /* \"#utility.yul\":1779:1844   */\n      swap1\n      pop\n        /* \"#utility.yul\":1724:1850   */\n      swap2\n      swap1\n      pop\n      jump\t// out\n        /* \"#utility.yul\":1856:1952   */\n    tag_118:\n        /* \"#utility.yul\":1893:1900   */\n      0x00\n        /* \"#utility.yul\":1922:1946   */\n      tag_159\n        /* \"#utility.yul\":1940:1945   */\n      dup3\n        /* \"#utility.yul\":1922:1946   */\n      tag_117\n      jump\t// in\n    tag_159:\n        /* \"#utility.yul\":1911:1946   */\n      swap1\n      pop\n        /* \"#utility.yul\":1856:1952   */\n      swap2\n      swap1\n      pop\n      jump\t// out\n        /* \"#utility.yul\":1958:2080   */\n    tag_119:\n        /* \"#utility.yul\":2031:2055   */\n      tag_161\n        /* \"#utility.yul\":2049:2054   */\n      dup2\n        /* \"#utility.yul\":2031:2055   */\n      tag_118\n      jump\t// in\n    tag_161:\n        /* \"#utility.yul\":2024:2029   */\n      dup2\n        /* \"#utility.yul\":2021:2056   */\n      eq\n        /* \"#utility.yul\":2011:2074   */\n      tag_162\n      jumpi\n        /* \"#utility.yul\":2070:2071   */\n      0x00\n        /* \"#utility.yul\":2067:2068   */\n      dup1\n        /* \"#utility.yul\":2060:2072   */\n      revert\n        /* \"#utility.yul\":2011:2074   */\n    tag_162:\n        /* \"#utility.yul\":1958:2080   */\n      pop\n      jump\t// out\n        /* \"#utility.yul\":2086:2225   */\n    tag_120:\n        /* \"#utility.yul\":2132:2137   */\n      0x00\n        /* \"#utility.yul\":2170:2176   */\n      dup2\n        /* \"#utility.yul\":2157:2177   */\n      calldataload\n        /* \"#utility.yul\":2148:2177   */\n      swap1\n      pop\n        /* \"#utility.yul\":2186:2219   */\n      tag_164\n        /* \"#utility.yul\":2213:2218   */\n      dup2\n        /* \"#utility.yul\":2186:2219   */\n      tag_119\n      jump\t// in\n    tag_164:\n        /* \"#utility.yul\":2086:2225   */\n      swap3\n      swap2\n      pop\n      pop\n      jump\t// out\n        /* \"#utility.yul\":2231:2308   */\n    tag_121:\n        /* \"#utility.yul\":2268:2275   */\n      0x00\n        /* \"#utility.yul\":2297:2302   */\n      dup2\n        /* \"#utility.yul\":2286:2302   */\n      swap1\n      pop\n        /* \"#utility.yul\":2231:2308   */\n      swap2\n      swap1\n      pop\n      jump\t// out\n        /* \"#utility.yul\":2314:2436   */\n    tag_122:\n        /* \"#utility.yul\":2387:2411   */\n      tag_167\n        /* \"#utility.yul\":2405:2410   */\n      dup2\n        /* \"#utility.yul\":2387:2411   */\n      tag_121\n      jump\t// in\n    tag_167:\n        /* \"#utility.yul\":2380:2385   */\n      dup2\n        /* \"#utility.yul\":2377:2412   */\n      eq\n        /* \"#utility.yul\":2367:2430   */\n      tag_168\n      jumpi\n        /* \"#utility.yul\":2426:2427   */\n      0x00\n        /* \"#utility.yul\":2423:2424   */\n      dup1\n        /* \"#utility.yul\":2416:2428   */\n      revert\n        /* \"#utility.yul\":2367:2430   */\n    tag_168:\n        /* \"#utility.yul\":2314:2436   */\n      pop\n      jump\t// out\n        /* \"#utility.yul\":2442:2581   */\n    tag_123:\n        /* \"#utility.yul\":2488:2493   */\n      0x00\n        /* \"#utility.yul\":2526:2532   */\n      dup2\n        /* \"#utility.yul\":2513:2533   */\n      calldataload\n        /* \"#utility.yul\":2504:2533   */\n      swap1\n      pop\n        /* \"#utility.yul\":2542:2575   */\n      tag_170\n        /* \"#utility.yul\":2569:2574   */\n      dup2\n        /* \"#utility.yul\":2542:2575   */\n      tag_122\n      jump\t// in\n    tag_170:\n        /* \"#utility.yul\":2442:2581   */\n      swap3\n      swap2\n      pop\n      pop\n      jump\t// out\n        /* \"#utility.yul\":2587:3061   */\n    tag_19:\n        /* \"#utility.yul\":2655:2661   */\n      0x00\n        /* \"#utility.yul\":2663:2669   */\n      dup1\n        /* \"#utility.yul\":2712:2714   */\n      0x40\n        /* \"#utility.yul\":2700:2709   */\n      dup4\n        /* \"#utility.yul\":2691:2698   */\n      dup6\n        /* \"#utility.yul\":2687:2710   */\n      sub\n        /* \"#utility.yul\":2683:2715   */\n      slt\n        /* \"#utility.yul\":2680:2799   */\n      iszero\n      tag_172\n      jumpi\n        /* \"#utility.yul\":2718:2797   */\n      tag_173\n      tag_115\n      jump\t// in\n    tag_173:\n        /* \"#utility.yul\":2680:2799   */\n    tag_172:\n        /* \"#utility.yul\":2838:2839   */\n      0x00\n        /* \"#utility.yul\":2863:2916   */\n      tag_174\n        /* \"#utility.yul\":2908:2915   */\n      dup6\n        /* \"#utility.yul\":2899:2905   */\n      dup3\n        /* \"#utility.yul\":2888:2897   */\n      dup7\n        /* \"#utility.yul\":2884:2906   */\n      add\n        /* \"#utility.yul\":2863:2916   */\n      tag_120\n      jump\t// in\n    tag_174:\n        /* \"#utility.yul\":2853:2916   */\n      swap3\n      pop\n        /* \"#utility.yul\":2809:2926   */\n      pop\n        /* \"#utility.yul\":2965:2967   */\n      0x20\n        /* \"#utility.yul\":2991:3044   */\n      tag_175\n        /* \"#utility.yul\":3036:3043   */\n      dup6\n        /* \"#utility.yul\":3027:3033   */\n      dup3\n        /* \"#utility.yul\":3016:3025   */\n      dup7\n        /* \"#utility.yul\":3012:3034   */\n      add\n        /* \"#utility.yul\":2991:3044   */\n      tag_123\n      jump\t// in\n    tag_175:\n        /* \"#utility.yul\":2981:3044   */\n      swap2\n      pop\n        /* \"#utility.yul\":2936:3054   */\n      pop\n        /* \"#utility.yul\":2587:3061   */\n      swap3\n      pop\n      swap3\n      swap1\n      pop\n      jump\t// out\n        /* \"#utility.yul\":3067:3157   */\n    tag_124:\n        /* \"#utility.yul\":3101:3108   */\n      0x00\n        /* \"#utility.yul\":3144:3149   */\n      dup2\n        /* \"#utility.yul\":3137:3150   */\n      iszero\n        /* \"#utility.yul\":3130:3151   */\n      iszero\n        /* \"#utility.yul\":3119:3151   */\n      swap1\n      pop\n        /* \"#utility.yul\":3067:3157   */\n      swap2\n      swap1\n      pop\n      jump\t// out\n        /* \"#utility.yul\":3163:3272   */\n    tag_125:\n        /* \"#utility.yul\":3244:3265   */\n      tag_178\n        /* \"#utility.yul\":3259:3264   */\n      dup2\n        /* \"#utility.yul\":3244:3265   */\n      tag_124\n      jump\t// in\n    tag_178:\n        /* \"#utility.yul\":3239:3242   */\n      dup3\n        /* \"#utility.yul\":3232:3266   */\n      mstore\n        /* \"#utility.yul\":3163:3272   */\n      pop\n      pop\n      jump\t// out\n        /* \"#utility.yul\":3278:3488   */\n    tag_22:\n        /* \"#utility.yul\":3365:3369   */\n      0x00\n        /* \"#utility.yul\":3403:3405   */\n      0x20\n        /* \"#utility.yul\":3392:3401   */\n      dup3\n        /* \"#utility.yul\":3388:3406   */\n      add\n        /* \"#utility.yul\":3380:3406   */\n      swap1\n      pop\n        /* \"#utility.yul\":3416:3481   */\n      tag_180\n        /* \"#utility.yul\":3478:3479   */\n      0x00\n        /* \"#utility.yul\":3467:3476   */\n      dup4\n        /* \"#utility.yul\":3463:3480   */\n      add\n        /* \"#utility.yul\":3454:3460   */\n      dup5\n        /* \"#utility.yul\":3416:3481   */\n      tag_125\n      jump\t// in\n    tag_180:\n        /* \"#utility.yul\":3278:3488   */\n      swap3\n      swap2\n      pop\n      pop\n      jump\t// out\n        /* \"#utility.yul\":3494:3612   */\n    tag_126:\n        /* \"#utility.yul\":3581:3605   */\n      tag_182\n        /* \"#utility.yul\":3599:3604   */\n      dup2\n        /* \"#utility.yul\":3581:3605   */\n      tag_121\n      jump\t// in\n    tag_182:\n        /* \"#utility.yul\":3576:3579   */\n      dup3\n        /* \"#utility.yul\":3569:3606   */\n      mstore\n        /* \"#utility.yul\":3494:3612   */\n      pop\n      pop\n      jump\t// out\n        /* \"#utility.yul\":3618:3840   */\n    tag_26:\n        /* \"#utility.yul\":3711:3715   */\n      0x00\n        /* \"#utility.yul\":3749:3751   */\n      0x20\n        /* \"#utility.yul\":3738:3747   */\n      dup3\n        /* \"#utility.yul\":3734:3752   */\n      add\n        /* \"#utility.yul\":3726:3752   */\n      swap1\n      pop\n        /* \"#utility.yul\":3762:3833   */\n      tag_184\n        /* \"#utility.yul\":3830:3831   */\n      0x00\n        /* \"#utility.yul\":3819:3828   */\n      dup4\n        /* \"#utility.yul\":3815:3832   */\n      add\n        /* \"#utility.yul\":3806:3812   */\n      dup5\n        /* \"#utility.yul\":3762:3833   */\n      tag_126\n      jump\t// in\n    tag_184:\n        /* \"#utility.yul\":3618:3840   */\n      swap3\n      swap2\n      pop\n      pop\n      jump\t// out\n        /* \"#utility.yul\":3846:4320   */\n    tag_29:\n        /* \"#utility.yul\":3914:3920   */\n      0x00\n        /* \"#utility.yul\":3922:3928   */\n      dup1\n        /* \"#utility.yul\":3971:3973   */\n      0x40\n        /* \"#utility.yul\":3959:3968   */\n      dup4\n        /* \"#utility.yul\":3950:3957   */\n      dup6\n        /* \"#utility.yul\":3946:3969   */\n      sub\n        /* \"#utility.yul\":3942:3974   */\n      slt\n        /* \"#utility.yul\":3939:4058   */\n      iszero\n      tag_186\n      jumpi\n        /* \"#utility.yul\":3977:4056   */\n      tag_187\n      tag_115\n      jump\t// in\n    tag_187:\n        /* \"#utility.yul\":3939:4058   */\n    tag_186:\n        /* \"#utility.yul\":4097:4098   */\n      0x00\n        /* \"#utility.yul\":4122:4175   */\n      tag_188\n        /* \"#utility.yul\":4167:4174   */\n      dup6\n        /* \"#utility.yul\":4158:4164   */\n      dup3\n        /* \"#utility.yul\":4147:4156   */\n      dup7\n        /* \"#utility.yul\":4143:4165   */\n      add\n        /* \"#utility.yul\":4122:4175   */\n      tag_120\n      jump\t// in\n    tag_188:\n        /* \"#utility.yul\":4112:4175   */\n      swap3\n      pop\n        /* \"#utility.yul\":4068:4185   */\n      pop\n        /* \"#utility.yul\":4224:4226   */\n      0x20\n        /* \"#utility.yul\":4250:4303   */\n      tag_189\n        /* \"#utility.yul\":4295:4302   */\n      dup6\n        /* \"#utility.yul\":4286:4292   */\n      dup3\n        /* \"#utility.yul\":4275:4284   */\n      dup7\n        /* \"#utility.yul\":4271:4293   */\n      add\n        /* \"#utility.yul\":4250:4303   */\n      tag_120\n      jump\t// in\n    tag_189:\n        /* \"#utility.yul\":4240:4303   */\n      swap2\n      pop\n        /* \"#utility.yul\":4195:4313   */\n      pop\n        /* \"#utility.yul\":3846:4320   */\n      swap3\n      pop\n      swap3\n      swap1\n      pop\n      jump\t// out\n        /* \"#utility.yul\":4326:4945   */\n    tag_34:\n        /* \"#utility.yul\":4403:4409   */\n      0x00\n        /* \"#utility.yul\":4411:4417   */\n      dup1\n        /* \"#utility.yul\":4419:4425   */\n      0x00\n        /* \"#utility.yul\":4468:4470   */\n      0x60\n        /* \"#utility.yul\":4456:4465   */\n      dup5\n        /* \"#utility.yul\":4447:4454   */\n      dup7\n        /* \"#utility.yul\":4443:4466   */\n      sub\n        /* \"#utility.yul\":4439:4471   */\n      slt\n        /* \"#utility.yul\":4436:4555   */\n      iszero\n      tag_191\n      jumpi\n        /* \"#utility.yul\":4474:4553   */\n      tag_192\n      tag_115\n      jump\t// in\n    tag_192:\n        /* \"#utility.yul\":4436:4555   */\n    tag_191:\n        /* \"#utility.yul\":4594:4595   */\n      0x00\n        /* \"#utility.yul\":4619:4672   */\n      tag_193\n        /* \"#utility.yul\":4664:4671   */\n      dup7\n        /* \"#utility.yul\":4655:4661   */\n      dup3\n        /* \"#utility.yul\":4644:4653   */\n      dup8\n        /* \"#utility.yul\":4640:4662   */\n      add\n        /* \"#utility.yul\":4619:4672   */\n      tag_120\n      jump\t// in\n    tag_193:\n        /* \"#utility.yul\":4609:4672   */\n      swap4\n      pop\n        /* \"#utility.yul\":4565:4682   */\n      pop\n        /* \"#utility.yul\":4721:4723   */\n      0x20\n        /* \"#utility.yul\":4747:4800   */\n      tag_194\n        /* \"#utility.yul\":4792:4799   */\n      dup7\n        /* \"#utility.yul\":4783:4789   */\n      dup3\n        /* \"#utility.yul\":4772:4781   */\n      dup8\n        /* \"#utility.yul\":4768:4790   */\n      add\n        /* \"#utility.yul\":4747:4800   */\n      tag_120\n      jump\t// in\n    tag_194:\n        /* \"#utility.yul\":4737:4800   */\n      swap3\n      pop\n        /* \"#utility.yul\":4692:4810   */\n      pop\n        /* \"#utility.yul\":4849:4851   */\n      0x40\n        /* \"#utility.yul\":4875:4928   */\n      tag_195\n        /* \"#utility.yul\":4920:4927   */\n      dup7\n        /* \"#utility.yul\":4911:4917   */\n      dup3\n        /* \"#utility.yul\":4900:4909   */\n      dup8\n        /* \"#utility.yul\":4896:4918   */\n      add\n        /* \"#utility.yul\":4875:4928   */\n      tag_123\n      jump\t// in\n    tag_195:\n        /* \"#utility.yul\":4865:4928   */\n      swap2\n      pop\n        /* \"#utility.yul\":4820:4938   */\n      pop\n        /* \"#utility.yul\":4326:4945   */\n      swap3\n      pop\n      swap3\n      pop\n      swap3\n      jump\t// out\n        /* \"#utility.yul\":4951:5037   */\n    tag_127:\n        /* \"#utility.yul\":4986:4993   */\n      0x00\n        /* \"#utility.yul\":5026:5030   */\n      0xff\n        /* \"#utility.yul\":5019:5024   */\n      dup3\n        /* \"#utility.yul\":5015:5031   */\n      and\n        /* \"#utility.yul\":5004:5031   */\n      swap1\n      pop\n        /* \"#utility.yul\":4951:5037   */\n      swap2\n      swap1\n      pop\n      jump\t// out\n        /* \"#utility.yul\":5043:5155   */\n    tag_128:\n        /* \"#utility.yul\":5126:5148   */\n      tag_198\n        /* \"#utility.yul\":5142:5147   */\n      dup2\n        /* \"#utility.yul\":5126:5148   */\n      tag_127\n      jump\t// in\n    tag_198:\n        /* \"#utility.yul\":5121:5124   */\n      dup3\n        /* \"#utility.yul\":5114:5149   */\n      mstore\n        /* \"#utility.yul\":5043:5155   */\n      pop\n      pop\n      jump\t// out\n        /* \"#utility.yul\":5161:5375   */\n    tag_40:\n        /* \"#utility.yul\":5250:5254   */\n      0x00\n        /* \"#utility.yul\":5288:5290   */\n      0x20\n        /* \"#utility.yul\":5277:5286   */\n      dup3\n        /* \"#utility.yul\":5273:5291   */\n      add\n        /* \"#utility.yul\":5265:5291   */\n      swap1\n      pop\n        /* \"#utility.yul\":5301:5368   */\n      tag_200\n        /* \"#utility.yul\":5365:5366   */\n      0x00\n        /* \"#utility.yul\":5354:5363   */\n      dup4\n        /* \"#utility.yul\":5350:5367   */\n      add\n        /* \"#utility.yul\":5341:5347   */\n      dup5\n        /* \"#utility.yul\":5301:5368   */\n      tag_128\n      jump\t// in\n    tag_200:\n        /* \"#utility.yul\":5161:5375   */\n      swap3\n      swap2\n      pop\n      pop\n      jump\t// out\n        /* \"#utility.yul\":5381:5710   */\n    tag_43:\n        /* \"#utility.yul\":5440:5446   */\n      0x00\n        /* \"#utility.yul\":5489:5491   */\n      0x20\n        /* \"#utility.yul\":5477:5486   */\n      dup3\n        /* \"#utility.yul\":5468:5475   */\n      dup5\n        /* \"#utility.yul\":5464:5487   */\n      sub\n        /* \"#utility.yul\":5460:5492   */\n      slt\n        /* \"#utility.yul\":5457:5576   */\n      iszero\n      tag_202\n      jumpi\n        /* \"#utility.yul\":5495:5574   */\n      tag_203\n      tag_115\n      jump\t// in\n    tag_203:\n        /* \"#utility.yul\":5457:5576   */\n    tag_202:\n        /* \"#utility.yul\":5615:5616   */\n      0x00\n        /* \"#utility.yul\":5640:5693   */\n      tag_204\n        /* \"#utility.yul\":5685:5692   */\n      dup5\n        /* \"#utility.yul\":5676:5682   */\n      dup3\n        /* \"#utility.yul\":5665:5674   */\n      dup6\n        /* \"#utility.yul\":5661:5683   */\n      add\n        /* \"#utility.yul\":5640:5693   */\n      tag_120\n      jump\t// in\n    tag_204:\n        /* \"#utility.yul\":5630:5693   */\n      swap2\n      pop\n        /* \"#utility.yul\":5586:5703   */\n      pop\n        /* \"#utility.yul\":5381:5710   */\n      swap3\n      swap2\n      pop\n      pop\n      jump\t// out\n        /* \"#utility.yul\":5716:5896   */\n    tag_129:\n        /* \"#utility.yul\":5764:5841   */\n      0x4e487b7100000000000000000000000000000000000000000000000000000000\n        /* \"#utility.yul\":5761:5762   */\n      0x00\n        /* \"#utility.yul\":5754:5842   */\n      mstore\n        /* \"#utility.yul\":5861:5865   */\n      0x22\n        /* \"#utility.yul\":5858:5859   */\n      0x04\n        /* \"#utility.yul\":5851:5866   */\n      mstore\n        /* \"#utility.yul\":5885:5889   */\n      0x24\n        /* \"#utility.yul\":5882:5883   */\n      0x00\n        /* \"#utility.yul\":5875:5890   */\n      revert\n        /* \"#utility.yul\":5902:6222   */\n    tag_55:\n        /* \"#utility.yul\":5946:5952   */\n      0x00\n        /* \"#utility.yul\":5983:5984   */\n      0x02\n        /* \"#utility.yul\":5977:5981   */\n      dup3\n        /* \"#utility.yul\":5973:5985   */\n      div\n        /* \"#utility.yul\":5963:5985   */\n      swap1\n      pop\n        /* \"#utility.yul\":6030:6031   */\n      0x01\n        /* \"#utility.yul\":6024:6028   */\n      dup3\n        /* \"#utility.yul\":6020:6032   */\n      and\n        /* \"#utility.yul\":6051:6069   */\n      dup1\n        /* \"#utility.yul\":6041:6122   */\n      tag_207\n      jumpi\n        /* \"#utility.yul\":6107:6111   */\n      0x7f\n        /* \"#utility.yul\":6099:6105   */\n      dup3\n        /* \"#utility.yul\":6095:6112   */\n      and\n        /* \"#utility.yul\":6085:6112   */\n      swap2\n      pop\n        /* \"#utility.yul\":6041:6122   */\n    tag_207:\n        /* \"#utility.yul\":6169:6171   */\n      0x20\n        /* \"#utility.yul\":6161:6167   */\n      dup3\n        /* \"#utility.yul\":6158:6172   */\n      lt\n        /* \"#utility.yul\":6138:6156   */\n      dup2\n        /* \"#utility.yul\":6135:6173   */\n      eq\n        /* \"#utility.yul\":6132:6216   */\n      iszero\n      tag_208\n      jumpi\n        /* \"#utility.yul\":6188:6206   */\n      tag_209\n      tag_129\n      jump\t// in\n    tag_209:\n        /* \"#utility.yul\":6132:6216   */\n    tag_208:\n        /* \"#utility.yul\":5953:6222   */\n      pop\n        /* \"#utility.yul\":5902:6222   */\n      swap2\n      swap1\n      pop\n      jump\t// out\n        /* \"#utility.yul\":6228:6451   */\n    tag_130:\n        /* \"#utility.yul\":6368:6402   */\n      0x45524332303a20617070726f76652066726f6d20746865207a65726f20616464\n        /* \"#utility.yul\":6364:6365   */\n      0x00\n        /* \"#utility.yul\":6356:6362   */\n      dup3\n        /* \"#utility.yul\":6352:6366   */\n      add\n        /* \"#utility.yul\":6345:6403   */\n      mstore\n        /* \"#utility.yul\":6437:6443   */\n      0x7265737300000000000000000000000000000000000000000000000000000000\n        /* \"#utility.yul\":6432:6434   */\n      0x20\n        /* \"#utility.yul\":6424:6430   */\n      dup3\n        /* \"#utility.yul\":6420:6435   */\n      add\n        /* \"#utility.yul\":6413:6444   */\n      mstore\n        /* \"#utility.yul\":6228:6451   */\n      pop\n      jump\t// out\n        /* \"#utility.yul\":6457:6823   */\n    tag_131:\n        /* \"#utility.yul\":6599:6602   */\n      0x00\n        /* \"#utility.yul\":6620:6687   */\n      tag_212\n        /* \"#utility.yul\":6684:6686   */\n      0x24\n        /* \"#utility.yul\":6679:6682   */\n      dup4\n        /* \"#utility.yul\":6620:6687   */\n      tag_110\n      jump\t// in\n    tag_212:\n        /* \"#utility.yul\":6613:6687   */\n      swap2\n      pop\n        /* \"#utility.yul\":6696:6789   */\n      tag_213\n        /* \"#utility.yul\":6785:6788   */\n      dup3\n        /* \"#utility.yul\":6696:6789   */\n      tag_130\n      jump\t// in\n    tag_213:\n        /* \"#utility.yul\":6814:6816   */\n      0x40\n        /* \"#utility.yul\":6809:6812   */\n      dup3\n        /* \"#utility.yul\":6805:6817   */\n      add\n        /* \"#utility.yul\":6798:6817   */\n      swap1\n      pop\n        /* \"#utility.yul\":6457:6823   */\n      swap2\n      swap1\n      pop\n      jump\t// out\n        /* \"#utility.yul\":6829:7248   */\n    tag_88:\n        /* \"#utility.yul\":6995:6999   */\n      0x00\n        /* \"#utility.yul\":7033:7035   */\n      0x20\n        /* \"#utility.yul\":7022:7031   */\n      dup3\n        /* \"#utility.yul\":7018:7036   */\n      add\n        /* \"#utility.yul\":7010:7036   */\n      swap1\n      pop\n        /* \"#utility.yul\":7082:7091   */\n      dup2\n        /* \"#utility.yul\":7076:7080   */\n      dup2\n        /* \"#utility.yul\":7072:7092   */\n      sub\n        /* \"#utility.yul\":7068:7069   */\n      0x00\n        /* \"#utility.yul\":7057:7066   */\n      dup4\n        /* \"#utility.yul\":7053:7070   */\n      add\n        /* \"#utility.yul\":7046:7093   */\n      mstore\n        /* \"#utility.yul\":7110:7241   */\n      tag_215\n        /* \"#utility.yul\":7236:7240   */\n      dup2\n        /* \"#utility.yul\":7110:7241   */\n      tag_131\n      jump\t// in\n    tag_215:\n        /* \"#utility.yul\":7102:7241   */\n      swap1\n      pop\n        /* \"#utility.yul\":6829:7248   */\n      swap2\n      swap1\n      pop\n      jump\t// out\n        /* \"#utility.yul\":7254:7468   */\n    tag_132:\n        /* \"#utility.yul\":7394:7460   */\n      0x45524332303ae4bd99e9a29de4b88de8b6b30000000000000000000000000000\n        /* \"#utility.yul\":7390:7391   */\n      0x00\n        /* \"#utility.yul\":7382:7388   */\n      dup3\n        /* \"#utility.yul\":7378:7392   */\n      add\n        /* \"#utility.yul\":7371:7461   */\n      mstore\n        /* \"#utility.yul\":7254:7468   */\n      pop\n      jump\t// out\n        /* \"#utility.yul\":7474:7840   */\n    tag_133:\n        /* \"#utility.yul\":7616:7619   */\n      0x00\n        /* \"#utility.yul\":7637:7704   */\n      tag_218\n        /* \"#utility.yul\":7701:7703   */\n      0x12\n        /* \"#utility.yul\":7696:7699   */\n      dup4\n        /* \"#utility.yul\":7637:7704   */\n      tag_110\n      jump\t// in\n    tag_218:\n        /* \"#utility.yul\":7630:7704   */\n      swap2\n      pop\n        /* \"#utility.yul\":7713:7806   */\n      tag_219\n        /* \"#utility.yul\":7802:7805   */\n      dup3\n        /* \"#utility.yul\":7713:7806   */\n      tag_132\n      jump\t// in\n    tag_219:\n        /* \"#utility.yul\":7831:7833   */\n      0x20\n        /* \"#utility.yul\":7826:7829   */\n      dup3\n        /* \"#utility.yul\":7822:7834   */\n      add\n        /* \"#utility.yul\":7815:7834   */\n      swap1\n      pop\n        /* \"#utility.yul\":7474:7840   */\n      swap2\n      swap1\n      pop\n      jump\t// out\n        /* \"#utility.yul\":7846:8265   */\n    tag_97:\n        /* \"#utility.yul\":8012:8016   */\n      0x00\n        /* \"#utility.yul\":8050:8052   */\n      0x20\n        /* \"#utility.yul\":8039:8048   */\n      dup3\n        /* \"#utility.yul\":8035:8053   */\n      add\n        /* \"#utility.yul\":8027:8053   */\n      swap1\n      pop\n        /* \"#utility.yul\":8099:8108   */\n      dup2\n        /* \"#utility.yul\":8093:8097   */\n      dup2\n        /* \"#utility.yul\":8089:8109   */\n      sub\n        /* \"#utility.yul\":8085:8086   */\n      0x00\n        /* \"#utility.yul\":8074:8083   */\n      dup4\n        /* \"#utility.yul\":8070:8087   */\n      add\n        /* \"#utility.yul\":8063:8110   */\n      mstore\n        /* \"#utility.yul\":8127:8258   */\n      tag_221\n        /* \"#utility.yul\":8253:8257   */\n      dup2\n        /* \"#utility.yul\":8127:8258   */\n      tag_133\n      jump\t// in\n    tag_221:\n        /* \"#utility.yul\":8119:8258   */\n      swap1\n      pop\n        /* \"#utility.yul\":7846:8265   */\n      swap2\n      swap1\n      pop\n      jump\t// out\n        /* \"#utility.yul\":8271:8495   */\n    tag_134:\n        /* \"#utility.yul\":8411:8445   */\n      0x45524332303a207472616e736665722066726f6d20746865207a65726f206164\n        /* \"#utility.yul\":8407:8408   */\n      0x00\n        /* \"#utility.yul\":8399:8405   */\n      dup3\n        /* \"#utility.yul\":8395:8409   */\n      add\n        /* \"#utility.yul\":8388:8446   */\n      mstore\n        /* \"#utility.yul\":8480:8487   */\n      0x6472657373000000000000000000000000000000000000000000000000000000\n        /* \"#utility.yul\":8475:8477   */\n      0x20\n        /* \"#utility.yul\":8467:8473   */\n      dup3\n        /* \"#utility.yul\":8463:8478   */\n      add\n        /* \"#utility.yul\":8456:8488   */\n      mstore\n        /* \"#utility.yul\":8271:8495   */\n      pop\n      jump\t// out\n        /* \"#utility.yul\":8501:8867   */\n    tag_135:\n        /* \"#utility.yul\":8643:8646   */\n      0x00\n        /* \"#utility.yul\":8664:8731   */\n      tag_224\n        /* \"#utility.yul\":8728:8730   */\n      0x25\n        /* \"#utility.yul\":8723:8726   */\n      dup4\n        /* \"#utility.yul\":8664:8731   */\n      tag_110\n      jump\t// in\n    tag_224:\n        /* \"#utility.yul\":8657:8731   */\n      swap2\n      pop\n        /* \"#utility.yul\":8740:8833   */\n      tag_225\n        /* \"#utility.yul\":8829:8832   */\n      dup3\n        /* \"#utility.yul\":8740:8833   */\n      tag_134\n      jump\t// in\n    tag_225:\n        /* \"#utility.yul\":8858:8860   */\n      0x40\n        /* \"#utility.yul\":8853:8856   */\n      dup3\n        /* \"#utility.yul\":8849:8861   */\n      add\n        /* \"#utility.yul\":8842:8861   */\n      swap1\n      pop\n        /* \"#utility.yul\":8501:8867   */\n      swap2\n      swap1\n      pop\n      jump\t// out\n        /* \"#utility.yul\":8873:9292   */\n    tag_102:\n        /* \"#utility.yul\":9039:9043   */\n      0x00\n        /* \"#utility.yul\":9077:9079   */\n      0x20\n        /* \"#utility.yul\":9066:9075   */\n      dup3\n        /* \"#utility.yul\":9062:9080   */\n      add\n        /* \"#utility.yul\":9054:9080   */\n      swap1\n      pop\n        /* \"#utility.yul\":9126:9135   */\n      dup2\n        /* \"#utility.yul\":9120:9124   */\n      dup2\n        /* \"#utility.yul\":9116:9136   */\n      sub\n        /* \"#utility.yul\":9112:9113   */\n      0x00\n        /* \"#utility.yul\":9101:9110   */\n      dup4\n        /* \"#utility.yul\":9097:9114   */\n      add\n        /* \"#utility.yul\":9090:9137   */\n      mstore\n        /* \"#utility.yul\":9154:9285   */\n      tag_227\n        /* \"#utility.yul\":9280:9284   */\n      dup2\n        /* \"#utility.yul\":9154:9285   */\n      tag_135\n      jump\t// in\n    tag_227:\n        /* \"#utility.yul\":9146:9285   */\n      swap1\n      pop\n        /* \"#utility.yul\":8873:9292   */\n      swap2\n      swap1\n      pop\n      jump\t// out\n        /* \"#utility.yul\":9298:9519   */\n    tag_136:\n        /* \"#utility.yul\":9438:9472   */\n      0x45524332303a207472616e73657220746f20746865207a65726f206164647265\n        /* \"#utility.yul\":9434:9435   */\n      0x00\n        /* \"#utility.yul\":9426:9432   */\n      dup3\n        /* \"#utility.yul\":9422:9436   */\n      add\n        /* \"#utility.yul\":9415:9473   */\n      mstore\n        /* \"#utility.yul\":9507:9511   */\n      0x7373000000000000000000000000000000000000000000000000000000000000\n        /* \"#utility.yul\":9502:9504   */\n      0x20\n        /* \"#utility.yul\":9494:9500   */\n      dup3\n        /* \"#utility.yul\":9490:9505   */\n      add\n        /* \"#utility.yul\":9483:9512   */\n      mstore\n        /* \"#utility.yul\":9298:9519   */\n      pop\n      jump\t// out\n        /* \"#utility.yul\":9525:9891   */\n    tag_137:\n        /* \"#utility.yul\":9667:9670   */\n      0x00\n        /* \"#utility.yul\":9688:9755   */\n      tag_230\n        /* \"#utility.yul\":9752:9754   */\n      0x22\n        /* \"#utility.yul\":9747:9750   */\n      dup4\n        /* \"#utility.yul\":9688:9755   */\n      tag_110\n      jump\t// in\n    tag_230:\n        /* \"#utility.yul\":9681:9755   */\n      swap2\n      pop\n        /* \"#utility.yul\":9764:9857   */\n      tag_231\n        /* \"#utility.yul\":9853:9856   */\n      dup3\n        /* \"#utility.yul\":9764:9857   */\n      tag_136\n      jump\t// in\n    tag_231:\n        /* \"#utility.yul\":9882:9884   */\n      0x40\n        /* \"#utility.yul\":9877:9880   */\n      dup3\n        /* \"#utility.yul\":9873:9885   */\n      add\n        /* \"#utility.yul\":9866:9885   */\n      swap1\n      pop\n        /* \"#utility.yul\":9525:9891   */\n      swap2\n      swap1\n      pop\n      jump\t// out\n        /* \"#utility.yul\":9897:10316   */\n    tag_105:\n        /* \"#utility.yul\":10063:10067   */\n      0x00\n        /* \"#utility.yul\":10101:10103   */\n      0x20\n        /* \"#utility.yul\":10090:10099   */\n      dup3\n        /* \"#utility.yul\":10086:10104   */\n      add\n        /* \"#utility.yul\":10078:10104   */\n      swap1\n      pop\n        /* \"#utility.yul\":10150:10159   */\n      dup2\n        /* \"#utility.yul\":10144:10148   */\n      dup2\n        /* \"#utility.yul\":10140:10160   */\n      sub\n        /* \"#utility.yul\":10136:10137   */\n      0x00\n        /* \"#utility.yul\":10125:10134   */\n      dup4\n        /* \"#utility.yul\":10121:10138   */\n      add\n        /* \"#utility.yul\":10114:10161   */\n      mstore\n        /* \"#utility.yul\":10178:10309   */\n      tag_233\n        /* \"#utility.yul\":10304:10308   */\n      dup2\n        /* \"#utility.yul\":10178:10309   */\n      tag_137\n      jump\t// in\n    tag_233:\n        /* \"#utility.yul\":10170:10309   */\n      swap1\n      pop\n        /* \"#utility.yul\":9897:10316   */\n      swap2\n      swap1\n      pop\n      jump\t// out\n\n    auxdata: 0xa264697066735822122010eae5f8c6e8e2b100964450a6038169efe57982e67061ff7beab3a2c7a9cdf464736f6c63430008090033\n}\n",
				"bytecode": {
					"linkReferences": {},
					"object": "60806040523480156200001157600080fd5b506040518060400160405280600a81526020017f526162626974436f696e00000000000000000000000000000000000000000000815250600090805190602001906200005f92919062000205565b506040518060400160405280600581526020017f524142544300000000000000000000000000000000000000000000000000000081525060019080519060200190620000ad92919062000205565b506012600260006101000a81548160ff021916908360ff16021790555062000118620000de6200011e60201b60201c565b600260009054906101000a900460ff16600a620000fc91906200044f565b620f42406200010c9190620004a0565b6200012660201b60201c565b62000646565b600033905090565b600073ffffffffffffffffffffffffffffffffffffffff168273ffffffffffffffffffffffffffffffffffffffff16141562000199576040517f08c379a0000000000000000000000000000000000000000000000000000000008152600401620001909062000562565b60405180910390fd5b8060036000828254620001ad919062000584565b9250508190555080600460008473ffffffffffffffffffffffffffffffffffffffff1673ffffffffffffffffffffffffffffffffffffffff168152602001908152602001600020600082825401925050819055505050565b828054620002139062000610565b90600052602060002090601f01602090048101928262000237576000855562000283565b82601f106200025257805160ff191683800117855562000283565b8280016001018555821562000283579182015b828111156200028257825182559160200191906001019062000265565b5b50905062000292919062000296565b5090565b5b80821115620002b157600081600090555060010162000297565b5090565b7f4e487b7100000000000000000000000000000000000000000000000000000000600052601160045260246000fd5b60008160011c9050919050565b6000808291508390505b600185111562000343578086048111156200031b576200031a620002b5565b5b60018516156200032b5780820291505b80810290506200033b85620002e4565b9450620002fb565b94509492505050565b6000826200035e576001905062000431565b816200036e576000905062000431565b81600181146200038757600281146200039257620003c8565b600191505062000431565b60ff841115620003a757620003a6620002b5565b5b8360020a915084821115620003c157620003c0620002b5565b5b5062000431565b5060208310610133831016604e8410600b8410161715620004025782820a905083811115620003fc57620003fb620002b5565b5b62000431565b620004118484846001620002f1565b925090508184048111156200042b576200042a620002b5565b5b81810290505b9392505050565b6000819050919050565b600060ff82169050919050565b60006200045c8262000438565b9150620004698362000442565b9250620004987fffffffffffffffffffffffffffffffffffffffffffffffffffffffffffffffff84846200034c565b905092915050565b6000620004ad8262000438565b9150620004ba8362000438565b9250817fffffffffffffffffffffffffffffffffffffffffffffffffffffffffffffffff0483118215151615620004f657620004f5620002b5565b5b828202905092915050565b600082825260208201905092915050565b7f4552433a206d696e7420746f20746865207a65726f2061646472657373000000600082015250565b60006200054a601d8362000501565b9150620005578262000512565b602082019050919050565b600060208201905081810360008301526200057d816200053b565b9050919050565b6000620005918262000438565b91506200059e8362000438565b9250827fffffffffffffffffffffffffffffffffffffffffffffffffffffffffffffffff03821115620005d657620005d5620002b5565b5b828201905092915050565b7f4e487b7100000000000000000000000000000000000000000000000000000000600052602260045260246000fd5b600060028204905060018216806200062957607f821691505b6020821081141562000640576200063f620005e1565b5b50919050565b610ef280620006566000396000f3fe608060405234801561001057600080fd5b50600436106100935760003560e01c806323b872dd1161006657806323b872dd14610134578063313ce5671461016457806370a082311461018257806395d89b41146101b2578063a9059cbb146101d057610093565b806306fdde0314610098578063095ea7b3146100b657806318160ddd146100e65780631a46ec8214610104575b600080fd5b6100a0610200565b6040516100ad91906109e7565b60405180910390f35b6100d060048036038101906100cb9190610aa2565b610292565b6040516100dd9190610afd565b60405180910390f35b6100ee6102b5565b6040516100fb9190610b27565b60405180910390f35b61011e60048036038101906101199190610b42565b6102bf565b60405161012b9190610b27565b60405180910390f35b61014e60048036038101906101499190610b82565b610346565b60405161015b9190610afd565b60405180910390f35b61016c610375565b6040516101799190610bf1565b60405180910390f35b61019c60048036038101906101979190610c0c565b61038c565b6040516101a99190610b27565b60405180910390f35b6101ba6103d5565b6040516101c791906109e7565b60405180910390f35b6101ea60048036038101906101e59190610aa2565b610467565b6040516101f79190610afd565b60405180910390f35b60606000805461020f90610c68565b80601f016020809104026020016040519081016040528092919081815260200182805461023b90610c68565b80156102885780601f1061025d57610100808354040283529160200191610288565b820191906000526020600020905b81548152906001019060200180831161026b57829003601f168201915b5050505050905090565b60008061029d61048a565b90506102aa818585610492565b600191505092915050565b6000600354905090565b6000600560008473ffffffffffffffffffffffffffffffffffffffff1673ffffffffffffffffffffffffffffffffffffffff16815260200190815260200160002060008373ffffffffffffffffffffffffffffffffffffffff1673ffffffffffffffffffffffffffffffffffffffff16815260200190815260200160002054905092915050565b60008061035161048a565b905061035e85828561065d565b6103698585856106e9565b60019150509392505050565b6000600260009054906101000a900460ff16905090565b6000600460008373ffffffffffffffffffffffffffffffffffffffff1673ffffffffffffffffffffffffffffffffffffffff168152602001908152602001600020549050919050565b6060600180546103e490610c68565b80601f016020809104026020016040519081016040528092919081815260200182805461041090610c68565b801561045d5780601f106104325761010080835404028352916020019161045d565b820191906000526020600020905b81548152906001019060200180831161044057829003601f168201915b5050505050905090565b60008061047261048a565b905061047f8185856106e9565b600191505092915050565b600033905090565b600073ffffffffffffffffffffffffffffffffffffffff168373ffffffffffffffffffffffffffffffffffffffff161415610502576040517f08c379a00000000000000000000000000000000000000000000000000000000081526004016104f990610d0c565b60405180910390fd5b600073ffffffffffffffffffffffffffffffffffffffff168273ffffffffffffffffffffffffffffffffffffffff161415610572576040517f08c379a000000000000000000000000000000000000000000000000000000000815260040161056990610d0c565b60405180910390fd5b80600560008573ffffffffffffffffffffffffffffffffffffffff1673ffffffffffffffffffffffffffffffffffffffff16815260200190815260200160002060008473ffffffffffffffffffffffffffffffffffffffff1673ffffffffffffffffffffffffffffffffffffffff168152602001908152602001600020819055508173ffffffffffffffffffffffffffffffffffffffff168373ffffffffffffffffffffffffffffffffffffffff167f8c5be1e5ebec7d5bd14f71427d1e84f3dd0314c0f7b2291e5b200ac8c7c3b925836040516106509190610b27565b60405180910390a3505050565b600061066984846102bf565b90507fffffffffffffffffffffffffffffffffffffffffffffffffffffffffffffffff81146106e357818110156106d5576040517f08c379a00000000000000000000000000000000000000000000000000000000081526004016106cc90610d78565b60405180910390fd5b6106e28484848403610492565b5b50505050565b600073ffffffffffffffffffffffffffffffffffffffff168373ffffffffffffffffffffffffffffffffffffffff161415610759576040517f08c379a000000000000000000000000000000000000000000000000000000000815260040161075090610e0a565b60405180910390fd5b600073ffffffffffffffffffffffffffffffffffffffff168273ffffffffffffffffffffffffffffffffffffffff1614156107c9576040517f08c379a00000000000000000000000000000000000000000000000000000000081526004016107c090610e9c565b60405180910390fd5b6000600460008573ffffffffffffffffffffffffffffffffffffffff1673ffffffffffffffffffffffffffffffffffffffff16815260200190815260200160002054905081811015610850576040517f08c379a000000000000000000000000000000000000000000000000000000000815260040161084790610d78565b60405180910390fd5b818103600460008673ffffffffffffffffffffffffffffffffffffffff1673ffffffffffffffffffffffffffffffffffffffff1681526020019081526020016000208190555081600460008573ffffffffffffffffffffffffffffffffffffffff1673ffffffffffffffffffffffffffffffffffffffff168152602001908152602001600020600082825401925050819055508273ffffffffffffffffffffffffffffffffffffffff168473ffffffffffffffffffffffffffffffffffffffff167fddf252ad1be2c89b69c2b068fc378daa952ba7f163c4a11628f55a4df523b3ef846040516109409190610b27565b60405180910390a350505050565b600081519050919050565b600082825260208201905092915050565b60005b8381101561098857808201518184015260208101905061096d565b83811115610997576000848401525b50505050565b6000601f19601f8301169050919050565b60006109b98261094e565b6109c38185610959565b93506109d381856020860161096a565b6109dc8161099d565b840191505092915050565b60006020820190508181036000830152610a0181846109ae565b905092915050565b600080fd5b600073ffffffffffffffffffffffffffffffffffffffff82169050919050565b6000610a3982610a0e565b9050919050565b610a4981610a2e565b8114610a5457600080fd5b50565b600081359050610a6681610a40565b92915050565b6000819050919050565b610a7f81610a6c565b8114610a8a57600080fd5b50565b600081359050610a9c81610a76565b92915050565b60008060408385031215610ab957610ab8610a09565b5b6000610ac785828601610a57565b9250506020610ad885828601610a8d565b9150509250929050565b60008115159050919050565b610af781610ae2565b82525050565b6000602082019050610b126000830184610aee565b92915050565b610b2181610a6c565b82525050565b6000602082019050610b3c6000830184610b18565b92915050565b60008060408385031215610b5957610b58610a09565b5b6000610b6785828601610a57565b9250506020610b7885828601610a57565b9150509250929050565b600080600060608486031215610b9b57610b9a610a09565b5b6000610ba986828701610a57565b9350506020610bba86828701610a57565b9250506040610bcb86828701610a8d565b9150509250925092565b600060ff82169050919050565b610beb81610bd5565b82525050565b6000602082019050610c066000830184610be2565b92915050565b600060208284031215610c2257610c21610a09565b5b6000610c3084828501610a57565b91505092915050565b7f4e487b7100000000000000000000000000000000000000000000000000000000600052602260045260246000fd5b60006002820490506001821680610c8057607f821691505b60208210811415610c9457610c93610c39565b5b50919050565b7f45524332303a20617070726f76652066726f6d20746865207a65726f2061646460008201527f7265737300000000000000000000000000000000000000000000000000000000602082015250565b6000610cf6602483610959565b9150610d0182610c9a565b604082019050919050565b60006020820190508181036000830152610d2581610ce9565b9050919050565b7f45524332303ae4bd99e9a29de4b88de8b6b30000000000000000000000000000600082015250565b6000610d62601283610959565b9150610d6d82610d2c565b602082019050919050565b60006020820190508181036000830152610d9181610d55565b9050919050565b7f45524332303a207472616e736665722066726f6d20746865207a65726f20616460008201527f6472657373000000000000000000000000000000000000000000000000000000602082015250565b6000610df4602583610959565b9150610dff82610d98565b604082019050919050565b60006020820190508181036000830152610e2381610de7565b9050919050565b7f45524332303a207472616e73657220746f20746865207a65726f20616464726560008201527f7373000000000000000000000000000000000000000000000000000000000000602082015250565b6000610e86602283610959565b9150610e9182610e2a565b604082019050919050565b60006020820190508181036000830152610eb581610e79565b905091905056fea264697066735822122010eae5f8c6e8e2b100964450a6038169efe57982e67061ff7beab3a2c7a9cdf464736f6c63430008090033",
					"opcodes": "PUSH1 0x80 PUSH1 0x40 MSTORE CALLVALUE DUP1 ISZERO PUSH3 0x11 JUMPI PUSH1 0x0 DUP1 REVERT JUMPDEST POP PUSH1 0x40 MLOAD DUP1 PUSH1 0x40 ADD PUSH1 0x40 MSTORE DUP1 PUSH1 0xA DUP2 MSTORE PUSH1 0x20 ADD PUSH32 0x526162626974436F696E00000000000000000000000000000000000000000000 DUP2 MSTORE POP PUSH1 0x0 SWAP1 DUP1 MLOAD SWAP1 PUSH1 0x20 ADD SWAP1 PUSH3 0x5F SWAP3 SWAP2 SWAP1 PUSH3 0x205 JUMP JUMPDEST POP PUSH1 0x40 MLOAD DUP1 PUSH1 0x40 ADD PUSH1 0x40 MSTORE DUP1 PUSH1 0x5 DUP2 MSTORE PUSH1 0x20 ADD PUSH32 0x5241425443000000000000000000000000000000000000000000000000000000 DUP2 MSTORE POP PUSH1 0x1 SWAP1 DUP1 MLOAD SWAP1 PUSH1 0x20 ADD SWAP1 PUSH3 0xAD SWAP3 SWAP2 SWAP1 PUSH3 0x205 JUMP JUMPDEST POP PUSH1 0x12 PUSH1 0x2 PUSH1 0x0 PUSH2 0x100 EXP DUP2 SLOAD DUP2 PUSH1 0xFF MUL NOT AND SWAP1 DUP4 PUSH1 0xFF AND MUL OR SWAP1 SSTORE POP PUSH3 0x118 PUSH3 0xDE PUSH3 0x11E PUSH1 0x20 SHL PUSH1 0x20 SHR JUMP JUMPDEST PUSH1 0x2 PUSH1 0x0 SWAP1 SLOAD SWAP1 PUSH2 0x100 EXP SWAP1 DIV PUSH1 0xFF AND PUSH1 0xA PUSH3 0xFC SWAP2 SWAP1 PUSH3 0x44F JUMP JUMPDEST PUSH3 0xF4240 PUSH3 0x10C SWAP2 SWAP1 PUSH3 0x4A0 JUMP JUMPDEST PUSH3 0x126 PUSH1 0x20 SHL PUSH1 0x20 SHR JUMP JUMPDEST PUSH3 0x646 JUMP JUMPDEST PUSH1 0x0 CALLER SWAP1 POP SWAP1 JUMP JUMPDEST PUSH1 0x0 PUSH20 0xFFFFFFFFFFFFFFFFFFFFFFFFFFFFFFFFFFFFFFFF AND DUP3 PUSH20 0xFFFFFFFFFFFFFFFFFFFFFFFFFFFFFFFFFFFFFFFF AND EQ ISZERO PUSH3 0x199 JUMPI PUSH1 0x40 MLOAD PUSH32 0x8C379A000000000000000000000000000000000000000000000000000000000 DUP2 MSTORE PUSH1 0x4 ADD PUSH3 0x190 SWAP1 PUSH3 0x562 JUMP JUMPDEST PUSH1 0x40 MLOAD DUP1 SWAP2 SUB SWAP1 REVERT JUMPDEST DUP1 PUSH1 0x3 PUSH1 0x0 DUP3 DUP3 SLOAD PUSH3 0x1AD SWAP2 SWAP1 PUSH3 0x584 JUMP JUMPDEST SWAP3 POP POP DUP2 SWAP1 SSTORE POP DUP1 PUSH1 0x4 PUSH1 0x0 DUP5 PUSH20 0xFFFFFFFFFFFFFFFFFFFFFFFFFFFFFFFFFFFFFFFF AND PUSH20 0xFFFFFFFFFFFFFFFFFFFFFFFFFFFFFFFFFFFFFFFF AND DUP2 MSTORE PUSH1 0x20 ADD SWAP1 DUP2 MSTORE PUSH1 0x20 ADD PUSH1 0x0 KECCAK256 PUSH1 0x0 DUP3 DUP3 SLOAD ADD SWAP3 POP POP DUP2 SWAP1 SSTORE POP POP POP JUMP JUMPDEST DUP3 DUP1 SLOAD PUSH3 0x213 SWAP1 PUSH3 0x610 JUMP JUMPDEST SWAP1 PUSH1 0x0 MSTORE PUSH1 0x20 PUSH1 0x0 KECCAK256 SWAP1 PUSH1 0x1F ADD PUSH1 0x20 SWAP1 DIV DUP2 ADD SWAP3 DUP3 PUSH3 0x237 JUMPI PUSH1 0x0 DUP6 SSTORE PUSH3 0x283 JUMP JUMPDEST DUP3 PUSH1 0x1F LT PUSH3 0x252 JUMPI DUP1 MLOAD PUSH1 0xFF NOT AND DUP4 DUP1 ADD OR DUP6 SSTORE PUSH3 0x283 JUMP JUMPDEST DUP3 DUP1 ADD PUSH1 0x1 ADD DUP6 SSTORE DUP3 ISZERO PUSH3 0x283 JUMPI SWAP2 DUP3 ADD JUMPDEST DUP3 DUP2 GT ISZERO PUSH3 0x282 JUMPI DUP3 MLOAD DUP3 SSTORE SWAP2 PUSH1 0x20 ADD SWAP2 SWAP1 PUSH1 0x1 ADD SWAP1 PUSH3 0x265 JUMP JUMPDEST JUMPDEST POP SWAP1 POP PUSH3 0x292 SWAP2 SWAP1 PUSH3 0x296 JUMP JUMPDEST POP SWAP1 JUMP JUMPDEST JUMPDEST DUP1 DUP3 GT ISZERO PUSH3 0x2B1 JUMPI PUSH1 0x0 DUP2 PUSH1 0x0 SWAP1 SSTORE POP PUSH1 0x1 ADD PUSH3 0x297 JUMP JUMPDEST POP SWAP1 JUMP JUMPDEST PUSH32 0x4E487B7100000000000000000000000000000000000000000000000000000000 PUSH1 0x0 MSTORE PUSH1 0x11 PUSH1 0x4 MSTORE PUSH1 0x24 PUSH1 0x0 REVERT JUMPDEST PUSH1 0x0 DUP2 PUSH1 0x1 SHR SWAP1 POP SWAP2 SWAP1 POP JUMP JUMPDEST PUSH1 0x0 DUP1 DUP3 SWAP2 POP DUP4 SWAP1 POP JUMPDEST PUSH1 0x1 DUP6 GT ISZERO PUSH3 0x343 JUMPI DUP1 DUP7 DIV DUP2 GT ISZERO PUSH3 0x31B JUMPI PUSH3 0x31A PUSH3 0x2B5 JUMP JUMPDEST JUMPDEST PUSH1 0x1 DUP6 AND ISZERO PUSH3 0x32B JUMPI DUP1 DUP3 MUL SWAP2 POP JUMPDEST DUP1 DUP2 MUL SWAP1 POP PUSH3 0x33B DUP6 PUSH3 0x2E4 JUMP JUMPDEST SWAP5 POP PUSH3 0x2FB JUMP JUMPDEST SWAP5 POP SWAP5 SWAP3 POP POP POP JUMP JUMPDEST PUSH1 0x0 DUP3 PUSH3 0x35E JUMPI PUSH1 0x1 SWAP1 POP PUSH3 0x431 JUMP JUMPDEST DUP2 PUSH3 0x36E JUMPI PUSH1 0x0 SWAP1 POP PUSH3 0x431 JUMP JUMPDEST DUP2 PUSH1 0x1 DUP2 EQ PUSH3 0x387 JUMPI PUSH1 0x2 DUP2 EQ PUSH3 0x392 JUMPI PUSH3 0x3C8 JUMP JUMPDEST PUSH1 0x1 SWAP2 POP POP PUSH3 0x431 JUMP JUMPDEST PUSH1 0xFF DUP5 GT ISZERO PUSH3 0x3A7 JUMPI PUSH3 0x3A6 PUSH3 0x2B5 JUMP JUMPDEST JUMPDEST DUP4 PUSH1 0x2 EXP SWAP2 POP DUP5 DUP3 GT ISZERO PUSH3 0x3C1 JUMPI PUSH3 0x3C0 PUSH3 0x2B5 JUMP JUMPDEST JUMPDEST POP PUSH3 0x431 JUMP JUMPDEST POP PUSH1 0x20 DUP4 LT PUSH2 0x133 DUP4 LT AND PUSH1 0x4E DUP5 LT PUSH1 0xB DUP5 LT AND OR ISZERO PUSH3 0x402 JUMPI DUP3 DUP3 EXP SWAP1 POP DUP4 DUP2 GT ISZERO PUSH3 0x3FC JUMPI PUSH3 0x3FB PUSH3 0x2B5 JUMP JUMPDEST JUMPDEST PUSH3 0x431 JUMP JUMPDEST PUSH3 0x411 DUP5 DUP5 DUP5 PUSH1 0x1 PUSH3 0x2F1 JUMP JUMPDEST SWAP3 POP SWAP1 POP DUP2 DUP5 DIV DUP2 GT ISZERO PUSH3 0x42B JUMPI PUSH3 0x42A PUSH3 0x2B5 JUMP JUMPDEST JUMPDEST DUP2 DUP2 MUL SWAP1 POP JUMPDEST SWAP4 SWAP3 POP POP POP JUMP JUMPDEST PUSH1 0x0 DUP2 SWAP1 POP SWAP2 SWAP1 POP JUMP JUMPDEST PUSH1 0x0 PUSH1 0xFF DUP3 AND SWAP1 POP SWAP2 SWAP1 POP JUMP JUMPDEST PUSH1 0x0 PUSH3 0x45C DUP3 PUSH3 0x438 JUMP JUMPDEST SWAP2 POP PUSH3 0x469 DUP4 PUSH3 0x442 JUMP JUMPDEST SWAP3 POP PUSH3 0x498 PUSH32 0xFFFFFFFFFFFFFFFFFFFFFFFFFFFFFFFFFFFFFFFFFFFFFFFFFFFFFFFFFFFFFFFF DUP5 DUP5 PUSH3 0x34C JUMP JUMPDEST SWAP1 POP SWAP3 SWAP2 POP POP JUMP JUMPDEST PUSH1 0x0 PUSH3 0x4AD DUP3 PUSH3 0x438 JUMP JUMPDEST SWAP2 POP PUSH3 0x4BA DUP4 PUSH3 0x438 JUMP JUMPDEST SWAP3 POP DUP2 PUSH32 0xFFFFFFFFFFFFFFFFFFFFFFFFFFFFFFFFFFFFFFFFFFFFFFFFFFFFFFFFFFFFFFFF DIV DUP4 GT DUP3 ISZERO ISZERO AND ISZERO PUSH3 0x4F6 JUMPI PUSH3 0x4F5 PUSH3 0x2B5 JUMP JUMPDEST JUMPDEST DUP3 DUP3 MUL SWAP1 POP SWAP3 SWAP2 POP POP JUMP JUMPDEST PUSH1 0x0 DUP3 DUP3 MSTORE PUSH1 0x20 DUP3 ADD SWAP1 POP SWAP3 SWAP2 POP POP JUMP JUMPDEST PUSH32 0x4552433A206D696E7420746F20746865207A65726F2061646472657373000000 PUSH1 0x0 DUP3 ADD MSTORE POP JUMP JUMPDEST PUSH1 0x0 PUSH3 0x54A PUSH1 0x1D DUP4 PUSH3 0x501 JUMP JUMPDEST SWAP2 POP PUSH3 0x557 DUP3 PUSH3 0x512 JUMP JUMPDEST PUSH1 0x20 DUP3 ADD SWAP1 POP SWAP2 SWAP1 POP JUMP JUMPDEST PUSH1 0x0 PUSH1 0x20 DUP3 ADD SWAP1 POP DUP2 DUP2 SUB PUSH1 0x0 DUP4 ADD MSTORE PUSH3 0x57D DUP2 PUSH3 0x53B JUMP JUMPDEST SWAP1 POP SWAP2 SWAP1 POP JUMP JUMPDEST PUSH1 0x0 PUSH3 0x591 DUP3 PUSH3 0x438 JUMP JUMPDEST SWAP2 POP PUSH3 0x59E DUP4 PUSH3 0x438 JUMP JUMPDEST SWAP3 POP DUP3 PUSH32 0xFFFFFFFFFFFFFFFFFFFFFFFFFFFFFFFFFFFFFFFFFFFFFFFFFFFFFFFFFFFFFFFF SUB DUP3 GT ISZERO PUSH3 0x5D6 JUMPI PUSH3 0x5D5 PUSH3 0x2B5 JUMP JUMPDEST JUMPDEST DUP3 DUP3 ADD SWAP1 POP SWAP3 SWAP2 POP POP JUMP JUMPDEST PUSH32 0x4E487B7100000000000000000000000000000000000000000000000000000000 PUSH1 0x0 MSTORE PUSH1 0x22 PUSH1 0x4 MSTORE PUSH1 0x24 PUSH1 0x0 REVERT JUMPDEST PUSH1 0x0 PUSH1 0x2 DUP3 DIV SWAP1 POP PUSH1 0x1 DUP3 AND DUP1 PUSH3 0x629 JUMPI PUSH1 0x7F DUP3 AND SWAP2 POP JUMPDEST PUSH1 0x20 DUP3 LT DUP2 EQ ISZERO PUSH3 0x640 JUMPI PUSH3 0x63F PUSH3 0x5E1 JUMP JUMPDEST JUMPDEST POP SWAP2 SWAP1 POP JUMP JUMPDEST PUSH2 0xEF2 DUP1 PUSH3 0x656 PUSH1 0x0 CODECOPY PUSH1 0x0 RETURN INVALID PUSH1 0x80 PUSH1 0x40 MSTORE CALLVALUE DUP1 ISZERO PUSH2 0x10 JUMPI PUSH1 0x0 DUP1 REVERT JUMPDEST POP PUSH1 0x4 CALLDATASIZE LT PUSH2 0x93 JUMPI PUSH1 0x0 CALLDATALOAD PUSH1 0xE0 SHR DUP1 PUSH4 0x23B872DD GT PUSH2 0x66 JUMPI DUP1 PUSH4 0x23B872DD EQ PUSH2 0x134 JUMPI DUP1 PUSH4 0x313CE567 EQ PUSH2 0x164 JUMPI DUP1 PUSH4 0x70A08231 EQ PUSH2 0x182 JUMPI DUP1 PUSH4 0x95D89B41 EQ PUSH2 0x1B2 JUMPI DUP1 PUSH4 0xA9059CBB EQ PUSH2 0x1D0 JUMPI PUSH2 0x93 JUMP JUMPDEST DUP1 PUSH4 0x6FDDE03 EQ PUSH2 0x98 JUMPI DUP1 PUSH4 0x95EA7B3 EQ PUSH2 0xB6 JUMPI DUP1 PUSH4 0x18160DDD EQ PUSH2 0xE6 JUMPI DUP1 PUSH4 0x1A46EC82 EQ PUSH2 0x104 JUMPI JUMPDEST PUSH1 0x0 DUP1 REVERT JUMPDEST PUSH2 0xA0 PUSH2 0x200 JUMP JUMPDEST PUSH1 0x40 MLOAD PUSH2 0xAD SWAP2 SWAP1 PUSH2 0x9E7 JUMP JUMPDEST PUSH1 0x40 MLOAD DUP1 SWAP2 SUB SWAP1 RETURN JUMPDEST PUSH2 0xD0 PUSH1 0x4 DUP1 CALLDATASIZE SUB DUP2 ADD SWAP1 PUSH2 0xCB SWAP2 SWAP1 PUSH2 0xAA2 JUMP JUMPDEST PUSH2 0x292 JUMP JUMPDEST PUSH1 0x40 MLOAD PUSH2 0xDD SWAP2 SWAP1 PUSH2 0xAFD JUMP JUMPDEST PUSH1 0x40 MLOAD DUP1 SWAP2 SUB SWAP1 RETURN JUMPDEST PUSH2 0xEE PUSH2 0x2B5 JUMP JUMPDEST PUSH1 0x40 MLOAD PUSH2 0xFB SWAP2 SWAP1 PUSH2 0xB27 JUMP JUMPDEST PUSH1 0x40 MLOAD DUP1 SWAP2 SUB SWAP1 RETURN JUMPDEST PUSH2 0x11E PUSH1 0x4 DUP1 CALLDATASIZE SUB DUP2 ADD SWAP1 PUSH2 0x119 SWAP2 SWAP1 PUSH2 0xB42 JUMP JUMPDEST PUSH2 0x2BF JUMP JUMPDEST PUSH1 0x40 MLOAD PUSH2 0x12B SWAP2 SWAP1 PUSH2 0xB27 JUMP JUMPDEST PUSH1 0x40 MLOAD DUP1 SWAP2 SUB SWAP1 RETURN JUMPDEST PUSH2 0x14E PUSH1 0x4 DUP1 CALLDATASIZE SUB DUP2 ADD SWAP1 PUSH2 0x149 SWAP2 SWAP1 PUSH2 0xB82 JUMP JUMPDEST PUSH2 0x346 JUMP JUMPDEST PUSH1 0x40 MLOAD PUSH2 0x15B SWAP2 SWAP1 PUSH2 0xAFD JUMP JUMPDEST PUSH1 0x40 MLOAD DUP1 SWAP2 SUB SWAP1 RETURN JUMPDEST PUSH2 0x16C PUSH2 0x375 JUMP JUMPDEST PUSH1 0x40 MLOAD PUSH2 0x179 SWAP2 SWAP1 PUSH2 0xBF1 JUMP JUMPDEST PUSH1 0x40 MLOAD DUP1 SWAP2 SUB SWAP1 RETURN JUMPDEST PUSH2 0x19C PUSH1 0x4 DUP1 CALLDATASIZE SUB DUP2 ADD SWAP1 PUSH2 0x197 SWAP2 SWAP1 PUSH2 0xC0C JUMP JUMPDEST PUSH2 0x38C JUMP JUMPDEST PUSH1 0x40 MLOAD PUSH2 0x1A9 SWAP2 SWAP1 PUSH2 0xB27 JUMP JUMPDEST PUSH1 0x40 MLOAD DUP1 SWAP2 SUB SWAP1 RETURN JUMPDEST PUSH2 0x1BA PUSH2 0x3D5 JUMP JUMPDEST PUSH1 0x40 MLOAD PUSH2 0x1C7 SWAP2 SWAP1 PUSH2 0x9E7 JUMP JUMPDEST PUSH1 0x40 MLOAD DUP1 SWAP2 SUB SWAP1 RETURN JUMPDEST PUSH2 0x1EA PUSH1 0x4 DUP1 CALLDATASIZE SUB DUP2 ADD SWAP1 PUSH2 0x1E5 SWAP2 SWAP1 PUSH2 0xAA2 JUMP JUMPDEST PUSH2 0x467 JUMP JUMPDEST PUSH1 0x40 MLOAD PUSH2 0x1F7 SWAP2 SWAP1 PUSH2 0xAFD JUMP JUMPDEST PUSH1 0x40 MLOAD DUP1 SWAP2 SUB SWAP1 RETURN JUMPDEST PUSH1 0x60 PUSH1 0x0 DUP1 SLOAD PUSH2 0x20F SWAP1 PUSH2 0xC68 JUMP JUMPDEST DUP1 PUSH1 0x1F ADD PUSH1 0x20 DUP1 SWAP2 DIV MUL PUSH1 0x20 ADD PUSH1 0x40 MLOAD SWAP1 DUP2 ADD PUSH1 0x40 MSTORE DUP1 SWAP3 SWAP2 SWAP1 DUP2 DUP2 MSTORE PUSH1 0x20 ADD DUP3 DUP1 SLOAD PUSH2 0x23B SWAP1 PUSH2 0xC68 JUMP JUMPDEST DUP1 ISZERO PUSH2 0x288 JUMPI DUP1 PUSH1 0x1F LT PUSH2 0x25D JUMPI PUSH2 0x100 DUP1 DUP4 SLOAD DIV MUL DUP4 MSTORE SWAP2 PUSH1 0x20 ADD SWAP2 PUSH2 0x288 JUMP JUMPDEST DUP3 ADD SWAP2 SWAP1 PUSH1 0x0 MSTORE PUSH1 0x20 PUSH1 0x0 KECCAK256 SWAP1 JUMPDEST DUP2 SLOAD DUP2 MSTORE SWAP1 PUSH1 0x1 ADD SWAP1 PUSH1 0x20 ADD DUP1 DUP4 GT PUSH2 0x26B JUMPI DUP3 SWAP1 SUB PUSH1 0x1F AND DUP3 ADD SWAP2 JUMPDEST POP POP POP POP POP SWAP1 POP SWAP1 JUMP JUMPDEST PUSH1 0x0 DUP1 PUSH2 0x29D PUSH2 0x48A JUMP JUMPDEST SWAP1 POP PUSH2 0x2AA DUP2 DUP6 DUP6 PUSH2 0x492 JUMP JUMPDEST PUSH1 0x1 SWAP2 POP POP SWAP3 SWAP2 POP POP JUMP JUMPDEST PUSH1 0x0 PUSH1 0x3 SLOAD SWAP1 POP SWAP1 JUMP JUMPDEST PUSH1 0x0 PUSH1 0x5 PUSH1 0x0 DUP5 PUSH20 0xFFFFFFFFFFFFFFFFFFFFFFFFFFFFFFFFFFFFFFFF AND PUSH20 0xFFFFFFFFFFFFFFFFFFFFFFFFFFFFFFFFFFFFFFFF AND DUP2 MSTORE PUSH1 0x20 ADD SWAP1 DUP2 MSTORE PUSH1 0x20 ADD PUSH1 0x0 KECCAK256 PUSH1 0x0 DUP4 PUSH20 0xFFFFFFFFFFFFFFFFFFFFFFFFFFFFFFFFFFFFFFFF AND PUSH20 0xFFFFFFFFFFFFFFFFFFFFFFFFFFFFFFFFFFFFFFFF AND DUP2 MSTORE PUSH1 0x20 ADD SWAP1 DUP2 MSTORE PUSH1 0x20 ADD PUSH1 0x0 KECCAK256 SLOAD SWAP1 POP SWAP3 SWAP2 POP POP JUMP JUMPDEST PUSH1 0x0 DUP1 PUSH2 0x351 PUSH2 0x48A JUMP JUMPDEST SWAP1 POP PUSH2 0x35E DUP6 DUP3 DUP6 PUSH2 0x65D JUMP JUMPDEST PUSH2 0x369 DUP6 DUP6 DUP6 PUSH2 0x6E9 JUMP JUMPDEST PUSH1 0x1 SWAP2 POP POP SWAP4 SWAP3 POP POP POP JUMP JUMPDEST PUSH1 0x0 PUSH1 0x2 PUSH1 0x0 SWAP1 SLOAD SWAP1 PUSH2 0x100 EXP SWAP1 DIV PUSH1 0xFF AND SWAP1 POP SWAP1 JUMP JUMPDEST PUSH1 0x0 PUSH1 0x4 PUSH1 0x0 DUP4 PUSH20 0xFFFFFFFFFFFFFFFFFFFFFFFFFFFFFFFFFFFFFFFF AND PUSH20 0xFFFFFFFFFFFFFFFFFFFFFFFFFFFFFFFFFFFFFFFF AND DUP2 MSTORE PUSH1 0x20 ADD SWAP1 DUP2 MSTORE PUSH1 0x20 ADD PUSH1 0x0 KECCAK256 SLOAD SWAP1 POP SWAP2 SWAP1 POP JUMP JUMPDEST PUSH1 0x60 PUSH1 0x1 DUP1 SLOAD PUSH2 0x3E4 SWAP1 PUSH2 0xC68 JUMP JUMPDEST DUP1 PUSH1 0x1F ADD PUSH1 0x20 DUP1 SWAP2 DIV MUL PUSH1 0x20 ADD PUSH1 0x40 MLOAD SWAP1 DUP2 ADD PUSH1 0x40 MSTORE DUP1 SWAP3 SWAP2 SWAP1 DUP2 DUP2 MSTORE PUSH1 0x20 ADD DUP3 DUP1 SLOAD PUSH2 0x410 SWAP1 PUSH2 0xC68 JUMP JUMPDEST DUP1 ISZERO PUSH2 0x45D JUMPI DUP1 PUSH1 0x1F LT PUSH2 0x432 JUMPI PUSH2 0x100 DUP1 DUP4 SLOAD DIV MUL DUP4 MSTORE SWAP2 PUSH1 0x20 ADD SWAP2 PUSH2 0x45D JUMP JUMPDEST DUP3 ADD SWAP2 SWAP1 PUSH1 0x0 MSTORE PUSH1 0x20 PUSH1 0x0 KECCAK256 SWAP1 JUMPDEST DUP2 SLOAD DUP2 MSTORE SWAP1 PUSH1 0x1 ADD SWAP1 PUSH1 0x20 ADD DUP1 DUP4 GT PUSH2 0x440 JUMPI DUP3 SWAP1 SUB PUSH1 0x1F AND DUP3 ADD SWAP2 JUMPDEST POP POP POP POP POP SWAP1 POP SWAP1 JUMP JUMPDEST PUSH1 0x0 DUP1 PUSH2 0x472 PUSH2 0x48A JUMP JUMPDEST SWAP1 POP PUSH2 0x47F DUP2 DUP6 DUP6 PUSH2 0x6E9 JUMP JUMPDEST PUSH1 0x1 SWAP2 POP POP SWAP3 SWAP2 POP POP JUMP JUMPDEST PUSH1 0x0 CALLER SWAP1 POP SWAP1 JUMP JUMPDEST PUSH1 0x0 PUSH20 0xFFFFFFFFFFFFFFFFFFFFFFFFFFFFFFFFFFFFFFFF AND DUP4 PUSH20 0xFFFFFFFFFFFFFFFFFFFFFFFFFFFFFFFFFFFFFFFF AND EQ ISZERO PUSH2 0x502 JUMPI PUSH1 0x40 MLOAD PUSH32 0x8C379A000000000000000000000000000000000000000000000000000000000 DUP2 MSTORE PUSH1 0x4 ADD PUSH2 0x4F9 SWAP1 PUSH2 0xD0C JUMP JUMPDEST PUSH1 0x40 MLOAD DUP1 SWAP2 SUB SWAP1 REVERT JUMPDEST PUSH1 0x0 PUSH20 0xFFFFFFFFFFFFFFFFFFFFFFFFFFFFFFFFFFFFFFFF AND DUP3 PUSH20 0xFFFFFFFFFFFFFFFFFFFFFFFFFFFFFFFFFFFFFFFF AND EQ ISZERO PUSH2 0x572 JUMPI PUSH1 0x40 MLOAD PUSH32 0x8C379A000000000000000000000000000000000000000000000000000000000 DUP2 MSTORE PUSH1 0x4 ADD PUSH2 0x569 SWAP1 PUSH2 0xD0C JUMP JUMPDEST PUSH1 0x40 MLOAD DUP1 SWAP2 SUB SWAP1 REVERT JUMPDEST DUP1 PUSH1 0x5 PUSH1 0x0 DUP6 PUSH20 0xFFFFFFFFFFFFFFFFFFFFFFFFFFFFFFFFFFFFFFFF AND PUSH20 0xFFFFFFFFFFFFFFFFFFFFFFFFFFFFFFFFFFFFFFFF AND DUP2 MSTORE PUSH1 0x20 ADD SWAP1 DUP2 MSTORE PUSH1 0x20 ADD PUSH1 0x0 KECCAK256 PUSH1 0x0 DUP5 PUSH20 0xFFFFFFFFFFFFFFFFFFFFFFFFFFFFFFFFFFFFFFFF AND PUSH20 0xFFFFFFFFFFFFFFFFFFFFFFFFFFFFFFFFFFFFFFFF AND DUP2 MSTORE PUSH1 0x20 ADD SWAP1 DUP2 MSTORE PUSH1 0x20 ADD PUSH1 0x0 KECCAK256 DUP2 SWAP1 SSTORE POP DUP2 PUSH20 0xFFFFFFFFFFFFFFFFFFFFFFFFFFFFFFFFFFFFFFFF AND DUP4 PUSH20 0xFFFFFFFFFFFFFFFFFFFFFFFFFFFFFFFFFFFFFFFF AND PUSH32 0x8C5BE1E5EBEC7D5BD14F71427D1E84F3DD0314C0F7B2291E5B200AC8C7C3B925 DUP4 PUSH1 0x40 MLOAD PUSH2 0x650 SWAP2 SWAP1 PUSH2 0xB27 JUMP JUMPDEST PUSH1 0x40 MLOAD DUP1 SWAP2 SUB SWAP1 LOG3 POP POP POP JUMP JUMPDEST PUSH1 0x0 PUSH2 0x669 DUP5 DUP5 PUSH2 0x2BF JUMP JUMPDEST SWAP1 POP PUSH32 0xFFFFFFFFFFFFFFFFFFFFFFFFFFFFFFFFFFFFFFFFFFFFFFFFFFFFFFFFFFFFFFFF DUP2 EQ PUSH2 0x6E3 JUMPI DUP2 DUP2 LT ISZERO PUSH2 0x6D5 JUMPI PUSH1 0x40 MLOAD PUSH32 0x8C379A000000000000000000000000000000000000000000000000000000000 DUP2 MSTORE PUSH1 0x4 ADD PUSH2 0x6CC SWAP1 PUSH2 0xD78 JUMP JUMPDEST PUSH1 0x40 MLOAD DUP1 SWAP2 SUB SWAP1 REVERT JUMPDEST PUSH2 0x6E2 DUP5 DUP5 DUP5 DUP5 SUB PUSH2 0x492 JUMP JUMPDEST JUMPDEST POP POP POP POP JUMP JUMPDEST PUSH1 0x0 PUSH20 0xFFFFFFFFFFFFFFFFFFFFFFFFFFFFFFFFFFFFFFFF AND DUP4 PUSH20 0xFFFFFFFFFFFFFFFFFFFFFFFFFFFFFFFFFFFFFFFF AND EQ ISZERO PUSH2 0x759 JUMPI PUSH1 0x40 MLOAD PUSH32 0x8C379A000000000000000000000000000000000000000000000000000000000 DUP2 MSTORE PUSH1 0x4 ADD PUSH2 0x750 SWAP1 PUSH2 0xE0A JUMP JUMPDEST PUSH1 0x40 MLOAD DUP1 SWAP2 SUB SWAP1 REVERT JUMPDEST PUSH1 0x0 PUSH20 0xFFFFFFFFFFFFFFFFFFFFFFFFFFFFFFFFFFFFFFFF AND DUP3 PUSH20 0xFFFFFFFFFFFFFFFFFFFFFFFFFFFFFFFFFFFFFFFF AND EQ ISZERO PUSH2 0x7C9 JUMPI PUSH1 0x40 MLOAD PUSH32 0x8C379A000000000000000000000000000000000000000000000000000000000 DUP2 MSTORE PUSH1 0x4 ADD PUSH2 0x7C0 SWAP1 PUSH2 0xE9C JUMP JUMPDEST PUSH1 0x40 MLOAD DUP1 SWAP2 SUB SWAP1 REVERT JUMPDEST PUSH1 0x0 PUSH1 0x4 PUSH1 0x0 DUP6 PUSH20 0xFFFFFFFFFFFFFFFFFFFFFFFFFFFFFFFFFFFFFFFF AND PUSH20 0xFFFFFFFFFFFFFFFFFFFFFFFFFFFFFFFFFFFFFFFF AND DUP2 MSTORE PUSH1 0x20 ADD SWAP1 DUP2 MSTORE PUSH1 0x20 ADD PUSH1 0x0 KECCAK256 SLOAD SWAP1 POP DUP2 DUP2 LT ISZERO PUSH2 0x850 JUMPI PUSH1 0x40 MLOAD PUSH32 0x8C379A000000000000000000000000000000000000000000000000000000000 DUP2 MSTORE PUSH1 0x4 ADD PUSH2 0x847 SWAP1 PUSH2 0xD78 JUMP JUMPDEST PUSH1 0x40 MLOAD DUP1 SWAP2 SUB SWAP1 REVERT JUMPDEST DUP2 DUP2 SUB PUSH1 0x4 PUSH1 0x0 DUP7 PUSH20 0xFFFFFFFFFFFFFFFFFFFFFFFFFFFFFFFFFFFFFFFF AND PUSH20 0xFFFFFFFFFFFFFFFFFFFFFFFFFFFFFFFFFFFFFFFF AND DUP2 MSTORE PUSH1 0x20 ADD SWAP1 DUP2 MSTORE PUSH1 0x20 ADD PUSH1 0x0 KECCAK256 DUP2 SWAP1 SSTORE POP DUP2 PUSH1 0x4 PUSH1 0x0 DUP6 PUSH20 0xFFFFFFFFFFFFFFFFFFFFFFFFFFFFFFFFFFFFFFFF AND PUSH20 0xFFFFFFFFFFFFFFFFFFFFFFFFFFFFFFFFFFFFFFFF AND DUP2 MSTORE PUSH1 0x20 ADD SWAP1 DUP2 MSTORE PUSH1 0x20 ADD PUSH1 0x0 KECCAK256 PUSH1 0x0 DUP3 DUP3 SLOAD ADD SWAP3 POP POP DUP2 SWAP1 SSTORE POP DUP3 PUSH20 0xFFFFFFFFFFFFFFFFFFFFFFFFFFFFFFFFFFFFFFFF AND DUP5 PUSH20 0xFFFFFFFFFFFFFFFFFFFFFFFFFFFFFFFFFFFFFFFF AND PUSH32 0xDDF252AD1BE2C89B69C2B068FC378DAA952BA7F163C4A11628F55A4DF523B3EF DUP5 PUSH1 0x40 MLOAD PUSH2 0x940 SWAP2 SWAP1 PUSH2 0xB27 JUMP JUMPDEST PUSH1 0x40 MLOAD DUP1 SWAP2 SUB SWAP1 LOG3 POP POP POP POP JUMP JUMPDEST PUSH1 0x0 DUP2 MLOAD SWAP1 POP SWAP2 SWAP1 POP JUMP JUMPDEST PUSH1 0x0 DUP3 DUP3 MSTORE PUSH1 0x20 DUP3 ADD SWAP1 POP SWAP3 SWAP2 POP POP JUMP JUMPDEST PUSH1 0x0 JUMPDEST DUP4 DUP2 LT ISZERO PUSH2 0x988 JUMPI DUP1 DUP3 ADD MLOAD DUP2 DUP5 ADD MSTORE PUSH1 0x20 DUP2 ADD SWAP1 POP PUSH2 0x96D JUMP JUMPDEST DUP4 DUP2 GT ISZERO PUSH2 0x997 JUMPI PUSH1 0x0 DUP5 DUP5 ADD MSTORE JUMPDEST POP POP POP POP JUMP JUMPDEST PUSH1 0x0 PUSH1 0x1F NOT PUSH1 0x1F DUP4 ADD AND SWAP1 POP SWAP2 SWAP1 POP JUMP JUMPDEST PUSH1 0x0 PUSH2 0x9B9 DUP3 PUSH2 0x94E JUMP JUMPDEST PUSH2 0x9C3 DUP2 DUP6 PUSH2 0x959 JUMP JUMPDEST SWAP4 POP PUSH2 0x9D3 DUP2 DUP6 PUSH1 0x20 DUP7 ADD PUSH2 0x96A JUMP JUMPDEST PUSH2 0x9DC DUP2 PUSH2 0x99D JUMP JUMPDEST DUP5 ADD SWAP2 POP POP SWAP3 SWAP2 POP POP JUMP JUMPDEST PUSH1 0x0 PUSH1 0x20 DUP3 ADD SWAP1 POP DUP2 DUP2 SUB PUSH1 0x0 DUP4 ADD MSTORE PUSH2 0xA01 DUP2 DUP5 PUSH2 0x9AE JUMP JUMPDEST SWAP1 POP SWAP3 SWAP2 POP POP JUMP JUMPDEST PUSH1 0x0 DUP1 REVERT JUMPDEST PUSH1 0x0 PUSH20 0xFFFFFFFFFFFFFFFFFFFFFFFFFFFFFFFFFFFFFFFF DUP3 AND SWAP1 POP SWAP2 SWAP1 POP JUMP JUMPDEST PUSH1 0x0 PUSH2 0xA39 DUP3 PUSH2 0xA0E JUMP JUMPDEST SWAP1 POP SWAP2 SWAP1 POP JUMP JUMPDEST PUSH2 0xA49 DUP2 PUSH2 0xA2E JUMP JUMPDEST DUP2 EQ PUSH2 0xA54 JUMPI PUSH1 0x0 DUP1 REVERT JUMPDEST POP JUMP JUMPDEST PUSH1 0x0 DUP2 CALLDATALOAD SWAP1 POP PUSH2 0xA66 DUP2 PUSH2 0xA40 JUMP JUMPDEST SWAP3 SWAP2 POP POP JUMP JUMPDEST PUSH1 0x0 DUP2 SWAP1 POP SWAP2 SWAP1 POP JUMP JUMPDEST PUSH2 0xA7F DUP2 PUSH2 0xA6C JUMP JUMPDEST DUP2 EQ PUSH2 0xA8A JUMPI PUSH1 0x0 DUP1 REVERT JUMPDEST POP JUMP JUMPDEST PUSH1 0x0 DUP2 CALLDATALOAD SWAP1 POP PUSH2 0xA9C DUP2 PUSH2 0xA76 JUMP JUMPDEST SWAP3 SWAP2 POP POP JUMP JUMPDEST PUSH1 0x0 DUP1 PUSH1 0x40 DUP4 DUP6 SUB SLT ISZERO PUSH2 0xAB9 JUMPI PUSH2 0xAB8 PUSH2 0xA09 JUMP JUMPDEST JUMPDEST PUSH1 0x0 PUSH2 0xAC7 DUP6 DUP3 DUP7 ADD PUSH2 0xA57 JUMP JUMPDEST SWAP3 POP POP PUSH1 0x20 PUSH2 0xAD8 DUP6 DUP3 DUP7 ADD PUSH2 0xA8D JUMP JUMPDEST SWAP2 POP POP SWAP3 POP SWAP3 SWAP1 POP JUMP JUMPDEST PUSH1 0x0 DUP2 ISZERO ISZERO SWAP1 POP SWAP2 SWAP1 POP JUMP JUMPDEST PUSH2 0xAF7 DUP2 PUSH2 0xAE2 JUMP JUMPDEST DUP3 MSTORE POP POP JUMP JUMPDEST PUSH1 0x0 PUSH1 0x20 DUP3 ADD SWAP1 POP PUSH2 0xB12 PUSH1 0x0 DUP4 ADD DUP5 PUSH2 0xAEE JUMP JUMPDEST SWAP3 SWAP2 POP POP JUMP JUMPDEST PUSH2 0xB21 DUP2 PUSH2 0xA6C JUMP JUMPDEST DUP3 MSTORE POP POP JUMP JUMPDEST PUSH1 0x0 PUSH1 0x20 DUP3 ADD SWAP1 POP PUSH2 0xB3C PUSH1 0x0 DUP4 ADD DUP5 PUSH2 0xB18 JUMP JUMPDEST SWAP3 SWAP2 POP POP JUMP JUMPDEST PUSH1 0x0 DUP1 PUSH1 0x40 DUP4 DUP6 SUB SLT ISZERO PUSH2 0xB59 JUMPI PUSH2 0xB58 PUSH2 0xA09 JUMP JUMPDEST JUMPDEST PUSH1 0x0 PUSH2 0xB67 DUP6 DUP3 DUP7 ADD PUSH2 0xA57 JUMP JUMPDEST SWAP3 POP POP PUSH1 0x20 PUSH2 0xB78 DUP6 DUP3 DUP7 ADD PUSH2 0xA57 JUMP JUMPDEST SWAP2 POP POP SWAP3 POP SWAP3 SWAP1 POP JUMP JUMPDEST PUSH1 0x0 DUP1 PUSH1 0x0 PUSH1 0x60 DUP5 DUP7 SUB SLT ISZERO PUSH2 0xB9B JUMPI PUSH2 0xB9A PUSH2 0xA09 JUMP JUMPDEST JUMPDEST PUSH1 0x0 PUSH2 0xBA9 DUP7 DUP3 DUP8 ADD PUSH2 0xA57 JUMP JUMPDEST SWAP4 POP POP PUSH1 0x20 PUSH2 0xBBA DUP7 DUP3 DUP8 ADD PUSH2 0xA57 JUMP JUMPDEST SWAP3 POP POP PUSH1 0x40 PUSH2 0xBCB DUP7 DUP3 DUP8 ADD PUSH2 0xA8D JUMP JUMPDEST SWAP2 POP POP SWAP3 POP SWAP3 POP SWAP3 JUMP JUMPDEST PUSH1 0x0 PUSH1 0xFF DUP3 AND SWAP1 POP SWAP2 SWAP1 POP JUMP JUMPDEST PUSH2 0xBEB DUP2 PUSH2 0xBD5 JUMP JUMPDEST DUP3 MSTORE POP POP JUMP JUMPDEST PUSH1 0x0 PUSH1 0x20 DUP3 ADD SWAP1 POP PUSH2 0xC06 PUSH1 0x0 DUP4 ADD DUP5 PUSH2 0xBE2 JUMP JUMPDEST SWAP3 SWAP2 POP POP JUMP JUMPDEST PUSH1 0x0 PUSH1 0x20 DUP3 DUP5 SUB SLT ISZERO PUSH2 0xC22 JUMPI PUSH2 0xC21 PUSH2 0xA09 JUMP JUMPDEST JUMPDEST PUSH1 0x0 PUSH2 0xC30 DUP5 DUP3 DUP6 ADD PUSH2 0xA57 JUMP JUMPDEST SWAP2 POP POP SWAP3 SWAP2 POP POP JUMP JUMPDEST PUSH32 0x4E487B7100000000000000000000000000000000000000000000000000000000 PUSH1 0x0 MSTORE PUSH1 0x22 PUSH1 0x4 MSTORE PUSH1 0x24 PUSH1 0x0 REVERT JUMPDEST PUSH1 0x0 PUSH1 0x2 DUP3 DIV SWAP1 POP PUSH1 0x1 DUP3 AND DUP1 PUSH2 0xC80 JUMPI PUSH1 0x7F DUP3 AND SWAP2 POP JUMPDEST PUSH1 0x20 DUP3 LT DUP2 EQ ISZERO PUSH2 0xC94 JUMPI PUSH2 0xC93 PUSH2 0xC39 JUMP JUMPDEST JUMPDEST POP SWAP2 SWAP1 POP JUMP JUMPDEST PUSH32 0x45524332303A20617070726F76652066726F6D20746865207A65726F20616464 PUSH1 0x0 DUP3 ADD MSTORE PUSH32 0x7265737300000000000000000000000000000000000000000000000000000000 PUSH1 0x20 DUP3 ADD MSTORE POP JUMP JUMPDEST PUSH1 0x0 PUSH2 0xCF6 PUSH1 0x24 DUP4 PUSH2 0x959 JUMP JUMPDEST SWAP2 POP PUSH2 0xD01 DUP3 PUSH2 0xC9A JUMP JUMPDEST PUSH1 0x40 DUP3 ADD SWAP1 POP SWAP2 SWAP1 POP JUMP JUMPDEST PUSH1 0x0 PUSH1 0x20 DUP3 ADD SWAP1 POP DUP2 DUP2 SUB PUSH1 0x0 DUP4 ADD MSTORE PUSH2 0xD25 DUP2 PUSH2 0xCE9 JUMP JUMPDEST SWAP1 POP SWAP2 SWAP1 POP JUMP JUMPDEST PUSH32 0x45524332303AE4BD99E9A29DE4B88DE8B6B30000000000000000000000000000 PUSH1 0x0 DUP3 ADD MSTORE POP JUMP JUMPDEST PUSH1 0x0 PUSH2 0xD62 PUSH1 0x12 DUP4 PUSH2 0x959 JUMP JUMPDEST SWAP2 POP PUSH2 0xD6D DUP3 PUSH2 0xD2C JUMP JUMPDEST PUSH1 0x20 DUP3 ADD SWAP1 POP SWAP2 SWAP1 POP JUMP JUMPDEST PUSH1 0x0 PUSH1 0x20 DUP3 ADD SWAP1 POP DUP2 DUP2 SUB PUSH1 0x0 DUP4 ADD MSTORE PUSH2 0xD91 DUP2 PUSH2 0xD55 JUMP JUMPDEST SWAP1 POP SWAP2 SWAP1 POP JUMP JUMPDEST PUSH32 0x45524332303A207472616E736665722066726F6D20746865207A65726F206164 PUSH1 0x0 DUP3 ADD MSTORE PUSH32 0x6472657373000000000000000000000000000000000000000000000000000000 PUSH1 0x20 DUP3 ADD MSTORE POP JUMP JUMPDEST PUSH1 0x0 PUSH2 0xDF4 PUSH1 0x25 DUP4 PUSH2 0x959 JUMP JUMPDEST SWAP2 POP PUSH2 0xDFF DUP3 PUSH2 0xD98 JUMP JUMPDEST PUSH1 0x40 DUP3 ADD SWAP1 POP SWAP2 SWAP1 POP JUMP JUMPDEST PUSH1 0x0 PUSH1 0x20 DUP3 ADD SWAP1 POP DUP2 DUP2 SUB PUSH1 0x0 DUP4 ADD MSTORE PUSH2 0xE23 DUP2 PUSH2 0xDE7 JUMP JUMPDEST SWAP1 POP SWAP2 SWAP1 POP JUMP JUMPDEST PUSH32 0x45524332303A207472616E73657220746F20746865207A65726F206164647265 PUSH1 0x0 DUP3 ADD MSTORE PUSH32 0x7373000000000000000000000000000000000000000000000000000000000000 PUSH1 0x20 DUP3 ADD MSTORE POP JUMP JUMPDEST PUSH1 0x0 PUSH2 0xE86 PUSH1 0x22 DUP4 PUSH2 0x959 JUMP JUMPDEST SWAP2 POP PUSH2 0xE91 DUP3 PUSH2 0xE2A JUMP JUMPDEST PUSH1 0x40 DUP3 ADD SWAP1 POP SWAP2 SWAP1 POP JUMP JUMPDEST PUSH1 0x0 PUSH1 0x20 DUP3 ADD SWAP1 POP DUP2 DUP2 SUB PUSH1 0x0 DUP4 ADD MSTORE PUSH2 0xEB5 DUP2 PUSH2 0xE79 JUMP JUMPDEST SWAP1 POP SWAP2 SWAP1 POP JUMP INVALID LOG2 PUSH5 0x6970667358 0x22 SLT KECCAK256 LT 0xEA 0xE5 0xF8 0xC6 0xE8 0xE2 0xB1 STOP SWAP7 DIFFICULTY POP 0xA6 SUB DUP2 PUSH10 0xEFE57982E67061FF7BEA 0xB3 LOG2 0xC7 0xA9 0xCD DELEGATECALL PUSH5 0x736F6C6343 STOP ADDMOD MULMOD STOP CALLER "
				},
				"gasEstimates": {
					"creation": {
						"codeDepositCost": "765200",
						"executionCost": "infinite",
						"totalCost": "infinite"
					},
					"external": {
						"allowanceOf(address,address)": "infinite",
						"approve(address,uint256)": "infinite",
						"balanceOf(address)": "2885",
						"decimals()": "2501",
						"name()": "infinite",
						"symbol()": "infinite",
						"totalSupply()": "2482",
						"transfer(address,uint256)": "infinite",
						"transferFrom(address,address,uint256)": "infinite"
					},
					"internal": {
						"_approve(address,address,uint256)": "infinite",
						"_mint(address,uint256)": "infinite",
						"_spendAllowance(address,address,uint256)": "infinite",
						"_transfer(address,address,uint256)": "infinite"
					}
				},
				"methodIdentifiers": {
					"allowanceOf(address,address)": "1a46ec82",
					"approve(address,uint256)": "095ea7b3",
					"balanceOf(address)": "70a08231",
					"decimals()": "313ce567",
					"name()": "06fdde03",
					"symbol()": "95d89b41",
					"totalSupply()": "18160ddd",
					"transfer(address,uint256)": "a9059cbb",
					"transferFrom(address,address,uint256)": "23b872dd"
				}
			},
			"storageLayout": {
				"storage": [
					{
						"astId": 18,
						"contract": "MyToken/MyToken.sol:MyToken",
						"label": "_name",
						"offset": 0,
						"slot": "0",
						"type": "t_string_storage"
					},
					{
						"astId": 20,
						"contract": "MyToken/MyToken.sol:MyToken",
						"label": "_symbol",
						"offset": 0,
						"slot": "1",
						"type": "t_string_storage"
					},
					{
						"astId": 22,
						"contract": "MyToken/MyToken.sol:MyToken",
						"label": "_decimals",
						"offset": 0,
						"slot": "2",
						"type": "t_uint8"
					},
					{
						"astId": 24,
						"contract": "MyToken/MyToken.sol:MyToken",
						"label": "_totalSupply",
						"offset": 0,
						"slot": "3",
						"type": "t_uint256"
					},
					{
						"astId": 28,
						"contract": "MyToken/MyToken.sol:MyToken",
						"label": "_balances",
						"offset": 0,
						"slot": "4",
						"type": "t_mapping(t_address,t_uint256)"
					},
					{
						"astId": 34,
						"contract": "MyToken/MyToken.sol:MyToken",
						"label": "_allowance",
						"offset": 0,
						"slot": "5",
						"type": "t_mapping(t_address,t_mapping(t_address,t_uint256))"
					}
				],
				"types": {
					"t_address": {
						"encoding": "inplace",
						"label": "address",
						"numberOfBytes": "20"
					},
					"t_mapping(t_address,t_mapping(t_address,t_uint256))": {
						"encoding": "mapping",
						"key": "t_address",
						"label": "mapping(address => mapping(address => uint256))",
						"numberOfBytes": "32",
						"value": "t_mapping(t_address,t_uint256)"
					},
					"t_mapping(t_address,t_uint256)": {
						"encoding": "mapping",
						"key": "t_address",
						"label": "mapping(address => uint256)",
						"numberOfBytes": "32",
						"value": "t_uint256"
					},
					"t_string_storage": {
						"encoding": "bytes",
						"label": "string",
						"numberOfBytes": "32"
					},
					"t_uint256": {
						"encoding": "inplace",
						"label": "uint256",
						"numberOfBytes": "32"
					},
					"t_uint8": {
						"encoding": "inplace",
						"label": "uint8",
						"numberOfBytes": "1"
					}
				}
			},
			"userdoc": {
				"kind": "user",
				"methods": {},
				"version": 1
			}
		}
	}
}