{
	"data": {
		"bytecode": {
			"linkReferences": {},
			"object": "608060405234801561001057600080fd5b50610743806100206000396000f3fe608060405234801561001057600080fd5b50600436106100365760003560e01c806377ec2b551461003b578063ef46b77c1461005b575b600080fd5b610043610077565b60405161005293929190610282565b60405180910390f35b61007560048036038101906100709190610362565b61019f565b005b600080600001805461008890610426565b80601f01602080910402602001604051908101604052809291908181526020018280546100b490610426565b80156101015780601f106100d657610100808354040283529160200191610101565b820191906000526020600020905b8154815290600101906020018083116100e457829003601f168201915b50505050509080600101805461011690610426565b80601f016020809104026020016040519081016040528092919081815260200182805461014290610426565b801561018f5780601f106101645761010080835404028352916020019161018f565b820191906000526020600020905b81548152906001019060200180831161017257829003601f168201915b5050505050908060020154905083565b84846000800191826101b292919061063d565b508282600060010191826101c792919061063d565b50806000600201819055505050505050565b600081519050919050565b600082825260208201905092915050565b60005b838110156102135780820151818401526020810190506101f8565b60008484015250505050565b6000601f19601f8301169050919050565b600061023b826101d9565b61024581856101e4565b93506102558185602086016101f5565b61025e8161021f565b840191505092915050565b6000819050919050565b61027c81610269565b82525050565b6000606082019050818103600083015261029c8186610230565b905081810360208301526102b08185610230565b90506102bf6040830184610273565b949350505050565b600080fd5b600080fd5b600080fd5b600080fd5b600080fd5b60008083601f8401126102f6576102f56102d1565b5b8235905067ffffffffffffffff811115610313576103126102d6565b5b60208301915083600182028301111561032f5761032e6102db565b5b9250929050565b61033f81610269565b811461034a57600080fd5b50565b60008135905061035c81610336565b92915050565b60008060008060006060868803121561037e5761037d6102c7565b5b600086013567ffffffffffffffff81111561039c5761039b6102cc565b5b6103a8888289016102e0565b9550955050602086013567ffffffffffffffff8111156103cb576103ca6102cc565b5b6103d7888289016102e0565b935093505060406103ea8882890161034d565b9150509295509295909350565b7f4e487b7100000000000000000000000000000000000000000000000000000000600052602260045260246000fd5b6000600282049050600182168061043e57607f821691505b602082108103610451576104506103f7565b5b50919050565b600082905092915050565b7f4e487b7100000000000000000000000000000000000000000000000000000000600052604160045260246000fd5b60008190508160005260206000209050919050565b60006020601f8301049050919050565b600082821b905092915050565b6000600883026104f37fffffffffffffffffffffffffffffffffffffffffffffffffffffffffffffffff826104b6565b6104fd86836104b6565b95508019841693508086168417925050509392505050565b6000819050919050565b600061053a61053561053084610269565b610515565b610269565b9050919050565b6000819050919050565b6105548361051f565b61056861056082610541565b8484546104c3565b825550505050565b600090565b61057d610570565b61058881848461054b565b505050565b5b818110156105ac576105a1600082610575565b60018101905061058e565b5050565b601f8211156105f1576105c281610491565b6105cb846104a6565b810160208510156105da578190505b6105ee6105e6856104a6565b83018261058d565b50505b505050565b600082821c905092915050565b6000610614600019846008026105f6565b1980831691505092915050565b600061062d8383610603565b9150826002028217905092915050565b6106478383610457565b67ffffffffffffffff8111156106605761065f610462565b5b61066a8254610426565b6106758282856105b0565b6000601f8311600181146106a45760008415610692578287013590505b61069c8582610621565b865550610704565b601f1984166106b286610491565b60005b828110156106da578489013582556001820191506020850194506020810190506106b5565b868310156106f757848901356106f3601f891682610603565b8355505b6001600288020188555050505b5050505050505056fea264697066735822122068130c67caec57c229d864a329907fc46bc71f28e0b84101b9792388a180f41864736f6c63430008120033",
			"opcodes": "PUSH1 0x80 PUSH1 0x40 MSTORE CALLVALUE DUP1 ISZERO PUSH2 0x10 JUMPI PUSH1 0x0 DUP1 REVERT JUMPDEST POP PUSH2 0x743 DUP1 PUSH2 0x20 PUSH1 0x0 CODECOPY PUSH1 0x0 RETURN INVALID PUSH1 0x80 PUSH1 0x40 MSTORE CALLVALUE DUP1 ISZERO PUSH2 0x10 JUMPI PUSH1 0x0 DUP1 REVERT JUMPDEST POP PUSH1 0x4 CALLDATASIZE LT PUSH2 0x36 JUMPI PUSH1 0x0 CALLDATALOAD PUSH1 0xE0 SHR DUP1 PUSH4 0x77EC2B55 EQ PUSH2 0x3B JUMPI DUP1 PUSH4 0xEF46B77C EQ PUSH2 0x5B JUMPI JUMPDEST PUSH1 0x0 DUP1 REVERT JUMPDEST PUSH2 0x43 PUSH2 0x77 JUMP JUMPDEST PUSH1 0x40 MLOAD PUSH2 0x52 SWAP4 SWAP3 SWAP2 SWAP1 PUSH2 0x282 JUMP JUMPDEST PUSH1 0x40 MLOAD DUP1 SWAP2 SUB SWAP1 RETURN JUMPDEST PUSH2 0x75 PUSH1 0x4 DUP1 CALLDATASIZE SUB DUP2 ADD SWAP1 PUSH2 0x70 SWAP2 SWAP1 PUSH2 0x362 JUMP JUMPDEST PUSH2 0x19F JUMP JUMPDEST STOP JUMPDEST PUSH1 0x0 DUP1 PUSH1 0x0 ADD DUP1 SLOAD PUSH2 0x88 SWAP1 PUSH2 0x426 JUMP JUMPDEST DUP1 PUSH1 0x1F ADD PUSH1 0x20 DUP1 SWAP2 DIV MUL PUSH1 0x20 ADD PUSH1 0x40 MLOAD SWAP1 DUP2 ADD PUSH1 0x40 MSTORE DUP1 SWAP3 SWAP2 SWAP1 DUP2 DUP2 MSTORE PUSH1 0x20 ADD DUP3 DUP1 SLOAD PUSH2 0xB4 SWAP1 PUSH2 0x426 JUMP JUMPDEST DUP1 ISZERO PUSH2 0x101 JUMPI DUP1 PUSH1 0x1F LT PUSH2 0xD6 JUMPI PUSH2 0x100 DUP1 DUP4 SLOAD DIV MUL DUP4 MSTORE SWAP2 PUSH1 0x20 ADD SWAP2 PUSH2 0x101 JUMP JUMPDEST DUP3 ADD SWAP2 SWAP1 PUSH1 0x0 MSTORE PUSH1 0x20 PUSH1 0x0 KECCAK256 SWAP1 JUMPDEST DUP2 SLOAD DUP2 MSTORE SWAP1 PUSH1 0x1 ADD SWAP1 PUSH1 0x20 ADD DUP1 DUP4 GT PUSH2 0xE4 JUMPI DUP3 SWAP1 SUB PUSH1 0x1F AND DUP3 ADD SWAP2 JUMPDEST POP POP POP POP POP SWAP1 DUP1 PUSH1 0x1 ADD DUP1 SLOAD PUSH2 0x116 SWAP1 PUSH2 0x426 JUMP JUMPDEST DUP1 PUSH1 0x1F ADD PUSH1 0x20 DUP1 SWAP2 DIV MUL PUSH1 0x20 ADD PUSH1 0x40 MLOAD SWAP1 DUP2 ADD PUSH1 0x40 MSTORE DUP1 SWAP3 SWAP2 SWAP1 DUP2 DUP2 MSTORE PUSH1 0x20 ADD DUP3 DUP1 SLOAD PUSH2 0x142 SWAP1 PUSH2 0x426 JUMP JUMPDEST DUP1 ISZERO PUSH2 0x18F JUMPI DUP1 PUSH1 0x1F LT PUSH2 0x164 JUMPI PUSH2 0x100 DUP1 DUP4 SLOAD DIV MUL DUP4 MSTORE SWAP2 PUSH1 0x20 ADD SWAP2 PUSH2 0x18F JUMP JUMPDEST DUP3 ADD SWAP2 SWAP1 PUSH1 0x0 MSTORE PUSH1 0x20 PUSH1 0x0 KECCAK256 SWAP1 JUMPDEST DUP2 SLOAD DUP2 MSTORE SWAP1 PUSH1 0x1 ADD SWAP1 PUSH1 0x20 ADD DUP1 DUP4 GT PUSH2 0x172 JUMPI DUP3 SWAP1 SUB PUSH1 0x1F AND DUP3 ADD SWAP2 JUMPDEST POP POP POP POP POP SWAP1 DUP1 PUSH1 0x2 ADD SLOAD SWAP1 POP DUP4 JUMP JUMPDEST DUP5 DUP5 PUSH1 0x0 DUP1 ADD SWAP2 DUP3 PUSH2 0x1B2 SWAP3 SWAP2 SWAP1 PUSH2 0x63D JUMP JUMPDEST POP DUP3 DUP3 PUSH1 0x0 PUSH1 0x1 ADD SWAP2 DUP3 PUSH2 0x1C7 SWAP3 SWAP2 SWAP1 PUSH2 0x63D JUMP JUMPDEST POP DUP1 PUSH1 0x0 PUSH1 0x2 ADD DUP2 SWAP1 SSTORE POP POP POP POP POP POP JUMP JUMPDEST PUSH1 0x0 DUP2 MLOAD SWAP1 POP SWAP2 SWAP1 POP JUMP JUMPDEST PUSH1 0x0 DUP3 DUP3 MSTORE PUSH1 0x20 DUP3 ADD SWAP1 POP SWAP3 SWAP2 POP POP JUMP JUMPDEST PUSH1 0x0 JUMPDEST DUP4 DUP2 LT ISZERO PUSH2 0x213 JUMPI DUP1 DUP3 ADD MLOAD DUP2 DUP5 ADD MSTORE PUSH1 0x20 DUP2 ADD SWAP1 POP PUSH2 0x1F8 JUMP JUMPDEST PUSH1 0x0 DUP5 DUP5 ADD MSTORE POP POP POP POP JUMP JUMPDEST PUSH1 0x0 PUSH1 0x1F NOT PUSH1 0x1F DUP4 ADD AND SWAP1 POP SWAP2 SWAP1 POP JUMP JUMPDEST PUSH1 0x0 PUSH2 0x23B DUP3 PUSH2 0x1D9 JUMP JUMPDEST PUSH2 0x245 DUP2 DUP6 PUSH2 0x1E4 JUMP JUMPDEST SWAP4 POP PUSH2 0x255 DUP2 DUP6 PUSH1 0x20 DUP7 ADD PUSH2 0x1F5 JUMP JUMPDEST PUSH2 0x25E DUP2 PUSH2 0x21F JUMP JUMPDEST DUP5 ADD SWAP2 POP POP SWAP3 SWAP2 POP POP JUMP JUMPDEST PUSH1 0x0 DUP2 SWAP1 POP SWAP2 SWAP1 POP JUMP JUMPDEST PUSH2 0x27C DUP2 PUSH2 0x269 JUMP JUMPDEST DUP3 MSTORE POP POP JUMP JUMPDEST PUSH1 0x0 PUSH1 0x60 DUP3 ADD SWAP1 POP DUP2 DUP2 SUB PUSH1 0x0 DUP4 ADD MSTORE PUSH2 0x29C DUP2 DUP7 PUSH2 0x230 JUMP JUMPDEST SWAP1 POP DUP2 DUP2 SUB PUSH1 0x20 DUP4 ADD MSTORE PUSH2 0x2B0 DUP2 DUP6 PUSH2 0x230 JUMP JUMPDEST SWAP1 POP PUSH2 0x2BF PUSH1 0x40 DUP4 ADD DUP5 PUSH2 0x273 JUMP JUMPDEST SWAP5 SWAP4 POP POP POP POP JUMP JUMPDEST PUSH1 0x0 DUP1 REVERT JUMPDEST PUSH1 0x0 DUP1 REVERT JUMPDEST PUSH1 0x0 DUP1 REVERT JUMPDEST PUSH1 0x0 DUP1 REVERT JUMPDEST PUSH1 0x0 DUP1 REVERT JUMPDEST PUSH1 0x0 DUP1 DUP4 PUSH1 0x1F DUP5 ADD SLT PUSH2 0x2F6 JUMPI PUSH2 0x2F5 PUSH2 0x2D1 JUMP JUMPDEST JUMPDEST DUP3 CALLDATALOAD SWAP1 POP PUSH8 0xFFFFFFFFFFFFFFFF DUP2 GT ISZERO PUSH2 0x313 JUMPI PUSH2 0x312 PUSH2 0x2D6 JUMP JUMPDEST JUMPDEST PUSH1 0x20 DUP4 ADD SWAP2 POP DUP4 PUSH1 0x1 DUP3 MUL DUP4 ADD GT ISZERO PUSH2 0x32F JUMPI PUSH2 0x32E PUSH2 0x2DB JUMP JUMPDEST JUMPDEST SWAP3 POP SWAP3 SWAP1 POP JUMP JUMPDEST PUSH2 0x33F DUP2 PUSH2 0x269 JUMP JUMPDEST DUP2 EQ PUSH2 0x34A JUMPI PUSH1 0x0 DUP1 REVERT JUMPDEST POP JUMP JUMPDEST PUSH1 0x0 DUP2 CALLDATALOAD SWAP1 POP PUSH2 0x35C DUP2 PUSH2 0x336 JUMP JUMPDEST SWAP3 SWAP2 POP POP JUMP JUMPDEST PUSH1 0x0 DUP1 PUSH1 0x0 DUP1 PUSH1 0x0 PUSH1 0x60 DUP7 DUP9 SUB SLT ISZERO PUSH2 0x37E JUMPI PUSH2 0x37D PUSH2 0x2C7 JUMP JUMPDEST JUMPDEST PUSH1 0x0 DUP7 ADD CALLDATALOAD PUSH8 0xFFFFFFFFFFFFFFFF DUP2 GT ISZERO PUSH2 0x39C JUMPI PUSH2 0x39B PUSH2 0x2CC JUMP JUMPDEST JUMPDEST PUSH2 0x3A8 DUP9 DUP3 DUP10 ADD PUSH2 0x2E0 JUMP JUMPDEST SWAP6 POP SWAP6 POP POP PUSH1 0x20 DUP7 ADD CALLDATALOAD PUSH8 0xFFFFFFFFFFFFFFFF DUP2 GT ISZERO PUSH2 0x3CB JUMPI PUSH2 0x3CA PUSH2 0x2CC JUMP JUMPDEST JUMPDEST PUSH2 0x3D7 DUP9 DUP3 DUP10 ADD PUSH2 0x2E0 JUMP JUMPDEST SWAP4 POP SWAP4 POP POP PUSH1 0x40 PUSH2 0x3EA DUP9 DUP3 DUP10 ADD PUSH2 0x34D JUMP JUMPDEST SWAP2 POP POP SWAP3 SWAP6 POP SWAP3 SWAP6 SWAP1 SWAP4 POP JUMP JUMPDEST PUSH32 0x4E487B7100000000000000000000000000000000000000000000000000000000 PUSH1 0x0 MSTORE PUSH1 0x22 PUSH1 0x4 MSTORE PUSH1 0x24 PUSH1 0x0 REVERT JUMPDEST PUSH1 0x0 PUSH1 0x2 DUP3 DIV SWAP1 POP PUSH1 0x1 DUP3 AND DUP1 PUSH2 0x43E JUMPI PUSH1 0x7F DUP3 AND SWAP2 POP JUMPDEST PUSH1 0x20 DUP3 LT DUP2 SUB PUSH2 0x451 JUMPI PUSH2 0x450 PUSH2 0x3F7 JUMP JUMPDEST JUMPDEST POP SWAP2 SWAP1 POP JUMP JUMPDEST PUSH1 0x0 DUP3 SWAP1 POP SWAP3 SWAP2 POP POP JUMP JUMPDEST PUSH32 0x4E487B7100000000000000000000000000000000000000000000000000000000 PUSH1 0x0 MSTORE PUSH1 0x41 PUSH1 0x4 MSTORE PUSH1 0x24 PUSH1 0x0 REVERT JUMPDEST PUSH1 0x0 DUP2 SWAP1 POP DUP2 PUSH1 0x0 MSTORE PUSH1 0x20 PUSH1 0x0 KECCAK256 SWAP1 POP SWAP2 SWAP1 POP JUMP JUMPDEST PUSH1 0x0 PUSH1 0x20 PUSH1 0x1F DUP4 ADD DIV SWAP1 POP SWAP2 SWAP1 POP JUMP JUMPDEST PUSH1 0x0 DUP3 DUP3 SHL SWAP1 POP SWAP3 SWAP2 POP POP JUMP JUMPDEST PUSH1 0x0 PUSH1 0x8 DUP4 MUL PUSH2 0x4F3 PUSH32 0xFFFFFFFFFFFFFFFFFFFFFFFFFFFFFFFFFFFFFFFFFFFFFFFFFFFFFFFFFFFFFFFF DUP3 PUSH2 0x4B6 JUMP JUMPDEST PUSH2 0x4FD DUP7 DUP4 PUSH2 0x4B6 JUMP JUMPDEST SWAP6 POP DUP1 NOT DUP5 AND SWAP4 POP DUP1 DUP7 AND DUP5 OR SWAP3 POP POP POP SWAP4 SWAP3 POP POP POP JUMP JUMPDEST PUSH1 0x0 DUP2 SWAP1 POP SWAP2 SWAP1 POP JUMP JUMPDEST PUSH1 0x0 PUSH2 0x53A PUSH2 0x535 PUSH2 0x530 DUP5 PUSH2 0x269 JUMP JUMPDEST PUSH2 0x515 JUMP JUMPDEST PUSH2 0x269 JUMP JUMPDEST SWAP1 POP SWAP2 SWAP1 POP JUMP JUMPDEST PUSH1 0x0 DUP2 SWAP1 POP SWAP2 SWAP1 POP JUMP JUMPDEST PUSH2 0x554 DUP4 PUSH2 0x51F JUMP JUMPDEST PUSH2 0x568 PUSH2 0x560 DUP3 PUSH2 0x541 JUMP JUMPDEST DUP5 DUP5 SLOAD PUSH2 0x4C3 JUMP JUMPDEST DUP3 SSTORE POP POP POP POP JUMP JUMPDEST PUSH1 0x0 SWAP1 JUMP JUMPDEST PUSH2 0x57D PUSH2 0x570 JUMP JUMPDEST PUSH2 0x588 DUP2 DUP5 DUP5 PUSH2 0x54B JUMP JUMPDEST POP POP POP JUMP JUMPDEST JUMPDEST DUP2 DUP2 LT ISZERO PUSH2 0x5AC JUMPI PUSH2 0x5A1 PUSH1 0x0 DUP3 PUSH2 0x575 JUMP JUMPDEST PUSH1 0x1 DUP2 ADD SWAP1 POP PUSH2 0x58E JUMP JUMPDEST POP POP JUMP JUMPDEST PUSH1 0x1F DUP3 GT ISZERO PUSH2 0x5F1 JUMPI PUSH2 0x5C2 DUP2 PUSH2 0x491 JUMP JUMPDEST PUSH2 0x5CB DUP5 PUSH2 0x4A6 JUMP JUMPDEST DUP2 ADD PUSH1 0x20 DUP6 LT ISZERO PUSH2 0x5DA JUMPI DUP2 SWAP1 POP JUMPDEST PUSH2 0x5EE PUSH2 0x5E6 DUP6 PUSH2 0x4A6 JUMP JUMPDEST DUP4 ADD DUP3 PUSH2 0x58D JUMP JUMPDEST POP POP JUMPDEST POP POP POP JUMP JUMPDEST PUSH1 0x0 DUP3 DUP3 SHR SWAP1 POP SWAP3 SWAP2 POP POP JUMP JUMPDEST PUSH1 0x0 PUSH2 0x614 PUSH1 0x0 NOT DUP5 PUSH1 0x8 MUL PUSH2 0x5F6 JUMP JUMPDEST NOT DUP1 DUP4 AND SWAP2 POP POP SWAP3 SWAP2 POP POP JUMP JUMPDEST PUSH1 0x0 PUSH2 0x62D DUP4 DUP4 PUSH2 0x603 JUMP JUMPDEST SWAP2 POP DUP3 PUSH1 0x2 MUL DUP3 OR SWAP1 POP SWAP3 SWAP2 POP POP JUMP JUMPDEST PUSH2 0x647 DUP4 DUP4 PUSH2 0x457 JUMP JUMPDEST PUSH8 0xFFFFFFFFFFFFFFFF DUP2 GT ISZERO PUSH2 0x660 JUMPI PUSH2 0x65F PUSH2 0x462 JUMP JUMPDEST JUMPDEST PUSH2 0x66A DUP3 SLOAD PUSH2 0x426 JUMP JUMPDEST PUSH2 0x675 DUP3 DUP3 DUP6 PUSH2 0x5B0 JUMP JUMPDEST PUSH1 0x0 PUSH1 0x1F DUP4 GT PUSH1 0x1 DUP2 EQ PUSH2 0x6A4 JUMPI PUSH1 0x0 DUP5 ISZERO PUSH2 0x692 JUMPI DUP3 DUP8 ADD CALLDATALOAD SWAP1 POP JUMPDEST PUSH2 0x69C DUP6 DUP3 PUSH2 0x621 JUMP JUMPDEST DUP7 SSTORE POP PUSH2 0x704 JUMP JUMPDEST PUSH1 0x1F NOT DUP5 AND PUSH2 0x6B2 DUP7 PUSH2 0x491 JUMP JUMPDEST PUSH1 0x0 JUMPDEST DUP3 DUP2 LT ISZERO PUSH2 0x6DA JUMPI DUP5 DUP10 ADD CALLDATALOAD DUP3 SSTORE PUSH1 0x1 DUP3 ADD SWAP2 POP PUSH1 0x20 DUP6 ADD SWAP5 POP PUSH1 0x20 DUP2 ADD SWAP1 POP PUSH2 0x6B5 JUMP JUMPDEST DUP7 DUP4 LT ISZERO PUSH2 0x6F7 JUMPI DUP5 DUP10 ADD CALLDATALOAD PUSH2 0x6F3 PUSH1 0x1F DUP10 AND DUP3 PUSH2 0x603 JUMP JUMPDEST DUP4 SSTORE POP JUMPDEST PUSH1 0x1 PUSH1 0x2 DUP9 MUL ADD DUP9 SSTORE POP POP POP JUMPDEST POP POP POP POP POP POP POP JUMP INVALID LOG2 PUSH5 0x6970667358 0x22 SLT KECCAK256 PUSH9 0x130C67CAEC57C229D8 PUSH5 0xA329907FC4 PUSH12 0xC71F28E0B84101B9792388A1 DUP1 DELEGATECALL XOR PUSH5 0x736F6C6343 STOP ADDMOD SLT STOP CALLER "
		},
		"gasEstimates": {
			"creation": {
				"codeDepositCost": "371800",
				"executionCost": "411",
				"totalCost": "372211"
			},
			"external": {
				"initial(string,string,uint256)": "infinite",
				"person()": "infinite"
			}
		},
		"methodIdentifiers": {
			"initial(string,string,uint256)": "ef46b77c",
			"person()": "77ec2b55"
		}
	},
	"abi": [
		{
			"inputs": [
				{
					"internalType": "string",
					"name": "name",
					"type": "string"
				},
				{
					"internalType": "string",
					"name": "gender",
					"type": "string"
				},
				{
					"internalType": "uint256",
					"name": "age",
					"type": "uint256"
				}
			],
			"name": "initial",
			"outputs": [],
			"stateMutability": "nonpayable",
			"type": "function"
		},
		{
			"inputs": [],
			"name": "person",
			"outputs": [
				{
					"internalType": "string",
					"name": "name",
					"type": "string"
				},
				{
					"internalType": "string",
					"name": "gender",
					"type": "string"
				},
				{
					"internalType": "uint256",
					"name": "age",
					"type": "uint256"
				}
			],
			"stateMutability": "view",
			"type": "function"
		}
	]
}